{
  "_format": "hh-sol-artifact-1",
  "contractName": "Market",
  "sourceName": "contracts/MarketTracker.sol",
  "abi": [
    {
      "inputs": [
        {
          "internalType": "string",
          "name": "_marketName",
          "type": "string"
        },
        {
          "internalType": "address",
          "name": "_factoryAddress",
          "type": "address"
        },
        {
          "internalType": "address",
          "name": "_owner",
          "type": "address"
        },
        {
          "internalType": "string[2]",
          "name": "_side",
          "type": "string[2]"
        },
        {
          "internalType": "uint256",
          "name": "_resultDate",
          "type": "uint256"
        }
      ],
      "stateMutability": "nonpayable",
      "type": "constructor"
    },
    {
      "anonymous": false,
      "inputs": [
        {
          "indexed": false,
          "internalType": "address",
          "name": "buyer",
          "type": "address"
        },
        {
          "indexed": false,
          "internalType": "address",
          "name": "seller",
          "type": "address"
        },
        {
          "indexed": false,
          "internalType": "uint256",
          "name": "amount",
          "type": "uint256"
        }
      ],
      "name": "Transaction",
      "type": "event"
    },
    {
      "inputs": [],
      "name": "N_Tokens",
      "outputs": [
        {
          "internalType": "uint256",
          "name": "",
          "type": "uint256"
        }
      ],
      "stateMutability": "view",
      "type": "function"
    },
    {
      "inputs": [
        {
          "internalType": "uint256",
          "name": "",
          "type": "uint256"
        }
      ],
      "name": "Side",
      "outputs": [
        {
          "internalType": "string",
          "name": "",
          "type": "string"
        }
      ],
      "stateMutability": "view",
      "type": "function"
    },
    {
      "inputs": [],
      "name": "Y_Tokens",
      "outputs": [
        {
          "internalType": "uint256",
          "name": "",
          "type": "uint256"
        }
      ],
      "stateMutability": "view",
      "type": "function"
    },
    {
      "inputs": [
        {
          "internalType": "uint256",
          "name": "amountOfCoin",
          "type": "uint256"
        }
      ],
      "name": "buyNToken",
      "outputs": [],
      "stateMutability": "payable",
      "type": "function"
    },
    {
      "inputs": [
        {
          "internalType": "uint256",
          "name": "amountOfCoin",
          "type": "uint256"
        }
      ],
      "name": "buyYToken",
      "outputs": [],
      "stateMutability": "payable",
      "type": "function"
    },
    {
      "inputs": [],
      "name": "currentNPrice",
      "outputs": [
        {
          "internalType": "uint256",
          "name": "",
          "type": "uint256"
        }
      ],
      "stateMutability": "view",
      "type": "function"
    },
    {
      "inputs": [],
      "name": "currentYPrice",
      "outputs": [
        {
          "internalType": "uint256",
          "name": "",
          "type": "uint256"
        }
      ],
      "stateMutability": "view",
      "type": "function"
    },
    {
      "inputs": [],
      "name": "factoryAddress",
      "outputs": [
        {
          "internalType": "address",
          "name": "",
          "type": "address"
        }
      ],
      "stateMutability": "view",
      "type": "function"
    },
    {
      "inputs": [],
      "name": "getContractBalance",
      "outputs": [
        {
          "internalType": "uint256",
          "name": "",
          "type": "uint256"
        }
      ],
      "stateMutability": "view",
      "type": "function"
    },
    {
      "inputs": [],
      "name": "getFactoryAddress",
      "outputs": [
        {
          "internalType": "address",
          "name": "",
          "type": "address"
        }
      ],
      "stateMutability": "view",
      "type": "function"
    },
    {
      "inputs": [],
      "name": "getMarketName",
      "outputs": [
        {
          "internalType": "string",
          "name": "",
          "type": "string"
        }
      ],
      "stateMutability": "view",
      "type": "function"
    },
    {
      "inputs": [],
      "name": "getNPrice",
      "outputs": [
        {
          "internalType": "uint256",
          "name": "",
          "type": "uint256"
        }
      ],
      "stateMutability": "view",
      "type": "function"
    },
    {
      "inputs": [],
      "name": "getNTokens",
      "outputs": [
        {
          "internalType": "uint256",
          "name": "",
          "type": "uint256"
        }
      ],
      "stateMutability": "view",
      "type": "function"
    },
    {
      "inputs": [],
      "name": "getOwnerAddress",
      "outputs": [
        {
          "internalType": "address",
          "name": "",
          "type": "address"
        }
      ],
      "stateMutability": "view",
      "type": "function"
    },
    {
      "inputs": [],
      "name": "getResultDate",
      "outputs": [
        {
          "internalType": "uint256",
          "name": "",
          "type": "uint256"
        }
      ],
      "stateMutability": "view",
      "type": "function"
    },
    {
      "inputs": [],
      "name": "getSide",
      "outputs": [
        {
          "internalType": "string[2]",
          "name": "",
          "type": "string[2]"
        }
      ],
      "stateMutability": "view",
      "type": "function"
    },
    {
      "inputs": [],
      "name": "getUserNTokens",
      "outputs": [
        {
          "internalType": "uint256",
          "name": "",
          "type": "uint256"
        }
      ],
      "stateMutability": "view",
      "type": "function"
    },
    {
      "inputs": [],
      "name": "getUserYTokens",
      "outputs": [
        {
          "internalType": "uint256",
          "name": "",
          "type": "uint256"
        }
      ],
      "stateMutability": "view",
      "type": "function"
    },
    {
      "inputs": [],
      "name": "getWinner",
      "outputs": [
        {
          "internalType": "uint8",
          "name": "",
          "type": "uint8"
        }
      ],
      "stateMutability": "view",
      "type": "function"
    },
    {
      "inputs": [],
      "name": "getWinningsPerToken",
      "outputs": [
        {
          "internalType": "uint256",
          "name": "",
          "type": "uint256"
        }
      ],
      "stateMutability": "view",
      "type": "function"
    },
    {
      "inputs": [],
      "name": "getYPrice",
      "outputs": [
        {
          "internalType": "uint256",
          "name": "",
          "type": "uint256"
        }
      ],
      "stateMutability": "view",
      "type": "function"
    },
    {
      "inputs": [],
      "name": "getYTokens",
      "outputs": [
        {
          "internalType": "uint256",
          "name": "",
          "type": "uint256"
        }
      ],
      "stateMutability": "view",
      "type": "function"
    },
    {
      "inputs": [],
      "name": "loser",
      "outputs": [
        {
          "internalType": "uint8",
          "name": "",
          "type": "uint8"
        }
      ],
      "stateMutability": "view",
      "type": "function"
    },
    {
      "inputs": [],
      "name": "marketName",
      "outputs": [
        {
          "internalType": "string",
          "name": "",
          "type": "string"
        }
      ],
      "stateMutability": "view",
      "type": "function"
    },
    {
      "inputs": [],
      "name": "maxPrice",
      "outputs": [
        {
          "internalType": "uint256",
          "name": "",
          "type": "uint256"
        }
      ],
      "stateMutability": "view",
      "type": "function"
    },
    {
      "inputs": [],
      "name": "oracleDecided",
      "outputs": [
        {
          "internalType": "bool",
          "name": "",
          "type": "bool"
        }
      ],
      "stateMutability": "view",
      "type": "function"
    },
    {
      "inputs": [],
      "name": "owner",
      "outputs": [
        {
          "internalType": "address",
          "name": "",
          "type": "address"
        }
      ],
      "stateMutability": "view",
      "type": "function"
    },
    {
      "inputs": [],
      "name": "resultDate",
      "outputs": [
        {
          "internalType": "uint256",
          "name": "",
          "type": "uint256"
        }
      ],
      "stateMutability": "view",
      "type": "function"
    },
    {
      "inputs": [
        {
          "internalType": "uint256",
          "name": "amountOfCoin",
          "type": "uint256"
        }
      ],
      "name": "sellNToken",
      "outputs": [],
      "stateMutability": "payable",
      "type": "function"
    },
    {
      "inputs": [
        {
          "internalType": "uint256",
          "name": "amountOfCoin",
          "type": "uint256"
        }
      ],
      "name": "sellYToken",
      "outputs": [],
      "stateMutability": "payable",
      "type": "function"
    },
    {
      "inputs": [
        {
          "internalType": "uint8",
          "name": "_winner",
          "type": "uint8"
        },
        {
          "internalType": "uint8",
          "name": "_loser",
          "type": "uint8"
        }
      ],
      "name": "setWinningBet",
      "outputs": [],
      "stateMutability": "nonpayable",
      "type": "function"
    },
    {
      "inputs": [
        {
          "internalType": "address",
          "name": "",
          "type": "address"
        },
        {
          "internalType": "uint256",
          "name": "",
          "type": "uint256"
        }
      ],
      "name": "tokensPerGambler",
      "outputs": [
        {
          "internalType": "uint256",
          "name": "",
          "type": "uint256"
        }
      ],
      "stateMutability": "view",
      "type": "function"
    },
    {
      "inputs": [],
      "name": "winner",
      "outputs": [
        {
          "internalType": "uint8",
          "name": "",
          "type": "uint8"
        }
      ],
      "stateMutability": "view",
      "type": "function"
    },
    {
      "inputs": [],
      "name": "winningsPerToken",
      "outputs": [
        {
          "internalType": "uint256",
          "name": "",
          "type": "uint256"
        }
      ],
      "stateMutability": "view",
      "type": "function"
    },
    {
      "inputs": [],
      "name": "withdrawGains",
      "outputs": [],
      "stateMutability": "payable",
      "type": "function"
    }
  ],
  "bytecode": "0x6080604052670de0b6b3a7640000600b553480156200001d57600080fd5b5060405162003c5f38038062003c5f833981810160405281019062000043919062000471565b84600090805190602001906200005b929190620001d3565b508160019060026200006f92919062000264565b5083600460006101000a81548173ffffffffffffffffffffffffffffffffffffffff021916908373ffffffffffffffffffffffffffffffffffffffff16021790555082600560006101000a81548173ffffffffffffffffffffffffffffffffffffffff021916908373ffffffffffffffffffffffffffffffffffffffff160217905550600060068190555060006007819055508060088190555060016006546200011a9190620005b5565b60026007546006546200012e9190620005b5565b6200013a9190620005b5565b600b5462000149919062000612565b6200015591906200064a565b60098190555060016007546200016c9190620005b5565b6002600754600654620001809190620005b5565b6200018c9190620005b5565b600b546200019b919062000612565b620001a791906200064a565b600a819055506000600c60026101000a81548160ff021916908315150217905550505050505062000845565b828054620001e1906200071f565b90600052602060002090601f01602090048101928262000205576000855562000251565b82601f106200022057805160ff191683800117855562000251565b8280016001018555821562000251579182015b828111156200025057825182559160200191906001019062000233565b5b509050620002609190620002be565b5090565b8260028101928215620002ab579160200282015b82811115620002aa57825182908051906020019062000299929190620001d3565b509160200191906001019062000278565b5b509050620002ba9190620002dd565b5090565b5b80821115620002d9576000816000905550600101620002bf565b5090565b5b80821115620003015760008181620002f7919062000305565b50600101620002de565b5090565b50805462000313906200071f565b6000825580601f1062000327575062000348565b601f016020900490600052602060002090810190620003479190620002be565b5b50565b6000620003626200035c8462000559565b62000525565b9050808260005b858110156200039d57815185016200038288826200042d565b84526020840193506020830192505060018101905062000369565b5050509392505050565b6000620003be620003b88462000582565b62000525565b905082815260208101848484011115620003d757600080fd5b620003e4848285620006e9565b509392505050565b600081519050620003fd8162000811565b92915050565b600082601f8301126200041557600080fd5b6002620004248482856200034b565b91505092915050565b600082601f8301126200043f57600080fd5b815162000451848260208601620003a7565b91505092915050565b6000815190506200046b816200082b565b92915050565b600080600080600060a086880312156200048a57600080fd5b600086015167ffffffffffffffff811115620004a557600080fd5b620004b3888289016200042d565b9550506020620004c688828901620003ec565b9450506040620004d988828901620003ec565b935050606086015167ffffffffffffffff811115620004f757600080fd5b620005058882890162000403565b925050608062000518888289016200045a565b9150509295509295909350565b6000604051905081810181811067ffffffffffffffff821117156200054f576200054e620007e2565b5b8060405250919050565b600067ffffffffffffffff821115620005775762000576620007e2565b5b602082029050919050565b600067ffffffffffffffff821115620005a0576200059f620007e2565b5b601f19601f8301169050602081019050919050565b6000620005c282620006df565b9150620005cf83620006df565b9250827fffffffffffffffffffffffffffffffffffffffffffffffffffffffffffffffff0382111562000607576200060662000755565b5b828201905092915050565b60006200061f82620006df565b91506200062c83620006df565b9250826200063f576200063e62000784565b5b828204905092915050565b60006200065782620006df565b91506200066483620006df565b9250817fffffffffffffffffffffffffffffffffffffffffffffffffffffffffffffffff0483118215151615620006a0576200069f62000755565b5b828202905092915050565b6000620006b882620006bf565b9050919050565b600073ffffffffffffffffffffffffffffffffffffffff82169050919050565b6000819050919050565b60005b8381101562000709578082015181840152602081019050620006ec565b8381111562000719576000848401525b50505050565b600060028204905060018216806200073857607f821691505b602082108114156200074f576200074e620007b3565b5b50919050565b7f4e487b7100000000000000000000000000000000000000000000000000000000600052601160045260246000fd5b7f4e487b7100000000000000000000000000000000000000000000000000000000600052601260045260246000fd5b7f4e487b7100000000000000000000000000000000000000000000000000000000600052602260045260246000fd5b7f4e487b7100000000000000000000000000000000000000000000000000000000600052604160045260246000fd5b6200081c81620006ab565b81146200082857600080fd5b50565b6200083681620006df565b81146200084257600080fd5b50565b61340a80620008556000396000f3fe608060405260043610620002365760003560e01c80639040a9491162000133578063c831c1db11620000af578063dfbf53ae1162000079578063dfbf53ae146200079d578063e38d6b5c14620007cd578063e6bfd26a14620007fd578063e82898b3146200082d578063ead5a40d146200085d5762000236565b8063c831c1db14620006dd578063d7654099146200070d578063dbd1a50e146200073d578063dde892ba146200076d5762000236565b8063a9c2e36c11620000fd578063a9c2e36c14620005fd578063b9426a43146200062d578063bbafcff0146200064d578063bd0198f0146200067d578063c291c58d14620006ad5762000236565b80639040a949146200054d578063966dae0e146200057d57806397545f2914620005ad578063a6e9e71e14620005dd5762000236565b806350d51ebd11620001c35780636f9fb98a116200018d5780636f9fb98a146200046d5780637e1bced8146200049d5780638a2836c514620004bd5780638da5cb5b14620004ed5780638e7ea5b2146200051d5762000236565b806350d51ebd146200039b57806351d19a2914620003df578063603d55d7146200040f57806369fdbf85146200043f5762000236565b806323459dba116200020557806323459dba146200030f5780632a33030f146200033f5780633aca0407146200036f578063483f0219146200038f5762000236565b80630c4f65bd146200023b5780630d75f3b7146200026b5780631f67c80b146200029b5780632002dff914620002df575b600080fd5b3480156200024857600080fd5b50620002536200088d565b60405162000262919062002592565b60405180910390f35b3480156200027857600080fd5b5062000283620008b7565b6040516200029291906200280d565b60405180910390f35b348015620002a857600080fd5b50620002c76004803603810190620002c19190620020fd565b620008c1565b604051620002d691906200260d565b60405180910390f35b348015620002ec57600080fd5b50620002f76200096d565b6040516200030691906200280d565b60405180910390f35b3480156200031c57600080fd5b506200032762000977565b6040516200033691906200280d565b60405180910390f35b3480156200034c57600080fd5b50620003576200097d565b6040516200036691906200280d565b60405180910390f35b6200038d6004803603810190620003879190620020fd565b620009d6565b005b6200039962000d4a565b005b348015620003a857600080fd5b50620003c76004803603810190620003c1919062002077565b620010c9565b604051620003d691906200280d565b60405180910390f35b348015620003ec57600080fd5b50620003f7620010ee565b6040516200040691906200280d565b60405180910390f35b3480156200041c57600080fd5b5062000427620010f8565b6040516200043691906200280d565b60405180910390f35b3480156200044c57600080fd5b506200046b600480360381019062000465919062002129565b62001102565b005b3480156200047a57600080fd5b5062000485620012af565b6040516200049491906200280d565b60405180910390f35b620004bb6004803603810190620004b59190620020fd565b620012b7565b005b348015620004ca57600080fd5b50620004d562001593565b604051620004e491906200280d565b60405180910390f35b348015620004fa57600080fd5b506200050562001599565b60405162000514919062002592565b60405180910390f35b3480156200052a57600080fd5b5062000535620015bf565b6040516200054491906200282a565b60405180910390f35b3480156200055a57600080fd5b5062000565620015d6565b6040516200057491906200280d565b60405180910390f35b3480156200058a57600080fd5b5062000595620015e0565b604051620005a4919062002592565b60405180910390f35b348015620005ba57600080fd5b50620005c562001606565b604051620005d491906200280d565b60405180910390f35b620005fb6004803603810190620005f59190620020fd565b6200160c565b005b3480156200060a57600080fd5b5062000615620018e7565b60405162000624919062002592565b60405180910390f35b6200064b6004803603810190620006459190620020fd565b62001911565b005b3480156200065a57600080fd5b506200066562001c87565b6040516200067491906200280d565b60405180910390f35b3480156200068a57600080fd5b506200069562001c91565b604051620006a49190620025af565b60405180910390f35b348015620006ba57600080fd5b50620006c562001d6a565b604051620006d491906200260d565b60405180910390f35b348015620006ea57600080fd5b50620006f562001e04565b6040516200070491906200280d565b60405180910390f35b3480156200071a57600080fd5b506200072562001e0a565b604051620007349190620025d3565b60405180910390f35b3480156200074a57600080fd5b506200075562001e1d565b6040516200076491906200280d565b60405180910390f35b3480156200077a57600080fd5b506200078562001e23565b6040516200079491906200280d565b60405180910390f35b348015620007aa57600080fd5b50620007b562001e7b565b604051620007c491906200282a565b60405180910390f35b348015620007da57600080fd5b50620007e562001e8e565b604051620007f491906200280d565b60405180910390f35b3480156200080a57600080fd5b506200081562001e94565b6040516200082491906200260d565b60405180910390f35b3480156200083a57600080fd5b506200084562001f2a565b6040516200085491906200282a565b60405180910390f35b3480156200086a57600080fd5b506200087562001f3d565b6040516200088491906200280d565b60405180910390f35b6000600560009054906101000a900473ffffffffffffffffffffffffffffffffffffffff16905090565b6000600a54905090565b60018160028110620008d257600080fd5b016000915090508054620008e69062002afe565b80601f0160208091040260200160405190810160405280929190818152602001828054620009149062002afe565b8015620009655780601f10620009395761010080835404028352916020019162000965565b820191906000526020600020905b8154815290600101906020018083116200094757829003601f168201915b505050505081565b6000600954905090565b60065481565b6000600360003373ffffffffffffffffffffffffffffffffffffffff1673ffffffffffffffffffffffffffffffffffffffff16815260200190815260200160002060006001815260200190815260200160002054905090565b60001515600c60029054906101000a900460ff1615151462000a2f576040517f08c379a000000000000000000000000000000000000000000000000000000000815260040162000a26906200270e565b60405180910390fd5b80600360003373ffffffffffffffffffffffffffffffffffffffff1673ffffffffffffffffffffffffffffffffffffffff168152602001908152602001600020600080815260200190815260200160002054101562000ac5576040517f08c379a000000000000000000000000000000000000000000000000000000000815260040162000abc90620027eb565b60405180910390fd5b6000600a548262000ad7919062002999565b905060008130338560405162000aed9062001f43565b62000afc949392919062002653565b604051809103906000f08015801562000b19573d6000803e3d6000fd5b5090503373ffffffffffffffffffffffffffffffffffffffff166108fc839081150290604051600060405180830381858888f1935050505015801562000b63573d6000803e3d6000fd5b50826007600082825462000b789190620029fa565b9250508190555082600360003373ffffffffffffffffffffffffffffffffffffffff1673ffffffffffffffffffffffffffffffffffffffff1681526020019081526020016000206000808152602001908152602001600020600082825462000be19190620029fa565b92505081905550600460009054906101000a900473ffffffffffffffffffffffffffffffffffffffff1673ffffffffffffffffffffffffffffffffffffffff1663c155e4ed826040518263ffffffff1660e01b815260040162000c459190620025f0565b600060405180830381600087803b15801562000c6057600080fd5b505af115801562000c75573d6000803e3d6000fd5b505050506040513d6000823e3d601f19601f8201168201806040525081019062000ca09190620020b8565b50600160065462000cb2919062002904565b600260075460065462000cc6919062002904565b62000cd2919062002904565b600b5462000ce1919062002961565b62000ced919062002999565b600981905550600160075462000d04919062002904565b600260075460065462000d18919062002904565b62000d24919062002904565b600b5462000d33919062002961565b62000d3f919062002999565b600a81905550505050565b6000600360003373ffffffffffffffffffffffffffffffffffffffff1673ffffffffffffffffffffffffffffffffffffffff1681526020019081526020016000206000600c60009054906101000a900460ff1660ff1681526020019081526020016000205490506000811162000df7576040517f08c379a000000000000000000000000000000000000000000000000000000000815260040162000dee90620026ca565b60405180910390fd5b60011515600c60029054906101000a900460ff1615151462000e50576040517f08c379a000000000000000000000000000000000000000000000000000000000815260040162000e479062002631565b60405180910390fd5b6000600c60009054906101000a900460ff1660ff16141562000f36576000600d54600360003373ffffffffffffffffffffffffffffffffffffffff1673ffffffffffffffffffffffffffffffffffffffff16815260200190815260200160002060008081526020019081526020016000205462000ece919062002999565b90503373ffffffffffffffffffffffffffffffffffffffff166108fc829081150290604051600060405180830381858888f1935050505015801562000f17573d6000803e3d6000fd5b50670de0b6b3a7640000600a8190555060006009819055505062001019565b6001600c60009054906101000a900460ff1660ff16141562001018576000600d54600360003373ffffffffffffffffffffffffffffffffffffffff1673ffffffffffffffffffffffffffffffffffffffff1681526020019081526020016000206000600181526020019081526020016000205462000fb5919062002999565b90503373ffffffffffffffffffffffffffffffffffffffff166108fc829081150290604051600060405180830381858888f1935050505015801562000ffe573d6000803e3d6000fd5b50670de0b6b3a76400006009819055506000600a81905550505b5b6000600360003373ffffffffffffffffffffffffffffffffffffffff1673ffffffffffffffffffffffffffffffffffffffff1681526020019081526020016000206000808152602001908152602001600020819055506000600360003373ffffffffffffffffffffffffffffffffffffffff1673ffffffffffffffffffffffffffffffffffffffff1681526020019081526020016000206000600181526020019081526020016000208190555050565b6003602052816000526040600020602052806000526040600020600091509150505481565b6000600d54905090565b6000600854905090565b60001515600c60029054906101000a900460ff161515146200115b576040517f08c379a00000000000000000000000000000000000000000000000000000000081526004016200115290620027c9565b60405180910390fd5b600560009054906101000a900473ffffffffffffffffffffffffffffffffffffffff1673ffffffffffffffffffffffffffffffffffffffff163373ffffffffffffffffffffffffffffffffffffffff1614620011ee576040517f08c379a0000000000000000000000000000000000000000000000000000000008152600401620011e590620026ec565b60405180910390fd5b81600c60006101000a81548160ff021916908360ff16021790555080600c60016101000a81548160ff021916908360ff1602179055506001600c60026101000a81548160ff0219169083151502179055506001600c60009054906101000a900460ff1660ff1614156200127757600654476200126b919062002961565b600d81905550620012ab565b6000600c60009054906101000a900460ff1660ff161415620012aa5760075447620012a3919062002961565b600d819055505b5b5050565b600047905090565b60001515600c60029054906101000a900460ff1615151462001310576040517f08c379a000000000000000000000000000000000000000000000000000000000815260040162001307906200270e565b60405180910390fd5b60006009548262001322919062002999565b905080341462001369576040517f08c379a0000000000000000000000000000000000000000000000000000000008152600401620013609062002730565b60405180910390fd5b6000813330856040516200137d9062001f43565b6200138c949392919062002752565b604051809103906000f080158015620013a9573d6000803e3d6000fd5b5090508260066000828254620013c0919062002904565b9250508190555082600360003373ffffffffffffffffffffffffffffffffffffffff1673ffffffffffffffffffffffffffffffffffffffff16815260200190815260200160002060006001815260200190815260200160002060008282546200142a919062002904565b92505081905550600460009054906101000a900473ffffffffffffffffffffffffffffffffffffffff1673ffffffffffffffffffffffffffffffffffffffff1663c155e4ed826040518263ffffffff1660e01b81526004016200148e9190620025f0565b600060405180830381600087803b158015620014a957600080fd5b505af1158015620014be573d6000803e3d6000fd5b505050506040513d6000823e3d601f19601f82011682018060405250810190620014e99190620020b8565b506001600654620014fb919062002904565b60026007546006546200150f919062002904565b6200151b919062002904565b600b546200152a919062002961565b62001536919062002999565b60098190555060016007546200154d919062002904565b600260075460065462001561919062002904565b6200156d919062002904565b600b546200157c919062002961565b62001588919062002999565b600a81905550505050565b600d5481565b600560009054906101000a900473ffffffffffffffffffffffffffffffffffffffff1681565b6000600c60009054906101000a900460ff16905090565b6000600754905090565b600460009054906101000a900473ffffffffffffffffffffffffffffffffffffffff1681565b60085481565b60001515600c60029054906101000a900460ff1615151462001665576040517f08c379a00000000000000000000000000000000000000000000000000000000081526004016200165c906200270e565b60405180910390fd5b6000600a548262001677919062002999565b9050803414620016be576040517f08c379a0000000000000000000000000000000000000000000000000000000008152600401620016b59062002730565b60405180910390fd5b600081333085604051620016d29062001f43565b620016e1949392919062002752565b604051809103906000f080158015620016fe573d6000803e3d6000fd5b509050826007600082825462001715919062002904565b9250508190555082600360003373ffffffffffffffffffffffffffffffffffffffff1673ffffffffffffffffffffffffffffffffffffffff168152602001908152602001600020600080815260200190815260200160002060008282546200177e919062002904565b92505081905550600460009054906101000a900473ffffffffffffffffffffffffffffffffffffffff1673ffffffffffffffffffffffffffffffffffffffff1663c155e4ed826040518263ffffffff1660e01b8152600401620017e29190620025f0565b600060405180830381600087803b158015620017fd57600080fd5b505af115801562001812573d6000803e3d6000fd5b505050506040513d6000823e3d601f19601f820116820180604052508101906200183d9190620020b8565b5060016006546200184f919062002904565b600260075460065462001863919062002904565b6200186f919062002904565b600b546200187e919062002961565b6200188a919062002999565b6009819055506001600754620018a1919062002904565b6002600754600654620018b5919062002904565b620018c1919062002904565b600b54620018d0919062002961565b620018dc919062002999565b600a81905550505050565b6000600460009054906101000a900473ffffffffffffffffffffffffffffffffffffffff16905090565b60001515600c60029054906101000a900460ff161515146200196a576040517f08c379a000000000000000000000000000000000000000000000000000000000815260040162001961906200270e565b60405180910390fd5b80600360003373ffffffffffffffffffffffffffffffffffffffff1673ffffffffffffffffffffffffffffffffffffffff16815260200190815260200160002060006001815260200190815260200160002054101562001a01576040517f08c379a0000000000000000000000000000000000000000000000000000000008152600401620019f890620027eb565b60405180910390fd5b60006009548262001a13919062002999565b905060008130338560405162001a299062001f43565b62001a38949392919062002653565b604051809103906000f08015801562001a55573d6000803e3d6000fd5b5090503373ffffffffffffffffffffffffffffffffffffffff166108fc839081150290604051600060405180830381858888f1935050505015801562001a9f573d6000803e3d6000fd5b50826006600082825462001ab49190620029fa565b9250508190555082600360003373ffffffffffffffffffffffffffffffffffffffff1673ffffffffffffffffffffffffffffffffffffffff168152602001908152602001600020600060018152602001908152602001600020600082825462001b1e9190620029fa565b92505081905550600460009054906101000a900473ffffffffffffffffffffffffffffffffffffffff1673ffffffffffffffffffffffffffffffffffffffff1663c155e4ed826040518263ffffffff1660e01b815260040162001b829190620025f0565b600060405180830381600087803b15801562001b9d57600080fd5b505af115801562001bb2573d6000803e3d6000fd5b505050506040513d6000823e3d601f19601f8201168201806040525081019062001bdd9190620020b8565b50600160065462001bef919062002904565b600260075460065462001c03919062002904565b62001c0f919062002904565b600b5462001c1e919062002961565b62001c2a919062002999565b600981905550600160075462001c41919062002904565b600260075460065462001c55919062002904565b62001c61919062002904565b600b5462001c70919062002961565b62001c7c919062002999565b600a81905550505050565b6000600654905090565b62001c9b62001f51565b6001600280602002604051908101604052809291906000905b8282101562001d6157838201805462001ccd9062002afe565b80601f016020809104026020016040519081016040528092919081815260200182805462001cfb9062002afe565b801562001d4c5780601f1062001d205761010080835404028352916020019162001d4c565b820191906000526020600020905b81548152906001019060200180831162001d2e57829003601f168201915b50505050508152602001906001019062001cb4565b50505050905090565b60606000805462001d7b9062002afe565b80601f016020809104026020016040519081016040528092919081815260200182805462001da99062002afe565b801562001dfa5780601f1062001dce5761010080835404028352916020019162001dfa565b820191906000526020600020905b81548152906001019060200180831162001ddc57829003601f168201915b5050505050905090565b600a5481565b600c60029054906101000a900460ff1681565b60095481565b6000600360003373ffffffffffffffffffffffffffffffffffffffff1673ffffffffffffffffffffffffffffffffffffffff168152602001908152602001600020600080815260200190815260200160002054905090565b600c60009054906101000a900460ff1681565b600b5481565b6000805462001ea39062002afe565b80601f016020809104026020016040519081016040528092919081815260200182805462001ed19062002afe565b801562001f225780601f1062001ef65761010080835404028352916020019162001f22565b820191906000526020600020905b81548152906001019060200180831162001f0457829003601f168201915b505050505081565b600c60019054906101000a900460ff1681565b60075481565b61076b8062002c6a83390190565b60405180604001604052806002905b606081526020019060019003908162001f605790505090565b600062001f9062001f8a846200287b565b62002847565b9050808382526020820190508285602086028201111562001fb057600080fd5b60005b8581101562001fe4578162001fc9888262002032565b84526020840193506020830192505060018101905062001fb3565b5050509392505050565b60008135905062001fff8162002c01565b92915050565b600082601f8301126200201757600080fd5b81516200202984826020860162001f79565b91505092915050565b600081519050620020438162002c1b565b92915050565b6000813590506200205a8162002c35565b92915050565b600081359050620020718162002c4f565b92915050565b600080604083850312156200208b57600080fd5b60006200209b8582860162001fee565b9250506020620020ae8582860162002049565b9150509250929050565b600060208284031215620020cb57600080fd5b600082015167ffffffffffffffff811115620020e657600080fd5b620020f48482850162002005565b91505092915050565b6000602082840312156200211057600080fd5b6000620021208482850162002049565b91505092915050565b600080604083850312156200213d57600080fd5b60006200214d8582860162002060565b9250506020620021608582860162002060565b9150509250929050565b600062002178838362002234565b905092915050565b6200218b8162002a35565b82525050565b60006200219e82620028b4565b620021aa8185620028d7565b935083602082028501620021be85620028aa565b8060005b85811015620022005784840389528151620021de85826200216a565b9450620021eb83620028ca565b925060208a01995050600181019050620021c2565b50829750879550505050505092915050565b6200221d8162002a49565b82525050565b6200222e8162002aa0565b82525050565b60006200224182620028bf565b6200224d8185620028e2565b93506200225f81856020860162002ac8565b6200226a8162002bf0565b840191505092915050565b60006200228282620028bf565b6200228e8185620028f3565b9350620022a081856020860162002ac8565b620022ab8162002bf0565b840191505092915050565b6000620022c5601983620028f3565b91507f4265742068617665206e6f742066696e697368656420796574000000000000006000830152602082019050919050565b600062002307600483620028f3565b91507f53656c6c000000000000000000000000000000000000000000000000000000006000830152602082019050919050565b600062002349601f83620028f3565b91507f596f7520646f206e6f74206861766520616e792077696e6e696e6720626574006000830152602082019050919050565b60006200238b602783620028f3565b91507f596f7520646f206e6f7420686176652061636365737320746f2074686973206660008301527f756e6374696f6e000000000000000000000000000000000000000000000000006020830152604082019050919050565b6000620023f3601a83620028f3565b91507f4f7261636c6520686173206465636964656420616c72656164790000000000006000830152602082019050919050565b600062002435602f83620028f3565b91507f596f75206e65656420746f207061737320696e2074686520636f72726563742060008301527f616d6f756e74206f6620657468657200000000000000000000000000000000006020830152604082019050919050565b60006200249d600383620028f3565b91507f42757900000000000000000000000000000000000000000000000000000000006000830152602082019050919050565b6000620024df601783620028f3565b91507f596f75206861766520616c72656164792063686f73656e0000000000000000006000830152602082019050919050565b600062002521600083620028f3565b9150600082019050919050565b60006200253d601283620028f3565b91507f4e6f7420456e6f75676820546f6b656e732100000000000000000000000000006000830152602082019050919050565b6200257b8162002a89565b82525050565b6200258c8162002a93565b82525050565b6000602082019050620025a9600083018462002180565b92915050565b60006020820190508181036000830152620025cb818462002191565b905092915050565b6000602082019050620025ea600083018462002212565b92915050565b600060208201905062002607600083018462002223565b92915050565b6000602082019050818103600083015262002629818462002275565b905092915050565b600060208201905081810360008301526200264c81620022b6565b9050919050565b600060c08201905081810360008301526200266e81620022f8565b90506200267f602083018762002570565b6200268e604083018662002180565b6200269d606083018562002180565b8181036080830152620026b08162002512565b9050620026c160a083018462002570565b95945050505050565b60006020820190508181036000830152620026e5816200233a565b9050919050565b6000602082019050818103600083015262002707816200237c565b9050919050565b600060208201905081810360008301526200272981620023e4565b9050919050565b600060208201905081810360008301526200274b8162002426565b9050919050565b600060c08201905081810360008301526200276d816200248e565b90506200277e602083018762002570565b6200278d604083018662002180565b6200279c606083018562002180565b8181036080830152620027af8162002512565b9050620027c060a083018462002570565b95945050505050565b60006020820190508181036000830152620027e481620024d0565b9050919050565b6000602082019050818103600083015262002806816200252e565b9050919050565b600060208201905062002824600083018462002570565b92915050565b600060208201905062002841600083018462002581565b92915050565b6000604051905081810181811067ffffffffffffffff8211171562002871576200287062002bc1565b5b8060405250919050565b600067ffffffffffffffff82111562002899576200289862002bc1565b5b602082029050602081019050919050565b6000819050919050565b600060029050919050565b600081519050919050565b6000602082019050919050565b600081905092915050565b600082825260208201905092915050565b600082825260208201905092915050565b6000620029118262002a89565b91506200291e8362002a89565b9250827fffffffffffffffffffffffffffffffffffffffffffffffffffffffffffffffff0382111562002956576200295562002b34565b5b828201905092915050565b60006200296e8262002a89565b91506200297b8362002a89565b9250826200298e576200298d62002b63565b5b828204905092915050565b6000620029a68262002a89565b9150620029b38362002a89565b9250817fffffffffffffffffffffffffffffffffffffffffffffffffffffffffffffffff0483118215151615620029ef57620029ee62002b34565b5b828202905092915050565b600062002a078262002a89565b915062002a148362002a89565b92508282101562002a2a5762002a2962002b34565b5b828203905092915050565b600062002a428262002a69565b9050919050565b60008115159050919050565b600062002a628262002a35565b9050919050565b600073ffffffffffffffffffffffffffffffffffffffff82169050919050565b6000819050919050565b600060ff82169050919050565b600062002aad8262002ab4565b9050919050565b600062002ac18262002a69565b9050919050565b60005b8381101562002ae857808201518184015260208101905062002acb565b8381111562002af8576000848401525b50505050565b6000600282049050600182168062002b1757607f821691505b6020821081141562002b2e5762002b2d62002b92565b5b50919050565b7f4e487b7100000000000000000000000000000000000000000000000000000000600052601160045260246000fd5b7f4e487b7100000000000000000000000000000000000000000000000000000000600052601260045260246000fd5b7f4e487b7100000000000000000000000000000000000000000000000000000000600052602260045260246000fd5b7f4e487b7100000000000000000000000000000000000000000000000000000000600052604160045260246000fd5b6000601f19601f8301169050919050565b62002c0c8162002a35565b811462002c1857600080fd5b50565b62002c268162002a55565b811462002c3257600080fd5b50565b62002c408162002a89565b811462002c4c57600080fd5b50565b62002c5a8162002a93565b811462002c6657600080fd5b5056fe608060405234801561001057600080fd5b5060405161076b38038061076b83398181016040528101906100329190610230565b85600090805190602001906100489291906100fb565b508460018190555083600260006101000a81548173ffffffffffffffffffffffffffffffffffffffff021916908373ffffffffffffffffffffffffffffffffffffffff16021790555082600360006101000a81548173ffffffffffffffffffffffffffffffffffffffff021916908373ffffffffffffffffffffffffffffffffffffffff16021790555081600490805190602001906100e89291906100fb565b5080600581905550505050505050610477565b828054610107906103b9565b90600052602060002090601f0160209004810192826101295760008555610170565b82601f1061014257805160ff1916838001178555610170565b82800160010185558215610170579182015b8281111561016f578251825591602001919060010190610154565b5b50905061017d9190610181565b5090565b5b8082111561019a576000816000905550600101610182565b5090565b60006101b16101ac8461031a565b6102e9565b9050828152602081018484840111156101c957600080fd5b6101d4848285610386565b509392505050565b6000815190506101eb81610449565b92915050565b600082601f83011261020257600080fd5b815161021284826020860161019e565b91505092915050565b60008151905061022a81610460565b92915050565b60008060008060008060c0878903121561024957600080fd5b600087015167ffffffffffffffff81111561026357600080fd5b61026f89828a016101f1565b965050602061028089828a0161021b565b955050604061029189828a016101dc565b94505060606102a289828a016101dc565b935050608087015167ffffffffffffffff8111156102bf57600080fd5b6102cb89828a016101f1565b92505060a06102dc89828a0161021b565b9150509295509295509295565b6000604051905081810181811067ffffffffffffffff821117156103105761030f61041a565b5b8060405250919050565b600067ffffffffffffffff8211156103355761033461041a565b5b601f19601f8301169050602081019050919050565b60006103558261035c565b9050919050565b600073ffffffffffffffffffffffffffffffffffffffff82169050919050565b6000819050919050565b60005b838110156103a4578082015181840152602081019050610389565b838111156103b3576000848401525b50505050565b600060028204905060018216806103d157607f821691505b602082108114156103e5576103e46103eb565b5b50919050565b7f4e487b7100000000000000000000000000000000000000000000000000000000600052602260045260246000fd5b7f4e487b7100000000000000000000000000000000000000000000000000000000600052604160045260246000fd5b6104528161034a565b811461045d57600080fd5b50565b6104698161037c565b811461047457600080fd5b50565b6102e5806104866000396000f3fe608060405234801561001057600080fd5b50600436106100365760003560e01c8063524ecd141461003b578063861a844d14610059575b600080fd5b610043610077565b60405161005091906101cc565b60405180910390f35b610061610105565b60405161006e91906101cc565b60405180910390f35b600480546100849061023d565b80601f01602080910402602001604051908101604052809291908181526020018280546100b09061023d565b80156100fd5780601f106100d2576101008083540402835291602001916100fd565b820191906000526020600020905b8154815290600101906020018083116100e057829003601f168201915b505050505081565b600080546101129061023d565b80601f016020809104026020016040519081016040528092919081815260200182805461013e9061023d565b801561018b5780601f106101605761010080835404028352916020019161018b565b820191906000526020600020905b81548152906001019060200180831161016e57829003601f168201915b505050505081565b600061019e826101ee565b6101a881856101f9565b93506101b881856020860161020a565b6101c18161029e565b840191505092915050565b600060208201905081810360008301526101e68184610193565b905092915050565b600081519050919050565b600082825260208201905092915050565b60005b8381101561022857808201518184015260208101905061020d565b83811115610237576000848401525b50505050565b6000600282049050600182168061025557607f821691505b602082108114156102695761026861026f565b5b50919050565b7f4e487b7100000000000000000000000000000000000000000000000000000000600052602260045260246000fd5b6000601f19601f830116905091905056fea2646970667358221220fbebd5e082aaba86f1401a6c80cbc2ae291d39023c4cd3ec26a0e3ce94b38bcd64736f6c63430008000033a26469706673582212207087b41126544ab2db442eb7ae3c3ca1414f65ad9f1b7d9213d85f881d5b3e0e64736f6c63430008000033",
  "linkReferences": {},
  "deployedLinkReferences": {}
}