{
  "_format": "hh-sol-artifact-1",
  "contractName": "Market",
  "sourceName": "contracts/MarketTracker.sol",
  "abi": [
    {
      "inputs": [
        {
          "internalType": "string",
          "name": "_marketName",
          "type": "string"
        },
        {
          "internalType": "address",
          "name": "_factoryAddress",
          "type": "address"
        },
        {
          "internalType": "address",
          "name": "_owner",
          "type": "address"
        },
        {
          "internalType": "string[2]",
          "name": "_side",
          "type": "string[2]"
        },
        {
          "internalType": "uint256",
          "name": "_resultDate",
          "type": "uint256"
        }
      ],
      "stateMutability": "nonpayable",
      "type": "constructor"
    },
    {
      "anonymous": false,
      "inputs": [
        {
          "indexed": false,
          "internalType": "address",
          "name": "buyer",
          "type": "address"
        },
        {
          "indexed": false,
          "internalType": "address",
          "name": "seller",
          "type": "address"
        },
        {
          "indexed": false,
          "internalType": "uint256",
          "name": "amount",
          "type": "uint256"
        }
      ],
      "name": "Transaction",
      "type": "event"
    },
    {
      "inputs": [],
      "name": "N_Tokens",
      "outputs": [
        {
          "internalType": "uint256",
          "name": "",
          "type": "uint256"
        }
      ],
      "stateMutability": "view",
      "type": "function"
    },
    {
      "inputs": [
        {
          "internalType": "uint256",
          "name": "",
          "type": "uint256"
        }
      ],
      "name": "Side",
      "outputs": [
        {
          "internalType": "string",
          "name": "",
          "type": "string"
        }
      ],
      "stateMutability": "view",
      "type": "function"
    },
    {
      "inputs": [],
      "name": "Y_Tokens",
      "outputs": [
        {
          "internalType": "uint256",
          "name": "",
          "type": "uint256"
        }
      ],
      "stateMutability": "view",
      "type": "function"
    },
    {
      "inputs": [
        {
          "internalType": "address",
          "name": "buyer",
          "type": "address"
        },
        {
          "internalType": "address",
          "name": "seller",
          "type": "address"
        },
        {
          "internalType": "uint256",
          "name": "amount",
          "type": "uint256"
        },
        {
          "internalType": "contract Transactions",
          "name": "transaction",
          "type": "address"
        }
      ],
      "name": "addTransactions",
      "outputs": [],
      "stateMutability": "nonpayable",
      "type": "function"
    },
    {
      "inputs": [
        {
          "internalType": "uint256",
          "name": "amountOfCoin",
          "type": "uint256"
        }
      ],
      "name": "buyNToken",
      "outputs": [],
      "stateMutability": "payable",
      "type": "function"
    },
    {
      "inputs": [
        {
          "internalType": "uint256",
          "name": "amountOfCoin",
          "type": "uint256"
        }
      ],
      "name": "buyYToken",
      "outputs": [],
      "stateMutability": "payable",
      "type": "function"
    },
    {
      "inputs": [],
      "name": "currentNPrice",
      "outputs": [
        {
          "internalType": "uint256",
          "name": "",
          "type": "uint256"
        }
      ],
      "stateMutability": "view",
      "type": "function"
    },
    {
      "inputs": [],
      "name": "currentYPrice",
      "outputs": [
        {
          "internalType": "uint256",
          "name": "",
          "type": "uint256"
        }
      ],
      "stateMutability": "view",
      "type": "function"
    },
    {
      "inputs": [],
      "name": "factoryAddress",
      "outputs": [
        {
          "internalType": "address",
          "name": "",
          "type": "address"
        }
      ],
      "stateMutability": "view",
      "type": "function"
    },
    {
      "inputs": [],
      "name": "getContractBalance",
      "outputs": [
        {
          "internalType": "uint256",
          "name": "",
          "type": "uint256"
        }
      ],
      "stateMutability": "view",
      "type": "function"
    },
    {
      "inputs": [],
      "name": "getFactoryAddress",
      "outputs": [
        {
          "internalType": "address",
          "name": "",
          "type": "address"
        }
      ],
      "stateMutability": "view",
      "type": "function"
    },
    {
      "inputs": [],
      "name": "getMarketName",
      "outputs": [
        {
          "internalType": "string",
          "name": "",
          "type": "string"
        }
      ],
      "stateMutability": "view",
      "type": "function"
    },
    {
      "inputs": [],
      "name": "getNPrice",
      "outputs": [
        {
          "internalType": "uint256",
          "name": "",
          "type": "uint256"
        }
      ],
      "stateMutability": "view",
      "type": "function"
    },
    {
      "inputs": [],
      "name": "getNTokens",
      "outputs": [
        {
          "internalType": "uint256",
          "name": "",
          "type": "uint256"
        }
      ],
      "stateMutability": "view",
      "type": "function"
    },
    {
      "inputs": [],
      "name": "getOwnerAddress",
      "outputs": [
        {
          "internalType": "address",
          "name": "",
          "type": "address"
        }
      ],
      "stateMutability": "view",
      "type": "function"
    },
    {
      "inputs": [],
      "name": "getResultDate",
      "outputs": [
        {
          "internalType": "uint256",
          "name": "",
          "type": "uint256"
        }
      ],
      "stateMutability": "view",
      "type": "function"
    },
    {
      "inputs": [],
      "name": "getSide",
      "outputs": [
        {
          "internalType": "string[2]",
          "name": "",
          "type": "string[2]"
        }
      ],
      "stateMutability": "view",
      "type": "function"
    },
    {
      "inputs": [],
      "name": "getUserNTokens",
      "outputs": [
        {
          "internalType": "uint256",
          "name": "",
          "type": "uint256"
        }
      ],
      "stateMutability": "view",
      "type": "function"
    },
    {
      "inputs": [],
      "name": "getUserYTokens",
      "outputs": [
        {
          "internalType": "uint256",
          "name": "",
          "type": "uint256"
        }
      ],
      "stateMutability": "view",
      "type": "function"
    },
    {
      "inputs": [],
      "name": "getWinningBet",
      "outputs": [
        {
          "internalType": "string",
          "name": "",
          "type": "string"
        }
      ],
      "stateMutability": "view",
      "type": "function"
    },
    {
      "inputs": [],
      "name": "getYPrice",
      "outputs": [
        {
          "internalType": "uint256",
          "name": "",
          "type": "uint256"
        }
      ],
      "stateMutability": "view",
      "type": "function"
    },
    {
      "inputs": [],
      "name": "getYTokens",
      "outputs": [
        {
          "internalType": "uint256",
          "name": "",
          "type": "uint256"
        }
      ],
      "stateMutability": "view",
      "type": "function"
    },
    {
      "inputs": [],
      "name": "loser",
      "outputs": [
        {
          "internalType": "uint8",
          "name": "",
          "type": "uint8"
        }
      ],
      "stateMutability": "view",
      "type": "function"
    },
    {
      "inputs": [],
      "name": "marketName",
      "outputs": [
        {
          "internalType": "string",
          "name": "",
          "type": "string"
        }
      ],
      "stateMutability": "view",
      "type": "function"
    },
    {
      "inputs": [],
      "name": "maxPrice",
      "outputs": [
        {
          "internalType": "uint256",
          "name": "",
          "type": "uint256"
        }
      ],
      "stateMutability": "view",
      "type": "function"
    },
    {
      "inputs": [],
      "name": "oracleDecided",
      "outputs": [
        {
          "internalType": "bool",
          "name": "",
          "type": "bool"
        }
      ],
      "stateMutability": "view",
      "type": "function"
    },
    {
      "inputs": [],
      "name": "owner",
      "outputs": [
        {
          "internalType": "address",
          "name": "",
          "type": "address"
        }
      ],
      "stateMutability": "view",
      "type": "function"
    },
    {
      "inputs": [],
      "name": "resultDate",
      "outputs": [
        {
          "internalType": "uint256",
          "name": "",
          "type": "uint256"
        }
      ],
      "stateMutability": "view",
      "type": "function"
    },
    {
      "inputs": [
        {
          "internalType": "uint256",
          "name": "amountOfCoin",
          "type": "uint256"
        }
      ],
      "name": "sellNToken",
      "outputs": [],
      "stateMutability": "payable",
      "type": "function"
    },
    {
      "inputs": [
        {
          "internalType": "uint256",
          "name": "amountOfCoin",
          "type": "uint256"
        }
      ],
      "name": "sellYToken",
      "outputs": [],
      "stateMutability": "payable",
      "type": "function"
    },
    {
      "inputs": [
        {
          "internalType": "uint8",
          "name": "_winner",
          "type": "uint8"
        },
        {
          "internalType": "uint8",
          "name": "_loser",
          "type": "uint8"
        }
      ],
      "name": "setWinningBet",
      "outputs": [],
      "stateMutability": "nonpayable",
      "type": "function"
    },
    {
      "inputs": [
        {
          "internalType": "address",
          "name": "",
          "type": "address"
        },
        {
          "internalType": "uint256",
          "name": "",
          "type": "uint256"
        }
      ],
      "name": "tokensPerGambler",
      "outputs": [
        {
          "internalType": "uint256",
          "name": "",
          "type": "uint256"
        }
      ],
      "stateMutability": "view",
      "type": "function"
    },
    {
      "inputs": [],
      "name": "winner",
      "outputs": [
        {
          "internalType": "uint8",
          "name": "",
          "type": "uint8"
        }
      ],
      "stateMutability": "view",
      "type": "function"
    },
    {
      "inputs": [],
      "name": "winningBet",
      "outputs": [
        {
          "internalType": "string",
          "name": "",
          "type": "string"
        }
      ],
      "stateMutability": "view",
      "type": "function"
    },
    {
      "inputs": [],
      "name": "withdrawGains",
      "outputs": [],
      "stateMutability": "payable",
      "type": "function"
    }
  ],
  "bytecode": "0x6080604052670de0b6b3a7640000600b553480156200001d57600080fd5b5060405162003cae38038062003cae833981810160405281019062000043919062000471565b84600090805190602001906200005b929190620001d3565b508160019060026200006f92919062000264565b5083600460006101000a81548173ffffffffffffffffffffffffffffffffffffffff021916908373ffffffffffffffffffffffffffffffffffffffff16021790555082600560006101000a81548173ffffffffffffffffffffffffffffffffffffffff021916908373ffffffffffffffffffffffffffffffffffffffff160217905550600060068190555060006007819055508060088190555060016006546200011a9190620005b5565b60026007546006546200012e9190620005b5565b6200013a9190620005b5565b600b5462000149919062000612565b6200015591906200064a565b60098190555060016007546200016c9190620005b5565b6002600754600654620001809190620005b5565b6200018c9190620005b5565b600b546200019b919062000612565b620001a791906200064a565b600a819055506000600c60026101000a81548160ff021916908315150217905550505050505062000845565b828054620001e1906200071f565b90600052602060002090601f01602090048101928262000205576000855562000251565b82601f106200022057805160ff191683800117855562000251565b8280016001018555821562000251579182015b828111156200025057825182559160200191906001019062000233565b5b509050620002609190620002be565b5090565b8260028101928215620002ab579160200282015b82811115620002aa57825182908051906020019062000299929190620001d3565b509160200191906001019062000278565b5b509050620002ba9190620002dd565b5090565b5b80821115620002d9576000816000905550600101620002bf565b5090565b5b80821115620003015760008181620002f7919062000305565b50600101620002de565b5090565b50805462000313906200071f565b6000825580601f1062000327575062000348565b601f016020900490600052602060002090810190620003479190620002be565b5b50565b6000620003626200035c8462000559565b62000525565b9050808260005b858110156200039d57815185016200038288826200042d565b84526020840193506020830192505060018101905062000369565b5050509392505050565b6000620003be620003b88462000582565b62000525565b905082815260208101848484011115620003d757600080fd5b620003e4848285620006e9565b509392505050565b600081519050620003fd8162000811565b92915050565b600082601f8301126200041557600080fd5b6002620004248482856200034b565b91505092915050565b600082601f8301126200043f57600080fd5b815162000451848260208601620003a7565b91505092915050565b6000815190506200046b816200082b565b92915050565b600080600080600060a086880312156200048a57600080fd5b600086015167ffffffffffffffff811115620004a557600080fd5b620004b3888289016200042d565b9550506020620004c688828901620003ec565b9450506040620004d988828901620003ec565b935050606086015167ffffffffffffffff811115620004f757600080fd5b620005058882890162000403565b925050608062000518888289016200045a565b9150509295509295909350565b6000604051905081810181811067ffffffffffffffff821117156200054f576200054e620007e2565b5b8060405250919050565b600067ffffffffffffffff821115620005775762000576620007e2565b5b602082029050919050565b600067ffffffffffffffff821115620005a0576200059f620007e2565b5b601f19601f8301169050602081019050919050565b6000620005c282620006df565b9150620005cf83620006df565b9250827fffffffffffffffffffffffffffffffffffffffffffffffffffffffffffffffff0382111562000607576200060662000755565b5b828201905092915050565b60006200061f82620006df565b91506200062c83620006df565b9250826200063f576200063e62000784565b5b828204905092915050565b60006200065782620006df565b91506200066483620006df565b9250817fffffffffffffffffffffffffffffffffffffffffffffffffffffffffffffffff0483118215151615620006a0576200069f62000755565b5b828202905092915050565b6000620006b882620006bf565b9050919050565b600073ffffffffffffffffffffffffffffffffffffffff82169050919050565b6000819050919050565b60005b8381101562000709578082015181840152602081019050620006ec565b8381111562000719576000848401525b50505050565b600060028204905060018216806200073857607f821691505b602082108114156200074f576200074e620007b3565b5b50919050565b7f4e487b7100000000000000000000000000000000000000000000000000000000600052601160045260246000fd5b7f4e487b7100000000000000000000000000000000000000000000000000000000600052601260045260246000fd5b7f4e487b7100000000000000000000000000000000000000000000000000000000600052602260045260246000fd5b7f4e487b7100000000000000000000000000000000000000000000000000000000600052604160045260246000fd5b6200081c81620006ab565b81146200082857600080fd5b50565b6200083681620006df565b81146200084257600080fd5b50565b61345980620008556000396000f3fe608060405260043610620002365760003560e01c8063966dae0e1162000133578063d765409911620000af578063dfbf53ae1162000079578063dfbf53ae146200079b578063e38d6b5c14620007cb578063e6bfd26a14620007fb578063e82898b3146200082b578063ead5a40d146200085b5762000236565b8063d765409914620006dd578063dbd1a50e146200070d578063dca16625146200073d578063dde892ba146200076b5762000236565b8063b9426a4311620000fd578063b9426a4314620005fd578063bbafcff0146200061d578063bd0198f0146200064d578063c291c58d146200067d578063c831c1db14620006ad5762000236565b8063966dae0e146200054d57806397545f29146200057d578063a6e9e71e14620005ad578063a9c2e36c14620005cd5762000236565b806350d51ebd11620001c35780636f9fb98a116200018d5780636f9fb98a146200046d5780637e1bced8146200049d5780638c6f155414620004bd5780638da5cb5b14620004ed5780639040a949146200051d5762000236565b806350d51ebd146200039b5780635420a84b14620003df578063603d55d7146200040f57806369fdbf85146200043f5762000236565b806323459dba116200020557806323459dba146200030f5780632a33030f146200033f5780633aca0407146200036f578063483f0219146200038f5762000236565b80630c4f65bd146200023b5780630d75f3b7146200026b5780631f67c80b146200029b5780632002dff914620002df575b600080fd5b3480156200024857600080fd5b50620002536200088b565b604051620002629190620025e8565b60405180910390f35b3480156200027857600080fd5b5062000283620008b5565b6040516200029291906200285c565b60405180910390f35b348015620002a857600080fd5b50620002c76004803603810190620002c19190620021d7565b620008bf565b604051620002d69190620026a0565b60405180910390f35b348015620002ec57600080fd5b50620002f76200096b565b6040516200030691906200285c565b60405180910390f35b3480156200031c57600080fd5b506200032762000975565b6040516200033691906200285c565b60405180910390f35b3480156200034c57600080fd5b50620003576200097b565b6040516200036691906200285c565b60405180910390f35b6200038d6004803603810190620003879190620021d7565b620009d4565b005b6200039962000cef565b005b348015620003a857600080fd5b50620003c76004803603810190620003c1919062002151565b6200100d565b604051620003d691906200285c565b60405180910390f35b348015620003ec57600080fd5b50620003f762001032565b604051620004069190620026a0565b60405180910390f35b3480156200041c57600080fd5b5062000427620010c8565b6040516200043691906200285c565b60405180910390f35b3480156200044c57600080fd5b506200046b600480360381019062000465919062002203565b620010d2565b005b3480156200047a57600080fd5b506200048562001226565b6040516200049491906200285c565b60405180910390f35b620004bb6004803603810190620004b59190620021d7565b6200122e565b005b348015620004ca57600080fd5b50620004d5620014b1565b604051620004e49190620026a0565b60405180910390f35b348015620004fa57600080fd5b50620005056200154b565b604051620005149190620025e8565b60405180910390f35b3480156200052a57600080fd5b506200053562001571565b6040516200054491906200285c565b60405180910390f35b3480156200055a57600080fd5b50620005656200157b565b604051620005749190620025e8565b60405180910390f35b3480156200058a57600080fd5b5062000595620015a1565b604051620005a491906200285c565b60405180910390f35b620005cb6004803603810190620005c59190620021d7565b620015a7565b005b348015620005da57600080fd5b50620005e5620017e4565b604051620005f49190620025e8565b60405180910390f35b6200061b6004803603810190620006159190620021d7565b6200180e565b005b3480156200062a57600080fd5b506200063562001b2b565b6040516200064491906200285c565b60405180910390f35b3480156200065a57600080fd5b506200066562001b35565b60405162000674919062002642565b60405180910390f35b3480156200068a57600080fd5b506200069562001c0e565b604051620006a49190620026a0565b60405180910390f35b348015620006ba57600080fd5b50620006c562001ca8565b604051620006d491906200285c565b60405180910390f35b348015620006ea57600080fd5b50620006f562001cae565b60405162000704919062002666565b60405180910390f35b3480156200071a57600080fd5b506200072562001cc1565b6040516200073491906200285c565b60405180910390f35b3480156200074a57600080fd5b50620007696004803603810190620007639190620020e5565b62001cc7565b005b3480156200077857600080fd5b506200078362001dc3565b6040516200079291906200285c565b60405180910390f35b348015620007a857600080fd5b50620007b362001e1b565b604051620007c2919062002879565b60405180910390f35b348015620007d857600080fd5b50620007e362001e2e565b604051620007f291906200285c565b60405180910390f35b3480156200080857600080fd5b506200081362001e34565b604051620008229190620026a0565b60405180910390f35b3480156200083857600080fd5b506200084362001eca565b60405162000852919062002879565b60405180910390f35b3480156200086857600080fd5b506200087362001edd565b6040516200088291906200285c565b60405180910390f35b6000600560009054906101000a900473ffffffffffffffffffffffffffffffffffffffff16905090565b6000600a54905090565b60018160028110620008d057600080fd5b016000915090508054620008e49062002b4d565b80601f0160208091040260200160405190810160405280929190818152602001828054620009129062002b4d565b8015620009635780601f10620009375761010080835404028352916020019162000963565b820191906000526020600020905b8154815290600101906020018083116200094557829003601f168201915b505050505081565b6000600954905090565b60065481565b6000600360003373ffffffffffffffffffffffffffffffffffffffff1673ffffffffffffffffffffffffffffffffffffffff16815260200190815260200160002060006001815260200190815260200160002054905090565b80600360003373ffffffffffffffffffffffffffffffffffffffff1673ffffffffffffffffffffffffffffffffffffffff168152602001908152602001600020600080815260200190815260200160002054101562000a6a576040517f08c379a000000000000000000000000000000000000000000000000000000000815260040162000a61906200283a565b60405180910390fd5b6000600a548262000a7c9190620029e8565b905060008130338560405162000a929062001ee3565b62000aa19493929190620026e6565b604051809103906000f08015801562000abe573d6000803e3d6000fd5b5090503373ffffffffffffffffffffffffffffffffffffffff166108fc839081150290604051600060405180830381858888f1935050505015801562000b08573d6000803e3d6000fd5b50826007600082825462000b1d919062002a49565b9250508190555082600360003373ffffffffffffffffffffffffffffffffffffffff1673ffffffffffffffffffffffffffffffffffffffff1681526020019081526020016000206000808152602001908152602001600020600082825462000b86919062002a49565b92505081905550600460009054906101000a900473ffffffffffffffffffffffffffffffffffffffff1673ffffffffffffffffffffffffffffffffffffffff1663c155e4ed826040518263ffffffff1660e01b815260040162000bea919062002683565b600060405180830381600087803b15801562000c0557600080fd5b505af115801562000c1a573d6000803e3d6000fd5b505050506040513d6000823e3d601f19601f8201168201806040525081019062000c45919062002192565b50600160065462000c57919062002953565b600260075460065462000c6b919062002953565b62000c77919062002953565b600b5462000c869190620029b0565b62000c929190620029e8565b600981905550600160075462000ca9919062002953565b600260075460065462000cbd919062002953565b62000cc9919062002953565b600b5462000cd89190620029b0565b62000ce49190620029e8565b600a81905550505050565b6000600360003373ffffffffffffffffffffffffffffffffffffffff1673ffffffffffffffffffffffffffffffffffffffff1681526020019081526020016000206000600c60009054906101000a900460ff1660ff1681526020019081526020016000205490506000811162000d9c576040517f08c379a000000000000000000000000000000000000000000000000000000000815260040162000d93906200275d565b60405180910390fd5b60011515600c60029054906101000a900460ff1615151462000df5576040517f08c379a000000000000000000000000000000000000000000000000000000000815260040162000dec90620026c4565b60405180910390fd5b6000600c60009054906101000a900460ff1660ff16141562000e985760006007544762000e239190620029b0565b8262000e309190620029e8565b90503373ffffffffffffffffffffffffffffffffffffffff166108fc829081150290604051600060405180830381858888f1935050505015801562000e79573d6000803e3d6000fd5b50670de0b6b3a7640000600a8190555060006009819055505062000f37565b6001600c60009054906101000a900460ff1660ff16141562000f365760006006544762000ec69190620029b0565b8262000ed39190620029e8565b90503373ffffffffffffffffffffffffffffffffffffffff166108fc829081150290604051600060405180830381858888f1935050505015801562000f1c573d6000803e3d6000fd5b50670de0b6b3a76400006009819055506000600a81905550505b5b6000600360003373ffffffffffffffffffffffffffffffffffffffff1673ffffffffffffffffffffffffffffffffffffffff1681526020019081526020016000206000808152602001908152602001600020819055506000600360003373ffffffffffffffffffffffffffffffffffffffff1673ffffffffffffffffffffffffffffffffffffffff1681526020019081526020016000206000600181526020019081526020016000208190555062000fee6200097b565b5062000ff962001dc3565b506000600681905550600060078190555050565b6003602052816000526040600020602052806000526040600020600091509150505481565b600d8054620010419062002b4d565b80601f01602080910402602001604051908101604052809291908181526020018280546200106f9062002b4d565b8015620010c05780601f106200109457610100808354040283529160200191620010c0565b820191906000526020600020905b815481529060010190602001808311620010a257829003601f168201915b505050505081565b6000600854905090565b600560009054906101000a900473ffffffffffffffffffffffffffffffffffffffff1673ffffffffffffffffffffffffffffffffffffffff163373ffffffffffffffffffffffffffffffffffffffff161462001165576040517f08c379a00000000000000000000000000000000000000000000000000000000081526004016200115c906200277f565b60405180910390fd5b81600c60006101000a81548160ff021916908360ff16021790555080600c60016101000a81548160ff021916908360ff1602179055506001600c60026101000a81548160ff0219169083151502179055506001600c60009054906101000a900460ff1660ff166002811062001203577f4e487b7100000000000000000000000000000000000000000000000000000000600052603260045260246000fd5b01600d908054620012149062002b4d565b6200122192919062001ef1565b505050565b600047905090565b600060095482620012409190620029e8565b905080341462001287576040517f08c379a00000000000000000000000000000000000000000000000000000000081526004016200127e90620027a1565b60405180910390fd5b6000813330856040516200129b9062001ee3565b620012aa9493929190620027c3565b604051809103906000f080158015620012c7573d6000803e3d6000fd5b5090508260066000828254620012de919062002953565b9250508190555082600360003373ffffffffffffffffffffffffffffffffffffffff1673ffffffffffffffffffffffffffffffffffffffff168152602001908152602001600020600060018152602001908152602001600020600082825462001348919062002953565b92505081905550600460009054906101000a900473ffffffffffffffffffffffffffffffffffffffff1673ffffffffffffffffffffffffffffffffffffffff1663c155e4ed826040518263ffffffff1660e01b8152600401620013ac919062002683565b600060405180830381600087803b158015620013c757600080fd5b505af1158015620013dc573d6000803e3d6000fd5b505050506040513d6000823e3d601f19601f8201168201806040525081019062001407919062002192565b50600160065462001419919062002953565b60026007546006546200142d919062002953565b62001439919062002953565b600b54620014489190620029b0565b620014549190620029e8565b60098190555060016007546200146b919062002953565b60026007546006546200147f919062002953565b6200148b919062002953565b600b546200149a9190620029b0565b620014a69190620029e8565b600a81905550505050565b6060600d8054620014c29062002b4d565b80601f0160208091040260200160405190810160405280929190818152602001828054620014f09062002b4d565b8015620015415780601f10620015155761010080835404028352916020019162001541565b820191906000526020600020905b8154815290600101906020018083116200152357829003601f168201915b5050505050905090565b600560009054906101000a900473ffffffffffffffffffffffffffffffffffffffff1681565b6000600754905090565b600460009054906101000a900473ffffffffffffffffffffffffffffffffffffffff1681565b60085481565b6000600a5482620015b99190620029e8565b9050600081333085604051620015cf9062001ee3565b620015de9493929190620027c3565b604051809103906000f080158015620015fb573d6000803e3d6000fd5b509050826007600082825462001612919062002953565b9250508190555082600360003373ffffffffffffffffffffffffffffffffffffffff1673ffffffffffffffffffffffffffffffffffffffff168152602001908152602001600020600080815260200190815260200160002060008282546200167b919062002953565b92505081905550600460009054906101000a900473ffffffffffffffffffffffffffffffffffffffff1673ffffffffffffffffffffffffffffffffffffffff1663c155e4ed826040518263ffffffff1660e01b8152600401620016df919062002683565b600060405180830381600087803b158015620016fa57600080fd5b505af11580156200170f573d6000803e3d6000fd5b505050506040513d6000823e3d601f19601f820116820180604052508101906200173a919062002192565b5060016006546200174c919062002953565b600260075460065462001760919062002953565b6200176c919062002953565b600b546200177b9190620029b0565b620017879190620029e8565b60098190555060016007546200179e919062002953565b6002600754600654620017b2919062002953565b620017be919062002953565b600b54620017cd9190620029b0565b620017d99190620029e8565b600a81905550505050565b6000600460009054906101000a900473ffffffffffffffffffffffffffffffffffffffff16905090565b80600360003373ffffffffffffffffffffffffffffffffffffffff1673ffffffffffffffffffffffffffffffffffffffff168152602001908152602001600020600060018152602001908152602001600020541015620018a5576040517f08c379a00000000000000000000000000000000000000000000000000000000081526004016200189c906200283a565b60405180910390fd5b600060095482620018b79190620029e8565b9050600081303385604051620018cd9062001ee3565b620018dc9493929190620026e6565b604051809103906000f080158015620018f9573d6000803e3d6000fd5b5090503373ffffffffffffffffffffffffffffffffffffffff166108fc839081150290604051600060405180830381858888f1935050505015801562001943573d6000803e3d6000fd5b50826006600082825462001958919062002a49565b9250508190555082600360003373ffffffffffffffffffffffffffffffffffffffff1673ffffffffffffffffffffffffffffffffffffffff1681526020019081526020016000206000600181526020019081526020016000206000828254620019c2919062002a49565b92505081905550600460009054906101000a900473ffffffffffffffffffffffffffffffffffffffff1673ffffffffffffffffffffffffffffffffffffffff1663c155e4ed826040518263ffffffff1660e01b815260040162001a26919062002683565b600060405180830381600087803b15801562001a4157600080fd5b505af115801562001a56573d6000803e3d6000fd5b505050506040513d6000823e3d601f19601f8201168201806040525081019062001a81919062002192565b50600160065462001a93919062002953565b600260075460065462001aa7919062002953565b62001ab3919062002953565b600b5462001ac29190620029b0565b62001ace9190620029e8565b600981905550600160075462001ae5919062002953565b600260075460065462001af9919062002953565b62001b05919062002953565b600b5462001b149190620029b0565b62001b209190620029e8565b600a81905550505050565b6000600654905090565b62001b3f62001f89565b6001600280602002604051908101604052809291906000905b8282101562001c0557838201805462001b719062002b4d565b80601f016020809104026020016040519081016040528092919081815260200182805462001b9f9062002b4d565b801562001bf05780601f1062001bc45761010080835404028352916020019162001bf0565b820191906000526020600020905b81548152906001019060200180831162001bd257829003601f168201915b50505050508152602001906001019062001b58565b50505050905090565b60606000805462001c1f9062002b4d565b80601f016020809104026020016040519081016040528092919081815260200182805462001c4d9062002b4d565b801562001c9e5780601f1062001c725761010080835404028352916020019162001c9e565b820191906000526020600020905b81548152906001019060200180831162001c8057829003601f168201915b5050505050905090565b600a5481565b600c60029054906101000a900460ff1681565b60095481565b600e60009054906101000a900473ffffffffffffffffffffffffffffffffffffffff1673ffffffffffffffffffffffffffffffffffffffff1663c155e4ed826040518263ffffffff1660e01b815260040162001d24919062002683565b600060405180830381600087803b15801562001d3f57600080fd5b505af115801562001d54573d6000803e3d6000fd5b505050506040513d6000823e3d601f19601f8201168201806040525081019062001d7f919062002192565b507f7db7852b30fc413c4a90995f03d9f21e64c45d0ddc8324a8ce4c730a051cbf8284848460405162001db59392919062002605565b60405180910390a150505050565b6000600360003373ffffffffffffffffffffffffffffffffffffffff1673ffffffffffffffffffffffffffffffffffffffff168152602001908152602001600020600080815260200190815260200160002054905090565b600c60009054906101000a900460ff1681565b600b5481565b6000805462001e439062002b4d565b80601f016020809104026020016040519081016040528092919081815260200182805462001e719062002b4d565b801562001ec25780601f1062001e965761010080835404028352916020019162001ec2565b820191906000526020600020905b81548152906001019060200180831162001ea457829003601f168201915b505050505081565b600c60019054906101000a900460ff1681565b60075481565b61076b8062002cb983390190565b82805462001eff9062002b4d565b90600052602060002090601f01602090048101928262001f23576000855562001f76565b82601f1062001f36578054855562001f76565b8280016001018555821562001f7657600052602060002091601f016020900482015b8281111562001f7557825482559160010191906001019062001f58565b5b50905062001f85919062001fb1565b5090565b60405180604001604052806002905b606081526020019060019003908162001f985790505090565b5b8082111562001fcc57600081600090555060010162001fb2565b5090565b600062001fe762001fe184620028ca565b62002896565b905080838252602082019050828560208602820111156200200757600080fd5b60005b858110156200203b5781620020208882620020a0565b8452602084019350602083019250506001810190506200200a565b5050509392505050565b600081359050620020568162002c50565b92915050565b600082601f8301126200206e57600080fd5b81516200208084826020860162001fd0565b91505092915050565b6000813590506200209a8162002c6a565b92915050565b600081519050620020b18162002c6a565b92915050565b600081359050620020c88162002c84565b92915050565b600081359050620020df8162002c9e565b92915050565b60008060008060808587031215620020fc57600080fd5b60006200210c8782880162002045565b94505060206200211f8782880162002045565b93505060406200213287828801620020b7565b9250506060620021458782880162002089565b91505092959194509250565b600080604083850312156200216557600080fd5b6000620021758582860162002045565b92505060206200218885828601620020b7565b9150509250929050565b600060208284031215620021a557600080fd5b600082015167ffffffffffffffff811115620021c057600080fd5b620021ce848285016200205c565b91505092915050565b600060208284031215620021ea57600080fd5b6000620021fa84828501620020b7565b91505092915050565b600080604083850312156200221757600080fd5b60006200222785828601620020ce565b92505060206200223a85828601620020ce565b9150509250929050565b60006200225283836200230e565b905092915050565b620022658162002a84565b82525050565b6000620022788262002903565b62002284818562002926565b9350836020820285016200229885620028f9565b8060005b85811015620022da5784840389528151620022b8858262002244565b9450620022c58362002919565b925060208a019950506001810190506200229c565b50829750879550505050505092915050565b620022f78162002a98565b82525050565b620023088162002aef565b82525050565b60006200231b826200290e565b62002327818562002931565b93506200233981856020860162002b17565b620023448162002c3f565b840191505092915050565b60006200235c826200290e565b62002368818562002942565b93506200237a81856020860162002b17565b620023858162002c3f565b840191505092915050565b60006200239f60198362002942565b91507f4265742068617665206e6f742066696e697368656420796574000000000000006000830152602082019050919050565b6000620023e160048362002942565b91507f53656c6c000000000000000000000000000000000000000000000000000000006000830152602082019050919050565b600062002423601f8362002942565b91507f596f7520646f206e6f74206861766520616e792077696e6e696e6720626574006000830152602082019050919050565b60006200246560278362002942565b91507f596f7520646f206e6f7420686176652061636365737320746f2074686973206660008301527f756e6374696f6e000000000000000000000000000000000000000000000000006020830152604082019050919050565b6000620024cd602f8362002942565b91507f596f75206e65656420746f207061737320696e2074686520636f72726563742060008301527f616d6f756e74206f6620657468657200000000000000000000000000000000006020830152604082019050919050565b60006200253560038362002942565b91507f42757900000000000000000000000000000000000000000000000000000000006000830152602082019050919050565b60006200257760008362002942565b9150600082019050919050565b60006200259360128362002942565b91507f4e6f7420456e6f75676820546f6b656e732100000000000000000000000000006000830152602082019050919050565b620025d18162002ad8565b82525050565b620025e28162002ae2565b82525050565b6000602082019050620025ff60008301846200225a565b92915050565b60006060820190506200261c60008301866200225a565b6200262b60208301856200225a565b6200263a6040830184620025c6565b949350505050565b600060208201905081810360008301526200265e81846200226b565b905092915050565b60006020820190506200267d6000830184620022ec565b92915050565b60006020820190506200269a6000830184620022fd565b92915050565b60006020820190508181036000830152620026bc81846200234f565b905092915050565b60006020820190508181036000830152620026df8162002390565b9050919050565b600060c08201905081810360008301526200270181620023d2565b9050620027126020830187620025c6565b6200272160408301866200225a565b6200273060608301856200225a565b8181036080830152620027438162002568565b90506200275460a0830184620025c6565b95945050505050565b60006020820190508181036000830152620027788162002414565b9050919050565b600060208201905081810360008301526200279a8162002456565b9050919050565b60006020820190508181036000830152620027bc81620024be565b9050919050565b600060c0820190508181036000830152620027de8162002526565b9050620027ef6020830187620025c6565b620027fe60408301866200225a565b6200280d60608301856200225a565b8181036080830152620028208162002568565b90506200283160a0830184620025c6565b95945050505050565b60006020820190508181036000830152620028558162002584565b9050919050565b6000602082019050620028736000830184620025c6565b92915050565b6000602082019050620028906000830184620025d7565b92915050565b6000604051905081810181811067ffffffffffffffff82111715620028c057620028bf62002c10565b5b8060405250919050565b600067ffffffffffffffff821115620028e857620028e762002c10565b5b602082029050602081019050919050565b6000819050919050565b600060029050919050565b600081519050919050565b6000602082019050919050565b600081905092915050565b600082825260208201905092915050565b600082825260208201905092915050565b6000620029608262002ad8565b91506200296d8362002ad8565b9250827fffffffffffffffffffffffffffffffffffffffffffffffffffffffffffffffff03821115620029a557620029a462002b83565b5b828201905092915050565b6000620029bd8262002ad8565b9150620029ca8362002ad8565b925082620029dd57620029dc62002bb2565b5b828204905092915050565b6000620029f58262002ad8565b915062002a028362002ad8565b9250817fffffffffffffffffffffffffffffffffffffffffffffffffffffffffffffffff048311821515161562002a3e5762002a3d62002b83565b5b828202905092915050565b600062002a568262002ad8565b915062002a638362002ad8565b92508282101562002a795762002a7862002b83565b5b828203905092915050565b600062002a918262002ab8565b9050919050565b60008115159050919050565b600062002ab18262002a84565b9050919050565b600073ffffffffffffffffffffffffffffffffffffffff82169050919050565b6000819050919050565b600060ff82169050919050565b600062002afc8262002b03565b9050919050565b600062002b108262002ab8565b9050919050565b60005b8381101562002b3757808201518184015260208101905062002b1a565b8381111562002b47576000848401525b50505050565b6000600282049050600182168062002b6657607f821691505b6020821081141562002b7d5762002b7c62002be1565b5b50919050565b7f4e487b7100000000000000000000000000000000000000000000000000000000600052601160045260246000fd5b7f4e487b7100000000000000000000000000000000000000000000000000000000600052601260045260246000fd5b7f4e487b7100000000000000000000000000000000000000000000000000000000600052602260045260246000fd5b7f4e487b7100000000000000000000000000000000000000000000000000000000600052604160045260246000fd5b6000601f19601f8301169050919050565b62002c5b8162002a84565b811462002c6757600080fd5b50565b62002c758162002aa4565b811462002c8157600080fd5b50565b62002c8f8162002ad8565b811462002c9b57600080fd5b50565b62002ca98162002ae2565b811462002cb557600080fd5b5056fe608060405234801561001057600080fd5b5060405161076b38038061076b83398181016040528101906100329190610230565b85600090805190602001906100489291906100fb565b508460018190555083600260006101000a81548173ffffffffffffffffffffffffffffffffffffffff021916908373ffffffffffffffffffffffffffffffffffffffff16021790555082600360006101000a81548173ffffffffffffffffffffffffffffffffffffffff021916908373ffffffffffffffffffffffffffffffffffffffff16021790555081600490805190602001906100e89291906100fb565b5080600581905550505050505050610477565b828054610107906103b9565b90600052602060002090601f0160209004810192826101295760008555610170565b82601f1061014257805160ff1916838001178555610170565b82800160010185558215610170579182015b8281111561016f578251825591602001919060010190610154565b5b50905061017d9190610181565b5090565b5b8082111561019a576000816000905550600101610182565b5090565b60006101b16101ac8461031a565b6102e9565b9050828152602081018484840111156101c957600080fd5b6101d4848285610386565b509392505050565b6000815190506101eb81610449565b92915050565b600082601f83011261020257600080fd5b815161021284826020860161019e565b91505092915050565b60008151905061022a81610460565b92915050565b60008060008060008060c0878903121561024957600080fd5b600087015167ffffffffffffffff81111561026357600080fd5b61026f89828a016101f1565b965050602061028089828a0161021b565b955050604061029189828a016101dc565b94505060606102a289828a016101dc565b935050608087015167ffffffffffffffff8111156102bf57600080fd5b6102cb89828a016101f1565b92505060a06102dc89828a0161021b565b9150509295509295509295565b6000604051905081810181811067ffffffffffffffff821117156103105761030f61041a565b5b8060405250919050565b600067ffffffffffffffff8211156103355761033461041a565b5b601f19601f8301169050602081019050919050565b60006103558261035c565b9050919050565b600073ffffffffffffffffffffffffffffffffffffffff82169050919050565b6000819050919050565b60005b838110156103a4578082015181840152602081019050610389565b838111156103b3576000848401525b50505050565b600060028204905060018216806103d157607f821691505b602082108114156103e5576103e46103eb565b5b50919050565b7f4e487b7100000000000000000000000000000000000000000000000000000000600052602260045260246000fd5b7f4e487b7100000000000000000000000000000000000000000000000000000000600052604160045260246000fd5b6104528161034a565b811461045d57600080fd5b50565b6104698161037c565b811461047457600080fd5b50565b6102e5806104866000396000f3fe608060405234801561001057600080fd5b50600436106100365760003560e01c8063524ecd141461003b578063861a844d14610059575b600080fd5b610043610077565b60405161005091906101cc565b60405180910390f35b610061610105565b60405161006e91906101cc565b60405180910390f35b600480546100849061023d565b80601f01602080910402602001604051908101604052809291908181526020018280546100b09061023d565b80156100fd5780601f106100d2576101008083540402835291602001916100fd565b820191906000526020600020905b8154815290600101906020018083116100e057829003601f168201915b505050505081565b600080546101129061023d565b80601f016020809104026020016040519081016040528092919081815260200182805461013e9061023d565b801561018b5780601f106101605761010080835404028352916020019161018b565b820191906000526020600020905b81548152906001019060200180831161016e57829003601f168201915b505050505081565b600061019e826101ee565b6101a881856101f9565b93506101b881856020860161020a565b6101c18161029e565b840191505092915050565b600060208201905081810360008301526101e68184610193565b905092915050565b600081519050919050565b600082825260208201905092915050565b60005b8381101561022857808201518184015260208101905061020d565b83811115610237576000848401525b50505050565b6000600282049050600182168061025557607f821691505b602082108114156102695761026861026f565b5b50919050565b7f4e487b7100000000000000000000000000000000000000000000000000000000600052602260045260246000fd5b6000601f19601f830116905091905056fea2646970667358221220bf6fe8a0d4aeb14d50127bcdf48bef5ad3eb8833029225d829b59c35d314752264736f6c63430008000033a2646970667358221220819109e6c2101e4f4897bd5c530255b1540c043b45b99e80eb90f55d382a554664736f6c63430008000033",
  "linkReferences": {},
  "deployedLinkReferences": {}
}