{
  "_format": "hh-sol-artifact-1",
  "contractName": "Market",
  "sourceName": "contracts/MarketTracker.sol",
  "abi": [
    {
      "inputs": [
        {
          "internalType": "string",
          "name": "_marketName",
          "type": "string"
        },
        {
          "internalType": "address",
          "name": "_owner",
          "type": "address"
        },
        {
          "internalType": "string[2]",
          "name": "_side",
          "type": "string[2]"
        },
        {
          "internalType": "uint256",
          "name": "_resultDate",
          "type": "uint256"
        }
      ],
      "stateMutability": "nonpayable",
      "type": "constructor"
    },
    {
      "inputs": [],
      "name": "MarketName",
      "outputs": [
        {
          "internalType": "string",
          "name": "",
          "type": "string"
        }
      ],
      "stateMutability": "view",
      "type": "function"
    },
    {
      "inputs": [],
      "name": "Owner",
      "outputs": [
        {
          "internalType": "address",
          "name": "",
          "type": "address"
        }
      ],
      "stateMutability": "view",
      "type": "function"
    },
    {
      "inputs": [
        {
          "internalType": "uint256",
          "name": "",
          "type": "uint256"
        }
      ],
      "name": "Side",
      "outputs": [
        {
          "internalType": "string",
          "name": "",
          "type": "string"
        }
      ],
      "stateMutability": "view",
      "type": "function"
    },
    {
      "inputs": [],
      "name": "getMarketName",
      "outputs": [
        {
          "internalType": "string",
          "name": "",
          "type": "string"
        }
      ],
      "stateMutability": "view",
      "type": "function"
    },
    {
      "inputs": [],
      "name": "getNTokens",
      "outputs": [
        {
          "internalType": "uint256",
          "name": "",
          "type": "uint256"
        }
      ],
      "stateMutability": "view",
      "type": "function"
    },
    {
      "inputs": [],
      "name": "getResultDate",
      "outputs": [
        {
          "internalType": "uint256",
          "name": "",
          "type": "uint256"
        }
      ],
      "stateMutability": "view",
      "type": "function"
    },
    {
      "inputs": [],
      "name": "getSide",
      "outputs": [
        {
          "internalType": "string[2]",
          "name": "",
          "type": "string[2]"
        }
      ],
      "stateMutability": "view",
      "type": "function"
    },
    {
      "inputs": [],
      "name": "getYTokens",
      "outputs": [
        {
          "internalType": "uint256",
          "name": "",
          "type": "uint256"
        }
      ],
      "stateMutability": "view",
      "type": "function"
    }
  ],
  "bytecode": "0x60806040523480156200001157600080fd5b5060405162000dc138038062000dc1833981810160405281019062000037919062000364565b83600090805190602001906200004f929190620000c6565b508160019060026200006392919062000157565b5082600360006101000a81548173ffffffffffffffffffffffffffffffffffffffff021916908373ffffffffffffffffffffffffffffffffffffffff160217905550600060048190555060006005819055508060068190555050505050620005ce565b828054620000d49062000506565b90600052602060002090601f016020900481019282620000f8576000855562000144565b82601f106200011357805160ff191683800117855562000144565b8280016001018555821562000144579182015b828111156200014357825182559160200191906001019062000126565b5b509050620001539190620001b1565b5090565b82600281019282156200019e579160200282015b828111156200019d5782518290805190602001906200018c929190620000c6565b50916020019190600101906200016b565b5b509050620001ad9190620001d0565b5090565b5b80821115620001cc576000816000905550600101620001b2565b5090565b5b80821115620001f45760008181620001ea9190620001f8565b50600101620001d1565b5090565b508054620002069062000506565b6000825580601f106200021a57506200023b565b601f0160209004906000526020600020908101906200023a9190620001b1565b5b50565b6000620002556200024f8462000436565b62000402565b9050808260005b8581101562000290578151850162000275888262000320565b8452602084019350602083019250506001810190506200025c565b5050509392505050565b6000620002b1620002ab846200045f565b62000402565b905082815260208101848484011115620002ca57600080fd5b620002d7848285620004d0565b509392505050565b600081519050620002f0816200059a565b92915050565b600082601f8301126200030857600080fd5b6002620003178482856200023e565b91505092915050565b600082601f8301126200033257600080fd5b8151620003448482602086016200029a565b91505092915050565b6000815190506200035e81620005b4565b92915050565b600080600080608085870312156200037b57600080fd5b600085015167ffffffffffffffff8111156200039657600080fd5b620003a48782880162000320565b9450506020620003b787828801620002df565b935050604085015167ffffffffffffffff811115620003d557600080fd5b620003e387828801620002f6565b9250506060620003f6878288016200034d565b91505092959194509250565b6000604051905081810181811067ffffffffffffffff821117156200042c576200042b6200056b565b5b8060405250919050565b600067ffffffffffffffff8211156200045457620004536200056b565b5b602082029050919050565b600067ffffffffffffffff8211156200047d576200047c6200056b565b5b601f19601f8301169050602081019050919050565b60006200049f82620004a6565b9050919050565b600073ffffffffffffffffffffffffffffffffffffffff82169050919050565b6000819050919050565b60005b83811015620004f0578082015181840152602081019050620004d3565b8381111562000500576000848401525b50505050565b600060028204905060018216806200051f57607f821691505b602082108114156200053657620005356200053c565b5b50919050565b7f4e487b7100000000000000000000000000000000000000000000000000000000600052602260045260246000fd5b7f4e487b7100000000000000000000000000000000000000000000000000000000600052604160045260246000fd5b620005a58162000492565b8114620005b157600080fd5b50565b620005bf81620004c6565b8114620005cb57600080fd5b50565b6107e380620005de6000396000f3fe608060405234801561001057600080fd5b50600436106100885760003560e01c8063b4a99a4e1161005b578063b4a99a4e14610117578063bbafcff014610135578063bd0198f014610153578063c291c58d1461017157610088565b80631f67c80b1461008d5780632055c668146100bd578063603d55d7146100db5780639040a949146100f9575b600080fd5b6100a760048036038101906100a2919061049f565b61018f565b6040516100b4919061061e565b60405180910390f35b6100c5610232565b6040516100d2919061061e565b60405180910390f35b6100e36102c0565b6040516100f09190610640565b60405180910390f35b6101016102ca565b60405161010e9190610640565b60405180910390f35b61011f6102d4565b60405161012c91906105e1565b60405180910390f35b61013d6102fa565b60405161014a9190610640565b60405180910390f35b61015b610304565b60405161016891906105fc565b60405180910390f35b6101796103d1565b604051610186919061061e565b60405180910390f35b6001816002811061019f57600080fd5b0160009150905080546101b190610724565b80601f01602080910402602001604051908101604052809291908181526020018280546101dd90610724565b801561022a5780601f106101ff5761010080835404028352916020019161022a565b820191906000526020600020905b81548152906001019060200180831161020d57829003601f168201915b505050505081565b6000805461023f90610724565b80601f016020809104026020016040519081016040528092919081815260200182805461026b90610724565b80156102b85780601f1061028d576101008083540402835291602001916102b8565b820191906000526020600020905b81548152906001019060200180831161029b57829003601f168201915b505050505081565b6000600654905090565b6000600554905090565b600360009054906101000a900473ffffffffffffffffffffffffffffffffffffffff1681565b6000600454905090565b61030c610463565b6001600280602002604051908101604052809291906000905b828210156103c857838201805461033b90610724565b80601f016020809104026020016040519081016040528092919081815260200182805461036790610724565b80156103b45780601f10610389576101008083540402835291602001916103b4565b820191906000526020600020905b81548152906001019060200180831161039757829003601f168201915b505050505081526020019060010190610325565b50505050905090565b6060600080546103e090610724565b80601f016020809104026020016040519081016040528092919081815260200182805461040c90610724565b80156104595780601f1061042e57610100808354040283529160200191610459565b820191906000526020600020905b81548152906001019060200180831161043c57829003601f168201915b5050505050905090565b60405180604001604052806002905b60608152602001906001900390816104725790505090565b60008135905061049981610796565b92915050565b6000602082840312156104b157600080fd5b60006104bf8482850161048a565b91505092915050565b60006104d48383610560565b905092915050565b6104e5816106b5565b82525050565b60006104f682610665565b6105008185610688565b9350836020820285016105128561065b565b8060005b8581101561054e578484038952815161052f85826104c8565b945061053a8361067b565b925060208a01995050600181019050610516565b50829750879550505050505092915050565b600061056b82610670565b6105758185610693565b93506105858185602086016106f1565b61058e81610785565b840191505092915050565b60006105a482610670565b6105ae81856106a4565b93506105be8185602086016106f1565b6105c781610785565b840191505092915050565b6105db816106e7565b82525050565b60006020820190506105f660008301846104dc565b92915050565b6000602082019050818103600083015261061681846104eb565b905092915050565b600060208201905081810360008301526106388184610599565b905092915050565b600060208201905061065560008301846105d2565b92915050565b6000819050919050565b600060029050919050565b600081519050919050565b6000602082019050919050565b600081905092915050565b600082825260208201905092915050565b600082825260208201905092915050565b60006106c0826106c7565b9050919050565b600073ffffffffffffffffffffffffffffffffffffffff82169050919050565b6000819050919050565b60005b8381101561070f5780820151818401526020810190506106f4565b8381111561071e576000848401525b50505050565b6000600282049050600182168061073c57607f821691505b602082108114156107505761074f610756565b5b50919050565b7f4e487b7100000000000000000000000000000000000000000000000000000000600052602260045260246000fd5b6000601f19601f8301169050919050565b61079f816106e7565b81146107aa57600080fd5b5056fea26469706673582212203f4a5838e63131d589f0f821e8d3dfacff901d59be66d1fe3df22f6ea9876a9264736f6c63430008000033",
  "linkReferences": {},
  "deployedLinkReferences": {}
}