{
  "_format": "hh-sol-artifact-1",
  "contractName": "MarketTracker",
  "sourceName": "contracts/MarketTracker.sol",
  "abi": [
    {
      "inputs": [],
      "stateMutability": "nonpayable",
      "type": "constructor"
    },
    {
      "inputs": [
        {
          "internalType": "string",
          "name": "_marketName",
          "type": "string"
        },
        {
          "internalType": "string[2]",
          "name": "_side",
          "type": "string[2]"
        },
        {
          "internalType": "uint256",
          "name": "_resultDate",
          "type": "uint256"
        }
      ],
      "name": "addNewMarket",
      "outputs": [
        {
          "internalType": "string",
          "name": "",
          "type": "string"
        }
      ],
      "stateMutability": "payable",
      "type": "function"
    },
    {
      "inputs": [],
      "name": "checkPermission",
      "outputs": [
        {
          "internalType": "bool",
          "name": "",
          "type": "bool"
        }
      ],
      "stateMutability": "view",
      "type": "function"
    },
    {
      "inputs": [],
      "name": "getMarketArray",
      "outputs": [
        {
          "internalType": "contract Market[]",
          "name": "",
          "type": "address[]"
        }
      ],
      "stateMutability": "view",
      "type": "function"
    },
    {
      "inputs": [
        {
          "internalType": "uint256",
          "name": "marketIndex",
          "type": "uint256"
        }
      ],
      "name": "getNameBasedOffIndex",
      "outputs": [
        {
          "internalType": "string",
          "name": "",
          "type": "string"
        }
      ],
      "stateMutability": "view",
      "type": "function"
    },
    {
      "inputs": [],
      "name": "getStaffAddress",
      "outputs": [
        {
          "internalType": "address",
          "name": "",
          "type": "address"
        }
      ],
      "stateMutability": "view",
      "type": "function"
    },
    {
      "inputs": [],
      "name": "getTransactionsArray",
      "outputs": [
        {
          "internalType": "contract Transactions[]",
          "name": "",
          "type": "address[]"
        }
      ],
      "stateMutability": "view",
      "type": "function"
    },
    {
      "inputs": [
        {
          "internalType": "uint256",
          "name": "",
          "type": "uint256"
        }
      ],
      "name": "marketContracts",
      "outputs": [
        {
          "internalType": "contract Market",
          "name": "",
          "type": "address"
        }
      ],
      "stateMutability": "view",
      "type": "function"
    },
    {
      "inputs": [],
      "name": "marketContractsCount",
      "outputs": [
        {
          "internalType": "uint256",
          "name": "",
          "type": "uint256"
        }
      ],
      "stateMutability": "view",
      "type": "function"
    },
    {
      "inputs": [
        {
          "internalType": "contract Transactions",
          "name": "_transaction",
          "type": "address"
        }
      ],
      "name": "pushToTransactionsArray",
      "outputs": [
        {
          "internalType": "contract Transactions[]",
          "name": "",
          "type": "address[]"
        }
      ],
      "stateMutability": "nonpayable",
      "type": "function"
    },
    {
      "inputs": [],
      "name": "staffAddress",
      "outputs": [
        {
          "internalType": "address",
          "name": "",
          "type": "address"
        }
      ],
      "stateMutability": "view",
      "type": "function"
    },
    {
      "inputs": [],
      "name": "testFunction",
      "outputs": [
        {
          "internalType": "string",
          "name": "",
          "type": "string"
        }
      ],
      "stateMutability": "view",
      "type": "function"
    },
    {
      "inputs": [],
      "name": "testVariable",
      "outputs": [
        {
          "internalType": "string",
          "name": "",
          "type": "string"
        }
      ],
      "stateMutability": "view",
      "type": "function"
    },
    {
      "inputs": [
        {
          "internalType": "uint256",
          "name": "",
          "type": "uint256"
        }
      ],
      "name": "transactionsContracts",
      "outputs": [
        {
          "internalType": "contract Transactions",
          "name": "",
          "type": "address"
        }
      ],
      "stateMutability": "view",
      "type": "function"
    },
    {
      "inputs": [],
      "name": "transactionsContractsCount",
      "outputs": [
        {
          "internalType": "uint256",
          "name": "",
          "type": "uint256"
        }
      ],
      "stateMutability": "view",
      "type": "function"
    }
  ],
  "bytecode": "0x60c0604052600b60808190526a12195b1b1bc815dbdc9b1960aa1b60a09081526200002e916005919062000055565b503480156200003c57600080fd5b50600080546001600160a01b0319163317905562000138565b8280546200006390620000fb565b90600052602060002090601f016020900481019282620000875760008555620000d2565b82601f10620000a257805160ff1916838001178555620000d2565b82800160010185558215620000d2579182015b82811115620000d2578251825591602001919060010190620000b5565b50620000e0929150620000e4565b5090565b5b80821115620000e05760008155600101620000e5565b6002810460018216806200011057607f821691505b602082108114156200013257634e487b7160e01b600052602260045260246000fd5b50919050565b613a9c80620001486000396000f3fe608060405260043610620000bc5760003560e01c80632aa86a3c14620000c15780635a15628714620000f05780635a1c583014620001155780637a1de44e146200013c57806388a0709614620001705780638981d23d146200018857806399c6208114620001af578063a9c190c114620001d6578063c155e4ed14620001ee578063c7c389dd1462000213578063e16b4a9b1462000238578063e42429ae1462000250578063f0a3cb141462000268578063f79f589e1462000280575b600080fd5b620000d8620000d236600462000a08565b62000298565b604051620000e7919062000c0e565b60405180910390f35b348015620000fd57600080fd5b50620000d86200010f36600462000abf565b620004f8565b3480156200012257600080fd5b506200012d620005a9565b604051620000e7919062000c03565b3480156200014957600080fd5b50620001616200015b36600462000abf565b620005e0565b604051620000e7919062000ba0565b3480156200017d57600080fd5b50620001616200060b565b3480156200019557600080fd5b50620001a06200061a565b604051620000e7919062000bb4565b348015620001bc57600080fd5b50620001c76200067e565b604051620000e7919062000db8565b348015620001e357600080fd5b506200016162000684565b348015620001fb57600080fd5b50620001a06200020d3660046200095d565b62000693565b3480156200022057600080fd5b50620001616200023236600462000abf565b6200074a565b3480156200024557600080fd5b50620000d86200075b565b3480156200025d57600080fd5b50620000d8620007ec565b3480156200027557600080fd5b50620001a062000882565b3480156200028d57600080fd5b50620001c7620008e4565b606034670de0b6b3a764000014620002cd5760405162461bcd60e51b8152600401620002c49062000d34565b60405180910390fd5b60008430338686604051620002e290620008ea565b620002f295949392919062000c23565b604051809103906000f0801580156200030f573d6000803e3d6000fd5b5060408051600481526024810182526020810180516001600160e01b031663147225d960e31b1790529051919250829160009182916001600160a01b03851691670de0b6b3a76400009162000365919062000b06565b60006040518083038185875af1925050503d8060008114620003a4576040519150601f19603f3d011682016040523d82523d6000602084013e620003a9565b606091505b509150915081620003ce5760405162461bcd60e51b8152600401620002c49062000caf565b60018054808201825560009182527fb10e2d527612073b26eecdfd717e6a320cf44b4afac2b0732d9fcbe2b7fa0cf60180546001600160a01b0319166001600160a01b0387161790556002805491620004278362000ea2565b9190505550600034333060006040516200044190620008f8565b62000450949392919062000cd4565b604051809103906000f0801580156200046d573d6000803e3d6000fd5b5060038054600181018255600091825260008051602062003a478339815191520180546001600160a01b0319166001600160a01b0384161790556004805492935090620004ba8362000ea2565b909155505087516020808a0151604051620004db938d939092910162000b24565b604051602081830303815290604052955050505050509392505050565b6060600182815481106200051c57634e487b7160e01b600052603260045260246000fd5b60009182526020822001546040805163c291c58d60e01b815290516001600160a01b039092169263c291c58d92600480840193829003018186803b1580156200056457600080fd5b505afa15801562000579573d6000803e3d6000fd5b505050506040513d6000823e601f3d908101601f19168201604052620005a391908101906200098d565b92915050565b600080546001600160a01b0316338114620005d85760405162461bcd60e51b8152600401620002c49062000d77565b600191505090565b60018181548110620005f157600080fd5b6000918252602090912001546001600160a01b0316905081565b6000546001600160a01b031690565b606060038054806020026020016040519081016040528092919081815260200182805480156200067457602002820191906000526020600020905b81546001600160a01b0316815260019091019060200180831162000655575b5050505050905090565b60045481565b6000546001600160a01b031681565b6003805460018082018355600092835260008051602062003a4783398151915290910180546001600160a01b0319166001600160a01b0385161790556004805460609390620006e490849062000e17565b909155505060038054604080516020808402820181019092528281529291908301828280156200073e57602002820191906000526020600020905b81546001600160a01b031681526001909101906020018083116200071f575b50505050509050919050565b60038181548110620005f157600080fd5b6060600580546200076c9062000e65565b80601f01602080910402602001604051908101604052809291908181526020018280546200079a9062000e65565b8015620006745780601f10620007bf5761010080835404028352916020019162000674565b820191906000526020600020905b815481529060010190602001808311620007cd57509395945050505050565b60058054620007fb9062000e65565b80601f0160208091040260200160405190810160405280929190818152602001828054620008299062000e65565b80156200087a5780601f106200084e576101008083540402835291602001916200087a565b820191906000526020600020905b8154815290600101906020018083116200085c57829003601f168201915b505050505081565b6060600180548060200260200160405190810160405280929190818152602001828054801562000674576020028201919060005260206000209081546001600160a01b0316815260019091019060200180831162000655575050505050905090565b60025481565b6125448062000eed83390190565b610616806200343183390190565b600082601f83011262000917578081fd5b81356200092e620009288262000ded565b62000dc1565b81815284602083860101111562000943578283fd5b816020850160208301379081016020019190915292915050565b6000602082840312156200096f578081fd5b81356001600160a01b038116811462000986578182fd5b9392505050565b6000602082840312156200099f578081fd5b81516001600160401b03811115620009b5578182fd5b8201601f81018413620009c6578182fd5b8051620009d7620009288262000ded565b818152856020838501011115620009ec578384fd5b620009ff82602083016020860162000e32565b95945050505050565b60008060006060848603121562000a1d578182fd5b83356001600160401b038082111562000a34578384fd5b62000a428783880162000906565b945060209150818601358181111562000a59578485fd5b86019050601f8101871362000a6c578384fd5b62000a78604062000dc1565b8082865b600281101562000aa85762000a958b8335870162000906565b8452928501929085019060010162000a7c565b505080955050505050604084013590509250925092565b60006020828403121562000ad1578081fd5b5035919050565b6000815180845262000af281602086016020860162000e32565b601f01601f19169290920160200192915050565b6000825162000b1a81846020870162000e32565b9190910192915050565b60006f026b0b935b2ba1021b932b0ba32b21d160851b8252845162000b5181601085016020890162000e32565b673e1029b4b232b99d60c11b601091840191820152845162000b7b81601884016020890162000e32565b845191019062000b9381601884016020880162000e32565b0160180195945050505050565b6001600160a01b0391909116815260200190565b6020808252825182820181905260009190848201906040850190845b8181101562000bf75783516001600160a01b03168352928401929184019160010162000bd0565b50909695505050505050565b901515815260200190565b60006020825262000986602083018462000ad8565b600060a0825262000c3860a083018862000ad8565b6001600160a01b0387811660208581019190915290871660408086019190915284830360608601528290810187855b600281101562000c9657858303845262000c8383835162000ad8565b9385019392509084019060010162000c67565b5050809450505050508260808301529695505050505050565b6020808252600b908201526a10d85b1b0819985a5b195960aa1b604082015260600190565b60c08082526011908201527021b7b73a3930b1ba1021b932b0ba34b7b760791b60e082015260208101949094526001600160a01b039283166040850152911660608301526101006080830181905260009083015260a08201526101200190565b60208082526023908201527f596f75206e65656420746f207061737320696e2065786163746c7920312065746040820152623432b960e91b606082015260800190565b60208082526021908201527f596f7520646f206e6f742068617665206f7261636c65207065726d697373696f6040820152603760f91b606082015260800190565b90815260200190565b6040518181016001600160401b038111828210171562000de55762000de562000ed6565b604052919050565b60006001600160401b0382111562000e095762000e0962000ed6565b50601f01601f191660200190565b6000821982111562000e2d5762000e2d62000ec0565b500190565b60005b8381101562000e4f57818101518382015260200162000e35565b8381111562000e5f576000848401525b50505050565b60028104600182168062000e7a57607f821691505b6020821081141562000e9c57634e487b7160e01b600052602260045260246000fd5b50919050565b600060001982141562000eb95762000eb962000ec0565b5060010190565b634e487b7160e01b600052601160045260246000fd5b634e487b7160e01b600052604160045260246000fdfe6080604052670de0b6b3a7640000600b553480156200001d57600080fd5b506040516200254438038062002544833981016040819052620000409162000363565b84516200005590600090602088019062000156565b50620000656001836002620001e5565b50600480546001600160a01b038087166001600160a01b03199283161790925560058054928616929091169190911790556000600681905560078190556008829055620000b49060016200046c565b600754600654620000c691906200046c565b620000d39060026200046c565b600b54620000e2919062000487565b620000ee9190620004a8565b600955600754620001019060016200046c565b6007546006546200011391906200046c565b620001209060026200046c565b600b546200012f919062000487565b6200013b9190620004a8565b600a555050600c805462ff0000191690555062000533915050565b8280546200016490620004ca565b90600052602060002090601f016020900481019282620001885760008555620001d3565b82601f10620001a357805160ff1916838001178555620001d3565b82800160010185558215620001d3579182015b82811115620001d3578251825591602001919060010190620001b6565b50620001e192915062000238565b5090565b82600281019282156200022a579160200282015b828111156200022a57825180516200021991849160209091019062000156565b5091602001919060010190620001f9565b50620001e19291506200024f565b5b80821115620001e1576000815560010162000239565b80821115620001e157600062000266828262000270565b506001016200024f565b5080546200027e90620004ca565b6000825580601f10620002925750620002b2565b601f016020900490600052602060002090810190620002b2919062000238565b50565b80516001600160a01b0381168114620002cd57600080fd5b919050565b600082601f830112620002e3578081fd5b81516001600160401b03811115620002ff57620002ff6200051d565b602062000315601f8301601f1916820162000440565b828152858284870101111562000329578384fd5b835b83811015620003485785810183015182820184015282016200032b565b838111156200035957848385840101525b5095945050505050565b600080600080600060a086880312156200037b578081fd5b85516001600160401b038082111562000392578283fd5b620003a089838a01620002d2565b965060209150620003b3828901620002b5565b9550620003c360408901620002b5565b9450606088015181811115620003d7578384fd5b88019050601f81018913620003ea578283fd5b620003f6604062000440565b8082855b60028110156200042657620004138d83518701620002d2565b84529285019290850190600101620003fa565b505080955050505050608086015190509295509295909350565b6040518181016001600160401b03811182821017156200046457620004646200051d565b604052919050565b6000821982111562000482576200048262000507565b500190565b600082620004a357634e487b7160e01b81526012600452602481fd5b500490565b6000816000190483118215151615620004c557620004c562000507565b500290565b600281046001821680620004df57607f821691505b602082108114156200050157634e487b7160e01b600052602260045260246000fd5b50919050565b634e487b7160e01b600052601160045260246000fd5b634e487b7160e01b600052604160045260246000fd5b61200180620005436000396000f3fe608060405260043610620001dc5760003560e01c8063086707da14620001e15780630c4f65bd14620002115780630d75f3b714620002295780630f5ec13a14620002505780631f67c80b14620002775780632002dff914620002ab57806323459dba14620002c35780632a33030f14620002db5780633aca040714620002f3578063483f0219146200030c57806350d51ebd14620003165780635a1c5830146200033b578063603d55d7146200035357806369fdbf85146200036b5780636f9fb98a14620003905780637e1bced814620003a85780638a2836c514620003bf5780638da5cb5b14620003d75780638e7ea5b214620003ef5780639040a9491462000416578063966dae0e146200042e57806397545f291462000446578063a3912ec8146200045e578063a6e9e71e1462000468578063a9c2e36c146200047f578063b9426a431462000497578063bbafcff014620004ae578063bd0198f014620004c6578063c291c58d14620004ed578063c831c1db1462000505578063d7654099146200051d578063dbd1a50e1462000535578063dde892ba146200054d578063dfbf53ae1462000565578063e38d6b5c146200057d578063e6bfd26a1462000595578063e82898b314620005ad578063ead5a40d14620005c5575b600080fd5b348015620001ee57600080fd5b50620001f9620005dd565b60405162000208919062001553565b60405180910390f35b3480156200021e57600080fd5b50620001f96200066e565b3480156200023657600080fd5b50620002416200067d565b604051620002089190620018a4565b3480156200025d57600080fd5b506200026862000683565b604051620002089190620015b8565b3480156200028457600080fd5b506200029c6200029636600462001454565b62000692565b604051620002089190620015c3565b348015620002b857600080fd5b50620002416200073b565b348015620002d057600080fd5b506200024162000741565b348015620002e857600080fd5b506200024162000747565b6200030a6200030436600462001454565b62000766565b005b6200030a620009e2565b3480156200032357600080fd5b50620002416200033536600462001358565b62000cab565b3480156200034857600080fd5b506200026862000cc8565b3480156200036057600080fd5b506200024162000d0a565b3480156200037857600080fd5b506200030a6200038a3660046200146d565b62000d10565b3480156200039d57600080fd5b506200024162000d93565b6200030a620003b936600462001454565b62000d97565b348015620003cc57600080fd5b506200024162000e82565b348015620003e457600080fd5b50620001f962000e88565b348015620003fc57600080fd5b506200040762000e97565b604051620002089190620018ad565b3480156200042357600080fd5b506200024162000ea0565b3480156200043b57600080fd5b50620001f962000ea6565b3480156200045357600080fd5b506200024162000eb5565b6200030a62000ebb565b6200030a6200047936600462001454565b62000ebd565b3480156200048c57600080fd5b50620001f962000fa7565b6200030a620004a836600462001454565b62000fb6565b348015620004bb57600080fd5b5062000241620010fb565b348015620004d357600080fd5b50620004de62001101565b60405162000208919062001567565b348015620004fa57600080fd5b506200029c620011d3565b3480156200051257600080fd5b50620002416200126d565b3480156200052a57600080fd5b506200026862001273565b3480156200054257600080fd5b506200024162001282565b3480156200055a57600080fd5b506200024162001288565b3480156200057257600080fd5b5062000407620012a6565b3480156200058a57600080fd5b5062000241620012af565b348015620005a257600080fd5b506200029c620012b5565b348015620005ba57600080fd5b5062000407620012c4565b348015620005d257600080fd5b5062000241620012d2565b6000600460009054906101000a90046001600160a01b03166001600160a01b03166388a070966040518163ffffffff1660e01b815260040160206040518083038186803b1580156200062e57600080fd5b505afa15801562000643573d6000803e3d6000fd5b505050506040513d601f19601f8201168201806040525081019062000669919062001332565b905090565b6005546001600160a01b031690565b600a5490565b600c5462010000900460ff1690565b60018160028110620006a357600080fd5b018054909150620006b49062001933565b80601f0160208091040260200160405190810160405280929190818152602001828054620006e29062001933565b8015620007335780601f10620007075761010080835404028352916020019162000733565b820191906000526020600020905b8154815290600101906020018083116200071557829003601f168201915b505050505081565b60095490565b60065481565b3360009081526003602090815260408083206001845290915290205490565b600c5462010000900460ff16156200079b5760405162461bcd60e51b8152600401620007929062001720565b60405180910390fd5b336000908152600360209081526040808320838052909152902054811115620007d85760405162461bcd60e51b8152600401620007929062001878565b60006002600a5483620007ec9190620018f7565b620007f89190620018d6565b90506000813330856040516200080e90620012d8565b6200081d94939291906200160c565b604051809103906000f0801580156200083a573d6000803e3d6000fd5b50604051909150339083156108fc029084906000818181858888f193505050501580156200086c573d6000803e3d6000fd5b50826007600082825462000881919062001919565b909155505033600090815260036020908152604080832083805290915281208054859290620008b290849062001919565b90915550506004805460405163c155e4ed60e01b81526001600160a01b039091169163c155e4ed91620008e89185910162001553565b600060405180830381600087803b1580156200090357600080fd5b505af115801562000918573d6000803e3d6000fd5b505050506040513d6000823e601f3d908101601f1916820160405262000942919081019062001386565b5060065462000953906001620018bb565b600754600654620009659190620018bb565b62000972906002620018bb565b600b54620009819190620018d6565b6200098d9190620018f7565b600955600754620009a0906001620018bb565b600754600654620009b29190620018bb565b620009bf906002620018bb565b600b54620009ce9190620018d6565b620009da9190620018f7565b600a55505050565b336000908152600360209081526040808320600c5460ff168452909152812054908162000a235760405162461bcd60e51b81526004016200079290620016a8565b600c5462010000900460ff16151560011462000a535760405162461bcd60e51b81526004016200079290620016df565b600c5460ff1662000b025733600090815260036020908152604080832083805290915290205460075462000a889047620018d6565b62000a949190620018f7565b33600090815260036020908152604080832083805290915281205460078054939450909290919062000ac890849062001919565b9091555050604051339082156108fc029083906000818181858888f1935050505015801562000afb573d6000803e3d6000fd5b5062000bb2565b600c5460ff166001141562000bb2573360009081526003602090815260408083206001845290915290205460065462000b3c9047620018d6565b62000b489190620018f7565b3360009081526003602090815260408083206001845290915281205460068054939450909290919062000b7d90849062001919565b9091555050604051339082156108fc029083906000818181858888f1935050505015801562000bb0573d6000803e3d6000fd5b505b6000813330600060405162000bc790620012d8565b62000bd69493929190620017cb565b604051809103906000f08015801562000bf3573d6000803e3d6000fd5b506004805460405163c155e4ed60e01b81529293506001600160a01b03169163c155e4ed9162000c269185910162001553565b600060405180830381600087803b15801562000c4157600080fd5b505af115801562000c56573d6000803e3d6000fd5b505050506040513d6000823e601f3d908101601f1916820160405262000c80919081019062001386565b5050336000908152600360209081526040808320838052909152808220829055600182528120555050565b600360209081526000928352604080842090915290825290205481565b60008062000cd5620005dd565b9050336001600160a01b0382161462000d025760405162461bcd60e51b81526004016200079290620015d8565b600191505090565b60085490565b600062000d1c620005dd565b9050336001600160a01b03821614801562000d405750600c5462010000900460ff16155b62000d5f5760405162461bcd60e51b8152600401620007929062001826565b50600c80546201000060ff1990911660ff9485161761ff00191661010093909416929092029290921762ff00001916179055565b4790565b600c5462010000900460ff161562000dc35760405162461bcd60e51b8152600401620007929062001720565b60006009548262000dd59190620018f7565b905080341462000df95760405162461bcd60e51b8152600401620007929062001754565b60008133308560405162000e0d90620012d8565b62000e1c9493929190620017b7565b604051809103906000f08015801562000e39573d6000803e3d6000fd5b509050826006600082825462000e509190620018bb565b90915550503360009081526003602090815260408083206001845290915281208054859290620008b2908490620018bb565b600d5481565b6005546001600160a01b031681565b600c5460ff1690565b60075490565b6004546001600160a01b031681565b60085481565b565b600c5462010000900460ff161562000ee95760405162461bcd60e51b8152600401620007929062001720565b6000600a548262000efb9190620018f7565b905080341462000f1f5760405162461bcd60e51b8152600401620007929062001754565b60008133308560405162000f3390620012d8565b62000f429493929190620017a3565b604051809103906000f08015801562000f5f573d6000803e3d6000fd5b509050826007600082825462000f769190620018bb565b909155505033600090815260036020908152604080832083805290915281208054859290620008b2908490620018bb565b6004546001600160a01b031690565b600c5462010000900460ff161562000fe25760405162461bcd60e51b8152600401620007929062001720565b33600090815260036020908152604080832060018452909152902054811115620010205760405162461bcd60e51b8152600401620007929062001878565b6000600260095483620010349190620018f7565b620010409190620018d6565b90506000813330856040516200105690620012d8565b62001065949392919062001663565b604051809103906000f08015801562001082573d6000803e3d6000fd5b50604051909150339083156108fc029084906000818181858888f19350505050158015620010b4573d6000803e3d6000fd5b508260066000828254620010c9919062001919565b90915550503360009081526003602090815260408083206001845290915281208054859290620008b290849062001919565b60065490565b6200110b620012e6565b60408051808201909152600160026000835b82821015620011ca578382018054620011369062001933565b80601f0160208091040260200160405190810160405280929190818152602001828054620011649062001933565b8015620011b55780601f106200118957610100808354040283529160200191620011b5565b820191906000526020600020905b8154815290600101906020018083116200119757829003601f168201915b5050505050815260200190600101906200111d565b50505050905090565b606060008054620011e49062001933565b80601f0160208091040260200160405190810160405280929190818152602001828054620012129062001933565b8015620012635780601f10620012375761010080835404028352916020019162001263565b820191906000526020600020905b8154815290600101906020018083116200124557829003601f168201915b5050505050905090565b600a5481565b600c5462010000900460ff1681565b60095481565b33600090815260036020908152604080832083805290915290205490565b600c5460ff1681565b600b5481565b60008054620006b49062001933565b600c54610100900460ff1681565b60075481565b61061680620019b683390190565b60405180604001604052806002905b6060815260200190600190039081620012f55790505090565b80516200131b816200199c565b919050565b803560ff811681146200131b57600080fd5b60006020828403121562001344578081fd5b815162001351816200199c565b9392505050565b600080604083850312156200136b578081fd5b823562001378816200199c565b946020939093013593505050565b6000602080838503121562001399578182fd5b82516001600160401b0380821115620013b0578384fd5b818501915085601f830112620013c4578384fd5b815181811115620013d957620013d962001986565b83810260405185828201018181108582111715620013fb57620013fb62001986565b604052828152858101935084860182860187018a10156200141a578788fd5b8795505b83861015620014475762001432816200130e565b8552600195909501949386019386016200141e565b5098975050505050505050565b60006020828403121562001466578081fd5b5035919050565b6000806040838503121562001480578182fd5b6200148b8362001320565b91506200149b6020840162001320565b90509250929050565b60008151808452815b81811015620014cb57602081850181015186830182015201620014ad565b81811115620014dd5782602083870101525b50601f01601f19169290920160200192915050565b600481526314d95b1b60e21b602082015260400190565b60078152662716aa37b5b2b760c91b602082015260400190565b600381526242757960e81b602082015260400190565b60078152662c96aa37b5b2b760c91b602082015260400190565b6001600160a01b0391909116815260200190565b60208082526000906060830183820185845b6002811015620015ac57601f1987850301835262001599848351620014a4565b9350918401919084019060010162001579565b50919695505050505050565b901515815260200190565b600060208252620013516020830184620014a4565b6020808252601a90820152792cb7ba903237903737ba103430bb32903832b936b4b9b9b4b7b760311b604082015260600190565b600060c082526200162060c08301620014f2565b602083018790526001600160a01b038681166040850152851660608401528281036080840152620016518162001509565b9150508260a083015295945050505050565b600060c082526200167760c08301620014f2565b602083018790526001600160a01b038681166040850152851660608401528281036080840152620016518162001539565b6020808252601f908201527f596f7520646f206e6f74206861766520616e792077696e6e696e672062657400604082015260600190565b60208082526021908201527f4f7261636c6520686173206e6f742064656369646564206f6e206f7574636f6d6040820152606560f81b606082015260800190565b6020808252601a90820152794f7261636c6520686173206465636964656420616c726561647960301b604082015260600190565b6020808252602f908201527f596f75206e65656420746f207061737320696e2074686520636f72726563742060408201526e30b6b7bab73a1037b31032ba3432b960891b606082015260800190565b600060c082526200162060c0830162001523565b600060c082526200167760c0830162001523565b60c0808252600c908201526b52657761726420436c61696d60a01b60e082015260208101949094526001600160a01b039283166040850152911660608301526101006080830181905260009083015260a08201526101200190565b60208082526032908201527f596f7520646f206e6f742068617665207065726d697373696f6e2f596f75206860408201527130bb329030b63932b0b23c9031b437b9b2b760711b606082015260800190565b6020808252601290820152714e6f7420456e6f75676820546f6b656e732160701b604082015260600190565b90815260200190565b60ff91909116815260200190565b60008219821115620018d157620018d162001970565b500190565b600082620018f257634e487b7160e01b81526012600452602481fd5b500490565b600081600019048311821515161562001914576200191462001970565b500290565b6000828210156200192e576200192e62001970565b500390565b6002810460018216806200194857607f821691505b602082108114156200196a57634e487b7160e01b600052602260045260246000fd5b50919050565b634e487b7160e01b600052601160045260246000fd5b634e487b7160e01b600052604160045260246000fd5b6001600160a01b0381168114620019b257600080fd5b5056fe608060405234801561001057600080fd5b5060405161061638038061061683398101604081905261002f916101ef565b855161004290600090602089019061009a565b506001859055600280546001600160a01b038087166001600160a01b0319928316179092556003805492861692909116919091179055815161008b90600490602085019061009a565b50600555506102d39350505050565b8280546100a690610282565b90600052602060002090601f0160209004810192826100c8576000855561010e565b82601f106100e157805160ff191683800117855561010e565b8280016001018555821561010e579182015b8281111561010e5782518255916020019190600101906100f3565b5061011a92915061011e565b5090565b5b8082111561011a576000815560010161011f565b80516001600160a01b038116811461014a57600080fd5b919050565b600082601f83011261015f578081fd5b81516001600160401b0380821115610179576101796102bd565b6040516020601f8401601f191682018101838111838210171561019e5761019e6102bd565b60405283825285840181018710156101b4578485fd5b8492505b838310156101d557858301810151828401820152918201916101b8565b838311156101e557848185840101525b5095945050505050565b60008060008060008060c08789031215610207578182fd5b86516001600160401b038082111561021d578384fd5b6102298a838b0161014f565b97506020890151965061023e60408a01610133565b955061024c60608a01610133565b94506080890151915080821115610261578384fd5b5061026e89828a0161014f565b92505060a087015190509295509295509295565b60028104600182168061029657607f821691505b602082108114156102b757634e487b7160e01b600052602260045260246000fd5b50919050565b634e487b7160e01b600052604160045260246000fd5b610334806102e26000396000f3fe608060405234801561001057600080fd5b50600436106100785760003560e01c80630b96184b1461007d578063524ecd141461009b57806378a89567146100a3578063861a844d146100b8578063a772e622146100c0578063b1aeae31146100d5578063f02da255146100dd578063fcab1819146100e5575b600080fd5b6100856100ed565b6040516100929190610267565b60405180910390f35b61008561017f565b6100ab61020d565b60405161009291906102ba565b610085610213565b6100c8610220565b6040516100929190610253565b6100c861022f565b6100ab61023e565b610085610244565b6060600080546100fc906102c3565b80601f0160208091040260200160405190810160405280929190818152602001828054610128906102c3565b80156101755780601f1061014a57610100808354040283529160200191610175565b820191906000526020600020905b81548152906001019060200180831161015857829003601f168201915b5050505050905090565b6004805461018c906102c3565b80601f01602080910402602001604051908101604052809291908181526020018280546101b8906102c3565b80156102055780601f106101da57610100808354040283529160200191610205565b820191906000526020600020905b8154815290600101906020018083116101e857829003601f168201915b505050505081565b60055490565b6000805461018c906102c3565b6003546001600160a01b031690565b6002546001600160a01b031690565b60015490565b6060600480546100fc906102c3565b6001600160a01b0391909116815260200190565b6000602080835283518082850152825b8181101561029357858101830151858201604001528201610277565b818111156102a45783604083870101525b50601f01601f1916929092016040019392505050565b90815260200190565b6002810460018216806102d757607f821691505b602082108114156102f857634e487b7160e01b600052602260045260246000fd5b5091905056fea2646970667358221220c40ef3e6fe152767cec5e9177e1eb67dd326b45d4b6179f5a45c9555b6226bcf64736f6c63430008000033a26469706673582212208fc0e79e5ed38dd57699af59b5ba6036ecf3d838d4daf40d81401a92369fba5d64736f6c63430008000033608060405234801561001057600080fd5b5060405161061638038061061683398101604081905261002f916101ef565b855161004290600090602089019061009a565b506001859055600280546001600160a01b038087166001600160a01b0319928316179092556003805492861692909116919091179055815161008b90600490602085019061009a565b50600555506102d39350505050565b8280546100a690610282565b90600052602060002090601f0160209004810192826100c8576000855561010e565b82601f106100e157805160ff191683800117855561010e565b8280016001018555821561010e579182015b8281111561010e5782518255916020019190600101906100f3565b5061011a92915061011e565b5090565b5b8082111561011a576000815560010161011f565b80516001600160a01b038116811461014a57600080fd5b919050565b600082601f83011261015f578081fd5b81516001600160401b0380821115610179576101796102bd565b6040516020601f8401601f191682018101838111838210171561019e5761019e6102bd565b60405283825285840181018710156101b4578485fd5b8492505b838310156101d557858301810151828401820152918201916101b8565b838311156101e557848185840101525b5095945050505050565b60008060008060008060c08789031215610207578182fd5b86516001600160401b038082111561021d578384fd5b6102298a838b0161014f565b97506020890151965061023e60408a01610133565b955061024c60608a01610133565b94506080890151915080821115610261578384fd5b5061026e89828a0161014f565b92505060a087015190509295509295509295565b60028104600182168061029657607f821691505b602082108114156102b757634e487b7160e01b600052602260045260246000fd5b50919050565b634e487b7160e01b600052604160045260246000fd5b610334806102e26000396000f3fe608060405234801561001057600080fd5b50600436106100785760003560e01c80630b96184b1461007d578063524ecd141461009b57806378a89567146100a3578063861a844d146100b8578063a772e622146100c0578063b1aeae31146100d5578063f02da255146100dd578063fcab1819146100e5575b600080fd5b6100856100ed565b6040516100929190610267565b60405180910390f35b61008561017f565b6100ab61020d565b60405161009291906102ba565b610085610213565b6100c8610220565b6040516100929190610253565b6100c861022f565b6100ab61023e565b610085610244565b6060600080546100fc906102c3565b80601f0160208091040260200160405190810160405280929190818152602001828054610128906102c3565b80156101755780601f1061014a57610100808354040283529160200191610175565b820191906000526020600020905b81548152906001019060200180831161015857829003601f168201915b5050505050905090565b6004805461018c906102c3565b80601f01602080910402602001604051908101604052809291908181526020018280546101b8906102c3565b80156102055780601f106101da57610100808354040283529160200191610205565b820191906000526020600020905b8154815290600101906020018083116101e857829003601f168201915b505050505081565b60055490565b6000805461018c906102c3565b6003546001600160a01b031690565b6002546001600160a01b031690565b60015490565b6060600480546100fc906102c3565b6001600160a01b0391909116815260200190565b6000602080835283518082850152825b8181101561029357858101830151858201604001528201610277565b818111156102a45783604083870101525b50601f01601f1916929092016040019392505050565b90815260200190565b6002810460018216806102d757607f821691505b602082108114156102f857634e487b7160e01b600052602260045260246000fd5b5091905056fea2646970667358221220c40ef3e6fe152767cec5e9177e1eb67dd326b45d4b6179f5a45c9555b6226bcf64736f6c63430008000033c2575a0e9e593c00f959f8c92f12db2869c3395a3b0502d05e2516446f71f85ba26469706673582212203f4ee702c5c6915e4db269925816c3d249d2caeb93234d46602a2059f606665764736f6c63430008000033",
  "linkReferences": {},
  "deployedLinkReferences": {}
}