{
  "_format": "hh-sol-artifact-1",
  "contractName": "Market",
  "sourceName": "contracts/MarketTracker.sol",
  "abi": [
    {
      "inputs": [
        {
          "internalType": "string",
          "name": "_marketName",
          "type": "string"
        },
        {
          "internalType": "address",
          "name": "_owner",
          "type": "address"
        },
        {
          "internalType": "string[2]",
          "name": "_side",
          "type": "string[2]"
        }
      ],
      "stateMutability": "nonpayable",
      "type": "constructor"
    },
    {
      "inputs": [],
      "name": "MarketName",
      "outputs": [
        {
          "internalType": "string",
          "name": "",
          "type": "string"
        }
      ],
      "stateMutability": "view",
      "type": "function"
    },
    {
      "inputs": [],
      "name": "Owner",
      "outputs": [
        {
          "internalType": "address",
          "name": "",
          "type": "address"
        }
      ],
      "stateMutability": "view",
      "type": "function"
    },
    {
      "inputs": [
        {
          "internalType": "uint256",
          "name": "",
          "type": "uint256"
        }
      ],
      "name": "Side",
      "outputs": [
        {
          "internalType": "string",
          "name": "",
          "type": "string"
        }
      ],
      "stateMutability": "view",
      "type": "function"
    },
    {
      "inputs": [
        {
          "internalType": "uint256",
          "name": "",
          "type": "uint256"
        }
      ],
      "name": "bets",
      "outputs": [
        {
          "internalType": "uint256",
          "name": "",
          "type": "uint256"
        }
      ],
      "stateMutability": "view",
      "type": "function"
    },
    {
      "inputs": [
        {
          "internalType": "address",
          "name": "",
          "type": "address"
        },
        {
          "internalType": "uint256",
          "name": "",
          "type": "uint256"
        }
      ],
      "name": "betsPerGambler",
      "outputs": [
        {
          "internalType": "uint256",
          "name": "",
          "type": "uint256"
        }
      ],
      "stateMutability": "view",
      "type": "function"
    },
    {
      "inputs": [],
      "name": "getMarketName",
      "outputs": [
        {
          "internalType": "string",
          "name": "",
          "type": "string"
        }
      ],
      "stateMutability": "view",
      "type": "function"
    },
    {
      "inputs": [],
      "name": "getSide0Bet",
      "outputs": [
        {
          "internalType": "uint256",
          "name": "",
          "type": "uint256"
        }
      ],
      "stateMutability": "view",
      "type": "function"
    },
    {
      "inputs": [],
      "name": "getSide0Count",
      "outputs": [
        {
          "internalType": "uint256",
          "name": "",
          "type": "uint256"
        }
      ],
      "stateMutability": "view",
      "type": "function"
    },
    {
      "inputs": [],
      "name": "getSide1Bet",
      "outputs": [
        {
          "internalType": "uint256",
          "name": "",
          "type": "uint256"
        }
      ],
      "stateMutability": "view",
      "type": "function"
    },
    {
      "inputs": [],
      "name": "getSide1Count",
      "outputs": [
        {
          "internalType": "uint256",
          "name": "",
          "type": "uint256"
        }
      ],
      "stateMutability": "view",
      "type": "function"
    },
    {
      "inputs": [
        {
          "internalType": "uint256",
          "name": "sideIndex",
          "type": "uint256"
        }
      ],
      "name": "placeBet",
      "outputs": [],
      "stateMutability": "payable",
      "type": "function"
    }
  ],
  "bytecode": "0x60806040523480156200001157600080fd5b5060405162000efe38038062000efe833981810160405281019062000037919062000368565b82600090805190602001906200004f929190620000e1565b508060019060026200006392919062000172565b5081600560006101000a81548173ffffffffffffffffffffffffffffffffffffffff021916908373ffffffffffffffffffffffffffffffffffffffff16021790555060006003600080815260200190815260200160002081905550600060036000600181526020019081526020016000208190555050505062000598565b828054620000ef90620004ea565b90600052602060002090601f0160209004810192826200011357600085556200015f565b82601f106200012e57805160ff19168380011785556200015f565b828001600101855582156200015f579182015b828111156200015e57825182559160200191906001019062000141565b5b5090506200016e9190620001cc565b5090565b8260028101928215620001b9579160200282015b82811115620001b8578251829080519060200190620001a7929190620000e1565b509160200191906001019062000186565b5b509050620001c89190620001eb565b5090565b5b80821115620001e7576000816000905550600101620001cd565b5090565b5b808211156200020f576000818162000205919062000213565b50600101620001ec565b5090565b5080546200022190620004ea565b6000825580601f1062000235575062000256565b601f016020900490600052602060002090810190620002559190620001cc565b5b50565b6000620002706200026a8462000424565b620003f0565b9050808260005b85811015620002ab57815185016200029088826200033b565b84526020840193506020830192505060018101905062000277565b5050509392505050565b6000620002cc620002c6846200044d565b620003f0565b905082815260208101848484011115620002e557600080fd5b620002f2848285620004b4565b509392505050565b6000815190506200030b816200057e565b92915050565b600082601f8301126200032357600080fd5b60026200033284828562000259565b91505092915050565b600082601f8301126200034d57600080fd5b81516200035f848260208601620002b5565b91505092915050565b6000806000606084860312156200037e57600080fd5b600084015167ffffffffffffffff8111156200039957600080fd5b620003a7868287016200033b565b9350506020620003ba86828701620002fa565b925050604084015167ffffffffffffffff811115620003d857600080fd5b620003e68682870162000311565b9150509250925092565b6000604051905081810181811067ffffffffffffffff821117156200041a57620004196200054f565b5b8060405250919050565b600067ffffffffffffffff8211156200044257620004416200054f565b5b602082029050919050565b600067ffffffffffffffff8211156200046b576200046a6200054f565b5b601f19601f8301169050602081019050919050565b60006200048d8262000494565b9050919050565b600073ffffffffffffffffffffffffffffffffffffffff82169050919050565b60005b83811015620004d4578082015181840152602081019050620004b7565b83811115620004e4576000848401525b50505050565b600060028204905060018216806200050357607f821691505b602082108114156200051a576200051962000520565b5b50919050565b7f4e487b7100000000000000000000000000000000000000000000000000000000600052602260045260246000fd5b7f4e487b7100000000000000000000000000000000000000000000000000000000600052604160045260246000fd5b620005898162000480565b81146200059557600080fd5b50565b61095680620005a86000396000f3fe60806040526004361061009c5760003560e01c806322af00fa1161006457806322af00fa1461018d578063b2cf2c06146101ca578063b4a99a4e146101f5578063c291c58d14610220578063ed032bc41461024b578063f99ab61d146102765761009c565b806305f7fedf146100a1578063073ed873146100de57806310fe7c48146101095780631f67c80b146101255780632055c66814610162575b600080fd5b3480156100ad57600080fd5b506100c860048036038101906100c3919061065c565b6102a1565b6040516100d59190610755565b60405180910390f35b3480156100ea57600080fd5b506100f36102c6565b6040516101009190610755565b60405180910390f35b610123600480360381019061011e9190610698565b61031f565b005b34801561013157600080fd5b5061014c60048036038101906101479190610698565b6103a2565b6040516101599190610733565b60405180910390f35b34801561016e57600080fd5b50610177610445565b6040516101849190610733565b60405180910390f35b34801561019957600080fd5b506101b460048036038101906101af9190610698565b6104d3565b6040516101c19190610755565b60405180910390f35b3480156101d657600080fd5b506101df6104eb565b6040516101ec9190610755565b60405180910390f35b34801561020157600080fd5b5061020a610543565b6040516102179190610718565b60405180910390f35b34801561022c57600080fd5b50610235610569565b6040516102429190610733565b60405180910390f35b34801561025757600080fd5b506102606105fb565b60405161026d9190610755565b60405180910390f35b34801561028257600080fd5b5061028b610617565b6040516102989190610755565b60405180910390f35b6004602052816000526040600020602052806000526040600020600091509150505481565b6000600460003373ffffffffffffffffffffffffffffffffffffffff1673ffffffffffffffffffffffffffffffffffffffff16815260200190815260200160002060006001815260200190815260200160002054905090565b6001600360008381526020019081526020016000206000828254610343919061078c565b9250508190555034600460003373ffffffffffffffffffffffffffffffffffffffff1673ffffffffffffffffffffffffffffffffffffffff16815260200190815260200160002060008381526020019081526020016000208190555050565b600181600281106103b257600080fd5b0160009150905080546103c490610851565b80601f01602080910402602001604051908101604052809291908181526020018280546103f090610851565b801561043d5780601f106104125761010080835404028352916020019161043d565b820191906000526020600020905b81548152906001019060200180831161042057829003601f168201915b505050505081565b6000805461045290610851565b80601f016020809104026020016040519081016040528092919081815260200182805461047e90610851565b80156104cb5780601f106104a0576101008083540402835291602001916104cb565b820191906000526020600020905b8154815290600101906020018083116104ae57829003601f168201915b505050505081565b60036020528060005260406000206000915090505481565b6000600460003373ffffffffffffffffffffffffffffffffffffffff1673ffffffffffffffffffffffffffffffffffffffff168152602001908152602001600020600080815260200190815260200160002054905090565b600560009054906101000a900473ffffffffffffffffffffffffffffffffffffffff1681565b60606000805461057890610851565b80601f01602080910402602001604051908101604052809291908181526020018280546105a490610851565b80156105f15780601f106105c6576101008083540402835291602001916105f1565b820191906000526020600020905b8154815290600101906020018083116105d457829003601f168201915b5050505050905090565b6000600360006001815260200190815260200160002054905090565b60006003600080815260200190815260200160002054905090565b600081359050610641816108f2565b92915050565b60008135905061065681610909565b92915050565b6000806040838503121561066f57600080fd5b600061067d85828601610632565b925050602061068e85828601610647565b9150509250929050565b6000602082840312156106aa57600080fd5b60006106b884828501610647565b91505092915050565b6106ca816107e2565b82525050565b60006106db82610770565b6106e5818561077b565b93506106f581856020860161081e565b6106fe816108e1565b840191505092915050565b61071281610814565b82525050565b600060208201905061072d60008301846106c1565b92915050565b6000602082019050818103600083015261074d81846106d0565b905092915050565b600060208201905061076a6000830184610709565b92915050565b600081519050919050565b600082825260208201905092915050565b600061079782610814565b91506107a283610814565b9250827fffffffffffffffffffffffffffffffffffffffffffffffffffffffffffffffff038211156107d7576107d6610883565b5b828201905092915050565b60006107ed826107f4565b9050919050565b600073ffffffffffffffffffffffffffffffffffffffff82169050919050565b6000819050919050565b60005b8381101561083c578082015181840152602081019050610821565b8381111561084b576000848401525b50505050565b6000600282049050600182168061086957607f821691505b6020821081141561087d5761087c6108b2565b5b50919050565b7f4e487b7100000000000000000000000000000000000000000000000000000000600052601160045260246000fd5b7f4e487b7100000000000000000000000000000000000000000000000000000000600052602260045260246000fd5b6000601f19601f8301169050919050565b6108fb816107e2565b811461090657600080fd5b50565b61091281610814565b811461091d57600080fd5b5056fea264697066735822122052652b166ef99be5339e236c863b38eb5d7f5a822ce83755a8db9ebf73e5243364736f6c63430008000033",
  "linkReferences": {},
  "deployedLinkReferences": {}
}