{
  "_format": "hh-sol-artifact-1",
  "contractName": "Market",
  "sourceName": "contracts/MarketTracker.sol",
  "abi": [
    {
      "inputs": [
        {
          "internalType": "string",
          "name": "_marketName",
          "type": "string"
        },
        {
          "internalType": "address",
          "name": "_factoryAddress",
          "type": "address"
        },
        {
          "internalType": "address",
          "name": "_owner",
          "type": "address"
        },
        {
          "internalType": "string[2]",
          "name": "_side",
          "type": "string[2]"
        },
        {
          "internalType": "uint256",
          "name": "_resultDate",
          "type": "uint256"
        }
      ],
      "stateMutability": "nonpayable",
      "type": "constructor"
    },
    {
      "anonymous": false,
      "inputs": [
        {
          "indexed": false,
          "internalType": "address",
          "name": "buyer",
          "type": "address"
        },
        {
          "indexed": false,
          "internalType": "address",
          "name": "seller",
          "type": "address"
        },
        {
          "indexed": false,
          "internalType": "uint256",
          "name": "amount",
          "type": "uint256"
        }
      ],
      "name": "Transaction",
      "type": "event"
    },
    {
      "inputs": [],
      "name": "N_Tokens",
      "outputs": [
        {
          "internalType": "uint256",
          "name": "",
          "type": "uint256"
        }
      ],
      "stateMutability": "view",
      "type": "function"
    },
    {
      "inputs": [
        {
          "internalType": "uint256",
          "name": "",
          "type": "uint256"
        }
      ],
      "name": "Side",
      "outputs": [
        {
          "internalType": "string",
          "name": "",
          "type": "string"
        }
      ],
      "stateMutability": "view",
      "type": "function"
    },
    {
      "inputs": [],
      "name": "Y_Tokens",
      "outputs": [
        {
          "internalType": "uint256",
          "name": "",
          "type": "uint256"
        }
      ],
      "stateMutability": "view",
      "type": "function"
    },
    {
      "inputs": [
        {
          "internalType": "uint256",
          "name": "amountOfCoin",
          "type": "uint256"
        }
      ],
      "name": "buyNToken",
      "outputs": [],
      "stateMutability": "payable",
      "type": "function"
    },
    {
      "inputs": [
        {
          "internalType": "uint256",
          "name": "amountOfCoin",
          "type": "uint256"
        }
      ],
      "name": "buyYToken",
      "outputs": [],
      "stateMutability": "payable",
      "type": "function"
    },
    {
      "inputs": [],
      "name": "checkPermission",
      "outputs": [
        {
          "internalType": "bool",
          "name": "",
          "type": "bool"
        }
      ],
      "stateMutability": "view",
      "type": "function"
    },
    {
      "inputs": [],
      "name": "currentNPrice",
      "outputs": [
        {
          "internalType": "uint256",
          "name": "",
          "type": "uint256"
        }
      ],
      "stateMutability": "view",
      "type": "function"
    },
    {
      "inputs": [],
      "name": "currentYPrice",
      "outputs": [
        {
          "internalType": "uint256",
          "name": "",
          "type": "uint256"
        }
      ],
      "stateMutability": "view",
      "type": "function"
    },
    {
      "inputs": [],
      "name": "factoryAddress",
      "outputs": [
        {
          "internalType": "address",
          "name": "",
          "type": "address"
        }
      ],
      "stateMutability": "view",
      "type": "function"
    },
    {
      "inputs": [],
      "name": "getContractBalance",
      "outputs": [
        {
          "internalType": "uint256",
          "name": "",
          "type": "uint256"
        }
      ],
      "stateMutability": "view",
      "type": "function"
    },
    {
      "inputs": [],
      "name": "getFactoryAddress",
      "outputs": [
        {
          "internalType": "address",
          "name": "",
          "type": "address"
        }
      ],
      "stateMutability": "view",
      "type": "function"
    },
    {
      "inputs": [],
      "name": "getMarketName",
      "outputs": [
        {
          "internalType": "string",
          "name": "",
          "type": "string"
        }
      ],
      "stateMutability": "view",
      "type": "function"
    },
    {
      "inputs": [],
      "name": "getNPrice",
      "outputs": [
        {
          "internalType": "uint256",
          "name": "",
          "type": "uint256"
        }
      ],
      "stateMutability": "view",
      "type": "function"
    },
    {
      "inputs": [],
      "name": "getNTokens",
      "outputs": [
        {
          "internalType": "uint256",
          "name": "",
          "type": "uint256"
        }
      ],
      "stateMutability": "view",
      "type": "function"
    },
    {
      "inputs": [],
      "name": "getOracleDecision",
      "outputs": [
        {
          "internalType": "bool",
          "name": "",
          "type": "bool"
        }
      ],
      "stateMutability": "view",
      "type": "function"
    },
    {
      "inputs": [],
      "name": "getOwnerAddress",
      "outputs": [
        {
          "internalType": "address",
          "name": "",
          "type": "address"
        }
      ],
      "stateMutability": "view",
      "type": "function"
    },
    {
      "inputs": [],
      "name": "getResultDate",
      "outputs": [
        {
          "internalType": "uint256",
          "name": "",
          "type": "uint256"
        }
      ],
      "stateMutability": "view",
      "type": "function"
    },
    {
      "inputs": [],
      "name": "getSide",
      "outputs": [
        {
          "internalType": "string[2]",
          "name": "",
          "type": "string[2]"
        }
      ],
      "stateMutability": "view",
      "type": "function"
    },
    {
      "inputs": [],
      "name": "getUserNTokens",
      "outputs": [
        {
          "internalType": "uint256",
          "name": "",
          "type": "uint256"
        }
      ],
      "stateMutability": "view",
      "type": "function"
    },
    {
      "inputs": [],
      "name": "getUserYTokens",
      "outputs": [
        {
          "internalType": "uint256",
          "name": "",
          "type": "uint256"
        }
      ],
      "stateMutability": "view",
      "type": "function"
    },
    {
      "inputs": [],
      "name": "getWebsiteStaff",
      "outputs": [
        {
          "internalType": "address",
          "name": "",
          "type": "address"
        }
      ],
      "stateMutability": "view",
      "type": "function"
    },
    {
      "inputs": [],
      "name": "getWinner",
      "outputs": [
        {
          "internalType": "uint8",
          "name": "",
          "type": "uint8"
        }
      ],
      "stateMutability": "view",
      "type": "function"
    },
    {
      "inputs": [],
      "name": "getYPrice",
      "outputs": [
        {
          "internalType": "uint256",
          "name": "",
          "type": "uint256"
        }
      ],
      "stateMutability": "view",
      "type": "function"
    },
    {
      "inputs": [],
      "name": "getYTokens",
      "outputs": [
        {
          "internalType": "uint256",
          "name": "",
          "type": "uint256"
        }
      ],
      "stateMutability": "view",
      "type": "function"
    },
    {
      "inputs": [],
      "name": "loser",
      "outputs": [
        {
          "internalType": "uint8",
          "name": "",
          "type": "uint8"
        }
      ],
      "stateMutability": "view",
      "type": "function"
    },
    {
      "inputs": [],
      "name": "marketName",
      "outputs": [
        {
          "internalType": "string",
          "name": "",
          "type": "string"
        }
      ],
      "stateMutability": "view",
      "type": "function"
    },
    {
      "inputs": [],
      "name": "maxPrice",
      "outputs": [
        {
          "internalType": "uint256",
          "name": "",
          "type": "uint256"
        }
      ],
      "stateMutability": "view",
      "type": "function"
    },
    {
      "inputs": [],
      "name": "oracleDecided",
      "outputs": [
        {
          "internalType": "bool",
          "name": "",
          "type": "bool"
        }
      ],
      "stateMutability": "view",
      "type": "function"
    },
    {
      "inputs": [],
      "name": "owner",
      "outputs": [
        {
          "internalType": "address",
          "name": "",
          "type": "address"
        }
      ],
      "stateMutability": "view",
      "type": "function"
    },
    {
      "inputs": [],
      "name": "receiveEther",
      "outputs": [],
      "stateMutability": "payable",
      "type": "function"
    },
    {
      "inputs": [],
      "name": "resultDate",
      "outputs": [
        {
          "internalType": "uint256",
          "name": "",
          "type": "uint256"
        }
      ],
      "stateMutability": "view",
      "type": "function"
    },
    {
      "inputs": [
        {
          "internalType": "uint256",
          "name": "amountOfCoin",
          "type": "uint256"
        }
      ],
      "name": "sellNToken",
      "outputs": [],
      "stateMutability": "payable",
      "type": "function"
    },
    {
      "inputs": [
        {
          "internalType": "uint256",
          "name": "amountOfCoin",
          "type": "uint256"
        }
      ],
      "name": "sellYToken",
      "outputs": [],
      "stateMutability": "payable",
      "type": "function"
    },
    {
      "inputs": [
        {
          "internalType": "uint8",
          "name": "_winner",
          "type": "uint8"
        },
        {
          "internalType": "uint8",
          "name": "_loser",
          "type": "uint8"
        }
      ],
      "name": "setWinningBet",
      "outputs": [],
      "stateMutability": "nonpayable",
      "type": "function"
    },
    {
      "inputs": [
        {
          "internalType": "address",
          "name": "",
          "type": "address"
        },
        {
          "internalType": "uint256",
          "name": "",
          "type": "uint256"
        }
      ],
      "name": "tokensPerGambler",
      "outputs": [
        {
          "internalType": "uint256",
          "name": "",
          "type": "uint256"
        }
      ],
      "stateMutability": "view",
      "type": "function"
    },
    {
      "inputs": [],
      "name": "winner",
      "outputs": [
        {
          "internalType": "uint8",
          "name": "",
          "type": "uint8"
        }
      ],
      "stateMutability": "view",
      "type": "function"
    },
    {
      "inputs": [],
      "name": "winningsPerToken",
      "outputs": [
        {
          "internalType": "uint256",
          "name": "",
          "type": "uint256"
        }
      ],
      "stateMutability": "view",
      "type": "function"
    },
    {
      "inputs": [],
      "name": "withdrawGains",
      "outputs": [],
      "stateMutability": "payable",
      "type": "function"
    }
  ],
  "bytecode": "0x6080604052670de0b6b3a7640000600b553480156200001d57600080fd5b506040516200219a3803806200219a833981016040819052620000409162000363565b84516200005590600090602088019062000156565b50620000656001836002620001e5565b50600480546001600160a01b038087166001600160a01b03199283161790925560058054928616929091169190911790556000600681905560078190556008829055620000b49060016200046c565b600754600654620000c691906200046c565b620000d39060026200046c565b600b54620000e2919062000487565b620000ee9190620004a8565b600955600754620001019060016200046c565b6007546006546200011391906200046c565b620001209060026200046c565b600b546200012f919062000487565b6200013b9190620004a8565b600a555050600c805462ff0000191690555062000533915050565b8280546200016490620004ca565b90600052602060002090601f016020900481019282620001885760008555620001d3565b82601f10620001a357805160ff1916838001178555620001d3565b82800160010185558215620001d3579182015b82811115620001d3578251825591602001919060010190620001b6565b50620001e192915062000238565b5090565b82600281019282156200022a579160200282015b828111156200022a57825180516200021991849160209091019062000156565b5091602001919060010190620001f9565b50620001e19291506200024f565b5b80821115620001e1576000815560010162000239565b80821115620001e157600062000266828262000270565b506001016200024f565b5080546200027e90620004ca565b6000825580601f10620002925750620002b2565b601f016020900490600052602060002090810190620002b2919062000238565b50565b80516001600160a01b0381168114620002cd57600080fd5b919050565b600082601f830112620002e3578081fd5b81516001600160401b03811115620002ff57620002ff6200051d565b602062000315601f8301601f1916820162000440565b828152858284870101111562000329578384fd5b835b83811015620003485785810183015182820184015282016200032b565b838111156200035957848385840101525b5095945050505050565b600080600080600060a086880312156200037b578081fd5b85516001600160401b038082111562000392578283fd5b620003a089838a01620002d2565b965060209150620003b3828901620002b5565b9550620003c360408901620002b5565b9450606088015181811115620003d7578384fd5b88019050601f81018913620003ea578283fd5b620003f6604062000440565b8082855b60028110156200042657620004138d83518701620002d2565b84529285019290850190600101620003fa565b505080955050505050608086015190509295509295909350565b6040518181016001600160401b03811182821017156200046457620004646200051d565b604052919050565b6000821982111562000482576200048262000507565b500190565b600082620004a357634e487b7160e01b81526012600452602481fd5b500490565b6000816000190483118215151615620004c557620004c562000507565b500290565b600281046001821680620004df57607f821691505b602082108114156200050157634e487b7160e01b600052602260045260246000fd5b50919050565b634e487b7160e01b600052601160045260246000fd5b634e487b7160e01b600052604160045260246000fd5b611c5780620005436000396000f3fe608060405260043610620001dc5760003560e01c8063086707da14620001e15780630c4f65bd14620002115780630d75f3b714620002295780630f5ec13a14620002505780631f67c80b14620002775780632002dff914620002ab57806323459dba14620002c35780632a33030f14620002db5780633aca040714620002f3578063483f0219146200030c57806350d51ebd14620003165780635a1c5830146200033b578063603d55d7146200035357806369fdbf85146200036b5780636f9fb98a14620003905780637e1bced814620003a85780638a2836c514620003bf5780638da5cb5b14620003d75780638e7ea5b214620003ef5780639040a9491462000416578063966dae0e146200042e57806397545f291462000446578063a3912ec8146200045e578063a6e9e71e1462000468578063a9c2e36c146200047f578063b9426a431462000497578063bbafcff014620004ae578063bd0198f014620004c6578063c291c58d14620004ed578063c831c1db1462000505578063d7654099146200051d578063dbd1a50e1462000535578063dde892ba146200054d578063dfbf53ae1462000565578063e38d6b5c146200057d578063e6bfd26a1462000595578063e82898b314620005ad578063ead5a40d14620005c5575b600080fd5b348015620001ee57600080fd5b50620001f9620005dd565b604051620002089190620013a5565b60405180910390f35b3480156200021e57600080fd5b50620001f96200066e565b3480156200023657600080fd5b50620002416200067d565b6040516200020891906200166e565b3480156200025d57600080fd5b506200026862000683565b6040516200020891906200140a565b3480156200028457600080fd5b506200029c6200029636600462001307565b62000692565b60405162000208919062001415565b348015620002b857600080fd5b50620002416200073b565b348015620002d057600080fd5b506200024162000741565b348015620002e857600080fd5b506200024162000747565b6200030a6200030436600462001307565b62000766565b005b6200030a620009d4565b3480156200032357600080fd5b5062000241620003353660046200120b565b62000b6c565b3480156200034857600080fd5b506200026862000b89565b3480156200036057600080fd5b506200024162000bcb565b3480156200037857600080fd5b506200030a6200038a36600462001320565b62000bd1565b3480156200039d57600080fd5b506200024162000c54565b6200030a620003b936600462001307565b62000c58565b348015620003cc57600080fd5b506200024162000d43565b348015620003e457600080fd5b50620001f962000d49565b348015620003fc57600080fd5b506200040762000d58565b60405162000208919062001677565b3480156200042357600080fd5b506200024162000d61565b3480156200043b57600080fd5b50620001f962000d67565b3480156200045357600080fd5b506200024162000d76565b6200030a62000d7c565b6200030a6200047936600462001307565b62000d7e565b3480156200048c57600080fd5b50620001f962000e68565b6200030a620004a836600462001307565b62000e77565b348015620004bb57600080fd5b506200024162000fae565b348015620004d357600080fd5b50620004de62000fb4565b604051620002089190620013b9565b348015620004fa57600080fd5b506200029c62001086565b3480156200051257600080fd5b506200024162001120565b3480156200052a57600080fd5b506200026862001126565b3480156200054257600080fd5b506200024162001135565b3480156200055a57600080fd5b50620002416200113b565b3480156200057257600080fd5b506200040762001159565b3480156200058a57600080fd5b506200024162001162565b348015620005a257600080fd5b506200029c62001168565b348015620005ba57600080fd5b506200040762001177565b348015620005d257600080fd5b506200024162001185565b6000600460009054906101000a90046001600160a01b03166001600160a01b03166388a070966040518163ffffffff1660e01b815260040160206040518083038186803b1580156200062e57600080fd5b505afa15801562000643573d6000803e3d6000fd5b505050506040513d601f19601f82011682018060405250810190620006699190620011e5565b905090565b6005546001600160a01b031690565b600a5490565b600c5462010000900460ff1690565b60018160028110620006a357600080fd5b018054909150620006b490620016fd565b80601f0160208091040260200160405190810160405280929190818152602001828054620006e290620016fd565b8015620007335780601f10620007075761010080835404028352916020019162000733565b820191906000526020600020905b8154815290600101906020018083116200071557829003601f168201915b505050505081565b60095490565b60065481565b3360009081526003602090815260408083206001845290915290205490565b600c5462010000900460ff16156200079b5760405162461bcd60e51b815260040162000792906200151b565b60405180910390fd5b336000908152600360209081526040808320838052909152902054811115620007d85760405162461bcd60e51b8152600401620007929062001642565b6000600a5482620007ea9190620016c1565b905060008130338560405162000800906200118b565b6200080f949392919062001491565b604051809103906000f0801580156200082c573d6000803e3d6000fd5b50604051909150339083156108fc029084906000818181858888f193505050501580156200085e573d6000803e3d6000fd5b508260076000828254620008739190620016e3565b909155505033600090815260036020908152604080832083805290915281208054859290620008a4908490620016e3565b90915550506004805460405163c155e4ed60e01b81526001600160a01b039091169163c155e4ed91620008da91859101620013a5565b600060405180830381600087803b158015620008f557600080fd5b505af11580156200090a573d6000803e3d6000fd5b505050506040513d6000823e601f3d908101601f1916820160405262000934919081019062001239565b506006546200094590600162001685565b60075460065462000957919062001685565b6200096490600262001685565b600b54620009739190620016a0565b6200097f9190620016c1565b6009556007546200099290600162001685565b600754600654620009a4919062001685565b620009b190600262001685565b600b54620009c09190620016a0565b620009cc9190620016c1565b600a55505050565b336000908152600360209081526040808320600c5460ff1684529091529020548062000a145760405162461bcd60e51b81526004016200079290620014e4565b600c5462010000900460ff16151560011462000a445760405162461bcd60e51b815260040162000792906200142a565b600c5460ff1662000ac457600d54336000908152600360209081526040808320838052909152812054909162000a7a91620016c1565b604051909150339082156108fc029083906000818181858888f1935050505015801562000aab573d6000803e3d6000fd5b5050670de0b6b3a7640000600a55600060095562000b44565b600c5460ff166001141562000b4457600d5433600090815260036020908152604080832060018452909152812054909162000aff91620016c1565b604051909150339082156108fc029083906000818181858888f1935050505015801562000b30573d6000803e3d6000fd5b5050670de0b6b3a76400006009556000600a555b5033600090815260036020908152604080832083805290915280822082905560018252812055565b600360209081526000928352604080842090915290825290205481565b60008062000b96620005dd565b9050336001600160a01b0382161462000bc35760405162461bcd60e51b815260040162000792906200145d565b600191505090565b60085490565b600062000bdd620005dd565b9050336001600160a01b03821614801562000c015750600c5462010000900460ff16155b62000c205760405162461bcd60e51b81526004016200079290620015f0565b50600c80546201000060ff1990911660ff9485161761ff00191661010093909416929092029290921762ff00001916179055565b4790565b600c5462010000900460ff161562000c845760405162461bcd60e51b815260040162000792906200151b565b60006009548262000c969190620016c1565b905080341462000cba5760405162461bcd60e51b815260040162000792906200154f565b60008133308560405162000cce906200118b565b62000cdd94939291906200159e565b604051809103906000f08015801562000cfa573d6000803e3d6000fd5b509050826006600082825462000d11919062001685565b90915550503360009081526003602090815260408083206001845290915281208054859290620008a490849062001685565b600d5481565b6005546001600160a01b031681565b600c5460ff1690565b60075490565b6004546001600160a01b031681565b60085481565b565b600c5462010000900460ff161562000daa5760405162461bcd60e51b815260040162000792906200151b565b6000600a548262000dbc9190620016c1565b905080341462000de05760405162461bcd60e51b815260040162000792906200154f565b60008133308560405162000df4906200118b565b62000e0394939291906200159e565b604051809103906000f08015801562000e20573d6000803e3d6000fd5b509050826007600082825462000e37919062001685565b909155505033600090815260036020908152604080832083805290915281208054859290620008a490849062001685565b6004546001600160a01b031690565b600c5462010000900460ff161562000ea35760405162461bcd60e51b815260040162000792906200151b565b3360009081526003602090815260408083206001845290915290205481111562000ee15760405162461bcd60e51b8152600401620007929062001642565b60006009548262000ef39190620016c1565b905060008130338560405162000f09906200118b565b62000f18949392919062001491565b604051809103906000f08015801562000f35573d6000803e3d6000fd5b50604051909150339083156108fc029084906000818181858888f1935050505015801562000f67573d6000803e3d6000fd5b50826006600082825462000f7c9190620016e3565b90915550503360009081526003602090815260408083206001845290915281208054859290620008a4908490620016e3565b60065490565b62000fbe62001199565b60408051808201909152600160026000835b828210156200107d57838201805462000fe990620016fd565b80601f01602080910402602001604051908101604052809291908181526020018280546200101790620016fd565b8015620010685780601f106200103c5761010080835404028352916020019162001068565b820191906000526020600020905b8154815290600101906020018083116200104a57829003601f168201915b50505050508152602001906001019062000fd0565b50505050905090565b6060600080546200109790620016fd565b80601f0160208091040260200160405190810160405280929190818152602001828054620010c590620016fd565b8015620011165780601f10620010ea5761010080835404028352916020019162001116565b820191906000526020600020905b815481529060010190602001808311620010f857829003601f168201915b5050505050905090565b600a5481565b600c5462010000900460ff1681565b60095481565b33600090815260036020908152604080832083805290915290205490565b600c5460ff1681565b600b5481565b60008054620006b490620016fd565b600c54610100900460ff1681565b60075481565b6104a2806200178083390190565b60405180604001604052806002905b6060815260200190600190039081620011a85790505090565b8051620011ce8162001766565b919050565b803560ff81168114620011ce57600080fd5b600060208284031215620011f7578081fd5b8151620012048162001766565b9392505050565b600080604083850312156200121e578081fd5b82356200122b8162001766565b946020939093013593505050565b600060208083850312156200124c578182fd5b82516001600160401b038082111562001263578384fd5b818501915085601f83011262001277578384fd5b8151818111156200128c576200128c62001750565b83810260405185828201018181108582111715620012ae57620012ae62001750565b604052828152858101935084860182860187018a1015620012cd578788fd5b8795505b83861015620012fa57620012e581620011c1565b855260019590950194938601938601620012d1565b5098975050505050505050565b60006020828403121562001319578081fd5b5035919050565b6000806040838503121562001333578182fd5b6200133e83620011d3565b91506200134e60208401620011d3565b90509250929050565b60008151808452815b818110156200137e5760208185018101518683018201520162001360565b81811115620013905782602083870101525b50601f01601f19169290920160200192915050565b6001600160a01b0391909116815260200190565b60208082526000906060830183820185845b6002811015620013fe57601f19878503018352620013eb84835162001357565b93509184019190840190600101620013cb565b50919695505050505050565b901515815260200190565b60006020825262001204602083018462001357565b60208082526019908201527810995d081a185d99481b9bdd08199a5b9a5cda1959081e595d603a1b604082015260600190565b6020808252601a90820152792cb7ba903237903737ba103430bb32903832b936b4b9b9b4b7b760311b604082015260600190565b60c08082526004908201526314d95b1b60e21b60e082015260208101949094526001600160a01b039283166040850152911660608301526101006080830181905260009083015260a08201526101200190565b6020808252601f908201527f596f7520646f206e6f74206861766520616e792077696e6e696e672062657400604082015260600190565b6020808252601a90820152794f7261636c6520686173206465636964656420616c726561647960301b604082015260600190565b6020808252602f908201527f596f75206e65656420746f207061737320696e2074686520636f72726563742060408201526e30b6b7bab73a1037b31032ba3432b960891b606082015260800190565b60c08082526003908201526242757960e81b60e082015260208101949094526001600160a01b039283166040850152911660608301526101006080830181905260009083015260a08201526101200190565b60208082526032908201527f596f7520646f206e6f742068617665207065726d697373696f6e2f596f75206860408201527130bb329030b63932b0b23c9031b437b9b2b760711b606082015260800190565b6020808252601290820152714e6f7420456e6f75676820546f6b656e732160701b604082015260600190565b90815260200190565b60ff91909116815260200190565b600082198211156200169b576200169b6200173a565b500190565b600082620016bc57634e487b7160e01b81526012600452602481fd5b500490565b6000816000190483118215151615620016de57620016de6200173a565b500290565b600082821015620016f857620016f86200173a565b500390565b6002810460018216806200171257607f821691505b602082108114156200173457634e487b7160e01b600052602260045260246000fd5b50919050565b634e487b7160e01b600052601160045260246000fd5b634e487b7160e01b600052604160045260246000fd5b6001600160a01b03811681146200177c57600080fd5b5056fe608060405234801561001057600080fd5b506040516104a23803806104a283398101604081905261002f916101ef565b855161004290600090602089019061009a565b506001859055600280546001600160a01b038087166001600160a01b0319928316179092556003805492861692909116919091179055815161008b90600490602085019061009a565b50600555506102d39350505050565b8280546100a690610282565b90600052602060002090601f0160209004810192826100c8576000855561010e565b82601f106100e157805160ff191683800117855561010e565b8280016001018555821561010e579182015b8281111561010e5782518255916020019190600101906100f3565b5061011a92915061011e565b5090565b5b8082111561011a576000815560010161011f565b80516001600160a01b038116811461014a57600080fd5b919050565b600082601f83011261015f578081fd5b81516001600160401b0380821115610179576101796102bd565b6040516020601f8401601f191682018101838111838210171561019e5761019e6102bd565b60405283825285840181018710156101b4578485fd5b8492505b838310156101d557858301810151828401820152918201916101b8565b838311156101e557848185840101525b5095945050505050565b60008060008060008060c08789031215610207578182fd5b86516001600160401b038082111561021d578384fd5b6102298a838b0161014f565b97506020890151965061023e60408a01610133565b955061024c60608a01610133565b94506080890151915080821115610261578384fd5b5061026e89828a0161014f565b92505060a087015190509295509295509295565b60028104600182168061029657607f821691505b602082108114156102b757634e487b7160e01b600052602260045260246000fd5b50919050565b634e487b7160e01b600052604160045260246000fd5b6101c0806102e26000396000f3fe608060405234801561001057600080fd5b50600436106100365760003560e01c8063524ecd141461003b578063861a844d14610059575b600080fd5b610043610061565b60405161005091906100fc565b60405180910390f35b6100436100ef565b6004805461006e9061014f565b80601f016020809104026020016040519081016040528092919081815260200182805461009a9061014f565b80156100e75780601f106100bc576101008083540402835291602001916100e7565b820191906000526020600020905b8154815290600101906020018083116100ca57829003601f168201915b505050505081565b6000805461006e9061014f565b6000602080835283518082850152825b818110156101285785810183015185820160400152820161010c565b818111156101395783604083870101525b50601f01601f1916929092016040019392505050565b60028104600182168061016357607f821691505b6020821081141561018457634e487b7160e01b600052602260045260246000fd5b5091905056fea264697066735822122004c6fc89a2e53e68379588297c5b4f25a6cc8223783428e1e90a2cb48a72f17364736f6c63430008000033a264697066735822122054b54c89638013438da491b021364dce3902ac09c316524ffe411d3204d4d29664736f6c63430008000033",
  "linkReferences": {},
  "deployedLinkReferences": {}
}