{
  "_format": "hh-sol-artifact-1",
  "contractName": "MarketTracker",
  "sourceName": "contracts/MarketTracker.sol",
  "abi": [
    {
      "inputs": [
        {
          "internalType": "string",
          "name": "_marketName",
          "type": "string"
        },
        {
          "internalType": "string[2]",
          "name": "_side",
          "type": "string[2]"
        },
        {
          "internalType": "uint256",
          "name": "_resultDate",
          "type": "uint256"
        }
      ],
      "name": "addNewMarket",
      "outputs": [
        {
          "internalType": "string",
          "name": "",
          "type": "string"
        }
      ],
      "stateMutability": "payable",
      "type": "function"
    },
    {
      "inputs": [],
      "name": "getMarketArray",
      "outputs": [
        {
          "internalType": "contract Market[]",
          "name": "",
          "type": "address[]"
        }
      ],
      "stateMutability": "view",
      "type": "function"
    },
    {
      "inputs": [
        {
          "internalType": "uint256",
          "name": "marketIndex",
          "type": "uint256"
        }
      ],
      "name": "getNameBasedOffIndex",
      "outputs": [
        {
          "internalType": "string",
          "name": "",
          "type": "string"
        }
      ],
      "stateMutability": "view",
      "type": "function"
    },
    {
      "inputs": [],
      "name": "getTransactionsArray",
      "outputs": [
        {
          "internalType": "contract Transactions[]",
          "name": "",
          "type": "address[]"
        }
      ],
      "stateMutability": "view",
      "type": "function"
    },
    {
      "inputs": [
        {
          "internalType": "uint256",
          "name": "",
          "type": "uint256"
        }
      ],
      "name": "marketContracts",
      "outputs": [
        {
          "internalType": "contract Market",
          "name": "",
          "type": "address"
        }
      ],
      "stateMutability": "view",
      "type": "function"
    },
    {
      "inputs": [],
      "name": "marketContractsCount",
      "outputs": [
        {
          "internalType": "uint256",
          "name": "",
          "type": "uint256"
        }
      ],
      "stateMutability": "view",
      "type": "function"
    },
    {
      "inputs": [
        {
          "internalType": "contract Transactions",
          "name": "_transaction",
          "type": "address"
        }
      ],
      "name": "pushToTransactionsArray",
      "outputs": [
        {
          "internalType": "contract Transactions[]",
          "name": "",
          "type": "address[]"
        }
      ],
      "stateMutability": "nonpayable",
      "type": "function"
    },
    {
      "inputs": [],
      "name": "testFunction",
      "outputs": [
        {
          "internalType": "string",
          "name": "",
          "type": "string"
        }
      ],
      "stateMutability": "view",
      "type": "function"
    },
    {
      "inputs": [],
      "name": "testVariable",
      "outputs": [
        {
          "internalType": "string",
          "name": "",
          "type": "string"
        }
      ],
      "stateMutability": "view",
      "type": "function"
    },
    {
      "inputs": [
        {
          "internalType": "uint256",
          "name": "",
          "type": "uint256"
        }
      ],
      "name": "transactionsContracts",
      "outputs": [
        {
          "internalType": "contract Transactions",
          "name": "",
          "type": "address"
        }
      ],
      "stateMutability": "view",
      "type": "function"
    },
    {
      "inputs": [],
      "name": "transactionsContractsCount",
      "outputs": [
        {
          "internalType": "uint256",
          "name": "",
          "type": "uint256"
        }
      ],
      "stateMutability": "view",
      "type": "function"
    }
  ],
  "bytecode": "0x60806040526040518060400160405280600b81526020017f48656c6c6f20576f726c64000000000000000000000000000000000000000000815250600490805190602001906200005192919062000066565b503480156200005f57600080fd5b506200017b565b828054620000749062000116565b90600052602060002090601f016020900481019282620000985760008555620000e4565b82601f10620000b357805160ff1916838001178555620000e4565b82800160010185558215620000e4579182015b82811115620000e3578251825591602001919060010190620000c6565b5b509050620000f39190620000f7565b5090565b5b8082111562000112576000816000905550600101620000f8565b5090565b600060028204905060018216806200012f57607f821691505b602082108114156200014657620001456200014c565b5b50919050565b7f4e487b7100000000000000000000000000000000000000000000000000000000600052602260045260246000fd5b61511b806200018b6000396000f3fe608060405260043610620000aa5760003560e01c8063c155e4ed116200006d578063c155e4ed14620001cd578063c7c389dd1462000211578063e16b4a9b1462000255578063e42429ae1462000285578063f0a3cb1414620002b5578063f79f589e14620002e557620000aa565b80632aa86a3c14620000af5780635a15628714620000e55780637a1de44e14620001295780638981d23d146200016d57806399c62081146200019d575b600080fd5b620000cd6004803603810190620000c7919062000c9d565b62000315565b604051620000dc91906200123d565b60405180910390f35b348015620000f257600080fd5b506200011160048036038101906200010b919062000d25565b62000596565b6040516200012091906200123d565b60405180910390f35b3480156200013657600080fd5b506200015560048036038101906200014f919062000d25565b6200068b565b60405162000164919062001203565b60405180910390f35b3480156200017a57600080fd5b5062000185620006cb565b604051620001949190620011df565b60405180910390f35b348015620001aa57600080fd5b50620001b56200075b565b604051620001c4919062001365565b60405180910390f35b348015620001da57600080fd5b50620001f96004803603810190620001f3919062000c2c565b62000761565b604051620002089190620011df565b60405180910390f35b3480156200021e57600080fd5b506200023d600480360381019062000237919062000d25565b62000872565b6040516200024c919062001220565b60405180910390f35b3480156200026257600080fd5b506200026d620008b2565b6040516200027c91906200123d565b60405180910390f35b3480156200029257600080fd5b506200029d6200094c565b604051620002ac91906200123d565b60405180910390f35b348015620002c257600080fd5b50620002cd620009e2565b604051620002dc9190620011bb565b60405180910390f35b348015620002f257600080fd5b50620002fd62000a72565b6040516200030c919062001365565b60405180910390f35b6060670de0b6b3a7640000341462000364576040517f08c379a00000000000000000000000000000000000000000000000000000000081526004016200035b90620012cc565b60405180910390fd5b60008430338686604051620003799062000a78565b6200038995949392919062001261565b604051809103906000f080158015620003a6573d6000803e3d6000fd5b5090506000819080600181540180825580915050600190039060005260206000200160009091909190916101000a81548173ffffffffffffffffffffffffffffffffffffffff021916908373ffffffffffffffffffffffffffffffffffffffff16021790555060016000815480929190620004219062001666565b9190505550600034333060006040516200043b9062000a86565b6200044a9493929190620012ee565b604051809103906000f08015801562000467573d6000803e3d6000fd5b5090506002819080600181540180825580915050600190039060005260206000200160009091909190916101000a81548173ffffffffffffffffffffffffffffffffffffffff021916908373ffffffffffffffffffffffffffffffffffffffff16021790555060036000815480929190620004e29062001666565b9190505550858560006002811062000523577f4e487b7100000000000000000000000000000000000000000000000000000000600052603260045260246000fd5b60200201518660016002811062000563577f4e487b7100000000000000000000000000000000000000000000000000000000600052603260045260246000fd5b60200201516040516020016200057c939291906200116a565b604051602081830303815290604052925050509392505050565b606060008281548110620005d3577f4e487b7100000000000000000000000000000000000000000000000000000000600052603260045260246000fd5b9060005260206000200160009054906101000a900473ffffffffffffffffffffffffffffffffffffffff1673ffffffffffffffffffffffffffffffffffffffff1663c291c58d6040518163ffffffff1660e01b815260040160006040518083038186803b1580156200064457600080fd5b505afa15801562000659573d6000803e3d6000fd5b505050506040513d6000823e3d601f19601f8201168201806040525081019062000684919062000c58565b9050919050565b600081815481106200069c57600080fd5b906000526020600020016000915054906101000a900473ffffffffffffffffffffffffffffffffffffffff1681565b606060028054806020026020016040519081016040528092919081815260200182805480156200075157602002820191906000526020600020905b8160009054906101000a900473ffffffffffffffffffffffffffffffffffffffff1673ffffffffffffffffffffffffffffffffffffffff168152602001906001019080831162000706575b5050505050905090565b60035481565b60606002829080600181540180825580915050600190039060005260206000200160009091909190916101000a81548173ffffffffffffffffffffffffffffffffffffffff021916908373ffffffffffffffffffffffffffffffffffffffff160217905550600160036000828254620007db9190620014d8565b9250508190555060028054806020026020016040519081016040528092919081815260200182805480156200086657602002820191906000526020600020905b8160009054906101000a900473ffffffffffffffffffffffffffffffffffffffff1673ffffffffffffffffffffffffffffffffffffffff16815260200190600101908083116200081b575b50505050509050919050565b600281815481106200088357600080fd5b906000526020600020016000915054906101000a900473ffffffffffffffffffffffffffffffffffffffff1681565b606060048054620008c39062001630565b80601f0160208091040260200160405190810160405280929190818152602001828054620008f19062001630565b8015620009425780601f10620009165761010080835404028352916020019162000942565b820191906000526020600020905b8154815290600101906020018083116200092457829003601f168201915b5050505050905090565b600480546200095b9062001630565b80601f0160208091040260200160405190810160405280929190818152602001828054620009899062001630565b8015620009da5780601f10620009ae57610100808354040283529160200191620009da565b820191906000526020600020905b815481529060010190602001808311620009bc57829003601f168201915b505050505081565b6060600080548060200260200160405190810160405280929190818152602001828054801562000a6857602002820191906000526020600020905b8160009054906101000a900473ffffffffffffffffffffffffffffffffffffffff1673ffffffffffffffffffffffffffffffffffffffff168152602001906001019080831162000a1d575b5050505050905090565b60015481565b6131f4806200178783390190565b61076b806200497b83390190565b600062000aab62000aa584620013b6565b62001382565b9050808260005b8581101562000ae6578135850162000acb888262000bbb565b84526020840193506020830192505060018101905062000ab2565b5050509392505050565b600062000b0762000b0184620013df565b62001382565b90508281526020810184848401111562000b2057600080fd5b62000b2d848285620015eb565b509392505050565b600062000b4c62000b4684620013df565b62001382565b90508281526020810184848401111562000b6557600080fd5b62000b72848285620015fa565b509392505050565b600082601f83011262000b8c57600080fd5b600262000b9b84828562000a94565b91505092915050565b60008135905062000bb58162001752565b92915050565b600082601f83011262000bcd57600080fd5b813562000bdf84826020860162000af0565b91505092915050565b600082601f83011262000bfa57600080fd5b815162000c0c84826020860162000b35565b91505092915050565b60008135905062000c26816200176c565b92915050565b60006020828403121562000c3f57600080fd5b600062000c4f8482850162000ba4565b91505092915050565b60006020828403121562000c6b57600080fd5b600082015167ffffffffffffffff81111562000c8657600080fd5b62000c948482850162000be8565b91505092915050565b60008060006060848603121562000cb357600080fd5b600084013567ffffffffffffffff81111562000cce57600080fd5b62000cdc8682870162000bbb565b935050602084013567ffffffffffffffff81111562000cfa57600080fd5b62000d088682870162000b7a565b925050604062000d1b8682870162000c15565b9150509250925092565b60006020828403121562000d3857600080fd5b600062000d488482850162000c15565b91505092915050565b600062000d5f838362000f01565b60208301905092915050565b600062000d79838362000f23565b60208301905092915050565b600062000d93838362000f56565b905092915050565b62000da68162001535565b82525050565b600062000db9826200143c565b62000dc581856200148f565b935062000dd28362001412565b8060005b8381101562000e0957815162000ded888262000d51565b975062000dfa8362001468565b92505060018101905062000dd6565b5085935050505092915050565b600062000e238262001447565b62000e2f81856200148f565b935062000e3c8362001422565b8060005b8381101562000e7357815162000e57888262000d6b565b975062000e648362001475565b92505060018101905062000e40565b5085935050505092915050565b600062000e8d8262001452565b62000e998185620014a0565b93508360208202850162000ead8562001432565b8060005b8581101562000eef578484038952815162000ecd858262000d85565b945062000eda8362001482565b925060208a0199505060018101905062000eb1565b50829750879550505050505092915050565b62000f0c8162001587565b82525050565b62000f1d8162001587565b82525050565b62000f2e81620015af565b82525050565b62000f3f81620015af565b82525050565b62000f5081620015d7565b82525050565b600062000f63826200145d565b62000f6f8185620014ab565b935062000f81818560208601620015fa565b62000f8c8162001741565b840191505092915050565b600062000fa4826200145d565b62000fb08185620014bc565b935062000fc2818560208601620015fa565b62000fcd8162001741565b840191505092915050565b600062000fe5826200145d565b62000ff18185620014cd565b935062001003818560208601620015fa565b80840191505092915050565b60006200101e602383620014bc565b91507f596f75206e65656420746f207061737320696e2065786163746c79203120657460008301527f68657200000000000000000000000000000000000000000000000000000000006020830152604082019050919050565b600062001086601083620014cd565b91507f4d61726b657420437265617465643a20000000000000000000000000000000006000830152601082019050919050565b6000620010c8600f83620014bc565b91507f4d61726b6574204372656174696f6e00000000000000000000000000000000006000830152602082019050919050565b60006200110a600083620014bc565b9150600082019050919050565b600062001126600883620014cd565b91507f7c2053696465733a0000000000000000000000000000000000000000000000006000830152600882019050919050565b62001164816200157d565b82525050565b6000620011778262001077565b915062001185828662000fd8565b9150620011928262001117565b9150620011a0828562000fd8565b9150620011ae828462000fd8565b9150819050949350505050565b60006020820190508181036000830152620011d7818462000dac565b905092915050565b60006020820190508181036000830152620011fb818462000e16565b905092915050565b60006020820190506200121a600083018462000f12565b92915050565b600060208201905062001237600083018462000f34565b92915050565b6000602082019050818103600083015262001259818462000f97565b905092915050565b600060a08201905081810360008301526200127d818862000f97565b90506200128e602083018762000d9b565b6200129d604083018662000d9b565b8181036060830152620012b1818562000e80565b9050620012c2608083018462001159565b9695505050505050565b60006020820190508181036000830152620012e7816200100f565b9050919050565b600060c08201905081810360008301526200130981620010b9565b90506200131a602083018762001159565b62001329604083018662000d9b565b62001338606083018562000d9b565b81810360808301526200134b81620010fb565b90506200135c60a083018462000f45565b95945050505050565b60006020820190506200137c600083018462001159565b92915050565b6000604051905081810181811067ffffffffffffffff82111715620013ac57620013ab62001712565b5b8060405250919050565b600067ffffffffffffffff821115620013d457620013d362001712565b5b602082029050919050565b600067ffffffffffffffff821115620013fd57620013fc62001712565b5b601f19601f8301169050602081019050919050565b6000819050602082019050919050565b6000819050602082019050919050565b6000819050919050565b600081519050919050565b600081519050919050565b600060029050919050565b600081519050919050565b6000602082019050919050565b6000602082019050919050565b6000602082019050919050565b600082825260208201905092915050565b600081905092915050565b600082825260208201905092915050565b600082825260208201905092915050565b600081905092915050565b6000620014e5826200157d565b9150620014f2836200157d565b9250827fffffffffffffffffffffffffffffffffffffffffffffffffffffffffffffffff038211156200152a5762001529620016b4565b5b828201905092915050565b600062001542826200155d565b9050919050565b6000620015568262001535565b9050919050565b600073ffffffffffffffffffffffffffffffffffffffff82169050919050565b6000819050919050565b600062001594826200159b565b9050919050565b6000620015a8826200155d565b9050919050565b6000620015bc82620015c3565b9050919050565b6000620015d0826200155d565b9050919050565b6000620015e4826200157d565b9050919050565b82818337600083830152505050565b60005b838110156200161a578082015181840152602081019050620015fd565b838111156200162a576000848401525b50505050565b600060028204905060018216806200164957607f821691505b6020821081141562001660576200165f620016e3565b5b50919050565b600062001673826200157d565b91507fffffffffffffffffffffffffffffffffffffffffffffffffffffffffffffffff821415620016a957620016a8620016b4565b5b600182019050919050565b7f4e487b7100000000000000000000000000000000000000000000000000000000600052601160045260246000fd5b7f4e487b7100000000000000000000000000000000000000000000000000000000600052602260045260246000fd5b7f4e487b7100000000000000000000000000000000000000000000000000000000600052604160045260246000fd5b6000601f19601f8301169050919050565b6200175d8162001549565b81146200176957600080fd5b50565b62001777816200157d565b81146200178357600080fd5b5056fe6080604052670de0b6b3a7640000600b553480156200001d57600080fd5b50604051620031f4380380620031f4833981810160405281019062000043919062000456565b84600090805190602001906200005b929190620001b8565b508160019060026200006f92919062000249565b5083600460006101000a81548173ffffffffffffffffffffffffffffffffffffffff021916908373ffffffffffffffffffffffffffffffffffffffff16021790555082600560006101000a81548173ffffffffffffffffffffffffffffffffffffffff021916908373ffffffffffffffffffffffffffffffffffffffff160217905550600060068190555060006007819055508060088190555060016006546200011a91906200059a565b60026007546006546200012e91906200059a565b6200013a91906200059a565b600b54620001499190620005f7565b6200015591906200062f565b60098190555060016007546200016c91906200059a565b60026007546006546200018091906200059a565b6200018c91906200059a565b600b546200019b9190620005f7565b620001a791906200062f565b600a8190555050505050506200082a565b828054620001c69062000704565b90600052602060002090601f016020900481019282620001ea576000855562000236565b82601f106200020557805160ff191683800117855562000236565b8280016001018555821562000236579182015b828111156200023557825182559160200191906001019062000218565b5b509050620002459190620002a3565b5090565b826002810192821562000290579160200282015b828111156200028f5782518290805190602001906200027e929190620001b8565b50916020019190600101906200025d565b5b5090506200029f9190620002c2565b5090565b5b80821115620002be576000816000905550600101620002a4565b5090565b5b80821115620002e65760008181620002dc9190620002ea565b50600101620002c3565b5090565b508054620002f89062000704565b6000825580601f106200030c57506200032d565b601f0160209004906000526020600020908101906200032c9190620002a3565b5b50565b60006200034762000341846200053e565b6200050a565b9050808260005b8581101562000382578151850162000367888262000412565b8452602084019350602083019250506001810190506200034e565b5050509392505050565b6000620003a36200039d8462000567565b6200050a565b905082815260208101848484011115620003bc57600080fd5b620003c9848285620006ce565b509392505050565b600081519050620003e281620007f6565b92915050565b600082601f830112620003fa57600080fd5b60026200040984828562000330565b91505092915050565b600082601f8301126200042457600080fd5b8151620004368482602086016200038c565b91505092915050565b600081519050620004508162000810565b92915050565b600080600080600060a086880312156200046f57600080fd5b600086015167ffffffffffffffff8111156200048a57600080fd5b620004988882890162000412565b9550506020620004ab88828901620003d1565b9450506040620004be88828901620003d1565b935050606086015167ffffffffffffffff811115620004dc57600080fd5b620004ea88828901620003e8565b9250506080620004fd888289016200043f565b9150509295509295909350565b6000604051905081810181811067ffffffffffffffff82111715620005345762000533620007c7565b5b8060405250919050565b600067ffffffffffffffff8211156200055c576200055b620007c7565b5b602082029050919050565b600067ffffffffffffffff821115620005855762000584620007c7565b5b601f19601f8301169050602081019050919050565b6000620005a782620006c4565b9150620005b483620006c4565b9250827fffffffffffffffffffffffffffffffffffffffffffffffffffffffffffffffff03821115620005ec57620005eb6200073a565b5b828201905092915050565b60006200060482620006c4565b91506200061183620006c4565b92508262000624576200062362000769565b5b828204905092915050565b60006200063c82620006c4565b91506200064983620006c4565b9250817fffffffffffffffffffffffffffffffffffffffffffffffffffffffffffffffff04831182151516156200068557620006846200073a565b5b828202905092915050565b60006200069d82620006a4565b9050919050565b600073ffffffffffffffffffffffffffffffffffffffff82169050919050565b6000819050919050565b60005b83811015620006ee578082015181840152602081019050620006d1565b83811115620006fe576000848401525b50505050565b600060028204905060018216806200071d57607f821691505b6020821081141562000734576200073362000798565b5b50919050565b7f4e487b7100000000000000000000000000000000000000000000000000000000600052601160045260246000fd5b7f4e487b7100000000000000000000000000000000000000000000000000000000600052601260045260246000fd5b7f4e487b7100000000000000000000000000000000000000000000000000000000600052602260045260246000fd5b7f4e487b7100000000000000000000000000000000000000000000000000000000600052604160045260246000fd5b620008018162000690565b81146200080d57600080fd5b50565b6200081b81620006c4565b81146200082757600080fd5b50565b6129ba806200083a6000396000f3fe608060405260043610620001c45760003560e01c806397545f291162000103578063c831c1db1162000097578063dde892ba116200006d578063dde892ba14620005ff578063e38d6b5c146200062f578063e6bfd26a146200065f578063ead5a40d146200068f57620001c4565b8063c831c1db1462000571578063dbd1a50e14620005a1578063dca1662514620005d157620001c4565b8063b9426a4311620000d9578063b9426a4314620004c1578063bbafcff014620004e1578063bd0198f01462000511578063c291c58d146200054157620001c4565b806397545f291462000441578063a6e9e71e1462000471578063a9c2e36c146200049157620001c4565b80633aca0407116200017b5780637e1bced811620001515780637e1bced814620003915780638da5cb5b14620003b15780639040a94914620003e1578063966dae0e146200041157620001c4565b80633aca040714620002fd57806350d51ebd146200031d578063603d55d7146200036157620001c4565b80630c4f65bd14620001c95780630d75f3b714620001f95780631f67c80b14620002295780632002dff9146200026d57806323459dba146200029d5780632a33030f14620002cd575b600080fd5b348015620001d657600080fd5b50620001e1620006bf565b604051620001f0919062001c1c565b60405180910390f35b3480156200020657600080fd5b5062000211620006e9565b60405162000220919062001e0d565b60405180910390f35b3480156200023657600080fd5b506200025560048036038101906200024f91906200195a565b620006f3565b60405162000264919062001cb7565b60405180910390f35b3480156200027a57600080fd5b50620002856200079f565b60405162000294919062001e0d565b60405180910390f35b348015620002aa57600080fd5b50620002b5620007a9565b604051620002c4919062001e0d565b60405180910390f35b348015620002da57600080fd5b50620002e5620007af565b604051620002f4919062001e0d565b60405180910390f35b6200031b60048036038101906200031591906200195a565b62000808565b005b3480156200032a57600080fd5b50620003496004803603810190620003439190620018d4565b62000b23565b60405162000358919062001e0d565b60405180910390f35b3480156200036e57600080fd5b506200037962000b48565b60405162000388919062001e0d565b60405180910390f35b620003af6004803603810190620003a991906200195a565b62000b52565b005b348015620003be57600080fd5b50620003c962000dd5565b604051620003d8919062001c1c565b60405180910390f35b348015620003ee57600080fd5b50620003f962000dfb565b60405162000408919062001e0d565b60405180910390f35b3480156200041e57600080fd5b506200042962000e05565b60405162000438919062001c1c565b60405180910390f35b3480156200044e57600080fd5b506200045962000e2b565b60405162000468919062001e0d565b60405180910390f35b6200048f60048036038101906200048991906200195a565b62000e31565b005b3480156200049e57600080fd5b50620004a96200106e565b604051620004b8919062001c1c565b60405180910390f35b620004df6004803603810190620004d991906200195a565b62001098565b005b348015620004ee57600080fd5b50620004f9620013b5565b60405162000508919062001e0d565b60405180910390f35b3480156200051e57600080fd5b5062000529620013bf565b60405162000538919062001c76565b60405180910390f35b3480156200054e57600080fd5b506200055962001498565b60405162000568919062001cb7565b60405180910390f35b3480156200057e57600080fd5b506200058962001532565b60405162000598919062001e0d565b60405180910390f35b348015620005ae57600080fd5b50620005b962001538565b604051620005c8919062001e0d565b60405180910390f35b348015620005de57600080fd5b50620005fd6004803603810190620005f7919062001868565b6200153e565b005b3480156200060c57600080fd5b50620006176200163a565b60405162000626919062001e0d565b60405180910390f35b3480156200063c57600080fd5b506200064762001692565b60405162000656919062001e0d565b60405180910390f35b3480156200066c57600080fd5b506200067762001698565b60405162000686919062001cb7565b60405180910390f35b3480156200069c57600080fd5b50620006a76200172e565b604051620006b6919062001e0d565b60405180910390f35b6000600560009054906101000a900473ffffffffffffffffffffffffffffffffffffffff16905090565b6000600a54905090565b600181600281106200070457600080fd5b0160009150905080546200071890620020c8565b80601f01602080910402602001604051908101604052809291908181526020018280546200074690620020c8565b8015620007975780601f106200076b5761010080835404028352916020019162000797565b820191906000526020600020905b8154815290600101906020018083116200077957829003601f168201915b505050505081565b6000600954905090565b60065481565b6000600360003373ffffffffffffffffffffffffffffffffffffffff1673ffffffffffffffffffffffffffffffffffffffff16815260200190815260200160002060006001815260200190815260200160002054905090565b80600360003373ffffffffffffffffffffffffffffffffffffffff1673ffffffffffffffffffffffffffffffffffffffff16815260200190815260200160002060008081526020019081526020016000205410156200089e576040517f08c379a0000000000000000000000000000000000000000000000000000000008152600401620008959062001deb565b60405180910390fd5b6000600a5482620008b0919062001f7c565b9050600081303385604051620008c69062001734565b620008d5949392919062001cdb565b604051809103906000f080158015620008f2573d6000803e3d6000fd5b5090503073ffffffffffffffffffffffffffffffffffffffff166108fc839081150290604051600060405180830381858888f193505050501580156200093c573d6000803e3d6000fd5b50826007600082825462000951919062001fdd565b9250508190555082600360003373ffffffffffffffffffffffffffffffffffffffff1673ffffffffffffffffffffffffffffffffffffffff16815260200190815260200160002060008081526020019081526020016000206000828254620009ba919062001fdd565b92505081905550600460009054906101000a900473ffffffffffffffffffffffffffffffffffffffff1673ffffffffffffffffffffffffffffffffffffffff1663c155e4ed826040518263ffffffff1660e01b815260040162000a1e919062001c9a565b600060405180830381600087803b15801562000a3957600080fd5b505af115801562000a4e573d6000803e3d6000fd5b505050506040513d6000823e3d601f19601f8201168201806040525081019062000a79919062001915565b50600160065462000a8b919062001ee7565b600260075460065462000a9f919062001ee7565b62000aab919062001ee7565b600b5462000aba919062001f44565b62000ac6919062001f7c565b600981905550600160075462000add919062001ee7565b600260075460065462000af1919062001ee7565b62000afd919062001ee7565b600b5462000b0c919062001f44565b62000b18919062001f7c565b600a81905550505050565b6003602052816000526040600020602052806000526040600020600091509150505481565b6000600854905090565b60006009548262000b64919062001f7c565b905080341462000bab576040517f08c379a000000000000000000000000000000000000000000000000000000000815260040162000ba29062001d52565b60405180910390fd5b60008133308560405162000bbf9062001734565b62000bce949392919062001d74565b604051809103906000f08015801562000beb573d6000803e3d6000fd5b509050826006600082825462000c02919062001ee7565b9250508190555082600360003373ffffffffffffffffffffffffffffffffffffffff1673ffffffffffffffffffffffffffffffffffffffff168152602001908152602001600020600060018152602001908152602001600020600082825462000c6c919062001ee7565b92505081905550600460009054906101000a900473ffffffffffffffffffffffffffffffffffffffff1673ffffffffffffffffffffffffffffffffffffffff1663c155e4ed826040518263ffffffff1660e01b815260040162000cd0919062001c9a565b600060405180830381600087803b15801562000ceb57600080fd5b505af115801562000d00573d6000803e3d6000fd5b505050506040513d6000823e3d601f19601f8201168201806040525081019062000d2b919062001915565b50600160065462000d3d919062001ee7565b600260075460065462000d51919062001ee7565b62000d5d919062001ee7565b600b5462000d6c919062001f44565b62000d78919062001f7c565b600981905550600160075462000d8f919062001ee7565b600260075460065462000da3919062001ee7565b62000daf919062001ee7565b600b5462000dbe919062001f44565b62000dca919062001f7c565b600a81905550505050565b600560009054906101000a900473ffffffffffffffffffffffffffffffffffffffff1681565b6000600754905090565b600460009054906101000a900473ffffffffffffffffffffffffffffffffffffffff1681565b60085481565b6000600a548262000e43919062001f7c565b905060008133308560405162000e599062001734565b62000e68949392919062001d74565b604051809103906000f08015801562000e85573d6000803e3d6000fd5b509050826007600082825462000e9c919062001ee7565b9250508190555082600360003373ffffffffffffffffffffffffffffffffffffffff1673ffffffffffffffffffffffffffffffffffffffff1681526020019081526020016000206000808152602001908152602001600020600082825462000f05919062001ee7565b92505081905550600460009054906101000a900473ffffffffffffffffffffffffffffffffffffffff1673ffffffffffffffffffffffffffffffffffffffff1663c155e4ed826040518263ffffffff1660e01b815260040162000f69919062001c9a565b600060405180830381600087803b15801562000f8457600080fd5b505af115801562000f99573d6000803e3d6000fd5b505050506040513d6000823e3d601f19601f8201168201806040525081019062000fc4919062001915565b50600160065462000fd6919062001ee7565b600260075460065462000fea919062001ee7565b62000ff6919062001ee7565b600b5462001005919062001f44565b62001011919062001f7c565b600981905550600160075462001028919062001ee7565b60026007546006546200103c919062001ee7565b62001048919062001ee7565b600b5462001057919062001f44565b62001063919062001f7c565b600a81905550505050565b6000600460009054906101000a900473ffffffffffffffffffffffffffffffffffffffff16905090565b80600360003373ffffffffffffffffffffffffffffffffffffffff1673ffffffffffffffffffffffffffffffffffffffff1681526020019081526020016000206000600181526020019081526020016000205410156200112f576040517f08c379a0000000000000000000000000000000000000000000000000000000008152600401620011269062001deb565b60405180910390fd5b60006009548262001141919062001f7c565b9050600081303385604051620011579062001734565b62001166949392919062001cdb565b604051809103906000f08015801562001183573d6000803e3d6000fd5b5090503073ffffffffffffffffffffffffffffffffffffffff166108fc839081150290604051600060405180830381858888f19350505050158015620011cd573d6000803e3d6000fd5b508260066000828254620011e2919062001fdd565b9250508190555082600360003373ffffffffffffffffffffffffffffffffffffffff1673ffffffffffffffffffffffffffffffffffffffff16815260200190815260200160002060006001815260200190815260200160002060008282546200124c919062001fdd565b92505081905550600460009054906101000a900473ffffffffffffffffffffffffffffffffffffffff1673ffffffffffffffffffffffffffffffffffffffff1663c155e4ed826040518263ffffffff1660e01b8152600401620012b0919062001c9a565b600060405180830381600087803b158015620012cb57600080fd5b505af1158015620012e0573d6000803e3d6000fd5b505050506040513d6000823e3d601f19601f820116820180604052508101906200130b919062001915565b5060016006546200131d919062001ee7565b600260075460065462001331919062001ee7565b6200133d919062001ee7565b600b546200134c919062001f44565b62001358919062001f7c565b60098190555060016007546200136f919062001ee7565b600260075460065462001383919062001ee7565b6200138f919062001ee7565b600b546200139e919062001f44565b620013aa919062001f7c565b600a81905550505050565b6000600654905090565b620013c962001742565b6001600280602002604051908101604052809291906000905b828210156200148f578382018054620013fb90620020c8565b80601f01602080910402602001604051908101604052809291908181526020018280546200142990620020c8565b80156200147a5780601f106200144e576101008083540402835291602001916200147a565b820191906000526020600020905b8154815290600101906020018083116200145c57829003601f168201915b505050505081526020019060010190620013e2565b50505050905090565b606060008054620014a990620020c8565b80601f0160208091040260200160405190810160405280929190818152602001828054620014d790620020c8565b8015620015285780601f10620014fc5761010080835404028352916020019162001528565b820191906000526020600020905b8154815290600101906020018083116200150a57829003601f168201915b5050505050905090565b600a5481565b60095481565b600c60009054906101000a900473ffffffffffffffffffffffffffffffffffffffff1673ffffffffffffffffffffffffffffffffffffffff1663c155e4ed826040518263ffffffff1660e01b81526004016200159b919062001c9a565b600060405180830381600087803b158015620015b657600080fd5b505af1158015620015cb573d6000803e3d6000fd5b505050506040513d6000823e3d601f19601f82011682018060405250810190620015f6919062001915565b507f7db7852b30fc413c4a90995f03d9f21e64c45d0ddc8324a8ce4c730a051cbf828484846040516200162c9392919062001c39565b60405180910390a150505050565b6000600360003373ffffffffffffffffffffffffffffffffffffffff1673ffffffffffffffffffffffffffffffffffffffff168152602001908152602001600020600080815260200190815260200160002054905090565b600b5481565b60008054620016a790620020c8565b80601f0160208091040260200160405190810160405280929190818152602001828054620016d590620020c8565b8015620017265780601f10620016fa5761010080835404028352916020019162001726565b820191906000526020600020905b8154815290600101906020018083116200170857829003601f168201915b505050505081565b60075481565b61076b806200221a83390190565b60405180604001604052806002905b6060815260200190600190039081620017515790505090565b6000620017816200177b8462001e5e565b62001e2a565b90508083825260208201905082856020860282011115620017a157600080fd5b60005b85811015620017d55781620017ba88826200183a565b845260208401935060208301925050600181019050620017a4565b5050509392505050565b600081359050620017f081620021cb565b92915050565b600082601f8301126200180857600080fd5b81516200181a8482602086016200176a565b91505092915050565b6000813590506200183481620021e5565b92915050565b6000815190506200184b81620021e5565b92915050565b6000813590506200186281620021ff565b92915050565b600080600080608085870312156200187f57600080fd5b60006200188f87828801620017df565b9450506020620018a287828801620017df565b9350506040620018b58782880162001851565b9250506060620018c88782880162001823565b91505092959194509250565b60008060408385031215620018e857600080fd5b6000620018f885828601620017df565b92505060206200190b8582860162001851565b9150509250929050565b6000602082840312156200192857600080fd5b600082015167ffffffffffffffff8111156200194357600080fd5b6200195184828501620017f6565b91505092915050565b6000602082840312156200196d57600080fd5b60006200197d8482850162001851565b91505092915050565b600062001994838362001a3f565b905092915050565b620019a78162002018565b82525050565b6000620019ba8262001e97565b620019c6818562001eba565b935083602082028501620019da8562001e8d565b8060005b8581101562001a1c5784840389528151620019fa858262001986565b945062001a078362001ead565b925060208a01995050600181019050620019de565b50829750879550505050505092915050565b62001a39816200206a565b82525050565b600062001a4c8262001ea2565b62001a58818562001ec5565b935062001a6a81856020860162002092565b62001a7581620021ba565b840191505092915050565b600062001a8d8262001ea2565b62001a99818562001ed6565b935062001aab81856020860162002092565b62001ab681620021ba565b840191505092915050565b600062001ad060048362001ed6565b91507f53656c6c000000000000000000000000000000000000000000000000000000006000830152602082019050919050565b600062001b12602f8362001ed6565b91507f596f75206e65656420746f207061737320696e2074686520636f72726563742060008301527f616d6f756e74206f6620657468657200000000000000000000000000000000006020830152604082019050919050565b600062001b7a60038362001ed6565b91507f42757900000000000000000000000000000000000000000000000000000000006000830152602082019050919050565b600062001bbc60008362001ed6565b9150600082019050919050565b600062001bd860128362001ed6565b91507f4e6f7420456e6f75676820546f6b656e732100000000000000000000000000006000830152602082019050919050565b62001c168162002060565b82525050565b600060208201905062001c3360008301846200199c565b92915050565b600060608201905062001c5060008301866200199c565b62001c5f60208301856200199c565b62001c6e604083018462001c0b565b949350505050565b6000602082019050818103600083015262001c928184620019ad565b905092915050565b600060208201905062001cb1600083018462001a2e565b92915050565b6000602082019050818103600083015262001cd3818462001a80565b905092915050565b600060c082019050818103600083015262001cf68162001ac1565b905062001d07602083018762001c0b565b62001d1660408301866200199c565b62001d2560608301856200199c565b818103608083015262001d388162001bad565b905062001d4960a083018462001c0b565b95945050505050565b6000602082019050818103600083015262001d6d8162001b03565b9050919050565b600060c082019050818103600083015262001d8f8162001b6b565b905062001da0602083018762001c0b565b62001daf60408301866200199c565b62001dbe60608301856200199c565b818103608083015262001dd18162001bad565b905062001de260a083018462001c0b565b95945050505050565b6000602082019050818103600083015262001e068162001bc9565b9050919050565b600060208201905062001e24600083018462001c0b565b92915050565b6000604051905081810181811067ffffffffffffffff8211171562001e545762001e536200218b565b5b8060405250919050565b600067ffffffffffffffff82111562001e7c5762001e7b6200218b565b5b602082029050602081019050919050565b6000819050919050565b600060029050919050565b600081519050919050565b6000602082019050919050565b600081905092915050565b600082825260208201905092915050565b600082825260208201905092915050565b600062001ef48262002060565b915062001f018362002060565b9250827fffffffffffffffffffffffffffffffffffffffffffffffffffffffffffffffff0382111562001f395762001f38620020fe565b5b828201905092915050565b600062001f518262002060565b915062001f5e8362002060565b92508262001f715762001f706200212d565b5b828204905092915050565b600062001f898262002060565b915062001f968362002060565b9250817fffffffffffffffffffffffffffffffffffffffffffffffffffffffffffffffff048311821515161562001fd25762001fd1620020fe565b5b828202905092915050565b600062001fea8262002060565b915062001ff78362002060565b9250828210156200200d576200200c620020fe565b5b828203905092915050565b6000620020258262002040565b9050919050565b6000620020398262002018565b9050919050565b600073ffffffffffffffffffffffffffffffffffffffff82169050919050565b6000819050919050565b600062002077826200207e565b9050919050565b60006200208b8262002040565b9050919050565b60005b83811015620020b257808201518184015260208101905062002095565b83811115620020c2576000848401525b50505050565b60006002820490506001821680620020e157607f821691505b60208210811415620020f857620020f76200215c565b5b50919050565b7f4e487b7100000000000000000000000000000000000000000000000000000000600052601160045260246000fd5b7f4e487b7100000000000000000000000000000000000000000000000000000000600052601260045260246000fd5b7f4e487b7100000000000000000000000000000000000000000000000000000000600052602260045260246000fd5b7f4e487b7100000000000000000000000000000000000000000000000000000000600052604160045260246000fd5b6000601f19601f8301169050919050565b620021d68162002018565b8114620021e257600080fd5b50565b620021f0816200202c565b8114620021fc57600080fd5b50565b6200220a8162002060565b81146200221657600080fd5b5056fe608060405234801561001057600080fd5b5060405161076b38038061076b83398181016040528101906100329190610230565b85600090805190602001906100489291906100fb565b508460018190555083600260006101000a81548173ffffffffffffffffffffffffffffffffffffffff021916908373ffffffffffffffffffffffffffffffffffffffff16021790555082600360006101000a81548173ffffffffffffffffffffffffffffffffffffffff021916908373ffffffffffffffffffffffffffffffffffffffff16021790555081600490805190602001906100e89291906100fb565b5080600581905550505050505050610477565b828054610107906103b9565b90600052602060002090601f0160209004810192826101295760008555610170565b82601f1061014257805160ff1916838001178555610170565b82800160010185558215610170579182015b8281111561016f578251825591602001919060010190610154565b5b50905061017d9190610181565b5090565b5b8082111561019a576000816000905550600101610182565b5090565b60006101b16101ac8461031a565b6102e9565b9050828152602081018484840111156101c957600080fd5b6101d4848285610386565b509392505050565b6000815190506101eb81610449565b92915050565b600082601f83011261020257600080fd5b815161021284826020860161019e565b91505092915050565b60008151905061022a81610460565b92915050565b60008060008060008060c0878903121561024957600080fd5b600087015167ffffffffffffffff81111561026357600080fd5b61026f89828a016101f1565b965050602061028089828a0161021b565b955050604061029189828a016101dc565b94505060606102a289828a016101dc565b935050608087015167ffffffffffffffff8111156102bf57600080fd5b6102cb89828a016101f1565b92505060a06102dc89828a0161021b565b9150509295509295509295565b6000604051905081810181811067ffffffffffffffff821117156103105761030f61041a565b5b8060405250919050565b600067ffffffffffffffff8211156103355761033461041a565b5b601f19601f8301169050602081019050919050565b60006103558261035c565b9050919050565b600073ffffffffffffffffffffffffffffffffffffffff82169050919050565b6000819050919050565b60005b838110156103a4578082015181840152602081019050610389565b838111156103b3576000848401525b50505050565b600060028204905060018216806103d157607f821691505b602082108114156103e5576103e46103eb565b5b50919050565b7f4e487b7100000000000000000000000000000000000000000000000000000000600052602260045260246000fd5b7f4e487b7100000000000000000000000000000000000000000000000000000000600052604160045260246000fd5b6104528161034a565b811461045d57600080fd5b50565b6104698161037c565b811461047457600080fd5b50565b6102e5806104866000396000f3fe608060405234801561001057600080fd5b50600436106100365760003560e01c8063524ecd141461003b578063861a844d14610059575b600080fd5b610043610077565b60405161005091906101cc565b60405180910390f35b610061610105565b60405161006e91906101cc565b60405180910390f35b600480546100849061023d565b80601f01602080910402602001604051908101604052809291908181526020018280546100b09061023d565b80156100fd5780601f106100d2576101008083540402835291602001916100fd565b820191906000526020600020905b8154815290600101906020018083116100e057829003601f168201915b505050505081565b600080546101129061023d565b80601f016020809104026020016040519081016040528092919081815260200182805461013e9061023d565b801561018b5780601f106101605761010080835404028352916020019161018b565b820191906000526020600020905b81548152906001019060200180831161016e57829003601f168201915b505050505081565b600061019e826101ee565b6101a881856101f9565b93506101b881856020860161020a565b6101c18161029e565b840191505092915050565b600060208201905081810360008301526101e68184610193565b905092915050565b600081519050919050565b600082825260208201905092915050565b60005b8381101561022857808201518184015260208101905061020d565b83811115610237576000848401525b50505050565b6000600282049050600182168061025557607f821691505b602082108114156102695761026861026f565b5b50919050565b7f4e487b7100000000000000000000000000000000000000000000000000000000600052602260045260246000fd5b6000601f19601f830116905091905056fea264697066735822122098a799511db43f524a7290bd212416c2ab99c067e52162f44bee37e10775034764736f6c63430008000033a2646970667358221220ea5eb1943ace68f1399e19e43b114e50fcdf7682a400573ad8bf57ef0aac110d64736f6c63430008000033608060405234801561001057600080fd5b5060405161076b38038061076b83398181016040528101906100329190610230565b85600090805190602001906100489291906100fb565b508460018190555083600260006101000a81548173ffffffffffffffffffffffffffffffffffffffff021916908373ffffffffffffffffffffffffffffffffffffffff16021790555082600360006101000a81548173ffffffffffffffffffffffffffffffffffffffff021916908373ffffffffffffffffffffffffffffffffffffffff16021790555081600490805190602001906100e89291906100fb565b5080600581905550505050505050610477565b828054610107906103b9565b90600052602060002090601f0160209004810192826101295760008555610170565b82601f1061014257805160ff1916838001178555610170565b82800160010185558215610170579182015b8281111561016f578251825591602001919060010190610154565b5b50905061017d9190610181565b5090565b5b8082111561019a576000816000905550600101610182565b5090565b60006101b16101ac8461031a565b6102e9565b9050828152602081018484840111156101c957600080fd5b6101d4848285610386565b509392505050565b6000815190506101eb81610449565b92915050565b600082601f83011261020257600080fd5b815161021284826020860161019e565b91505092915050565b60008151905061022a81610460565b92915050565b60008060008060008060c0878903121561024957600080fd5b600087015167ffffffffffffffff81111561026357600080fd5b61026f89828a016101f1565b965050602061028089828a0161021b565b955050604061029189828a016101dc565b94505060606102a289828a016101dc565b935050608087015167ffffffffffffffff8111156102bf57600080fd5b6102cb89828a016101f1565b92505060a06102dc89828a0161021b565b9150509295509295509295565b6000604051905081810181811067ffffffffffffffff821117156103105761030f61041a565b5b8060405250919050565b600067ffffffffffffffff8211156103355761033461041a565b5b601f19601f8301169050602081019050919050565b60006103558261035c565b9050919050565b600073ffffffffffffffffffffffffffffffffffffffff82169050919050565b6000819050919050565b60005b838110156103a4578082015181840152602081019050610389565b838111156103b3576000848401525b50505050565b600060028204905060018216806103d157607f821691505b602082108114156103e5576103e46103eb565b5b50919050565b7f4e487b7100000000000000000000000000000000000000000000000000000000600052602260045260246000fd5b7f4e487b7100000000000000000000000000000000000000000000000000000000600052604160045260246000fd5b6104528161034a565b811461045d57600080fd5b50565b6104698161037c565b811461047457600080fd5b50565b6102e5806104866000396000f3fe608060405234801561001057600080fd5b50600436106100365760003560e01c8063524ecd141461003b578063861a844d14610059575b600080fd5b610043610077565b60405161005091906101cc565b60405180910390f35b610061610105565b60405161006e91906101cc565b60405180910390f35b600480546100849061023d565b80601f01602080910402602001604051908101604052809291908181526020018280546100b09061023d565b80156100fd5780601f106100d2576101008083540402835291602001916100fd565b820191906000526020600020905b8154815290600101906020018083116100e057829003601f168201915b505050505081565b600080546101129061023d565b80601f016020809104026020016040519081016040528092919081815260200182805461013e9061023d565b801561018b5780601f106101605761010080835404028352916020019161018b565b820191906000526020600020905b81548152906001019060200180831161016e57829003601f168201915b505050505081565b600061019e826101ee565b6101a881856101f9565b93506101b881856020860161020a565b6101c18161029e565b840191505092915050565b600060208201905081810360008301526101e68184610193565b905092915050565b600081519050919050565b600082825260208201905092915050565b60005b8381101561022857808201518184015260208101905061020d565b83811115610237576000848401525b50505050565b6000600282049050600182168061025557607f821691505b602082108114156102695761026861026f565b5b50919050565b7f4e487b7100000000000000000000000000000000000000000000000000000000600052602260045260246000fd5b6000601f19601f830116905091905056fea264697066735822122098a799511db43f524a7290bd212416c2ab99c067e52162f44bee37e10775034764736f6c63430008000033a26469706673582212208ecf9eb0a03edce9250943df872901d7c122188978d1877c7d1d734c4ad7ee8864736f6c63430008000033",
  "linkReferences": {},
  "deployedLinkReferences": {}
}