{
  "_format": "hh-sol-artifact-1",
  "contractName": "Market",
  "sourceName": "contracts/MarketTracker.sol",
  "abi": [
    {
      "inputs": [
        {
          "internalType": "string",
          "name": "_marketName",
          "type": "string"
        },
        {
          "internalType": "address",
          "name": "_factoryAddress",
          "type": "address"
        },
        {
          "internalType": "address",
          "name": "_owner",
          "type": "address"
        },
        {
          "internalType": "string[2]",
          "name": "_side",
          "type": "string[2]"
        },
        {
          "internalType": "uint256",
          "name": "_resultDate",
          "type": "uint256"
        }
      ],
      "stateMutability": "nonpayable",
      "type": "constructor"
    },
    {
      "anonymous": false,
      "inputs": [
        {
          "indexed": false,
          "internalType": "address",
          "name": "buyer",
          "type": "address"
        },
        {
          "indexed": false,
          "internalType": "address",
          "name": "seller",
          "type": "address"
        },
        {
          "indexed": false,
          "internalType": "uint256",
          "name": "amount",
          "type": "uint256"
        }
      ],
      "name": "Transaction",
      "type": "event"
    },
    {
      "inputs": [],
      "name": "N_Tokens",
      "outputs": [
        {
          "internalType": "uint256",
          "name": "",
          "type": "uint256"
        }
      ],
      "stateMutability": "view",
      "type": "function"
    },
    {
      "inputs": [
        {
          "internalType": "uint256",
          "name": "",
          "type": "uint256"
        }
      ],
      "name": "Side",
      "outputs": [
        {
          "internalType": "string",
          "name": "",
          "type": "string"
        }
      ],
      "stateMutability": "view",
      "type": "function"
    },
    {
      "inputs": [],
      "name": "Y_Tokens",
      "outputs": [
        {
          "internalType": "uint256",
          "name": "",
          "type": "uint256"
        }
      ],
      "stateMutability": "view",
      "type": "function"
    },
    {
      "inputs": [
        {
          "internalType": "uint256",
          "name": "amountOfCoin",
          "type": "uint256"
        }
      ],
      "name": "buyNToken",
      "outputs": [],
      "stateMutability": "payable",
      "type": "function"
    },
    {
      "inputs": [
        {
          "internalType": "uint256",
          "name": "amountOfCoin",
          "type": "uint256"
        }
      ],
      "name": "buyYToken",
      "outputs": [],
      "stateMutability": "payable",
      "type": "function"
    },
    {
      "inputs": [],
      "name": "currentNPrice",
      "outputs": [
        {
          "internalType": "uint256",
          "name": "",
          "type": "uint256"
        }
      ],
      "stateMutability": "view",
      "type": "function"
    },
    {
      "inputs": [],
      "name": "currentYPrice",
      "outputs": [
        {
          "internalType": "uint256",
          "name": "",
          "type": "uint256"
        }
      ],
      "stateMutability": "view",
      "type": "function"
    },
    {
      "inputs": [],
      "name": "factoryAddress",
      "outputs": [
        {
          "internalType": "address",
          "name": "",
          "type": "address"
        }
      ],
      "stateMutability": "view",
      "type": "function"
    },
    {
      "inputs": [],
      "name": "getContractBalance",
      "outputs": [
        {
          "internalType": "uint256",
          "name": "",
          "type": "uint256"
        }
      ],
      "stateMutability": "view",
      "type": "function"
    },
    {
      "inputs": [],
      "name": "getFactoryAddress",
      "outputs": [
        {
          "internalType": "address",
          "name": "",
          "type": "address"
        }
      ],
      "stateMutability": "view",
      "type": "function"
    },
    {
      "inputs": [],
      "name": "getMarketName",
      "outputs": [
        {
          "internalType": "string",
          "name": "",
          "type": "string"
        }
      ],
      "stateMutability": "view",
      "type": "function"
    },
    {
      "inputs": [],
      "name": "getNPrice",
      "outputs": [
        {
          "internalType": "uint256",
          "name": "",
          "type": "uint256"
        }
      ],
      "stateMutability": "view",
      "type": "function"
    },
    {
      "inputs": [],
      "name": "getNTokens",
      "outputs": [
        {
          "internalType": "uint256",
          "name": "",
          "type": "uint256"
        }
      ],
      "stateMutability": "view",
      "type": "function"
    },
    {
      "inputs": [],
      "name": "getOwnerAddress",
      "outputs": [
        {
          "internalType": "address",
          "name": "",
          "type": "address"
        }
      ],
      "stateMutability": "view",
      "type": "function"
    },
    {
      "inputs": [],
      "name": "getResultDate",
      "outputs": [
        {
          "internalType": "uint256",
          "name": "",
          "type": "uint256"
        }
      ],
      "stateMutability": "view",
      "type": "function"
    },
    {
      "inputs": [],
      "name": "getSide",
      "outputs": [
        {
          "internalType": "string[2]",
          "name": "",
          "type": "string[2]"
        }
      ],
      "stateMutability": "view",
      "type": "function"
    },
    {
      "inputs": [],
      "name": "getUserNTokens",
      "outputs": [
        {
          "internalType": "uint256",
          "name": "",
          "type": "uint256"
        }
      ],
      "stateMutability": "view",
      "type": "function"
    },
    {
      "inputs": [],
      "name": "getUserYTokens",
      "outputs": [
        {
          "internalType": "uint256",
          "name": "",
          "type": "uint256"
        }
      ],
      "stateMutability": "view",
      "type": "function"
    },
    {
      "inputs": [],
      "name": "getWinner",
      "outputs": [
        {
          "internalType": "uint8",
          "name": "",
          "type": "uint8"
        }
      ],
      "stateMutability": "view",
      "type": "function"
    },
    {
      "inputs": [],
      "name": "getWinningsPerToken",
      "outputs": [
        {
          "internalType": "uint256",
          "name": "",
          "type": "uint256"
        }
      ],
      "stateMutability": "view",
      "type": "function"
    },
    {
      "inputs": [],
      "name": "getYPrice",
      "outputs": [
        {
          "internalType": "uint256",
          "name": "",
          "type": "uint256"
        }
      ],
      "stateMutability": "view",
      "type": "function"
    },
    {
      "inputs": [],
      "name": "getYTokens",
      "outputs": [
        {
          "internalType": "uint256",
          "name": "",
          "type": "uint256"
        }
      ],
      "stateMutability": "view",
      "type": "function"
    },
    {
      "inputs": [],
      "name": "loser",
      "outputs": [
        {
          "internalType": "uint8",
          "name": "",
          "type": "uint8"
        }
      ],
      "stateMutability": "view",
      "type": "function"
    },
    {
      "inputs": [],
      "name": "marketName",
      "outputs": [
        {
          "internalType": "string",
          "name": "",
          "type": "string"
        }
      ],
      "stateMutability": "view",
      "type": "function"
    },
    {
      "inputs": [],
      "name": "maxPrice",
      "outputs": [
        {
          "internalType": "uint256",
          "name": "",
          "type": "uint256"
        }
      ],
      "stateMutability": "view",
      "type": "function"
    },
    {
      "inputs": [],
      "name": "oracleDecided",
      "outputs": [
        {
          "internalType": "bool",
          "name": "",
          "type": "bool"
        }
      ],
      "stateMutability": "view",
      "type": "function"
    },
    {
      "inputs": [],
      "name": "owner",
      "outputs": [
        {
          "internalType": "address",
          "name": "",
          "type": "address"
        }
      ],
      "stateMutability": "view",
      "type": "function"
    },
    {
      "inputs": [],
      "name": "resultDate",
      "outputs": [
        {
          "internalType": "uint256",
          "name": "",
          "type": "uint256"
        }
      ],
      "stateMutability": "view",
      "type": "function"
    },
    {
      "inputs": [
        {
          "internalType": "uint256",
          "name": "amountOfCoin",
          "type": "uint256"
        }
      ],
      "name": "sellNToken",
      "outputs": [],
      "stateMutability": "payable",
      "type": "function"
    },
    {
      "inputs": [
        {
          "internalType": "uint256",
          "name": "amountOfCoin",
          "type": "uint256"
        }
      ],
      "name": "sellYToken",
      "outputs": [],
      "stateMutability": "payable",
      "type": "function"
    },
    {
      "inputs": [
        {
          "internalType": "uint8",
          "name": "_winner",
          "type": "uint8"
        },
        {
          "internalType": "uint8",
          "name": "_loser",
          "type": "uint8"
        }
      ],
      "name": "setWinningBet",
      "outputs": [],
      "stateMutability": "nonpayable",
      "type": "function"
    },
    {
      "inputs": [
        {
          "internalType": "address",
          "name": "",
          "type": "address"
        },
        {
          "internalType": "uint256",
          "name": "",
          "type": "uint256"
        }
      ],
      "name": "tokensPerGambler",
      "outputs": [
        {
          "internalType": "uint256",
          "name": "",
          "type": "uint256"
        }
      ],
      "stateMutability": "view",
      "type": "function"
    },
    {
      "inputs": [],
      "name": "winner",
      "outputs": [
        {
          "internalType": "uint8",
          "name": "",
          "type": "uint8"
        }
      ],
      "stateMutability": "view",
      "type": "function"
    },
    {
      "inputs": [],
      "name": "winningsPerToken",
      "outputs": [
        {
          "internalType": "uint256",
          "name": "",
          "type": "uint256"
        }
      ],
      "stateMutability": "view",
      "type": "function"
    },
    {
      "inputs": [],
      "name": "withdrawGains",
      "outputs": [],
      "stateMutability": "payable",
      "type": "function"
    }
  ],
  "bytecode": "0x6080604052670de0b6b3a7640000600b553480156200001d57600080fd5b506040516200399538038062003995833981810160405281019062000043919062000471565b84600090805190602001906200005b929190620001d3565b508160019060026200006f92919062000264565b5083600460006101000a81548173ffffffffffffffffffffffffffffffffffffffff021916908373ffffffffffffffffffffffffffffffffffffffff16021790555082600560006101000a81548173ffffffffffffffffffffffffffffffffffffffff021916908373ffffffffffffffffffffffffffffffffffffffff160217905550600060068190555060006007819055508060088190555060016006546200011a9190620005b5565b60026007546006546200012e9190620005b5565b6200013a9190620005b5565b600b5462000149919062000612565b6200015591906200064a565b60098190555060016007546200016c9190620005b5565b6002600754600654620001809190620005b5565b6200018c9190620005b5565b600b546200019b919062000612565b620001a791906200064a565b600a819055506000600c60026101000a81548160ff021916908315150217905550505050505062000845565b828054620001e1906200071f565b90600052602060002090601f01602090048101928262000205576000855562000251565b82601f106200022057805160ff191683800117855562000251565b8280016001018555821562000251579182015b828111156200025057825182559160200191906001019062000233565b5b509050620002609190620002be565b5090565b8260028101928215620002ab579160200282015b82811115620002aa57825182908051906020019062000299929190620001d3565b509160200191906001019062000278565b5b509050620002ba9190620002dd565b5090565b5b80821115620002d9576000816000905550600101620002bf565b5090565b5b80821115620003015760008181620002f7919062000305565b50600101620002de565b5090565b50805462000313906200071f565b6000825580601f1062000327575062000348565b601f016020900490600052602060002090810190620003479190620002be565b5b50565b6000620003626200035c8462000559565b62000525565b9050808260005b858110156200039d57815185016200038288826200042d565b84526020840193506020830192505060018101905062000369565b5050509392505050565b6000620003be620003b88462000582565b62000525565b905082815260208101848484011115620003d757600080fd5b620003e4848285620006e9565b509392505050565b600081519050620003fd8162000811565b92915050565b600082601f8301126200041557600080fd5b6002620004248482856200034b565b91505092915050565b600082601f8301126200043f57600080fd5b815162000451848260208601620003a7565b91505092915050565b6000815190506200046b816200082b565b92915050565b600080600080600060a086880312156200048a57600080fd5b600086015167ffffffffffffffff811115620004a557600080fd5b620004b3888289016200042d565b9550506020620004c688828901620003ec565b9450506040620004d988828901620003ec565b935050606086015167ffffffffffffffff811115620004f757600080fd5b620005058882890162000403565b925050608062000518888289016200045a565b9150509295509295909350565b6000604051905081810181811067ffffffffffffffff821117156200054f576200054e620007e2565b5b8060405250919050565b600067ffffffffffffffff821115620005775762000576620007e2565b5b602082029050919050565b600067ffffffffffffffff821115620005a0576200059f620007e2565b5b601f19601f8301169050602081019050919050565b6000620005c282620006df565b9150620005cf83620006df565b9250827fffffffffffffffffffffffffffffffffffffffffffffffffffffffffffffffff0382111562000607576200060662000755565b5b828201905092915050565b60006200061f82620006df565b91506200062c83620006df565b9250826200063f576200063e62000784565b5b828204905092915050565b60006200065782620006df565b91506200066483620006df565b9250817fffffffffffffffffffffffffffffffffffffffffffffffffffffffffffffffff0483118215151615620006a0576200069f62000755565b5b828202905092915050565b6000620006b882620006bf565b9050919050565b600073ffffffffffffffffffffffffffffffffffffffff82169050919050565b6000819050919050565b60005b8381101562000709578082015181840152602081019050620006ec565b8381111562000719576000848401525b50505050565b600060028204905060018216806200073857607f821691505b602082108114156200074f576200074e620007b3565b5b50919050565b7f4e487b7100000000000000000000000000000000000000000000000000000000600052601160045260246000fd5b7f4e487b7100000000000000000000000000000000000000000000000000000000600052601260045260246000fd5b7f4e487b7100000000000000000000000000000000000000000000000000000000600052602260045260246000fd5b7f4e487b7100000000000000000000000000000000000000000000000000000000600052604160045260246000fd5b6200081c81620006ab565b81146200082857600080fd5b50565b6200083681620006df565b81146200084257600080fd5b50565b61314080620008556000396000f3fe608060405260043610620002365760003560e01c80639040a9491162000133578063c831c1db11620000af578063dfbf53ae1162000079578063dfbf53ae146200079d578063e38d6b5c14620007cd578063e6bfd26a14620007fd578063e82898b3146200082d578063ead5a40d146200085d5762000236565b8063c831c1db14620006dd578063d7654099146200070d578063dbd1a50e146200073d578063dde892ba146200076d5762000236565b8063a9c2e36c11620000fd578063a9c2e36c14620005fd578063b9426a43146200062d578063bbafcff0146200064d578063bd0198f0146200067d578063c291c58d14620006ad5762000236565b80639040a949146200054d578063966dae0e146200057d57806397545f2914620005ad578063a6e9e71e14620005dd5762000236565b806350d51ebd11620001c35780636f9fb98a116200018d5780636f9fb98a146200046d5780637e1bced8146200049d5780638a2836c514620004bd5780638da5cb5b14620004ed5780638e7ea5b2146200051d5762000236565b806350d51ebd146200039b57806351d19a2914620003df578063603d55d7146200040f57806369fdbf85146200043f5762000236565b806323459dba116200020557806323459dba146200030f5780632a33030f146200033f5780633aca0407146200036f578063483f0219146200038f5762000236565b80630c4f65bd146200023b5780630d75f3b7146200026b5780631f67c80b146200029b5780632002dff914620002df575b600080fd5b3480156200024857600080fd5b50620002536200088d565b6040516200026291906200230c565b60405180910390f35b3480156200027857600080fd5b5062000283620008b7565b60405162000292919062002543565b60405180910390f35b348015620002a857600080fd5b50620002c76004803603810190620002c1919062001efb565b620008c1565b604051620002d6919062002387565b60405180910390f35b348015620002ec57600080fd5b50620002f76200096d565b60405162000306919062002543565b60405180910390f35b3480156200031c57600080fd5b506200032762000977565b60405162000336919062002543565b60405180910390f35b3480156200034c57600080fd5b50620003576200097d565b60405162000366919062002543565b60405180910390f35b6200038d600480360381019062000387919062001efb565b620009d6565b005b6200039962000cf1565b005b348015620003a857600080fd5b50620003c76004803603810190620003c1919062001e75565b62001070565b604051620003d6919062002543565b60405180910390f35b348015620003ec57600080fd5b50620003f762001095565b60405162000406919062002543565b60405180910390f35b3480156200041c57600080fd5b50620004276200109f565b60405162000436919062002543565b60405180910390f35b3480156200044c57600080fd5b506200046b600480360381019062000465919062001f27565b620010a9565b005b3480156200047a57600080fd5b5062000485620011fd565b60405162000494919062002543565b60405180910390f35b620004bb6004803603810190620004b5919062001efb565b62001205565b005b348015620004ca57600080fd5b50620004d562001488565b604051620004e4919062002543565b60405180910390f35b348015620004fa57600080fd5b50620005056200148e565b6040516200051491906200230c565b60405180910390f35b3480156200052a57600080fd5b5062000535620014b4565b60405162000544919062002560565b60405180910390f35b3480156200055a57600080fd5b5062000565620014cb565b60405162000574919062002543565b60405180910390f35b3480156200058a57600080fd5b5062000595620014d5565b604051620005a491906200230c565b60405180910390f35b348015620005ba57600080fd5b50620005c5620014fb565b604051620005d4919062002543565b60405180910390f35b620005fb6004803603810190620005f5919062001efb565b62001501565b005b3480156200060a57600080fd5b50620006156200173e565b6040516200062491906200230c565b60405180910390f35b6200064b600480360381019062000645919062001efb565b62001768565b005b3480156200065a57600080fd5b506200066562001a85565b60405162000674919062002543565b60405180910390f35b3480156200068a57600080fd5b506200069562001a8f565b604051620006a4919062002329565b60405180910390f35b348015620006ba57600080fd5b50620006c562001b68565b604051620006d4919062002387565b60405180910390f35b348015620006ea57600080fd5b50620006f562001c02565b60405162000704919062002543565b60405180910390f35b3480156200071a57600080fd5b506200072562001c08565b6040516200073491906200234d565b60405180910390f35b3480156200074a57600080fd5b506200075562001c1b565b60405162000764919062002543565b60405180910390f35b3480156200077a57600080fd5b506200078562001c21565b60405162000794919062002543565b60405180910390f35b348015620007aa57600080fd5b50620007b562001c79565b604051620007c4919062002560565b60405180910390f35b348015620007da57600080fd5b50620007e562001c8c565b604051620007f4919062002543565b60405180910390f35b3480156200080a57600080fd5b506200081562001c92565b60405162000824919062002387565b60405180910390f35b3480156200083a57600080fd5b506200084562001d28565b60405162000854919062002560565b60405180910390f35b3480156200086a57600080fd5b506200087562001d3b565b60405162000884919062002543565b60405180910390f35b6000600560009054906101000a900473ffffffffffffffffffffffffffffffffffffffff16905090565b6000600a54905090565b60018160028110620008d257600080fd5b016000915090508054620008e69062002834565b80601f0160208091040260200160405190810160405280929190818152602001828054620009149062002834565b8015620009655780601f10620009395761010080835404028352916020019162000965565b820191906000526020600020905b8154815290600101906020018083116200094757829003601f168201915b505050505081565b6000600954905090565b60065481565b6000600360003373ffffffffffffffffffffffffffffffffffffffff1673ffffffffffffffffffffffffffffffffffffffff16815260200190815260200160002060006001815260200190815260200160002054905090565b80600360003373ffffffffffffffffffffffffffffffffffffffff1673ffffffffffffffffffffffffffffffffffffffff168152602001908152602001600020600080815260200190815260200160002054101562000a6c576040517f08c379a000000000000000000000000000000000000000000000000000000000815260040162000a639062002521565b60405180910390fd5b6000600a548262000a7e9190620026cf565b905060008130338560405162000a949062001d41565b62000aa39493929190620023cd565b604051809103906000f08015801562000ac0573d6000803e3d6000fd5b5090503373ffffffffffffffffffffffffffffffffffffffff166108fc839081150290604051600060405180830381858888f1935050505015801562000b0a573d6000803e3d6000fd5b50826007600082825462000b1f919062002730565b9250508190555082600360003373ffffffffffffffffffffffffffffffffffffffff1673ffffffffffffffffffffffffffffffffffffffff1681526020019081526020016000206000808152602001908152602001600020600082825462000b88919062002730565b92505081905550600460009054906101000a900473ffffffffffffffffffffffffffffffffffffffff1673ffffffffffffffffffffffffffffffffffffffff1663c155e4ed826040518263ffffffff1660e01b815260040162000bec91906200236a565b600060405180830381600087803b15801562000c0757600080fd5b505af115801562000c1c573d6000803e3d6000fd5b505050506040513d6000823e3d601f19601f8201168201806040525081019062000c47919062001eb6565b50600160065462000c5991906200263a565b600260075460065462000c6d91906200263a565b62000c7991906200263a565b600b5462000c88919062002697565b62000c949190620026cf565b600981905550600160075462000cab91906200263a565b600260075460065462000cbf91906200263a565b62000ccb91906200263a565b600b5462000cda919062002697565b62000ce69190620026cf565b600a81905550505050565b6000600360003373ffffffffffffffffffffffffffffffffffffffff1673ffffffffffffffffffffffffffffffffffffffff1681526020019081526020016000206000600c60009054906101000a900460ff1660ff1681526020019081526020016000205490506000811162000d9e576040517f08c379a000000000000000000000000000000000000000000000000000000000815260040162000d959062002444565b60405180910390fd5b60011515600c60029054906101000a900460ff1615151462000df7576040517f08c379a000000000000000000000000000000000000000000000000000000000815260040162000dee90620023ab565b60405180910390fd5b6000600c60009054906101000a900460ff1660ff16141562000edd576000600d54600360003373ffffffffffffffffffffffffffffffffffffffff1673ffffffffffffffffffffffffffffffffffffffff16815260200190815260200160002060008081526020019081526020016000205462000e759190620026cf565b90503373ffffffffffffffffffffffffffffffffffffffff166108fc829081150290604051600060405180830381858888f1935050505015801562000ebe573d6000803e3d6000fd5b50670de0b6b3a7640000600a8190555060006009819055505062000fc0565b6001600c60009054906101000a900460ff1660ff16141562000fbf576000600d54600360003373ffffffffffffffffffffffffffffffffffffffff1673ffffffffffffffffffffffffffffffffffffffff1681526020019081526020016000206000600181526020019081526020016000205462000f5c9190620026cf565b90503373ffffffffffffffffffffffffffffffffffffffff166108fc829081150290604051600060405180830381858888f1935050505015801562000fa5573d6000803e3d6000fd5b50670de0b6b3a76400006009819055506000600a81905550505b5b6000600360003373ffffffffffffffffffffffffffffffffffffffff1673ffffffffffffffffffffffffffffffffffffffff1681526020019081526020016000206000808152602001908152602001600020819055506000600360003373ffffffffffffffffffffffffffffffffffffffff1673ffffffffffffffffffffffffffffffffffffffff1681526020019081526020016000206000600181526020019081526020016000208190555050565b6003602052816000526040600020602052806000526040600020600091509150505481565b6000600d54905090565b6000600854905090565b600560009054906101000a900473ffffffffffffffffffffffffffffffffffffffff1673ffffffffffffffffffffffffffffffffffffffff163373ffffffffffffffffffffffffffffffffffffffff16146200113c576040517f08c379a0000000000000000000000000000000000000000000000000000000008152600401620011339062002466565b60405180910390fd5b81600c60006101000a81548160ff021916908360ff16021790555080600c60016101000a81548160ff021916908360ff1602179055506001600c60026101000a81548160ff0219169083151502179055506001600c60009054906101000a900460ff1660ff161415620011c55760065447620011b9919062002697565b600d81905550620011f9565b6000600c60009054906101000a900460ff1660ff161415620011f85760075447620011f1919062002697565b600d819055505b5b5050565b600047905090565b600060095482620012179190620026cf565b90508034146200125e576040517f08c379a0000000000000000000000000000000000000000000000000000000008152600401620012559062002488565b60405180910390fd5b600081333085604051620012729062001d41565b620012819493929190620024aa565b604051809103906000f0801580156200129e573d6000803e3d6000fd5b5090508260066000828254620012b591906200263a565b9250508190555082600360003373ffffffffffffffffffffffffffffffffffffffff1673ffffffffffffffffffffffffffffffffffffffff16815260200190815260200160002060006001815260200190815260200160002060008282546200131f91906200263a565b92505081905550600460009054906101000a900473ffffffffffffffffffffffffffffffffffffffff1673ffffffffffffffffffffffffffffffffffffffff1663c155e4ed826040518263ffffffff1660e01b81526004016200138391906200236a565b600060405180830381600087803b1580156200139e57600080fd5b505af1158015620013b3573d6000803e3d6000fd5b505050506040513d6000823e3d601f19601f82011682018060405250810190620013de919062001eb6565b506001600654620013f091906200263a565b60026007546006546200140491906200263a565b6200141091906200263a565b600b546200141f919062002697565b6200142b9190620026cf565b60098190555060016007546200144291906200263a565b60026007546006546200145691906200263a565b6200146291906200263a565b600b5462001471919062002697565b6200147d9190620026cf565b600a81905550505050565b600d5481565b600560009054906101000a900473ffffffffffffffffffffffffffffffffffffffff1681565b6000600c60009054906101000a900460ff16905090565b6000600754905090565b600460009054906101000a900473ffffffffffffffffffffffffffffffffffffffff1681565b60085481565b6000600a5482620015139190620026cf565b9050600081333085604051620015299062001d41565b620015389493929190620024aa565b604051809103906000f08015801562001555573d6000803e3d6000fd5b50905082600760008282546200156c91906200263a565b9250508190555082600360003373ffffffffffffffffffffffffffffffffffffffff1673ffffffffffffffffffffffffffffffffffffffff16815260200190815260200160002060008081526020019081526020016000206000828254620015d591906200263a565b92505081905550600460009054906101000a900473ffffffffffffffffffffffffffffffffffffffff1673ffffffffffffffffffffffffffffffffffffffff1663c155e4ed826040518263ffffffff1660e01b81526004016200163991906200236a565b600060405180830381600087803b1580156200165457600080fd5b505af115801562001669573d6000803e3d6000fd5b505050506040513d6000823e3d601f19601f8201168201806040525081019062001694919062001eb6565b506001600654620016a691906200263a565b6002600754600654620016ba91906200263a565b620016c691906200263a565b600b54620016d5919062002697565b620016e19190620026cf565b6009819055506001600754620016f891906200263a565b60026007546006546200170c91906200263a565b6200171891906200263a565b600b5462001727919062002697565b620017339190620026cf565b600a81905550505050565b6000600460009054906101000a900473ffffffffffffffffffffffffffffffffffffffff16905090565b80600360003373ffffffffffffffffffffffffffffffffffffffff1673ffffffffffffffffffffffffffffffffffffffff168152602001908152602001600020600060018152602001908152602001600020541015620017ff576040517f08c379a0000000000000000000000000000000000000000000000000000000008152600401620017f69062002521565b60405180910390fd5b600060095482620018119190620026cf565b9050600081303385604051620018279062001d41565b620018369493929190620023cd565b604051809103906000f08015801562001853573d6000803e3d6000fd5b5090503373ffffffffffffffffffffffffffffffffffffffff166108fc839081150290604051600060405180830381858888f193505050501580156200189d573d6000803e3d6000fd5b508260066000828254620018b2919062002730565b9250508190555082600360003373ffffffffffffffffffffffffffffffffffffffff1673ffffffffffffffffffffffffffffffffffffffff16815260200190815260200160002060006001815260200190815260200160002060008282546200191c919062002730565b92505081905550600460009054906101000a900473ffffffffffffffffffffffffffffffffffffffff1673ffffffffffffffffffffffffffffffffffffffff1663c155e4ed826040518263ffffffff1660e01b81526004016200198091906200236a565b600060405180830381600087803b1580156200199b57600080fd5b505af1158015620019b0573d6000803e3d6000fd5b505050506040513d6000823e3d601f19601f82011682018060405250810190620019db919062001eb6565b506001600654620019ed91906200263a565b600260075460065462001a0191906200263a565b62001a0d91906200263a565b600b5462001a1c919062002697565b62001a289190620026cf565b600981905550600160075462001a3f91906200263a565b600260075460065462001a5391906200263a565b62001a5f91906200263a565b600b5462001a6e919062002697565b62001a7a9190620026cf565b600a81905550505050565b6000600654905090565b62001a9962001d4f565b6001600280602002604051908101604052809291906000905b8282101562001b5f57838201805462001acb9062002834565b80601f016020809104026020016040519081016040528092919081815260200182805462001af99062002834565b801562001b4a5780601f1062001b1e5761010080835404028352916020019162001b4a565b820191906000526020600020905b81548152906001019060200180831162001b2c57829003601f168201915b50505050508152602001906001019062001ab2565b50505050905090565b60606000805462001b799062002834565b80601f016020809104026020016040519081016040528092919081815260200182805462001ba79062002834565b801562001bf85780601f1062001bcc5761010080835404028352916020019162001bf8565b820191906000526020600020905b81548152906001019060200180831162001bda57829003601f168201915b5050505050905090565b600a5481565b600c60029054906101000a900460ff1681565b60095481565b6000600360003373ffffffffffffffffffffffffffffffffffffffff1673ffffffffffffffffffffffffffffffffffffffff168152602001908152602001600020600080815260200190815260200160002054905090565b600c60009054906101000a900460ff1681565b600b5481565b6000805462001ca19062002834565b80601f016020809104026020016040519081016040528092919081815260200182805462001ccf9062002834565b801562001d205780601f1062001cf45761010080835404028352916020019162001d20565b820191906000526020600020905b81548152906001019060200180831162001d0257829003601f168201915b505050505081565b600c60019054906101000a900460ff1681565b60075481565b61076b80620029a083390190565b60405180604001604052806002905b606081526020019060019003908162001d5e5790505090565b600062001d8e62001d8884620025b1565b6200257d565b9050808382526020820190508285602086028201111562001dae57600080fd5b60005b8581101562001de2578162001dc7888262001e30565b84526020840193506020830192505060018101905062001db1565b5050509392505050565b60008135905062001dfd8162002937565b92915050565b600082601f83011262001e1557600080fd5b815162001e2784826020860162001d77565b91505092915050565b60008151905062001e418162002951565b92915050565b60008135905062001e58816200296b565b92915050565b60008135905062001e6f8162002985565b92915050565b6000806040838503121562001e8957600080fd5b600062001e998582860162001dec565b925050602062001eac8582860162001e47565b9150509250929050565b60006020828403121562001ec957600080fd5b600082015167ffffffffffffffff81111562001ee457600080fd5b62001ef28482850162001e03565b91505092915050565b60006020828403121562001f0e57600080fd5b600062001f1e8482850162001e47565b91505092915050565b6000806040838503121562001f3b57600080fd5b600062001f4b8582860162001e5e565b925050602062001f5e8582860162001e5e565b9150509250929050565b600062001f76838362002032565b905092915050565b62001f89816200276b565b82525050565b600062001f9c82620025ea565b62001fa881856200260d565b93508360208202850162001fbc85620025e0565b8060005b8581101562001ffe578484038952815162001fdc858262001f68565b945062001fe98362002600565b925060208a0199505060018101905062001fc0565b50829750879550505050505092915050565b6200201b816200277f565b82525050565b6200202c81620027d6565b82525050565b60006200203f82620025f5565b6200204b818562002618565b93506200205d818560208601620027fe565b620020688162002926565b840191505092915050565b60006200208082620025f5565b6200208c818562002629565b93506200209e818560208601620027fe565b620020a98162002926565b840191505092915050565b6000620020c360198362002629565b91507f4265742068617665206e6f742066696e697368656420796574000000000000006000830152602082019050919050565b60006200210560048362002629565b91507f53656c6c000000000000000000000000000000000000000000000000000000006000830152602082019050919050565b600062002147601f8362002629565b91507f596f7520646f206e6f74206861766520616e792077696e6e696e6720626574006000830152602082019050919050565b60006200218960278362002629565b91507f596f7520646f206e6f7420686176652061636365737320746f2074686973206660008301527f756e6374696f6e000000000000000000000000000000000000000000000000006020830152604082019050919050565b6000620021f1602f8362002629565b91507f596f75206e65656420746f207061737320696e2074686520636f72726563742060008301527f616d6f756e74206f6620657468657200000000000000000000000000000000006020830152604082019050919050565b60006200225960038362002629565b91507f42757900000000000000000000000000000000000000000000000000000000006000830152602082019050919050565b60006200229b60008362002629565b9150600082019050919050565b6000620022b760128362002629565b91507f4e6f7420456e6f75676820546f6b656e732100000000000000000000000000006000830152602082019050919050565b620022f581620027bf565b82525050565b6200230681620027c9565b82525050565b600060208201905062002323600083018462001f7e565b92915050565b6000602082019050818103600083015262002345818462001f8f565b905092915050565b600060208201905062002364600083018462002010565b92915050565b600060208201905062002381600083018462002021565b92915050565b60006020820190508181036000830152620023a3818462002073565b905092915050565b60006020820190508181036000830152620023c681620020b4565b9050919050565b600060c0820190508181036000830152620023e881620020f6565b9050620023f96020830187620022ea565b62002408604083018662001f7e565b62002417606083018562001f7e565b81810360808301526200242a816200228c565b90506200243b60a0830184620022ea565b95945050505050565b600060208201905081810360008301526200245f8162002138565b9050919050565b6000602082019050818103600083015262002481816200217a565b9050919050565b60006020820190508181036000830152620024a381620021e2565b9050919050565b600060c0820190508181036000830152620024c5816200224a565b9050620024d66020830187620022ea565b620024e5604083018662001f7e565b620024f4606083018562001f7e565b818103608083015262002507816200228c565b90506200251860a0830184620022ea565b95945050505050565b600060208201905081810360008301526200253c81620022a8565b9050919050565b60006020820190506200255a6000830184620022ea565b92915050565b6000602082019050620025776000830184620022fb565b92915050565b6000604051905081810181811067ffffffffffffffff82111715620025a757620025a6620028f7565b5b8060405250919050565b600067ffffffffffffffff821115620025cf57620025ce620028f7565b5b602082029050602081019050919050565b6000819050919050565b600060029050919050565b600081519050919050565b6000602082019050919050565b600081905092915050565b600082825260208201905092915050565b600082825260208201905092915050565b60006200264782620027bf565b91506200265483620027bf565b9250827fffffffffffffffffffffffffffffffffffffffffffffffffffffffffffffffff038211156200268c576200268b6200286a565b5b828201905092915050565b6000620026a482620027bf565b9150620026b183620027bf565b925082620026c457620026c362002899565b5b828204905092915050565b6000620026dc82620027bf565b9150620026e983620027bf565b9250817fffffffffffffffffffffffffffffffffffffffffffffffffffffffffffffffff04831182151516156200272557620027246200286a565b5b828202905092915050565b60006200273d82620027bf565b91506200274a83620027bf565b92508282101562002760576200275f6200286a565b5b828203905092915050565b600062002778826200279f565b9050919050565b60008115159050919050565b600062002798826200276b565b9050919050565b600073ffffffffffffffffffffffffffffffffffffffff82169050919050565b6000819050919050565b600060ff82169050919050565b6000620027e382620027ea565b9050919050565b6000620027f7826200279f565b9050919050565b60005b838110156200281e57808201518184015260208101905062002801565b838111156200282e576000848401525b50505050565b600060028204905060018216806200284d57607f821691505b60208210811415620028645762002863620028c8565b5b50919050565b7f4e487b7100000000000000000000000000000000000000000000000000000000600052601160045260246000fd5b7f4e487b7100000000000000000000000000000000000000000000000000000000600052601260045260246000fd5b7f4e487b7100000000000000000000000000000000000000000000000000000000600052602260045260246000fd5b7f4e487b7100000000000000000000000000000000000000000000000000000000600052604160045260246000fd5b6000601f19601f8301169050919050565b62002942816200276b565b81146200294e57600080fd5b50565b6200295c816200278b565b81146200296857600080fd5b50565b6200297681620027bf565b81146200298257600080fd5b50565b6200299081620027c9565b81146200299c57600080fd5b5056fe608060405234801561001057600080fd5b5060405161076b38038061076b83398181016040528101906100329190610230565b85600090805190602001906100489291906100fb565b508460018190555083600260006101000a81548173ffffffffffffffffffffffffffffffffffffffff021916908373ffffffffffffffffffffffffffffffffffffffff16021790555082600360006101000a81548173ffffffffffffffffffffffffffffffffffffffff021916908373ffffffffffffffffffffffffffffffffffffffff16021790555081600490805190602001906100e89291906100fb565b5080600581905550505050505050610477565b828054610107906103b9565b90600052602060002090601f0160209004810192826101295760008555610170565b82601f1061014257805160ff1916838001178555610170565b82800160010185558215610170579182015b8281111561016f578251825591602001919060010190610154565b5b50905061017d9190610181565b5090565b5b8082111561019a576000816000905550600101610182565b5090565b60006101b16101ac8461031a565b6102e9565b9050828152602081018484840111156101c957600080fd5b6101d4848285610386565b509392505050565b6000815190506101eb81610449565b92915050565b600082601f83011261020257600080fd5b815161021284826020860161019e565b91505092915050565b60008151905061022a81610460565b92915050565b60008060008060008060c0878903121561024957600080fd5b600087015167ffffffffffffffff81111561026357600080fd5b61026f89828a016101f1565b965050602061028089828a0161021b565b955050604061029189828a016101dc565b94505060606102a289828a016101dc565b935050608087015167ffffffffffffffff8111156102bf57600080fd5b6102cb89828a016101f1565b92505060a06102dc89828a0161021b565b9150509295509295509295565b6000604051905081810181811067ffffffffffffffff821117156103105761030f61041a565b5b8060405250919050565b600067ffffffffffffffff8211156103355761033461041a565b5b601f19601f8301169050602081019050919050565b60006103558261035c565b9050919050565b600073ffffffffffffffffffffffffffffffffffffffff82169050919050565b6000819050919050565b60005b838110156103a4578082015181840152602081019050610389565b838111156103b3576000848401525b50505050565b600060028204905060018216806103d157607f821691505b602082108114156103e5576103e46103eb565b5b50919050565b7f4e487b7100000000000000000000000000000000000000000000000000000000600052602260045260246000fd5b7f4e487b7100000000000000000000000000000000000000000000000000000000600052604160045260246000fd5b6104528161034a565b811461045d57600080fd5b50565b6104698161037c565b811461047457600080fd5b50565b6102e5806104866000396000f3fe608060405234801561001057600080fd5b50600436106100365760003560e01c8063524ecd141461003b578063861a844d14610059575b600080fd5b610043610077565b60405161005091906101cc565b60405180910390f35b610061610105565b60405161006e91906101cc565b60405180910390f35b600480546100849061023d565b80601f01602080910402602001604051908101604052809291908181526020018280546100b09061023d565b80156100fd5780601f106100d2576101008083540402835291602001916100fd565b820191906000526020600020905b8154815290600101906020018083116100e057829003601f168201915b505050505081565b600080546101129061023d565b80601f016020809104026020016040519081016040528092919081815260200182805461013e9061023d565b801561018b5780601f106101605761010080835404028352916020019161018b565b820191906000526020600020905b81548152906001019060200180831161016e57829003601f168201915b505050505081565b600061019e826101ee565b6101a881856101f9565b93506101b881856020860161020a565b6101c18161029e565b840191505092915050565b600060208201905081810360008301526101e68184610193565b905092915050565b600081519050919050565b600082825260208201905092915050565b60005b8381101561022857808201518184015260208101905061020d565b83811115610237576000848401525b50505050565b6000600282049050600182168061025557607f821691505b602082108114156102695761026861026f565b5b50919050565b7f4e487b7100000000000000000000000000000000000000000000000000000000600052602260045260246000fd5b6000601f19601f830116905091905056fea2646970667358221220135ce0d6339cbc4d325670198669c34803ea0eac28f5072c7acb299288a2939564736f6c63430008000033a2646970667358221220ab247e0c2f8bc43e2562810a6385cf5e859792d5be01f4ff05c4030f9ac9c46664736f6c63430008000033",
  "linkReferences": {},
  "deployedLinkReferences": {}
}