{
  "_format": "hh-sol-artifact-1",
  "contractName": "Market",
  "sourceName": "contracts/MarketTracker.sol",
  "abi": [
    {
      "inputs": [
        {
          "internalType": "string",
          "name": "_marketName",
          "type": "string"
        },
        {
          "internalType": "address",
          "name": "_factoryAddress",
          "type": "address"
        },
        {
          "internalType": "address",
          "name": "_owner",
          "type": "address"
        },
        {
          "internalType": "string[2]",
          "name": "_side",
          "type": "string[2]"
        },
        {
          "internalType": "uint256",
          "name": "_resultDate",
          "type": "uint256"
        }
      ],
      "stateMutability": "nonpayable",
      "type": "constructor"
    },
    {
      "inputs": [],
      "name": "N_Tokens",
      "outputs": [
        {
          "internalType": "uint256",
          "name": "",
          "type": "uint256"
        }
      ],
      "stateMutability": "view",
      "type": "function"
    },
    {
      "inputs": [
        {
          "internalType": "uint256",
          "name": "",
          "type": "uint256"
        }
      ],
      "name": "Side",
      "outputs": [
        {
          "internalType": "string",
          "name": "",
          "type": "string"
        }
      ],
      "stateMutability": "view",
      "type": "function"
    },
    {
      "inputs": [],
      "name": "Y_Tokens",
      "outputs": [
        {
          "internalType": "uint256",
          "name": "",
          "type": "uint256"
        }
      ],
      "stateMutability": "view",
      "type": "function"
    },
    {
      "inputs": [
        {
          "internalType": "uint256",
          "name": "amount",
          "type": "uint256"
        }
      ],
      "name": "buyYToken",
      "outputs": [],
      "stateMutability": "payable",
      "type": "function"
    },
    {
      "inputs": [],
      "name": "currentNPrice",
      "outputs": [
        {
          "internalType": "uint256",
          "name": "",
          "type": "uint256"
        }
      ],
      "stateMutability": "view",
      "type": "function"
    },
    {
      "inputs": [],
      "name": "currentYPrice",
      "outputs": [
        {
          "internalType": "uint256",
          "name": "",
          "type": "uint256"
        }
      ],
      "stateMutability": "view",
      "type": "function"
    },
    {
      "inputs": [],
      "name": "factoryAddress",
      "outputs": [
        {
          "internalType": "address",
          "name": "",
          "type": "address"
        }
      ],
      "stateMutability": "view",
      "type": "function"
    },
    {
      "inputs": [],
      "name": "getFactoryAddress",
      "outputs": [
        {
          "internalType": "address",
          "name": "",
          "type": "address"
        }
      ],
      "stateMutability": "view",
      "type": "function"
    },
    {
      "inputs": [],
      "name": "getMarketName",
      "outputs": [
        {
          "internalType": "string",
          "name": "",
          "type": "string"
        }
      ],
      "stateMutability": "view",
      "type": "function"
    },
    {
      "inputs": [],
      "name": "getNPrice",
      "outputs": [
        {
          "internalType": "uint256",
          "name": "",
          "type": "uint256"
        }
      ],
      "stateMutability": "view",
      "type": "function"
    },
    {
      "inputs": [],
      "name": "getNTokens",
      "outputs": [
        {
          "internalType": "uint256",
          "name": "",
          "type": "uint256"
        }
      ],
      "stateMutability": "view",
      "type": "function"
    },
    {
      "inputs": [],
      "name": "getOwnerAddress",
      "outputs": [
        {
          "internalType": "address",
          "name": "",
          "type": "address"
        }
      ],
      "stateMutability": "view",
      "type": "function"
    },
    {
      "inputs": [],
      "name": "getResultDate",
      "outputs": [
        {
          "internalType": "uint256",
          "name": "",
          "type": "uint256"
        }
      ],
      "stateMutability": "view",
      "type": "function"
    },
    {
      "inputs": [],
      "name": "getSide",
      "outputs": [
        {
          "internalType": "string[2]",
          "name": "",
          "type": "string[2]"
        }
      ],
      "stateMutability": "view",
      "type": "function"
    },
    {
      "inputs": [],
      "name": "getYPrice",
      "outputs": [
        {
          "internalType": "uint256",
          "name": "",
          "type": "uint256"
        }
      ],
      "stateMutability": "view",
      "type": "function"
    },
    {
      "inputs": [],
      "name": "getYTokens",
      "outputs": [
        {
          "internalType": "uint256",
          "name": "",
          "type": "uint256"
        }
      ],
      "stateMutability": "view",
      "type": "function"
    },
    {
      "inputs": [],
      "name": "marketName",
      "outputs": [
        {
          "internalType": "string",
          "name": "",
          "type": "string"
        }
      ],
      "stateMutability": "view",
      "type": "function"
    },
    {
      "inputs": [],
      "name": "maxPrice",
      "outputs": [
        {
          "internalType": "uint256",
          "name": "",
          "type": "uint256"
        }
      ],
      "stateMutability": "view",
      "type": "function"
    },
    {
      "inputs": [],
      "name": "owner",
      "outputs": [
        {
          "internalType": "address",
          "name": "",
          "type": "address"
        }
      ],
      "stateMutability": "view",
      "type": "function"
    },
    {
      "inputs": [],
      "name": "resultDate",
      "outputs": [
        {
          "internalType": "uint256",
          "name": "",
          "type": "uint256"
        }
      ],
      "stateMutability": "view",
      "type": "function"
    },
    {
      "inputs": [
        {
          "internalType": "address",
          "name": "",
          "type": "address"
        },
        {
          "internalType": "uint256",
          "name": "",
          "type": "uint256"
        }
      ],
      "name": "tokensPerGambler",
      "outputs": [
        {
          "internalType": "uint256",
          "name": "",
          "type": "uint256"
        }
      ],
      "stateMutability": "view",
      "type": "function"
    }
  ],
  "bytecode": "0x6080604052670de0b6b3a7640000600b553480156200001d57600080fd5b506040516200149b3803806200149b833981810160405281019062000043919062000456565b84600090805190602001906200005b929190620001b8565b508160019060026200006f92919062000249565b5083600460006101000a81548173ffffffffffffffffffffffffffffffffffffffff021916908373ffffffffffffffffffffffffffffffffffffffff16021790555082600560006101000a81548173ffffffffffffffffffffffffffffffffffffffff021916908373ffffffffffffffffffffffffffffffffffffffff160217905550600060068190555060006007819055508060088190555060016006546200011a91906200059a565b60026007546006546200012e91906200059a565b6200013a91906200059a565b600b54620001499190620005f7565b6200015591906200062f565b60098190555060016007546200016c91906200059a565b60026007546006546200018091906200059a565b6200018c91906200059a565b600b546200019b9190620005f7565b620001a791906200062f565b600a8190555050505050506200082a565b828054620001c69062000704565b90600052602060002090601f016020900481019282620001ea576000855562000236565b82601f106200020557805160ff191683800117855562000236565b8280016001018555821562000236579182015b828111156200023557825182559160200191906001019062000218565b5b509050620002459190620002a3565b5090565b826002810192821562000290579160200282015b828111156200028f5782518290805190602001906200027e929190620001b8565b50916020019190600101906200025d565b5b5090506200029f9190620002c2565b5090565b5b80821115620002be576000816000905550600101620002a4565b5090565b5b80821115620002e65760008181620002dc9190620002ea565b50600101620002c3565b5090565b508054620002f89062000704565b6000825580601f106200030c57506200032d565b601f0160209004906000526020600020908101906200032c9190620002a3565b5b50565b60006200034762000341846200053e565b6200050a565b9050808260005b8581101562000382578151850162000367888262000412565b8452602084019350602083019250506001810190506200034e565b5050509392505050565b6000620003a36200039d8462000567565b6200050a565b905082815260208101848484011115620003bc57600080fd5b620003c9848285620006ce565b509392505050565b600081519050620003e281620007f6565b92915050565b600082601f830112620003fa57600080fd5b60026200040984828562000330565b91505092915050565b600082601f8301126200042457600080fd5b8151620004368482602086016200038c565b91505092915050565b600081519050620004508162000810565b92915050565b600080600080600060a086880312156200046f57600080fd5b600086015167ffffffffffffffff8111156200048a57600080fd5b620004988882890162000412565b9550506020620004ab88828901620003d1565b9450506040620004be88828901620003d1565b935050606086015167ffffffffffffffff811115620004dc57600080fd5b620004ea88828901620003e8565b9250506080620004fd888289016200043f565b9150509295509295909350565b6000604051905081810181811067ffffffffffffffff82111715620005345762000533620007c7565b5b8060405250919050565b600067ffffffffffffffff8211156200055c576200055b620007c7565b5b602082029050919050565b600067ffffffffffffffff821115620005855762000584620007c7565b5b601f19601f8301169050602081019050919050565b6000620005a782620006c4565b9150620005b483620006c4565b9250827fffffffffffffffffffffffffffffffffffffffffffffffffffffffffffffffff03821115620005ec57620005eb6200073a565b5b828201905092915050565b60006200060482620006c4565b91506200061183620006c4565b92508262000624576200062362000769565b5b828204905092915050565b60006200063c82620006c4565b91506200064983620006c4565b9250817fffffffffffffffffffffffffffffffffffffffffffffffffffffffffffffffff04831182151516156200068557620006846200073a565b5b828202905092915050565b60006200069d82620006a4565b9050919050565b600073ffffffffffffffffffffffffffffffffffffffff82169050919050565b6000819050919050565b60005b83811015620006ee578082015181840152602081019050620006d1565b83811115620006fe576000848401525b50505050565b600060028204905060018216806200071d57607f821691505b6020821081141562000734576200073362000798565b5b50919050565b7f4e487b7100000000000000000000000000000000000000000000000000000000600052601160045260246000fd5b7f4e487b7100000000000000000000000000000000000000000000000000000000600052601260045260246000fd5b7f4e487b7100000000000000000000000000000000000000000000000000000000600052602260045260246000fd5b7f4e487b7100000000000000000000000000000000000000000000000000000000600052604160045260246000fd5b620008018162000690565b81146200080d57600080fd5b50565b6200081b81620006c4565b81146200082757600080fd5b50565b610c61806200083a6000396000f3fe60806040526004361061012a5760003560e01c8063966dae0e116100ab578063c291c58d1161006f578063c291c58d146103c9578063c831c1db146103f4578063dbd1a50e1461041f578063e38d6b5c1461044a578063e6bfd26a14610475578063ead5a40d146104a05761012a565b8063966dae0e146102f257806397545f291461031d578063a9c2e36c14610348578063bbafcff014610373578063bd0198f01461039e5761012a565b806350d51ebd116100f257806350d51ebd14610218578063603d55d7146102555780637e1bced8146102805780638da5cb5b1461029c5780639040a949146102c75761012a565b80630c4f65bd1461012f5780630d75f3b71461015a5780631f67c80b146101855780632002dff9146101c257806323459dba146101ed575b600080fd5b34801561013b57600080fd5b506101446104cb565b6040516101519190610a48565b60405180910390f35b34801561016657600080fd5b5061016f6104f5565b60405161017c9190610aa7565b60405180910390f35b34801561019157600080fd5b506101ac60048036038101906101a79190610906565b6104ff565b6040516101b99190610a85565b60405180910390f35b3480156101ce57600080fd5b506101d76105a2565b6040516101e49190610aa7565b60405180910390f35b3480156101f957600080fd5b506102026105ac565b60405161020f9190610aa7565b60405180910390f35b34801561022457600080fd5b5061023f600480360381019061023a91906108ca565b6105b2565b60405161024c9190610aa7565b60405180910390f35b34801561026157600080fd5b5061026a6105d7565b6040516102779190610aa7565b60405180910390f35b61029a60048036038101906102959190610906565b6105e1565b005b3480156102a857600080fd5b506102b16105e4565b6040516102be9190610a48565b60405180910390f35b3480156102d357600080fd5b506102dc61060a565b6040516102e99190610aa7565b60405180910390f35b3480156102fe57600080fd5b50610307610614565b6040516103149190610a48565b60405180910390f35b34801561032957600080fd5b5061033261063a565b60405161033f9190610aa7565b60405180910390f35b34801561035457600080fd5b5061035d610640565b60405161036a9190610a48565b60405180910390f35b34801561037f57600080fd5b5061038861066a565b6040516103959190610aa7565b60405180910390f35b3480156103aa57600080fd5b506103b3610674565b6040516103c09190610a63565b60405180910390f35b3480156103d557600080fd5b506103de610741565b6040516103eb9190610a85565b60405180910390f35b34801561040057600080fd5b506104096107d3565b6040516104169190610aa7565b60405180910390f35b34801561042b57600080fd5b506104346107d9565b6040516104419190610aa7565b60405180910390f35b34801561045657600080fd5b5061045f6107df565b60405161046c9190610aa7565b60405180910390f35b34801561048157600080fd5b5061048a6107e5565b6040516104979190610a85565b60405180910390f35b3480156104ac57600080fd5b506104b5610873565b6040516104c29190610aa7565b60405180910390f35b6000600560009054906101000a900473ffffffffffffffffffffffffffffffffffffffff16905090565b6000600954905090565b6001816002811061050f57600080fd5b01600091509050805461052190610b8b565b80601f016020809104026020016040519081016040528092919081815260200182805461054d90610b8b565b801561059a5780601f1061056f5761010080835404028352916020019161059a565b820191906000526020600020905b81548152906001019060200180831161057d57829003601f168201915b505050505081565b6000600954905090565b60065481565b6003602052816000526040600020602052806000526040600020600091509150505481565b6000600854905090565b50565b600560009054906101000a900473ffffffffffffffffffffffffffffffffffffffff1681565b6000600754905090565b600460009054906101000a900473ffffffffffffffffffffffffffffffffffffffff1681565b60085481565b6000600460009054906101000a900473ffffffffffffffffffffffffffffffffffffffff16905090565b6000600654905090565b61067c610879565b6001600280602002604051908101604052809291906000905b828210156107385783820180546106ab90610b8b565b80601f01602080910402602001604051908101604052809291908181526020018280546106d790610b8b565b80156107245780601f106106f957610100808354040283529160200191610724565b820191906000526020600020905b81548152906001019060200180831161070757829003601f168201915b505050505081526020019060010190610695565b50505050905090565b60606000805461075090610b8b565b80601f016020809104026020016040519081016040528092919081815260200182805461077c90610b8b565b80156107c95780601f1061079e576101008083540402835291602001916107c9565b820191906000526020600020905b8154815290600101906020018083116107ac57829003601f168201915b5050505050905090565b600a5481565b60095481565b600b5481565b600080546107f290610b8b565b80601f016020809104026020016040519081016040528092919081815260200182805461081e90610b8b565b801561086b5780601f106108405761010080835404028352916020019161086b565b820191906000526020600020905b81548152906001019060200180831161084e57829003601f168201915b505050505081565b60075481565b60405180604001604052806002905b60608152602001906001900390816108885790505090565b6000813590506108af81610bfd565b92915050565b6000813590506108c481610c14565b92915050565b600080604083850312156108dd57600080fd5b60006108eb858286016108a0565b92505060206108fc858286016108b5565b9150509250929050565b60006020828403121561091857600080fd5b6000610926848285016108b5565b91505092915050565b600061093b83836109c7565b905092915050565b61094c81610b1c565b82525050565b600061095d82610acc565b6109678185610aef565b93508360208202850161097985610ac2565b8060005b858110156109b55784840389528151610996858261092f565b94506109a183610ae2565b925060208a0199505060018101905061097d565b50829750879550505050505092915050565b60006109d282610ad7565b6109dc8185610afa565b93506109ec818560208601610b58565b6109f581610bec565b840191505092915050565b6000610a0b82610ad7565b610a158185610b0b565b9350610a25818560208601610b58565b610a2e81610bec565b840191505092915050565b610a4281610b4e565b82525050565b6000602082019050610a5d6000830184610943565b92915050565b60006020820190508181036000830152610a7d8184610952565b905092915050565b60006020820190508181036000830152610a9f8184610a00565b905092915050565b6000602082019050610abc6000830184610a39565b92915050565b6000819050919050565b600060029050919050565b600081519050919050565b6000602082019050919050565b600081905092915050565b600082825260208201905092915050565b600082825260208201905092915050565b6000610b2782610b2e565b9050919050565b600073ffffffffffffffffffffffffffffffffffffffff82169050919050565b6000819050919050565b60005b83811015610b76578082015181840152602081019050610b5b565b83811115610b85576000848401525b50505050565b60006002820490506001821680610ba357607f821691505b60208210811415610bb757610bb6610bbd565b5b50919050565b7f4e487b7100000000000000000000000000000000000000000000000000000000600052602260045260246000fd5b6000601f19601f8301169050919050565b610c0681610b1c565b8114610c1157600080fd5b50565b610c1d81610b4e565b8114610c2857600080fd5b5056fea2646970667358221220d33a2badd0345b9f6753aaeecbcfe594b23ef224542c5bc1ec8a24b35fdcfaed64736f6c63430008000033",
  "linkReferences": {},
  "deployedLinkReferences": {}
}