{
  "_format": "hh-sol-artifact-1",
  "contractName": "Market",
  "sourceName": "contracts/MarketTracker.sol",
  "abi": [
    {
      "inputs": [
        {
          "internalType": "string",
          "name": "_marketName",
          "type": "string"
        },
        {
          "internalType": "address",
          "name": "_factoryAddress",
          "type": "address"
        },
        {
          "internalType": "address",
          "name": "_owner",
          "type": "address"
        },
        {
          "internalType": "string[2]",
          "name": "_side",
          "type": "string[2]"
        },
        {
          "internalType": "uint256",
          "name": "_resultDate",
          "type": "uint256"
        }
      ],
      "stateMutability": "nonpayable",
      "type": "constructor"
    },
    {
      "anonymous": false,
      "inputs": [
        {
          "indexed": false,
          "internalType": "address",
          "name": "buyer",
          "type": "address"
        },
        {
          "indexed": false,
          "internalType": "address",
          "name": "seller",
          "type": "address"
        },
        {
          "indexed": false,
          "internalType": "uint256",
          "name": "amount",
          "type": "uint256"
        }
      ],
      "name": "Transaction",
      "type": "event"
    },
    {
      "inputs": [],
      "name": "N_Tokens",
      "outputs": [
        {
          "internalType": "uint256",
          "name": "",
          "type": "uint256"
        }
      ],
      "stateMutability": "view",
      "type": "function"
    },
    {
      "inputs": [
        {
          "internalType": "uint256",
          "name": "",
          "type": "uint256"
        }
      ],
      "name": "Side",
      "outputs": [
        {
          "internalType": "string",
          "name": "",
          "type": "string"
        }
      ],
      "stateMutability": "view",
      "type": "function"
    },
    {
      "inputs": [],
      "name": "Y_Tokens",
      "outputs": [
        {
          "internalType": "uint256",
          "name": "",
          "type": "uint256"
        }
      ],
      "stateMutability": "view",
      "type": "function"
    },
    {
      "inputs": [
        {
          "internalType": "address",
          "name": "buyer",
          "type": "address"
        },
        {
          "internalType": "address",
          "name": "seller",
          "type": "address"
        },
        {
          "internalType": "uint256",
          "name": "amount",
          "type": "uint256"
        },
        {
          "internalType": "contract Transactions",
          "name": "transaction",
          "type": "address"
        }
      ],
      "name": "addTransactions",
      "outputs": [],
      "stateMutability": "nonpayable",
      "type": "function"
    },
    {
      "inputs": [
        {
          "internalType": "uint256",
          "name": "amountOfCoin",
          "type": "uint256"
        }
      ],
      "name": "buyNToken",
      "outputs": [],
      "stateMutability": "payable",
      "type": "function"
    },
    {
      "inputs": [
        {
          "internalType": "uint256",
          "name": "amountOfCoin",
          "type": "uint256"
        }
      ],
      "name": "buyYToken",
      "outputs": [],
      "stateMutability": "payable",
      "type": "function"
    },
    {
      "inputs": [],
      "name": "currentNPrice",
      "outputs": [
        {
          "internalType": "uint256",
          "name": "",
          "type": "uint256"
        }
      ],
      "stateMutability": "view",
      "type": "function"
    },
    {
      "inputs": [],
      "name": "currentYPrice",
      "outputs": [
        {
          "internalType": "uint256",
          "name": "",
          "type": "uint256"
        }
      ],
      "stateMutability": "view",
      "type": "function"
    },
    {
      "inputs": [],
      "name": "factoryAddress",
      "outputs": [
        {
          "internalType": "address",
          "name": "",
          "type": "address"
        }
      ],
      "stateMutability": "view",
      "type": "function"
    },
    {
      "inputs": [],
      "name": "getFactoryAddress",
      "outputs": [
        {
          "internalType": "address",
          "name": "",
          "type": "address"
        }
      ],
      "stateMutability": "view",
      "type": "function"
    },
    {
      "inputs": [],
      "name": "getMarketName",
      "outputs": [
        {
          "internalType": "string",
          "name": "",
          "type": "string"
        }
      ],
      "stateMutability": "view",
      "type": "function"
    },
    {
      "inputs": [],
      "name": "getNPrice",
      "outputs": [
        {
          "internalType": "uint256",
          "name": "",
          "type": "uint256"
        }
      ],
      "stateMutability": "view",
      "type": "function"
    },
    {
      "inputs": [],
      "name": "getNTokens",
      "outputs": [
        {
          "internalType": "uint256",
          "name": "",
          "type": "uint256"
        }
      ],
      "stateMutability": "view",
      "type": "function"
    },
    {
      "inputs": [],
      "name": "getOwnerAddress",
      "outputs": [
        {
          "internalType": "address",
          "name": "",
          "type": "address"
        }
      ],
      "stateMutability": "view",
      "type": "function"
    },
    {
      "inputs": [],
      "name": "getResultDate",
      "outputs": [
        {
          "internalType": "uint256",
          "name": "",
          "type": "uint256"
        }
      ],
      "stateMutability": "view",
      "type": "function"
    },
    {
      "inputs": [],
      "name": "getSide",
      "outputs": [
        {
          "internalType": "string[2]",
          "name": "",
          "type": "string[2]"
        }
      ],
      "stateMutability": "view",
      "type": "function"
    },
    {
      "inputs": [],
      "name": "getUserNTokens",
      "outputs": [
        {
          "internalType": "uint256",
          "name": "",
          "type": "uint256"
        }
      ],
      "stateMutability": "view",
      "type": "function"
    },
    {
      "inputs": [],
      "name": "getUserYTokens",
      "outputs": [
        {
          "internalType": "uint256",
          "name": "",
          "type": "uint256"
        }
      ],
      "stateMutability": "view",
      "type": "function"
    },
    {
      "inputs": [],
      "name": "getYPrice",
      "outputs": [
        {
          "internalType": "uint256",
          "name": "",
          "type": "uint256"
        }
      ],
      "stateMutability": "view",
      "type": "function"
    },
    {
      "inputs": [],
      "name": "getYTokens",
      "outputs": [
        {
          "internalType": "uint256",
          "name": "",
          "type": "uint256"
        }
      ],
      "stateMutability": "view",
      "type": "function"
    },
    {
      "inputs": [],
      "name": "marketName",
      "outputs": [
        {
          "internalType": "string",
          "name": "",
          "type": "string"
        }
      ],
      "stateMutability": "view",
      "type": "function"
    },
    {
      "inputs": [],
      "name": "maxPrice",
      "outputs": [
        {
          "internalType": "uint256",
          "name": "",
          "type": "uint256"
        }
      ],
      "stateMutability": "view",
      "type": "function"
    },
    {
      "inputs": [],
      "name": "owner",
      "outputs": [
        {
          "internalType": "address",
          "name": "",
          "type": "address"
        }
      ],
      "stateMutability": "view",
      "type": "function"
    },
    {
      "inputs": [],
      "name": "resultDate",
      "outputs": [
        {
          "internalType": "uint256",
          "name": "",
          "type": "uint256"
        }
      ],
      "stateMutability": "view",
      "type": "function"
    },
    {
      "inputs": [
        {
          "internalType": "uint256",
          "name": "amountOfCoin",
          "type": "uint256"
        }
      ],
      "name": "sellNToken",
      "outputs": [],
      "stateMutability": "payable",
      "type": "function"
    },
    {
      "inputs": [
        {
          "internalType": "uint256",
          "name": "amountOfCoin",
          "type": "uint256"
        }
      ],
      "name": "sellYToken",
      "outputs": [],
      "stateMutability": "payable",
      "type": "function"
    },
    {
      "inputs": [
        {
          "internalType": "address",
          "name": "",
          "type": "address"
        },
        {
          "internalType": "uint256",
          "name": "",
          "type": "uint256"
        }
      ],
      "name": "tokensPerGambler",
      "outputs": [
        {
          "internalType": "uint256",
          "name": "",
          "type": "uint256"
        }
      ],
      "stateMutability": "view",
      "type": "function"
    }
  ],
  "bytecode": "0x6080604052670de0b6b3a7640000600b553480156200001d57600080fd5b506040516200316438038062003164833981810160405281019062000043919062000456565b84600090805190602001906200005b929190620001b8565b508160019060026200006f92919062000249565b5083600460006101000a81548173ffffffffffffffffffffffffffffffffffffffff021916908373ffffffffffffffffffffffffffffffffffffffff16021790555082600560006101000a81548173ffffffffffffffffffffffffffffffffffffffff021916908373ffffffffffffffffffffffffffffffffffffffff160217905550600060068190555060006007819055508060088190555060016006546200011a91906200059a565b60026007546006546200012e91906200059a565b6200013a91906200059a565b600b54620001499190620005f7565b6200015591906200062f565b60098190555060016007546200016c91906200059a565b60026007546006546200018091906200059a565b6200018c91906200059a565b600b546200019b9190620005f7565b620001a791906200062f565b600a8190555050505050506200082a565b828054620001c69062000704565b90600052602060002090601f016020900481019282620001ea576000855562000236565b82601f106200020557805160ff191683800117855562000236565b8280016001018555821562000236579182015b828111156200023557825182559160200191906001019062000218565b5b509050620002459190620002a3565b5090565b826002810192821562000290579160200282015b828111156200028f5782518290805190602001906200027e929190620001b8565b50916020019190600101906200025d565b5b5090506200029f9190620002c2565b5090565b5b80821115620002be576000816000905550600101620002a4565b5090565b5b80821115620002e65760008181620002dc9190620002ea565b50600101620002c3565b5090565b508054620002f89062000704565b6000825580601f106200030c57506200032d565b601f0160209004906000526020600020908101906200032c9190620002a3565b5b50565b60006200034762000341846200053e565b6200050a565b9050808260005b8581101562000382578151850162000367888262000412565b8452602084019350602083019250506001810190506200034e565b5050509392505050565b6000620003a36200039d8462000567565b6200050a565b905082815260208101848484011115620003bc57600080fd5b620003c9848285620006ce565b509392505050565b600081519050620003e281620007f6565b92915050565b600082601f830112620003fa57600080fd5b60026200040984828562000330565b91505092915050565b600082601f8301126200042457600080fd5b8151620004368482602086016200038c565b91505092915050565b600081519050620004508162000810565b92915050565b600080600080600060a086880312156200046f57600080fd5b600086015167ffffffffffffffff8111156200048a57600080fd5b620004988882890162000412565b9550506020620004ab88828901620003d1565b9450506040620004be88828901620003d1565b935050606086015167ffffffffffffffff811115620004dc57600080fd5b620004ea88828901620003e8565b9250506080620004fd888289016200043f565b9150509295509295909350565b6000604051905081810181811067ffffffffffffffff82111715620005345762000533620007c7565b5b8060405250919050565b600067ffffffffffffffff8211156200055c576200055b620007c7565b5b602082029050919050565b600067ffffffffffffffff821115620005855762000584620007c7565b5b601f19601f8301169050602081019050919050565b6000620005a782620006c4565b9150620005b483620006c4565b9250827fffffffffffffffffffffffffffffffffffffffffffffffffffffffffffffffff03821115620005ec57620005eb6200073a565b5b828201905092915050565b60006200060482620006c4565b91506200061183620006c4565b92508262000624576200062362000769565b5b828204905092915050565b60006200063c82620006c4565b91506200064983620006c4565b9250817fffffffffffffffffffffffffffffffffffffffffffffffffffffffffffffffff04831182151516156200068557620006846200073a565b5b828202905092915050565b60006200069d82620006a4565b9050919050565b600073ffffffffffffffffffffffffffffffffffffffff82169050919050565b6000819050919050565b60005b83811015620006ee578082015181840152602081019050620006d1565b83811115620006fe576000848401525b50505050565b600060028204905060018216806200071d57607f821691505b6020821081141562000734576200073362000798565b5b50919050565b7f4e487b7100000000000000000000000000000000000000000000000000000000600052601160045260246000fd5b7f4e487b7100000000000000000000000000000000000000000000000000000000600052601260045260246000fd5b7f4e487b7100000000000000000000000000000000000000000000000000000000600052602260045260246000fd5b7f4e487b7100000000000000000000000000000000000000000000000000000000600052604160045260246000fd5b620008018162000690565b81146200080d57600080fd5b50565b6200081b81620006c4565b81146200082757600080fd5b50565b61292a806200083a6000396000f3fe608060405260043610620001c45760003560e01c806397545f291162000103578063c831c1db1162000097578063dde892ba116200006d578063dde892ba14620005ff578063e38d6b5c146200062f578063e6bfd26a146200065f578063ead5a40d146200068f57620001c4565b8063c831c1db1462000571578063dbd1a50e14620005a1578063dca1662514620005d157620001c4565b8063b9426a4311620000d9578063b9426a4314620004c1578063bbafcff014620004e1578063bd0198f01462000511578063c291c58d146200054157620001c4565b806397545f291462000441578063a6e9e71e1462000471578063a9c2e36c146200049157620001c4565b80633aca0407116200017b5780637e1bced811620001515780637e1bced814620003915780638da5cb5b14620003b15780639040a94914620003e1578063966dae0e146200041157620001c4565b80633aca040714620002fd57806350d51ebd146200031d578063603d55d7146200036157620001c4565b80630c4f65bd14620001c95780630d75f3b714620001f95780631f67c80b14620002295780632002dff9146200026d57806323459dba146200029d5780632a33030f14620002cd575b600080fd5b348015620001d657600080fd5b50620001e1620006bf565b604051620001f0919062001b8c565b60405180910390f35b3480156200020657600080fd5b5062000211620006e9565b60405162000220919062001d7d565b60405180910390f35b3480156200023657600080fd5b506200025560048036038101906200024f9190620018ca565b620006f3565b60405162000264919062001c27565b60405180910390f35b3480156200027a57600080fd5b50620002856200079f565b60405162000294919062001d7d565b60405180910390f35b348015620002aa57600080fd5b50620002b5620007a9565b604051620002c4919062001d7d565b60405180910390f35b348015620002da57600080fd5b50620002e5620007af565b604051620002f4919062001d7d565b60405180910390f35b6200031b6004803603810190620003159190620018ca565b62000808565b005b3480156200032a57600080fd5b5062000349600480360381019062000343919062001844565b62000adb565b60405162000358919062001d7d565b60405180910390f35b3480156200036e57600080fd5b506200037962000b00565b60405162000388919062001d7d565b60405180910390f35b620003af6004803603810190620003a99190620018ca565b62000b0a565b005b348015620003be57600080fd5b50620003c962000d8d565b604051620003d8919062001b8c565b60405180910390f35b348015620003ee57600080fd5b50620003f962000db3565b60405162000408919062001d7d565b60405180910390f35b3480156200041e57600080fd5b506200042962000dbd565b60405162000438919062001b8c565b60405180910390f35b3480156200044e57600080fd5b506200045962000de3565b60405162000468919062001d7d565b60405180910390f35b6200048f6004803603810190620004899190620018ca565b62000de9565b005b3480156200049e57600080fd5b50620004a962001026565b604051620004b8919062001b8c565b60405180910390f35b620004df6004803603810190620004d99190620018ca565b62001050565b005b348015620004ee57600080fd5b50620004f962001325565b60405162000508919062001d7d565b60405180910390f35b3480156200051e57600080fd5b50620005296200132f565b60405162000538919062001be6565b60405180910390f35b3480156200054e57600080fd5b506200055962001408565b60405162000568919062001c27565b60405180910390f35b3480156200057e57600080fd5b5062000589620014a2565b60405162000598919062001d7d565b60405180910390f35b348015620005ae57600080fd5b50620005b9620014a8565b604051620005c8919062001d7d565b60405180910390f35b348015620005de57600080fd5b50620005fd6004803603810190620005f79190620017d8565b620014ae565b005b3480156200060c57600080fd5b5062000617620015aa565b60405162000626919062001d7d565b60405180910390f35b3480156200063c57600080fd5b506200064762001602565b60405162000656919062001d7d565b60405180910390f35b3480156200066c57600080fd5b506200067762001608565b60405162000686919062001c27565b60405180910390f35b3480156200069c57600080fd5b50620006a76200169e565b604051620006b6919062001d7d565b60405180910390f35b6000600560009054906101000a900473ffffffffffffffffffffffffffffffffffffffff16905090565b6000600a54905090565b600181600281106200070457600080fd5b016000915090508054620007189062002038565b80601f0160208091040260200160405190810160405280929190818152602001828054620007469062002038565b8015620007975780601f106200076b5761010080835404028352916020019162000797565b820191906000526020600020905b8154815290600101906020018083116200077957829003601f168201915b505050505081565b6000600954905090565b60065481565b6000600360003373ffffffffffffffffffffffffffffffffffffffff1673ffffffffffffffffffffffffffffffffffffffff16815260200190815260200160002060006001815260200190815260200160002054905090565b80600360003373ffffffffffffffffffffffffffffffffffffffff1673ffffffffffffffffffffffffffffffffffffffff16815260200190815260200160002060008081526020019081526020016000205410156200089e576040517f08c379a0000000000000000000000000000000000000000000000000000000008152600401620008959062001d5b565b60405180910390fd5b6000600a5482620008b0919062001eec565b9050600081303385604051620008c690620016a4565b620008d5949392919062001c4b565b604051809103906000f080158015620008f2573d6000803e3d6000fd5b509050826007600082825462000909919062001f4d565b9250508190555082600360003373ffffffffffffffffffffffffffffffffffffffff1673ffffffffffffffffffffffffffffffffffffffff1681526020019081526020016000206000808152602001908152602001600020600082825462000972919062001f4d565b92505081905550600460009054906101000a900473ffffffffffffffffffffffffffffffffffffffff1673ffffffffffffffffffffffffffffffffffffffff1663c155e4ed826040518263ffffffff1660e01b8152600401620009d6919062001c0a565b600060405180830381600087803b158015620009f157600080fd5b505af115801562000a06573d6000803e3d6000fd5b505050506040513d6000823e3d601f19601f8201168201806040525081019062000a31919062001885565b50600160065462000a43919062001e57565b600260075460065462000a57919062001e57565b62000a63919062001e57565b600b5462000a72919062001eb4565b62000a7e919062001eec565b600981905550600160075462000a95919062001e57565b600260075460065462000aa9919062001e57565b62000ab5919062001e57565b600b5462000ac4919062001eb4565b62000ad0919062001eec565b600a81905550505050565b6003602052816000526040600020602052806000526040600020600091509150505481565b6000600854905090565b60006009548262000b1c919062001eec565b905080341462000b63576040517f08c379a000000000000000000000000000000000000000000000000000000000815260040162000b5a9062001cc2565b60405180910390fd5b60008133308560405162000b7790620016a4565b62000b86949392919062001ce4565b604051809103906000f08015801562000ba3573d6000803e3d6000fd5b509050826006600082825462000bba919062001e57565b9250508190555082600360003373ffffffffffffffffffffffffffffffffffffffff1673ffffffffffffffffffffffffffffffffffffffff168152602001908152602001600020600060018152602001908152602001600020600082825462000c24919062001e57565b92505081905550600460009054906101000a900473ffffffffffffffffffffffffffffffffffffffff1673ffffffffffffffffffffffffffffffffffffffff1663c155e4ed826040518263ffffffff1660e01b815260040162000c88919062001c0a565b600060405180830381600087803b15801562000ca357600080fd5b505af115801562000cb8573d6000803e3d6000fd5b505050506040513d6000823e3d601f19601f8201168201806040525081019062000ce3919062001885565b50600160065462000cf5919062001e57565b600260075460065462000d09919062001e57565b62000d15919062001e57565b600b5462000d24919062001eb4565b62000d30919062001eec565b600981905550600160075462000d47919062001e57565b600260075460065462000d5b919062001e57565b62000d67919062001e57565b600b5462000d76919062001eb4565b62000d82919062001eec565b600a81905550505050565b600560009054906101000a900473ffffffffffffffffffffffffffffffffffffffff1681565b6000600754905090565b600460009054906101000a900473ffffffffffffffffffffffffffffffffffffffff1681565b60085481565b6000600a548262000dfb919062001eec565b905060008133308560405162000e1190620016a4565b62000e20949392919062001ce4565b604051809103906000f08015801562000e3d573d6000803e3d6000fd5b509050826007600082825462000e54919062001e57565b9250508190555082600360003373ffffffffffffffffffffffffffffffffffffffff1673ffffffffffffffffffffffffffffffffffffffff1681526020019081526020016000206000808152602001908152602001600020600082825462000ebd919062001e57565b92505081905550600460009054906101000a900473ffffffffffffffffffffffffffffffffffffffff1673ffffffffffffffffffffffffffffffffffffffff1663c155e4ed826040518263ffffffff1660e01b815260040162000f21919062001c0a565b600060405180830381600087803b15801562000f3c57600080fd5b505af115801562000f51573d6000803e3d6000fd5b505050506040513d6000823e3d601f19601f8201168201806040525081019062000f7c919062001885565b50600160065462000f8e919062001e57565b600260075460065462000fa2919062001e57565b62000fae919062001e57565b600b5462000fbd919062001eb4565b62000fc9919062001eec565b600981905550600160075462000fe0919062001e57565b600260075460065462000ff4919062001e57565b62001000919062001e57565b600b546200100f919062001eb4565b6200101b919062001eec565b600a81905550505050565b6000600460009054906101000a900473ffffffffffffffffffffffffffffffffffffffff16905090565b80600360003373ffffffffffffffffffffffffffffffffffffffff1673ffffffffffffffffffffffffffffffffffffffff168152602001908152602001600020600060018152602001908152602001600020541015620010e7576040517f08c379a0000000000000000000000000000000000000000000000000000000008152600401620010de9062001d5b565b60405180910390fd5b600060095482620010f9919062001eec565b90506000813033856040516200110f90620016a4565b6200111e949392919062001c4b565b604051809103906000f0801580156200113b573d6000803e3d6000fd5b509050826006600082825462001152919062001f4d565b9250508190555082600360003373ffffffffffffffffffffffffffffffffffffffff1673ffffffffffffffffffffffffffffffffffffffff1681526020019081526020016000206000600181526020019081526020016000206000828254620011bc919062001f4d565b92505081905550600460009054906101000a900473ffffffffffffffffffffffffffffffffffffffff1673ffffffffffffffffffffffffffffffffffffffff1663c155e4ed826040518263ffffffff1660e01b815260040162001220919062001c0a565b600060405180830381600087803b1580156200123b57600080fd5b505af115801562001250573d6000803e3d6000fd5b505050506040513d6000823e3d601f19601f820116820180604052508101906200127b919062001885565b5060016006546200128d919062001e57565b6002600754600654620012a1919062001e57565b620012ad919062001e57565b600b54620012bc919062001eb4565b620012c8919062001eec565b6009819055506001600754620012df919062001e57565b6002600754600654620012f3919062001e57565b620012ff919062001e57565b600b546200130e919062001eb4565b6200131a919062001eec565b600a81905550505050565b6000600654905090565b62001339620016b2565b6001600280602002604051908101604052809291906000905b82821015620013ff5783820180546200136b9062002038565b80601f0160208091040260200160405190810160405280929190818152602001828054620013999062002038565b8015620013ea5780601f10620013be57610100808354040283529160200191620013ea565b820191906000526020600020905b815481529060010190602001808311620013cc57829003601f168201915b50505050508152602001906001019062001352565b50505050905090565b606060008054620014199062002038565b80601f0160208091040260200160405190810160405280929190818152602001828054620014479062002038565b8015620014985780601f106200146c5761010080835404028352916020019162001498565b820191906000526020600020905b8154815290600101906020018083116200147a57829003601f168201915b5050505050905090565b600a5481565b60095481565b600c60009054906101000a900473ffffffffffffffffffffffffffffffffffffffff1673ffffffffffffffffffffffffffffffffffffffff1663c155e4ed826040518263ffffffff1660e01b81526004016200150b919062001c0a565b600060405180830381600087803b1580156200152657600080fd5b505af11580156200153b573d6000803e3d6000fd5b505050506040513d6000823e3d601f19601f8201168201806040525081019062001566919062001885565b507f7db7852b30fc413c4a90995f03d9f21e64c45d0ddc8324a8ce4c730a051cbf828484846040516200159c9392919062001ba9565b60405180910390a150505050565b6000600360003373ffffffffffffffffffffffffffffffffffffffff1673ffffffffffffffffffffffffffffffffffffffff168152602001908152602001600020600080815260200190815260200160002054905090565b600b5481565b60008054620016179062002038565b80601f0160208091040260200160405190810160405280929190818152602001828054620016459062002038565b8015620016965780601f106200166a5761010080835404028352916020019162001696565b820191906000526020600020905b8154815290600101906020018083116200167857829003601f168201915b505050505081565b60075481565b61076b806200218a83390190565b60405180604001604052806002905b6060815260200190600190039081620016c15790505090565b6000620016f1620016eb8462001dce565b62001d9a565b905080838252602082019050828560208602820111156200171157600080fd5b60005b858110156200174557816200172a8882620017aa565b84526020840193506020830192505060018101905062001714565b5050509392505050565b60008135905062001760816200213b565b92915050565b600082601f8301126200177857600080fd5b81516200178a848260208601620016da565b91505092915050565b600081359050620017a48162002155565b92915050565b600081519050620017bb8162002155565b92915050565b600081359050620017d2816200216f565b92915050565b60008060008060808587031215620017ef57600080fd5b6000620017ff878288016200174f565b945050602062001812878288016200174f565b93505060406200182587828801620017c1565b9250506060620018388782880162001793565b91505092959194509250565b600080604083850312156200185857600080fd5b600062001868858286016200174f565b92505060206200187b85828601620017c1565b9150509250929050565b6000602082840312156200189857600080fd5b600082015167ffffffffffffffff811115620018b357600080fd5b620018c18482850162001766565b91505092915050565b600060208284031215620018dd57600080fd5b6000620018ed84828501620017c1565b91505092915050565b6000620019048383620019af565b905092915050565b620019178162001f88565b82525050565b60006200192a8262001e07565b62001936818562001e2a565b9350836020820285016200194a8562001dfd565b8060005b858110156200198c57848403895281516200196a8582620018f6565b9450620019778362001e1d565b925060208a019950506001810190506200194e565b50829750879550505050505092915050565b620019a98162001fda565b82525050565b6000620019bc8262001e12565b620019c8818562001e35565b9350620019da81856020860162002002565b620019e5816200212a565b840191505092915050565b6000620019fd8262001e12565b62001a09818562001e46565b935062001a1b81856020860162002002565b62001a26816200212a565b840191505092915050565b600062001a4060048362001e46565b91507f53656c6c000000000000000000000000000000000000000000000000000000006000830152602082019050919050565b600062001a82602f8362001e46565b91507f596f75206e65656420746f207061737320696e2074686520636f72726563742060008301527f616d6f756e74206f6620657468657200000000000000000000000000000000006020830152604082019050919050565b600062001aea60038362001e46565b91507f42757900000000000000000000000000000000000000000000000000000000006000830152602082019050919050565b600062001b2c60008362001e46565b9150600082019050919050565b600062001b4860128362001e46565b91507f4e6f7420456e6f75676820546f6b656e732100000000000000000000000000006000830152602082019050919050565b62001b868162001fd0565b82525050565b600060208201905062001ba360008301846200190c565b92915050565b600060608201905062001bc060008301866200190c565b62001bcf60208301856200190c565b62001bde604083018462001b7b565b949350505050565b6000602082019050818103600083015262001c0281846200191d565b905092915050565b600060208201905062001c2160008301846200199e565b92915050565b6000602082019050818103600083015262001c438184620019f0565b905092915050565b600060c082019050818103600083015262001c668162001a31565b905062001c77602083018762001b7b565b62001c8660408301866200190c565b62001c9560608301856200190c565b818103608083015262001ca88162001b1d565b905062001cb960a083018462001b7b565b95945050505050565b6000602082019050818103600083015262001cdd8162001a73565b9050919050565b600060c082019050818103600083015262001cff8162001adb565b905062001d10602083018762001b7b565b62001d1f60408301866200190c565b62001d2e60608301856200190c565b818103608083015262001d418162001b1d565b905062001d5260a083018462001b7b565b95945050505050565b6000602082019050818103600083015262001d768162001b39565b9050919050565b600060208201905062001d94600083018462001b7b565b92915050565b6000604051905081810181811067ffffffffffffffff8211171562001dc45762001dc3620020fb565b5b8060405250919050565b600067ffffffffffffffff82111562001dec5762001deb620020fb565b5b602082029050602081019050919050565b6000819050919050565b600060029050919050565b600081519050919050565b6000602082019050919050565b600081905092915050565b600082825260208201905092915050565b600082825260208201905092915050565b600062001e648262001fd0565b915062001e718362001fd0565b9250827fffffffffffffffffffffffffffffffffffffffffffffffffffffffffffffffff0382111562001ea95762001ea86200206e565b5b828201905092915050565b600062001ec18262001fd0565b915062001ece8362001fd0565b92508262001ee15762001ee06200209d565b5b828204905092915050565b600062001ef98262001fd0565b915062001f068362001fd0565b9250817fffffffffffffffffffffffffffffffffffffffffffffffffffffffffffffffff048311821515161562001f425762001f416200206e565b5b828202905092915050565b600062001f5a8262001fd0565b915062001f678362001fd0565b92508282101562001f7d5762001f7c6200206e565b5b828203905092915050565b600062001f958262001fb0565b9050919050565b600062001fa98262001f88565b9050919050565b600073ffffffffffffffffffffffffffffffffffffffff82169050919050565b6000819050919050565b600062001fe78262001fee565b9050919050565b600062001ffb8262001fb0565b9050919050565b60005b838110156200202257808201518184015260208101905062002005565b8381111562002032576000848401525b50505050565b600060028204905060018216806200205157607f821691505b60208210811415620020685762002067620020cc565b5b50919050565b7f4e487b7100000000000000000000000000000000000000000000000000000000600052601160045260246000fd5b7f4e487b7100000000000000000000000000000000000000000000000000000000600052601260045260246000fd5b7f4e487b7100000000000000000000000000000000000000000000000000000000600052602260045260246000fd5b7f4e487b7100000000000000000000000000000000000000000000000000000000600052604160045260246000fd5b6000601f19601f8301169050919050565b620021468162001f88565b81146200215257600080fd5b50565b620021608162001f9c565b81146200216c57600080fd5b50565b6200217a8162001fd0565b81146200218657600080fd5b5056fe608060405234801561001057600080fd5b5060405161076b38038061076b83398181016040528101906100329190610230565b85600090805190602001906100489291906100fb565b508460018190555083600260006101000a81548173ffffffffffffffffffffffffffffffffffffffff021916908373ffffffffffffffffffffffffffffffffffffffff16021790555082600360006101000a81548173ffffffffffffffffffffffffffffffffffffffff021916908373ffffffffffffffffffffffffffffffffffffffff16021790555081600490805190602001906100e89291906100fb565b5080600581905550505050505050610477565b828054610107906103b9565b90600052602060002090601f0160209004810192826101295760008555610170565b82601f1061014257805160ff1916838001178555610170565b82800160010185558215610170579182015b8281111561016f578251825591602001919060010190610154565b5b50905061017d9190610181565b5090565b5b8082111561019a576000816000905550600101610182565b5090565b60006101b16101ac8461031a565b6102e9565b9050828152602081018484840111156101c957600080fd5b6101d4848285610386565b509392505050565b6000815190506101eb81610449565b92915050565b600082601f83011261020257600080fd5b815161021284826020860161019e565b91505092915050565b60008151905061022a81610460565b92915050565b60008060008060008060c0878903121561024957600080fd5b600087015167ffffffffffffffff81111561026357600080fd5b61026f89828a016101f1565b965050602061028089828a0161021b565b955050604061029189828a016101dc565b94505060606102a289828a016101dc565b935050608087015167ffffffffffffffff8111156102bf57600080fd5b6102cb89828a016101f1565b92505060a06102dc89828a0161021b565b9150509295509295509295565b6000604051905081810181811067ffffffffffffffff821117156103105761030f61041a565b5b8060405250919050565b600067ffffffffffffffff8211156103355761033461041a565b5b601f19601f8301169050602081019050919050565b60006103558261035c565b9050919050565b600073ffffffffffffffffffffffffffffffffffffffff82169050919050565b6000819050919050565b60005b838110156103a4578082015181840152602081019050610389565b838111156103b3576000848401525b50505050565b600060028204905060018216806103d157607f821691505b602082108114156103e5576103e46103eb565b5b50919050565b7f4e487b7100000000000000000000000000000000000000000000000000000000600052602260045260246000fd5b7f4e487b7100000000000000000000000000000000000000000000000000000000600052604160045260246000fd5b6104528161034a565b811461045d57600080fd5b50565b6104698161037c565b811461047457600080fd5b50565b6102e5806104866000396000f3fe608060405234801561001057600080fd5b50600436106100365760003560e01c8063524ecd141461003b578063861a844d14610059575b600080fd5b610043610077565b60405161005091906101cc565b60405180910390f35b610061610105565b60405161006e91906101cc565b60405180910390f35b600480546100849061023d565b80601f01602080910402602001604051908101604052809291908181526020018280546100b09061023d565b80156100fd5780601f106100d2576101008083540402835291602001916100fd565b820191906000526020600020905b8154815290600101906020018083116100e057829003601f168201915b505050505081565b600080546101129061023d565b80601f016020809104026020016040519081016040528092919081815260200182805461013e9061023d565b801561018b5780601f106101605761010080835404028352916020019161018b565b820191906000526020600020905b81548152906001019060200180831161016e57829003601f168201915b505050505081565b600061019e826101ee565b6101a881856101f9565b93506101b881856020860161020a565b6101c18161029e565b840191505092915050565b600060208201905081810360008301526101e68184610193565b905092915050565b600081519050919050565b600082825260208201905092915050565b60005b8381101561022857808201518184015260208101905061020d565b83811115610237576000848401525b50505050565b6000600282049050600182168061025557607f821691505b602082108114156102695761026861026f565b5b50919050565b7f4e487b7100000000000000000000000000000000000000000000000000000000600052602260045260246000fd5b6000601f19601f830116905091905056fea264697066735822122079aab2262207a88b55e9a41a96c8ac106a039544ae59cfc9bb5d5de532e3a74964736f6c63430008000033a26469706673582212209949c94145ad2cb2c908595d2c790d9263964627df39be0669bd183f8db2009364736f6c63430008000033",
  "linkReferences": {},
  "deployedLinkReferences": {}
}