{
  "_format": "hh-sol-artifact-1",
  "contractName": "Market",
  "sourceName": "contracts/MarketTracker.sol",
  "abi": [
    {
      "inputs": [
        {
          "internalType": "string",
          "name": "_marketName",
          "type": "string"
        },
        {
          "internalType": "address",
          "name": "_factoryAddress",
          "type": "address"
        },
        {
          "internalType": "address",
          "name": "_owner",
          "type": "address"
        },
        {
          "internalType": "string[2]",
          "name": "_side",
          "type": "string[2]"
        },
        {
          "internalType": "uint256",
          "name": "_resultDate",
          "type": "uint256"
        }
      ],
      "stateMutability": "nonpayable",
      "type": "constructor"
    },
    {
      "anonymous": false,
      "inputs": [
        {
          "indexed": false,
          "internalType": "address",
          "name": "buyer",
          "type": "address"
        },
        {
          "indexed": false,
          "internalType": "address",
          "name": "seller",
          "type": "address"
        },
        {
          "indexed": false,
          "internalType": "uint256",
          "name": "amount",
          "type": "uint256"
        }
      ],
      "name": "Transaction",
      "type": "event"
    },
    {
      "inputs": [],
      "name": "N_Tokens",
      "outputs": [
        {
          "internalType": "uint256",
          "name": "",
          "type": "uint256"
        }
      ],
      "stateMutability": "view",
      "type": "function"
    },
    {
      "inputs": [
        {
          "internalType": "uint256",
          "name": "",
          "type": "uint256"
        }
      ],
      "name": "Side",
      "outputs": [
        {
          "internalType": "string",
          "name": "",
          "type": "string"
        }
      ],
      "stateMutability": "view",
      "type": "function"
    },
    {
      "inputs": [],
      "name": "Y_Tokens",
      "outputs": [
        {
          "internalType": "uint256",
          "name": "",
          "type": "uint256"
        }
      ],
      "stateMutability": "view",
      "type": "function"
    },
    {
      "inputs": [
        {
          "internalType": "address",
          "name": "buyer",
          "type": "address"
        },
        {
          "internalType": "address",
          "name": "seller",
          "type": "address"
        },
        {
          "internalType": "uint256",
          "name": "amount",
          "type": "uint256"
        },
        {
          "internalType": "contract Transactions",
          "name": "transaction",
          "type": "address"
        }
      ],
      "name": "addTransactions",
      "outputs": [],
      "stateMutability": "payable",
      "type": "function"
    },
    {
      "inputs": [
        {
          "internalType": "uint256",
          "name": "amountOfCoin",
          "type": "uint256"
        }
      ],
      "name": "buyNToken",
      "outputs": [],
      "stateMutability": "payable",
      "type": "function"
    },
    {
      "inputs": [
        {
          "internalType": "uint256",
          "name": "amountOfCoin",
          "type": "uint256"
        }
      ],
      "name": "buyYToken",
      "outputs": [],
      "stateMutability": "payable",
      "type": "function"
    },
    {
      "inputs": [],
      "name": "currentNPrice",
      "outputs": [
        {
          "internalType": "uint256",
          "name": "",
          "type": "uint256"
        }
      ],
      "stateMutability": "view",
      "type": "function"
    },
    {
      "inputs": [],
      "name": "currentYPrice",
      "outputs": [
        {
          "internalType": "uint256",
          "name": "",
          "type": "uint256"
        }
      ],
      "stateMutability": "view",
      "type": "function"
    },
    {
      "inputs": [],
      "name": "factoryAddress",
      "outputs": [
        {
          "internalType": "address",
          "name": "",
          "type": "address"
        }
      ],
      "stateMutability": "view",
      "type": "function"
    },
    {
      "inputs": [],
      "name": "getFactoryAddress",
      "outputs": [
        {
          "internalType": "address",
          "name": "",
          "type": "address"
        }
      ],
      "stateMutability": "view",
      "type": "function"
    },
    {
      "inputs": [],
      "name": "getMarketName",
      "outputs": [
        {
          "internalType": "string",
          "name": "",
          "type": "string"
        }
      ],
      "stateMutability": "view",
      "type": "function"
    },
    {
      "inputs": [],
      "name": "getNPrice",
      "outputs": [
        {
          "internalType": "uint256",
          "name": "",
          "type": "uint256"
        }
      ],
      "stateMutability": "view",
      "type": "function"
    },
    {
      "inputs": [],
      "name": "getNTokens",
      "outputs": [
        {
          "internalType": "uint256",
          "name": "",
          "type": "uint256"
        }
      ],
      "stateMutability": "view",
      "type": "function"
    },
    {
      "inputs": [],
      "name": "getOwnerAddress",
      "outputs": [
        {
          "internalType": "address",
          "name": "",
          "type": "address"
        }
      ],
      "stateMutability": "view",
      "type": "function"
    },
    {
      "inputs": [],
      "name": "getResultDate",
      "outputs": [
        {
          "internalType": "uint256",
          "name": "",
          "type": "uint256"
        }
      ],
      "stateMutability": "view",
      "type": "function"
    },
    {
      "inputs": [],
      "name": "getSide",
      "outputs": [
        {
          "internalType": "string[2]",
          "name": "",
          "type": "string[2]"
        }
      ],
      "stateMutability": "view",
      "type": "function"
    },
    {
      "inputs": [],
      "name": "getUserNTokens",
      "outputs": [
        {
          "internalType": "uint256",
          "name": "",
          "type": "uint256"
        }
      ],
      "stateMutability": "view",
      "type": "function"
    },
    {
      "inputs": [],
      "name": "getUserYTokens",
      "outputs": [
        {
          "internalType": "uint256",
          "name": "",
          "type": "uint256"
        }
      ],
      "stateMutability": "view",
      "type": "function"
    },
    {
      "inputs": [],
      "name": "getYPrice",
      "outputs": [
        {
          "internalType": "uint256",
          "name": "",
          "type": "uint256"
        }
      ],
      "stateMutability": "view",
      "type": "function"
    },
    {
      "inputs": [],
      "name": "getYTokens",
      "outputs": [
        {
          "internalType": "uint256",
          "name": "",
          "type": "uint256"
        }
      ],
      "stateMutability": "view",
      "type": "function"
    },
    {
      "inputs": [],
      "name": "marketName",
      "outputs": [
        {
          "internalType": "string",
          "name": "",
          "type": "string"
        }
      ],
      "stateMutability": "view",
      "type": "function"
    },
    {
      "inputs": [],
      "name": "maxPrice",
      "outputs": [
        {
          "internalType": "uint256",
          "name": "",
          "type": "uint256"
        }
      ],
      "stateMutability": "view",
      "type": "function"
    },
    {
      "inputs": [],
      "name": "owner",
      "outputs": [
        {
          "internalType": "address",
          "name": "",
          "type": "address"
        }
      ],
      "stateMutability": "view",
      "type": "function"
    },
    {
      "inputs": [],
      "name": "resultDate",
      "outputs": [
        {
          "internalType": "uint256",
          "name": "",
          "type": "uint256"
        }
      ],
      "stateMutability": "view",
      "type": "function"
    },
    {
      "inputs": [
        {
          "internalType": "uint256",
          "name": "amountOfCoin",
          "type": "uint256"
        }
      ],
      "name": "sellNToken",
      "outputs": [],
      "stateMutability": "payable",
      "type": "function"
    },
    {
      "inputs": [
        {
          "internalType": "uint256",
          "name": "amountOfCoin",
          "type": "uint256"
        }
      ],
      "name": "sellYToken",
      "outputs": [],
      "stateMutability": "payable",
      "type": "function"
    },
    {
      "inputs": [
        {
          "internalType": "address",
          "name": "",
          "type": "address"
        },
        {
          "internalType": "uint256",
          "name": "",
          "type": "uint256"
        }
      ],
      "name": "tokensPerGambler",
      "outputs": [
        {
          "internalType": "uint256",
          "name": "",
          "type": "uint256"
        }
      ],
      "stateMutability": "view",
      "type": "function"
    }
  ],
  "bytecode": "0x6080604052670de0b6b3a7640000600b553480156200001d57600080fd5b5060405162002ae438038062002ae4833981810160405281019062000043919062000456565b84600090805190602001906200005b929190620001b8565b508160019060026200006f92919062000249565b5083600460006101000a81548173ffffffffffffffffffffffffffffffffffffffff021916908373ffffffffffffffffffffffffffffffffffffffff16021790555082600560006101000a81548173ffffffffffffffffffffffffffffffffffffffff021916908373ffffffffffffffffffffffffffffffffffffffff160217905550600060068190555060006007819055508060088190555060016006546200011a91906200059a565b60026007546006546200012e91906200059a565b6200013a91906200059a565b600b54620001499190620005f7565b6200015591906200062f565b60098190555060016007546200016c91906200059a565b60026007546006546200018091906200059a565b6200018c91906200059a565b600b546200019b9190620005f7565b620001a791906200062f565b600a8190555050505050506200082a565b828054620001c69062000704565b90600052602060002090601f016020900481019282620001ea576000855562000236565b82601f106200020557805160ff191683800117855562000236565b8280016001018555821562000236579182015b828111156200023557825182559160200191906001019062000218565b5b509050620002459190620002a3565b5090565b826002810192821562000290579160200282015b828111156200028f5782518290805190602001906200027e929190620001b8565b50916020019190600101906200025d565b5b5090506200029f9190620002c2565b5090565b5b80821115620002be576000816000905550600101620002a4565b5090565b5b80821115620002e65760008181620002dc9190620002ea565b50600101620002c3565b5090565b508054620002f89062000704565b6000825580601f106200030c57506200032d565b601f0160209004906000526020600020908101906200032c9190620002a3565b5b50565b60006200034762000341846200053e565b6200050a565b9050808260005b8581101562000382578151850162000367888262000412565b8452602084019350602083019250506001810190506200034e565b5050509392505050565b6000620003a36200039d8462000567565b6200050a565b905082815260208101848484011115620003bc57600080fd5b620003c9848285620006ce565b509392505050565b600081519050620003e281620007f6565b92915050565b600082601f830112620003fa57600080fd5b60026200040984828562000330565b91505092915050565b600082601f8301126200042457600080fd5b8151620004368482602086016200038c565b91505092915050565b600081519050620004508162000810565b92915050565b600080600080600060a086880312156200046f57600080fd5b600086015167ffffffffffffffff8111156200048a57600080fd5b620004988882890162000412565b9550506020620004ab88828901620003d1565b9450506040620004be88828901620003d1565b935050606086015167ffffffffffffffff811115620004dc57600080fd5b620004ea88828901620003e8565b9250506080620004fd888289016200043f565b9150509295509295909350565b6000604051905081810181811067ffffffffffffffff82111715620005345762000533620007c7565b5b8060405250919050565b600067ffffffffffffffff8211156200055c576200055b620007c7565b5b602082029050919050565b600067ffffffffffffffff821115620005855762000584620007c7565b5b601f19601f8301169050602081019050919050565b6000620005a782620006c4565b9150620005b483620006c4565b9250827fffffffffffffffffffffffffffffffffffffffffffffffffffffffffffffffff03821115620005ec57620005eb6200073a565b5b828201905092915050565b60006200060482620006c4565b91506200061183620006c4565b92508262000624576200062362000769565b5b828204905092915050565b60006200063c82620006c4565b91506200064983620006c4565b9250817fffffffffffffffffffffffffffffffffffffffffffffffffffffffffffffffff04831182151516156200068557620006846200073a565b5b828202905092915050565b60006200069d82620006a4565b9050919050565b600073ffffffffffffffffffffffffffffffffffffffff82169050919050565b6000819050919050565b60005b83811015620006ee578082015181840152602081019050620006d1565b83811115620006fe576000848401525b50505050565b600060028204905060018216806200071d57607f821691505b6020821081141562000734576200073362000798565b5b50919050565b7f4e487b7100000000000000000000000000000000000000000000000000000000600052601160045260246000fd5b7f4e487b7100000000000000000000000000000000000000000000000000000000600052601260045260246000fd5b7f4e487b7100000000000000000000000000000000000000000000000000000000600052602260045260246000fd5b7f4e487b7100000000000000000000000000000000000000000000000000000000600052604160045260246000fd5b620008018162000690565b81146200080d57600080fd5b50565b6200081b81620006c4565b81146200082757600080fd5b50565b6122aa806200083a6000396000f3fe608060405260043610620001c45760003560e01c806397545f291162000103578063c831c1db1162000097578063dde892ba116200006d578063dde892ba14620005f1578063e38d6b5c1462000621578063e6bfd26a1462000651578063ead5a40d146200068157620001c4565b8063c831c1db1462000571578063dbd1a50e14620005a1578063dca1662514620005d157620001c4565b8063b9426a4311620000d9578063b9426a4314620004c1578063bbafcff014620004e1578063bd0198f01462000511578063c291c58d146200054157620001c4565b806397545f291462000441578063a6e9e71e1462000471578063a9c2e36c146200049157620001c4565b80633aca0407116200017b5780637e1bced811620001515780637e1bced814620003915780638da5cb5b14620003b15780639040a94914620003e1578063966dae0e146200041157620001c4565b80633aca040714620002fd57806350d51ebd146200031d578063603d55d7146200036157620001c4565b80630c4f65bd14620001c95780630d75f3b714620001f95780631f67c80b14620002295780632002dff9146200026d57806323459dba146200029d5780632a33030f14620002cd575b600080fd5b348015620001d657600080fd5b50620001e1620006b1565b604051620001f0919062001595565b60405180910390f35b3480156200020657600080fd5b5062000211620006db565b60405162000220919062001764565b60405180910390f35b3480156200023657600080fd5b506200025560048036038101906200024f91906200133b565b620006e5565b60405162000264919062001630565b60405180910390f35b3480156200027a57600080fd5b506200028562000791565b60405162000294919062001764565b60405180910390f35b348015620002aa57600080fd5b50620002b56200079b565b604051620002c4919062001764565b60405180910390f35b348015620002da57600080fd5b50620002e5620007a1565b604051620002f4919062001764565b60405180910390f35b6200031b60048036038101906200031591906200133b565b620007fa565b005b3480156200032a57600080fd5b50620003496004803603810190620003439190620012b5565b6200097e565b60405162000358919062001764565b60405180910390f35b3480156200036e57600080fd5b5062000379620009a3565b60405162000388919062001764565b60405180910390f35b620003af6004803603810190620003a991906200133b565b620009ad565b005b348015620003be57600080fd5b50620003c962000a9c565b604051620003d8919062001595565b60405180910390f35b348015620003ee57600080fd5b50620003f962000ac2565b60405162000408919062001764565b60405180910390f35b3480156200041e57600080fd5b506200042962000acc565b60405162000438919062001595565b60405180910390f35b3480156200044e57600080fd5b506200045962000af2565b60405162000468919062001764565b60405180910390f35b6200048f60048036038101906200048991906200133b565b62000af8565b005b3480156200049e57600080fd5b50620004a962000be6565b604051620004b8919062001595565b60405180910390f35b620004df6004803603810190620004d991906200133b565b62000c10565b005b348015620004ee57600080fd5b50620004f962000d96565b60405162000508919062001764565b60405180910390f35b3480156200051e57600080fd5b506200052962000da0565b604051620005389190620015ef565b60405180910390f35b3480156200054e57600080fd5b506200055962000e79565b60405162000568919062001630565b60405180910390f35b3480156200057e57600080fd5b506200058962000f13565b60405162000598919062001764565b60405180910390f35b348015620005ae57600080fd5b50620005b962000f19565b604051620005c8919062001764565b60405180910390f35b620005ef6004803603810190620005e9919062001249565b62000f1f565b005b348015620005fe57600080fd5b50620006096200101b565b60405162000618919062001764565b60405180910390f35b3480156200062e57600080fd5b506200063962001073565b60405162000648919062001764565b60405180910390f35b3480156200065e57600080fd5b506200066962001079565b60405162000678919062001630565b60405180910390f35b3480156200068e57600080fd5b50620006996200110f565b604051620006a8919062001764565b60405180910390f35b6000600560009054906101000a900473ffffffffffffffffffffffffffffffffffffffff16905090565b6000600954905090565b60018160028110620006f657600080fd5b0160009150905080546200070a90620019e7565b80601f01602080910402602001604051908101604052809291908181526020018280546200073890620019e7565b8015620007895780601f106200075d5761010080835404028352916020019162000789565b820191906000526020600020905b8154815290600101906020018083116200076b57829003601f168201915b505050505081565b6000600954905090565b60065481565b6000600360003373ffffffffffffffffffffffffffffffffffffffff1673ffffffffffffffffffffffffffffffffffffffff16815260200190815260200160002060006001815260200190815260200160002054905090565b80600360003373ffffffffffffffffffffffffffffffffffffffff1673ffffffffffffffffffffffffffffffffffffffff168152602001908152602001600020600080815260200190815260200160002054101562000890576040517f08c379a0000000000000000000000000000000000000000000000000000000008152600401620008879062001742565b60405180910390fd5b6000600a5482620008a291906200189b565b9050600081333085604051620008b89062001115565b620008c7949392919062001654565b604051809103906000f080158015620008e4573d6000803e3d6000fd5b5090508260076000828254620008fb9190620018fc565b9250508190555082600360003373ffffffffffffffffffffffffffffffffffffffff1673ffffffffffffffffffffffffffffffffffffffff16815260200190815260200160002060008081526020019081526020016000206000828254620009649190620018fc565b92505081905550620009793033848462000f1f565b505050565b6003602052816000526040600020602052806000526040600020600091509150505481565b6000600854905090565b600060095482620009bf91906200189b565b9050600081333085604051620009d59062001115565b620009e49493929190620016cb565b604051809103906000f08015801562000a01573d6000803e3d6000fd5b509050826006600082825462000a1891906200183e565b9250508190555082600360003373ffffffffffffffffffffffffffffffffffffffff1673ffffffffffffffffffffffffffffffffffffffff168152602001908152602001600020600060018152602001908152602001600020600082825462000a8291906200183e565b9250508190555062000a973330848462000f1f565b505050565b600560009054906101000a900473ffffffffffffffffffffffffffffffffffffffff1681565b6000600754905090565b600460009054906101000a900473ffffffffffffffffffffffffffffffffffffffff1681565b60085481565b6000600a548262000b0a91906200189b565b905060008133308560405162000b209062001115565b62000b2f9493929190620016cb565b604051809103906000f08015801562000b4c573d6000803e3d6000fd5b509050826007600082825462000b6391906200183e565b9250508190555082600360003373ffffffffffffffffffffffffffffffffffffffff1673ffffffffffffffffffffffffffffffffffffffff1681526020019081526020016000206000808152602001908152602001600020600082825462000bcc91906200183e565b9250508190555062000be13330848462000f1f565b505050565b6000600460009054906101000a900473ffffffffffffffffffffffffffffffffffffffff16905090565b80600360003373ffffffffffffffffffffffffffffffffffffffff1673ffffffffffffffffffffffffffffffffffffffff16815260200190815260200160002060006001815260200190815260200160002054101562000ca7576040517f08c379a000000000000000000000000000000000000000000000000000000000815260040162000c9e9062001742565b60405180910390fd5b60006009548262000cb991906200189b565b905060008133308560405162000ccf9062001115565b62000cde949392919062001654565b604051809103906000f08015801562000cfb573d6000803e3d6000fd5b509050826006600082825462000d129190620018fc565b9250508190555082600360003373ffffffffffffffffffffffffffffffffffffffff1673ffffffffffffffffffffffffffffffffffffffff168152602001908152602001600020600060018152602001908152602001600020600082825462000d7c9190620018fc565b9250508190555062000d913033848462000f1f565b505050565b6000600654905090565b62000daa62001123565b6001600280602002604051908101604052809291906000905b8282101562000e7057838201805462000ddc90620019e7565b80601f016020809104026020016040519081016040528092919081815260200182805462000e0a90620019e7565b801562000e5b5780601f1062000e2f5761010080835404028352916020019162000e5b565b820191906000526020600020905b81548152906001019060200180831162000e3d57829003601f168201915b50505050508152602001906001019062000dc3565b50505050905090565b60606000805462000e8a90620019e7565b80601f016020809104026020016040519081016040528092919081815260200182805462000eb890620019e7565b801562000f095780601f1062000edd5761010080835404028352916020019162000f09565b820191906000526020600020905b81548152906001019060200180831162000eeb57829003601f168201915b5050505050905090565b600a5481565b60095481565b600c60009054906101000a900473ffffffffffffffffffffffffffffffffffffffff1673ffffffffffffffffffffffffffffffffffffffff1663c155e4ed826040518263ffffffff1660e01b815260040162000f7c919062001613565b600060405180830381600087803b15801562000f9757600080fd5b505af115801562000fac573d6000803e3d6000fd5b505050506040513d6000823e3d601f19601f8201168201806040525081019062000fd79190620012f6565b507f7db7852b30fc413c4a90995f03d9f21e64c45d0ddc8324a8ce4c730a051cbf828484846040516200100d93929190620015b2565b60405180910390a150505050565b6000600360003373ffffffffffffffffffffffffffffffffffffffff1673ffffffffffffffffffffffffffffffffffffffff168152602001908152602001600020600080815260200190815260200160002054905090565b600b5481565b600080546200108890620019e7565b80601f0160208091040260200160405190810160405280929190818152602001828054620010b690620019e7565b8015620011075780601f10620010db5761010080835404028352916020019162001107565b820191906000526020600020905b815481529060010190602001808311620010e957829003601f168201915b505050505081565b60075481565b61076b8062001b0a83390190565b60405180604001604052806002905b6060815260200190600190039081620011325790505090565b6000620011626200115c84620017b5565b62001781565b905080838252602082019050828560208602820111156200118257600080fd5b60005b85811015620011b657816200119b88826200121b565b84526020840193506020830192505060018101905062001185565b5050509392505050565b600081359050620011d18162001abb565b92915050565b600082601f830112620011e957600080fd5b8151620011fb8482602086016200114b565b91505092915050565b600081359050620012158162001ad5565b92915050565b6000815190506200122c8162001ad5565b92915050565b600081359050620012438162001aef565b92915050565b600080600080608085870312156200126057600080fd5b60006200127087828801620011c0565b94505060206200128387828801620011c0565b9350506040620012968782880162001232565b9250506060620012a98782880162001204565b91505092959194509250565b60008060408385031215620012c957600080fd5b6000620012d985828601620011c0565b9250506020620012ec8582860162001232565b9150509250929050565b6000602082840312156200130957600080fd5b600082015167ffffffffffffffff8111156200132457600080fd5b6200133284828501620011d7565b91505092915050565b6000602082840312156200134e57600080fd5b60006200135e8482850162001232565b91505092915050565b600062001375838362001420565b905092915050565b620013888162001937565b82525050565b60006200139b82620017ee565b620013a7818562001811565b935083602082028501620013bb85620017e4565b8060005b85811015620013fd5784840389528151620013db858262001367565b9450620013e88362001804565b925060208a01995050600181019050620013bf565b50829750879550505050505092915050565b6200141a8162001989565b82525050565b60006200142d82620017f9565b6200143981856200181c565b93506200144b818560208601620019b1565b620014568162001aaa565b840191505092915050565b60006200146e82620017f9565b6200147a81856200182d565b93506200148c818560208601620019b1565b620014978162001aaa565b840191505092915050565b6000620014b16004836200182d565b91507f53656c6c000000000000000000000000000000000000000000000000000000006000830152602082019050919050565b6000620014f36003836200182d565b91507f42757900000000000000000000000000000000000000000000000000000000006000830152602082019050919050565b6000620015356000836200182d565b9150600082019050919050565b6000620015516012836200182d565b91507f4e6f7420456e6f75676820546f6b656e732100000000000000000000000000006000830152602082019050919050565b6200158f816200197f565b82525050565b6000602082019050620015ac60008301846200137d565b92915050565b6000606082019050620015c960008301866200137d565b620015d860208301856200137d565b620015e7604083018462001584565b949350505050565b600060208201905081810360008301526200160b81846200138e565b905092915050565b60006020820190506200162a60008301846200140f565b92915050565b600060208201905081810360008301526200164c818462001461565b905092915050565b600060c08201905081810360008301526200166f81620014a2565b905062001680602083018762001584565b6200168f60408301866200137d565b6200169e60608301856200137d565b8181036080830152620016b18162001526565b9050620016c260a083018462001584565b95945050505050565b600060c0820190508181036000830152620016e681620014e4565b9050620016f7602083018762001584565b6200170660408301866200137d565b6200171560608301856200137d565b8181036080830152620017288162001526565b90506200173960a083018462001584565b95945050505050565b600060208201905081810360008301526200175d8162001542565b9050919050565b60006020820190506200177b600083018462001584565b92915050565b6000604051905081810181811067ffffffffffffffff82111715620017ab57620017aa62001a7b565b5b8060405250919050565b600067ffffffffffffffff821115620017d357620017d262001a7b565b5b602082029050602081019050919050565b6000819050919050565b600060029050919050565b600081519050919050565b6000602082019050919050565b600081905092915050565b600082825260208201905092915050565b600082825260208201905092915050565b60006200184b826200197f565b915062001858836200197f565b9250827fffffffffffffffffffffffffffffffffffffffffffffffffffffffffffffffff0382111562001890576200188f62001a1d565b5b828201905092915050565b6000620018a8826200197f565b9150620018b5836200197f565b9250817fffffffffffffffffffffffffffffffffffffffffffffffffffffffffffffffff0483118215151615620018f157620018f062001a1d565b5b828202905092915050565b600062001909826200197f565b915062001916836200197f565b9250828210156200192c576200192b62001a1d565b5b828203905092915050565b600062001944826200195f565b9050919050565b6000620019588262001937565b9050919050565b600073ffffffffffffffffffffffffffffffffffffffff82169050919050565b6000819050919050565b600062001996826200199d565b9050919050565b6000620019aa826200195f565b9050919050565b60005b83811015620019d1578082015181840152602081019050620019b4565b83811115620019e1576000848401525b50505050565b6000600282049050600182168062001a0057607f821691505b6020821081141562001a175762001a1662001a4c565b5b50919050565b7f4e487b7100000000000000000000000000000000000000000000000000000000600052601160045260246000fd5b7f4e487b7100000000000000000000000000000000000000000000000000000000600052602260045260246000fd5b7f4e487b7100000000000000000000000000000000000000000000000000000000600052604160045260246000fd5b6000601f19601f8301169050919050565b62001ac68162001937565b811462001ad257600080fd5b50565b62001ae0816200194b565b811462001aec57600080fd5b50565b62001afa816200197f565b811462001b0657600080fd5b5056fe608060405234801561001057600080fd5b5060405161076b38038061076b83398181016040528101906100329190610230565b85600090805190602001906100489291906100fb565b508460018190555083600260006101000a81548173ffffffffffffffffffffffffffffffffffffffff021916908373ffffffffffffffffffffffffffffffffffffffff16021790555082600360006101000a81548173ffffffffffffffffffffffffffffffffffffffff021916908373ffffffffffffffffffffffffffffffffffffffff16021790555081600490805190602001906100e89291906100fb565b5080600581905550505050505050610477565b828054610107906103b9565b90600052602060002090601f0160209004810192826101295760008555610170565b82601f1061014257805160ff1916838001178555610170565b82800160010185558215610170579182015b8281111561016f578251825591602001919060010190610154565b5b50905061017d9190610181565b5090565b5b8082111561019a576000816000905550600101610182565b5090565b60006101b16101ac8461031a565b6102e9565b9050828152602081018484840111156101c957600080fd5b6101d4848285610386565b509392505050565b6000815190506101eb81610449565b92915050565b600082601f83011261020257600080fd5b815161021284826020860161019e565b91505092915050565b60008151905061022a81610460565b92915050565b60008060008060008060c0878903121561024957600080fd5b600087015167ffffffffffffffff81111561026357600080fd5b61026f89828a016101f1565b965050602061028089828a0161021b565b955050604061029189828a016101dc565b94505060606102a289828a016101dc565b935050608087015167ffffffffffffffff8111156102bf57600080fd5b6102cb89828a016101f1565b92505060a06102dc89828a0161021b565b9150509295509295509295565b6000604051905081810181811067ffffffffffffffff821117156103105761030f61041a565b5b8060405250919050565b600067ffffffffffffffff8211156103355761033461041a565b5b601f19601f8301169050602081019050919050565b60006103558261035c565b9050919050565b600073ffffffffffffffffffffffffffffffffffffffff82169050919050565b6000819050919050565b60005b838110156103a4578082015181840152602081019050610389565b838111156103b3576000848401525b50505050565b600060028204905060018216806103d157607f821691505b602082108114156103e5576103e46103eb565b5b50919050565b7f4e487b7100000000000000000000000000000000000000000000000000000000600052602260045260246000fd5b7f4e487b7100000000000000000000000000000000000000000000000000000000600052604160045260246000fd5b6104528161034a565b811461045d57600080fd5b50565b6104698161037c565b811461047457600080fd5b50565b6102e5806104866000396000f3fe608060405234801561001057600080fd5b50600436106100365760003560e01c8063524ecd141461003b578063861a844d14610059575b600080fd5b610043610077565b60405161005091906101cc565b60405180910390f35b610061610105565b60405161006e91906101cc565b60405180910390f35b600480546100849061023d565b80601f01602080910402602001604051908101604052809291908181526020018280546100b09061023d565b80156100fd5780601f106100d2576101008083540402835291602001916100fd565b820191906000526020600020905b8154815290600101906020018083116100e057829003601f168201915b505050505081565b600080546101129061023d565b80601f016020809104026020016040519081016040528092919081815260200182805461013e9061023d565b801561018b5780601f106101605761010080835404028352916020019161018b565b820191906000526020600020905b81548152906001019060200180831161016e57829003601f168201915b505050505081565b600061019e826101ee565b6101a881856101f9565b93506101b881856020860161020a565b6101c18161029e565b840191505092915050565b600060208201905081810360008301526101e68184610193565b905092915050565b600081519050919050565b600082825260208201905092915050565b60005b8381101561022857808201518184015260208101905061020d565b83811115610237576000848401525b50505050565b6000600282049050600182168061025557607f821691505b602082108114156102695761026861026f565b5b50919050565b7f4e487b7100000000000000000000000000000000000000000000000000000000600052602260045260246000fd5b6000601f19601f830116905091905056fea264697066735822122022a0b1b98f2960e392381bae50baa25330940b3c211d12dd3a8af9e43653965564736f6c63430008000033a2646970667358221220b5e1b185f2b7c5f069195b258f361aeacfab7bdadad5410c4ef8a9d3d379c3df64736f6c63430008000033",
  "linkReferences": {},
  "deployedLinkReferences": {}
}