{
  "_format": "hh-sol-artifact-1",
  "contractName": "MarketTracker",
  "sourceName": "contracts/MarketTracker.sol",
  "abi": [
    {
      "inputs": [
        {
          "internalType": "string",
          "name": "_marketName",
          "type": "string"
        },
        {
          "internalType": "string[2]",
          "name": "_side",
          "type": "string[2]"
        }
      ],
      "name": "addNewMarket",
      "outputs": [
        {
          "internalType": "string",
          "name": "",
          "type": "string"
        }
      ],
      "stateMutability": "payable",
      "type": "function"
    },
    {
      "inputs": [],
      "name": "contractsCount",
      "outputs": [
        {
          "internalType": "uint256",
          "name": "",
          "type": "uint256"
        }
      ],
      "stateMutability": "view",
      "type": "function"
    },
    {
      "inputs": [
        {
          "internalType": "uint256",
          "name": "marketIndex",
          "type": "uint256"
        }
      ],
      "name": "getNameBasedOffIndex",
      "outputs": [
        {
          "internalType": "string",
          "name": "",
          "type": "string"
        }
      ],
      "stateMutability": "view",
      "type": "function"
    },
    {
      "inputs": [
        {
          "internalType": "uint256",
          "name": "",
          "type": "uint256"
        }
      ],
      "name": "marketContracts",
      "outputs": [
        {
          "internalType": "contract Market",
          "name": "",
          "type": "address"
        }
      ],
      "stateMutability": "view",
      "type": "function"
    },
    {
      "inputs": [],
      "name": "testContractsCount",
      "outputs": [
        {
          "internalType": "uint256",
          "name": "",
          "type": "uint256"
        }
      ],
      "stateMutability": "view",
      "type": "function"
    },
    {
      "inputs": [],
      "name": "testFunction",
      "outputs": [
        {
          "internalType": "string",
          "name": "",
          "type": "string"
        }
      ],
      "stateMutability": "view",
      "type": "function"
    },
    {
      "inputs": [
        {
          "internalType": "string",
          "name": "_marketName",
          "type": "string"
        },
        {
          "internalType": "string[2]",
          "name": "_side",
          "type": "string[2]"
        }
      ],
      "name": "testFunction_2",
      "outputs": [
        {
          "internalType": "string",
          "name": "",
          "type": "string"
        }
      ],
      "stateMutability": "payable",
      "type": "function"
    },
    {
      "inputs": [
        {
          "internalType": "uint256",
          "name": "",
          "type": "uint256"
        }
      ],
      "name": "testMarketContracts",
      "outputs": [
        {
          "internalType": "contract Market",
          "name": "",
          "type": "address"
        }
      ],
      "stateMutability": "view",
      "type": "function"
    },
    {
      "inputs": [],
      "name": "testVariable",
      "outputs": [
        {
          "internalType": "string",
          "name": "",
          "type": "string"
        }
      ],
      "stateMutability": "view",
      "type": "function"
    }
  ],
  "bytecode": "0x60806040526040518060400160405280600b81526020017f48656c6c6f20576f726c64000000000000000000000000000000000000000000815250600490805190602001906200005192919062000066565b503480156200005f57600080fd5b506200017b565b828054620000749062000116565b90600052602060002090601f016020900481019282620000985760008555620000e4565b82601f10620000b357805160ff1916838001178555620000e4565b82800160010185558215620000e4579182015b82811115620000e3578251825591602001919060010190620000c6565b5b509050620000f39190620000f7565b5090565b5b8082111562000112576000816000905550600101620000f8565b5090565b600060028204905060018216806200012f57607f821691505b602082108114156200014657620001456200014c565b5b50919050565b7f4e487b7100000000000000000000000000000000000000000000000000000000600052602260045260246000fd5b6120ee806200018b6000396000f3fe608060405260043610620000925760003560e01c8063a1af635b1162000061578063a1af635b1462000193578063c059d6bd14620001c9578063c4fecdb614620001ff578063e16b4a9b146200022f578063e42429ae146200025f5762000092565b80630b07160c14620000975780633b98797714620000db5780635a156287146200010b5780637a1de44e146200014f575b600080fd5b348015620000a457600080fd5b50620000c36004803603810190620000bd9190620009c7565b6200028f565b604051620000d2919062000c4b565b60405180910390f35b348015620000e857600080fd5b50620000f3620002cf565b60405162000102919062000cd7565b60405180910390f35b3480156200011857600080fd5b50620001376004803603810190620001319190620009c7565b620002d5565b60405162000146919062000c68565b60405180910390f35b3480156200015c57600080fd5b506200017b6004803603810190620001759190620009c7565b620003ca565b6040516200018a919062000c4b565b60405180910390f35b620001b16004803603810190620001ab919062000954565b6200040a565b604051620001c0919062000c68565b60405180910390f35b620001e76004803603810190620001e1919062000954565b62000577565b604051620001f6919062000c68565b60405180910390f35b3480156200020c57600080fd5b50620002176200064a565b60405162000226919062000cd7565b60405180910390f35b3480156200023c57600080fd5b506200024762000650565b60405162000256919062000c68565b60405180910390f35b3480156200026c57600080fd5b5062000277620006ea565b60405162000286919062000c68565b60405180910390f35b60028181548110620002a057600080fd5b906000526020600020016000915054906101000a900473ffffffffffffffffffffffffffffffffffffffff1681565b60035481565b60606000828154811062000312577f4e487b7100000000000000000000000000000000000000000000000000000000600052603260045260246000fd5b9060005260206000200160009054906101000a900473ffffffffffffffffffffffffffffffffffffffff1673ffffffffffffffffffffffffffffffffffffffff1663c291c58d6040518163ffffffff1660e01b815260040160006040518083038186803b1580156200038357600080fd5b505afa15801562000398573d6000803e3d6000fd5b505050506040513d6000823e3d601f19601f82011682018060405250810190620003c391906200090f565b9050919050565b60008181548110620003db57600080fd5b906000526020600020016000915054906101000a900473ffffffffffffffffffffffffffffffffffffffff1681565b606060008330846040516200041f9062000780565b6200042d9392919062000c8c565b604051809103906000f0801580156200044a573d6000803e3d6000fd5b5090506000819080600181540180825580915050600190039060005260206000200160009091909190916101000a81548173ffffffffffffffffffffffffffffffffffffffff021916908373ffffffffffffffffffffffffffffffffffffffff16021790555060016000815480929190620004c59062000eca565b9190505550838360006002811062000506577f4e487b7100000000000000000000000000000000000000000000000000000000600052603260045260246000fd5b60200201518460016002811062000546577f4e487b7100000000000000000000000000000000000000000000000000000000600052603260045260246000fd5b60200201516040516020016200055f9392919062000bfa565b60405160208183030381529060405291505092915050565b606060008330846040516200058c9062000780565b6200059a9392919062000c8c565b604051809103906000f080158015620005b7573d6000803e3d6000fd5b5090508073ffffffffffffffffffffffffffffffffffffffff1663e16b4a9b6040518163ffffffff1660e01b815260040160006040518083038186803b1580156200060157600080fd5b505afa15801562000616573d6000803e3d6000fd5b505050506040513d6000823e3d601f19601f820116820180604052508101906200064191906200090f565b91505092915050565b60015481565b606060048054620006619062000e94565b80601f01602080910402602001604051908101604052809291908181526020018280546200068f9062000e94565b8015620006e05780601f10620006b457610100808354040283529160200191620006e0565b820191906000526020600020905b815481529060010190602001808311620006c257829003601f168201915b5050505050905090565b60048054620006f99062000e94565b80601f0160208091040260200160405190810160405280929190818152602001828054620007279062000e94565b8015620007785780601f106200074c5761010080835404028352916020019162000778565b820191906000526020600020905b8154815290600101906020018083116200075a57829003601f168201915b505050505081565b6110e88062000fd183390190565b6000620007a56200079f8462000d28565b62000cf4565b9050808260005b85811015620007e05781358501620007c588826200089e565b845260208401935060208301925050600181019050620007ac565b5050509392505050565b600062000801620007fb8462000d51565b62000cf4565b9050828152602081018484840111156200081a57600080fd5b6200082784828562000e4f565b509392505050565b600062000846620008408462000d51565b62000cf4565b9050828152602081018484840111156200085f57600080fd5b6200086c84828562000e5e565b509392505050565b600082601f8301126200088657600080fd5b6002620008958482856200078e565b91505092915050565b600082601f830112620008b057600080fd5b8135620008c2848260208601620007ea565b91505092915050565b600082601f830112620008dd57600080fd5b8151620008ef8482602086016200082f565b91505092915050565b600081359050620009098162000fb6565b92915050565b6000602082840312156200092257600080fd5b600082015167ffffffffffffffff8111156200093d57600080fd5b6200094b84828501620008cb565b91505092915050565b600080604083850312156200096857600080fd5b600083013567ffffffffffffffff8111156200098357600080fd5b62000991858286016200089e565b925050602083013567ffffffffffffffff811115620009af57600080fd5b620009bd8582860162000874565b9150509250929050565b600060208284031215620009da57600080fd5b6000620009ea84828501620008f8565b91505092915050565b600062000a01838362000aac565b905092915050565b62000a148162000de9565b82525050565b600062000a278262000d8e565b62000a33818562000db1565b93508360208202850162000a478562000d84565b8060005b8581101562000a89578484038952815162000a678582620009f3565b945062000a748362000da4565b925060208a0199505060018101905062000a4b565b50829750879550505050505092915050565b62000aa68162000e27565b82525050565b600062000ab98262000d99565b62000ac5818562000dbc565b935062000ad781856020860162000e5e565b62000ae28162000fa5565b840191505092915050565b600062000afa8262000d99565b62000b06818562000dcd565b935062000b1881856020860162000e5e565b62000b238162000fa5565b840191505092915050565b600062000b3b8262000d99565b62000b47818562000dde565b935062000b5981856020860162000e5e565b80840191505092915050565b600062000b7460108362000dde565b91507f4d61726b657420437265617465643a20000000000000000000000000000000006000830152601082019050919050565b600062000bb660088362000dde565b91507f7c2053696465733a0000000000000000000000000000000000000000000000006000830152600882019050919050565b62000bf48162000e1d565b82525050565b600062000c078262000b65565b915062000c15828662000b2e565b915062000c228262000ba7565b915062000c30828562000b2e565b915062000c3e828462000b2e565b9150819050949350505050565b600060208201905062000c62600083018462000a9b565b92915050565b6000602082019050818103600083015262000c84818462000aed565b905092915050565b6000606082019050818103600083015262000ca8818662000aed565b905062000cb9602083018562000a09565b818103604083015262000ccd818462000a1a565b9050949350505050565b600060208201905062000cee600083018462000be9565b92915050565b6000604051905081810181811067ffffffffffffffff8211171562000d1e5762000d1d62000f76565b5b8060405250919050565b600067ffffffffffffffff82111562000d465762000d4562000f76565b5b602082029050919050565b600067ffffffffffffffff82111562000d6f5762000d6e62000f76565b5b601f19601f8301169050602081019050919050565b6000819050919050565b600060029050919050565b600081519050919050565b6000602082019050919050565b600081905092915050565b600082825260208201905092915050565b600082825260208201905092915050565b600081905092915050565b600062000df68262000dfd565b9050919050565b600073ffffffffffffffffffffffffffffffffffffffff82169050919050565b6000819050919050565b600062000e348262000e3b565b9050919050565b600062000e488262000dfd565b9050919050565b82818337600083830152505050565b60005b8381101562000e7e57808201518184015260208101905062000e61565b8381111562000e8e576000848401525b50505050565b6000600282049050600182168062000ead57607f821691505b6020821081141562000ec45762000ec362000f47565b5b50919050565b600062000ed78262000e1d565b91507fffffffffffffffffffffffffffffffffffffffffffffffffffffffffffffffff82141562000f0d5762000f0c62000f18565b5b600182019050919050565b7f4e487b7100000000000000000000000000000000000000000000000000000000600052601160045260246000fd5b7f4e487b7100000000000000000000000000000000000000000000000000000000600052602260045260246000fd5b7f4e487b7100000000000000000000000000000000000000000000000000000000600052604160045260246000fd5b6000601f19601f8301169050919050565b62000fc18162000e1d565b811462000fcd57600080fd5b5056fe60806040526040518060400160405280601a81526020017f48656c6c6f2066726f6d20746865206f7468657220736964652100000000000081525060069080519060200190620000519291906200012f565b503480156200005f57600080fd5b50604051620010e8380380620010e88339818101604052810190620000859190620003b6565b82600090805190602001906200009d9291906200012f565b50806001906002620000b1929190620001c0565b5081600560006101000a81548173ffffffffffffffffffffffffffffffffffffffff021916908373ffffffffffffffffffffffffffffffffffffffff160217905550600060036000808152602001908152602001600020819055506000600360006001815260200190815260200160002081905550505050620005e6565b8280546200013d9062000538565b90600052602060002090601f016020900481019282620001615760008555620001ad565b82601f106200017c57805160ff1916838001178555620001ad565b82800160010185558215620001ad579182015b82811115620001ac5782518255916020019190600101906200018f565b5b509050620001bc91906200021a565b5090565b826002810192821562000207579160200282015b8281111562000206578251829080519060200190620001f59291906200012f565b5091602001919060010190620001d4565b5b50905062000216919062000239565b5090565b5b80821115620002355760008160009055506001016200021b565b5090565b5b808211156200025d576000818162000253919062000261565b506001016200023a565b5090565b5080546200026f9062000538565b6000825580601f10620002835750620002a4565b601f016020900490600052602060002090810190620002a391906200021a565b5b50565b6000620002be620002b88462000472565b6200043e565b9050808260005b85811015620002f95781518501620002de888262000389565b845260208401935060208301925050600181019050620002c5565b5050509392505050565b60006200031a62000314846200049b565b6200043e565b9050828152602081018484840111156200033357600080fd5b6200034084828562000502565b509392505050565b6000815190506200035981620005cc565b92915050565b600082601f8301126200037157600080fd5b600262000380848285620002a7565b91505092915050565b600082601f8301126200039b57600080fd5b8151620003ad84826020860162000303565b91505092915050565b600080600060608486031215620003cc57600080fd5b600084015167ffffffffffffffff811115620003e757600080fd5b620003f58682870162000389565b9350506020620004088682870162000348565b925050604084015167ffffffffffffffff8111156200042657600080fd5b62000434868287016200035f565b9150509250925092565b6000604051905081810181811067ffffffffffffffff821117156200046857620004676200059d565b5b8060405250919050565b600067ffffffffffffffff82111562000490576200048f6200059d565b5b602082029050919050565b600067ffffffffffffffff821115620004b957620004b86200059d565b5b601f19601f8301169050602081019050919050565b6000620004db82620004e2565b9050919050565b600073ffffffffffffffffffffffffffffffffffffffff82169050919050565b60005b838110156200052257808201518184015260208101905062000505565b8381111562000532576000848401525b50505050565b600060028204905060018216806200055157607f821691505b602082108114156200056857620005676200056e565b5b50919050565b7f4e487b7100000000000000000000000000000000000000000000000000000000600052602260045260246000fd5b7f4e487b7100000000000000000000000000000000000000000000000000000000600052604160045260246000fd5b620005d781620004ce565b8114620005e357600080fd5b50565b610af280620005f66000396000f3fe6080604052600436106100c25760003560e01c8063b2cf2c061161007f578063e16b4a9b11610059578063e16b4a9b14610271578063e42429ae1461029c578063ed032bc4146102c7578063f99ab61d146102f2576100c2565b8063b2cf2c06146101f0578063b4a99a4e1461021b578063c291c58d14610246576100c2565b806305f7fedf146100c7578063073ed8731461010457806310fe7c481461012f5780631f67c80b1461014b5780632055c6681461018857806322af00fa146101b3575b600080fd5b3480156100d357600080fd5b506100ee60048036038101906100e991906107f8565b61031d565b6040516100fb91906108f1565b60405180910390f35b34801561011057600080fd5b50610119610342565b60405161012691906108f1565b60405180910390f35b61014960048036038101906101449190610834565b61039b565b005b34801561015757600080fd5b50610172600480360381019061016d9190610834565b61041e565b60405161017f91906108cf565b60405180910390f35b34801561019457600080fd5b5061019d6104c1565b6040516101aa91906108cf565b60405180910390f35b3480156101bf57600080fd5b506101da60048036038101906101d59190610834565b61054f565b6040516101e791906108f1565b60405180910390f35b3480156101fc57600080fd5b50610205610567565b60405161021291906108f1565b60405180910390f35b34801561022757600080fd5b506102306105bf565b60405161023d91906108b4565b60405180910390f35b34801561025257600080fd5b5061025b6105e5565b60405161026891906108cf565b60405180910390f35b34801561027d57600080fd5b50610286610677565b60405161029391906108cf565b60405180910390f35b3480156102a857600080fd5b506102b1610709565b6040516102be91906108cf565b60405180910390f35b3480156102d357600080fd5b506102dc610797565b6040516102e991906108f1565b60405180910390f35b3480156102fe57600080fd5b506103076107b3565b60405161031491906108f1565b60405180910390f35b6004602052816000526040600020602052806000526040600020600091509150505481565b6000600460003373ffffffffffffffffffffffffffffffffffffffff1673ffffffffffffffffffffffffffffffffffffffff16815260200190815260200160002060006001815260200190815260200160002054905090565b60016003600083815260200190815260200160002060008282546103bf9190610928565b9250508190555034600460003373ffffffffffffffffffffffffffffffffffffffff1673ffffffffffffffffffffffffffffffffffffffff16815260200190815260200160002060008381526020019081526020016000208190555050565b6001816002811061042e57600080fd5b016000915090508054610440906109ed565b80601f016020809104026020016040519081016040528092919081815260200182805461046c906109ed565b80156104b95780601f1061048e576101008083540402835291602001916104b9565b820191906000526020600020905b81548152906001019060200180831161049c57829003601f168201915b505050505081565b600080546104ce906109ed565b80601f01602080910402602001604051908101604052809291908181526020018280546104fa906109ed565b80156105475780601f1061051c57610100808354040283529160200191610547565b820191906000526020600020905b81548152906001019060200180831161052a57829003601f168201915b505050505081565b60036020528060005260406000206000915090505481565b6000600460003373ffffffffffffffffffffffffffffffffffffffff1673ffffffffffffffffffffffffffffffffffffffff168152602001908152602001600020600080815260200190815260200160002054905090565b600560009054906101000a900473ffffffffffffffffffffffffffffffffffffffff1681565b6060600080546105f4906109ed565b80601f0160208091040260200160405190810160405280929190818152602001828054610620906109ed565b801561066d5780601f106106425761010080835404028352916020019161066d565b820191906000526020600020905b81548152906001019060200180831161065057829003601f168201915b5050505050905090565b606060068054610686906109ed565b80601f01602080910402602001604051908101604052809291908181526020018280546106b2906109ed565b80156106ff5780601f106106d4576101008083540402835291602001916106ff565b820191906000526020600020905b8154815290600101906020018083116106e257829003601f168201915b5050505050905090565b60068054610716906109ed565b80601f0160208091040260200160405190810160405280929190818152602001828054610742906109ed565b801561078f5780601f106107645761010080835404028352916020019161078f565b820191906000526020600020905b81548152906001019060200180831161077257829003601f168201915b505050505081565b6000600360006001815260200190815260200160002054905090565b60006003600080815260200190815260200160002054905090565b6000813590506107dd81610a8e565b92915050565b6000813590506107f281610aa5565b92915050565b6000806040838503121561080b57600080fd5b6000610819858286016107ce565b925050602061082a858286016107e3565b9150509250929050565b60006020828403121561084657600080fd5b6000610854848285016107e3565b91505092915050565b6108668161097e565b82525050565b60006108778261090c565b6108818185610917565b93506108918185602086016109ba565b61089a81610a7d565b840191505092915050565b6108ae816109b0565b82525050565b60006020820190506108c9600083018461085d565b92915050565b600060208201905081810360008301526108e9818461086c565b905092915050565b600060208201905061090660008301846108a5565b92915050565b600081519050919050565b600082825260208201905092915050565b6000610933826109b0565b915061093e836109b0565b9250827fffffffffffffffffffffffffffffffffffffffffffffffffffffffffffffffff0382111561097357610972610a1f565b5b828201905092915050565b600061098982610990565b9050919050565b600073ffffffffffffffffffffffffffffffffffffffff82169050919050565b6000819050919050565b60005b838110156109d85780820151818401526020810190506109bd565b838111156109e7576000848401525b50505050565b60006002820490506001821680610a0557607f821691505b60208210811415610a1957610a18610a4e565b5b50919050565b7f4e487b7100000000000000000000000000000000000000000000000000000000600052601160045260246000fd5b7f4e487b7100000000000000000000000000000000000000000000000000000000600052602260045260246000fd5b6000601f19601f8301169050919050565b610a978161097e565b8114610aa257600080fd5b50565b610aae816109b0565b8114610ab957600080fd5b5056fea26469706673582212202b1dd7c6e88fc75f407dc6b9aafd7ebd80f053b8bd3f94a227e3eb4e403d6bef64736f6c63430008000033a2646970667358221220179c973f4b37a5fcba7302ae9c20949bd458300b8c87a46b509cfac17a1c925d64736f6c63430008000033",
  "linkReferences": {},
  "deployedLinkReferences": {}
}