{
  "_format": "hh-sol-artifact-1",
  "contractName": "MarketTracker",
  "sourceName": "contracts/MarketTracker.sol",
  "abi": [
    {
      "inputs": [
        {
          "internalType": "string",
          "name": "_marketName",
          "type": "string"
        },
        {
          "internalType": "string[2]",
          "name": "_side",
          "type": "string[2]"
        },
        {
          "internalType": "uint256",
          "name": "_resultDate",
          "type": "uint256"
        }
      ],
      "name": "addNewMarket",
      "outputs": [
        {
          "internalType": "string",
          "name": "",
          "type": "string"
        }
      ],
      "stateMutability": "payable",
      "type": "function"
    },
    {
      "inputs": [],
      "name": "contractsCount",
      "outputs": [
        {
          "internalType": "uint256",
          "name": "",
          "type": "uint256"
        }
      ],
      "stateMutability": "view",
      "type": "function"
    },
    {
      "inputs": [],
      "name": "getFirstTestArray",
      "outputs": [
        {
          "internalType": "string",
          "name": "",
          "type": "string"
        }
      ],
      "stateMutability": "view",
      "type": "function"
    },
    {
      "inputs": [],
      "name": "getMarketArray",
      "outputs": [
        {
          "internalType": "contract Market[]",
          "name": "",
          "type": "address[]"
        }
      ],
      "stateMutability": "view",
      "type": "function"
    },
    {
      "inputs": [
        {
          "internalType": "uint256",
          "name": "marketIndex",
          "type": "uint256"
        }
      ],
      "name": "getNameBasedOffIndex",
      "outputs": [
        {
          "internalType": "string",
          "name": "",
          "type": "string"
        }
      ],
      "stateMutability": "view",
      "type": "function"
    },
    {
      "inputs": [],
      "name": "getTestArray",
      "outputs": [
        {
          "internalType": "contract TestContract[]",
          "name": "",
          "type": "address[]"
        }
      ],
      "stateMutability": "view",
      "type": "function"
    },
    {
      "inputs": [
        {
          "internalType": "uint256",
          "name": "",
          "type": "uint256"
        }
      ],
      "name": "marketContracts",
      "outputs": [
        {
          "internalType": "contract Market",
          "name": "",
          "type": "address"
        }
      ],
      "stateMutability": "view",
      "type": "function"
    },
    {
      "inputs": [
        {
          "internalType": "uint256",
          "name": "",
          "type": "uint256"
        }
      ],
      "name": "testContracts",
      "outputs": [
        {
          "internalType": "contract TestContract",
          "name": "",
          "type": "address"
        }
      ],
      "stateMutability": "view",
      "type": "function"
    },
    {
      "inputs": [],
      "name": "testContractsCount",
      "outputs": [
        {
          "internalType": "uint256",
          "name": "",
          "type": "uint256"
        }
      ],
      "stateMutability": "view",
      "type": "function"
    },
    {
      "inputs": [],
      "name": "testFunction",
      "outputs": [
        {
          "internalType": "string",
          "name": "",
          "type": "string"
        }
      ],
      "stateMutability": "view",
      "type": "function"
    },
    {
      "inputs": [],
      "name": "testFunction_2",
      "outputs": [
        {
          "internalType": "string",
          "name": "",
          "type": "string"
        }
      ],
      "stateMutability": "payable",
      "type": "function"
    },
    {
      "inputs": [],
      "name": "testFunction_3",
      "outputs": [
        {
          "internalType": "string",
          "name": "",
          "type": "string"
        }
      ],
      "stateMutability": "view",
      "type": "function"
    },
    {
      "inputs": [],
      "name": "testVariable",
      "outputs": [
        {
          "internalType": "string",
          "name": "",
          "type": "string"
        }
      ],
      "stateMutability": "view",
      "type": "function"
    }
  ],
  "bytecode": "0x60806040526040518060400160405280600b81526020017f48656c6c6f20576f726c64000000000000000000000000000000000000000000815250600490805190602001906200005192919062000066565b503480156200005f57600080fd5b506200017b565b828054620000749062000116565b90600052602060002090601f016020900481019282620000985760008555620000e4565b82601f10620000b357805160ff1916838001178555620000e4565b82800160010185558215620000e4579182015b82811115620000e3578251825591602001919060010190620000c6565b5b509050620000f39190620000f7565b5090565b5b8082111562000112576000816000905550600101620000f8565b5090565b600060028204905060018216806200012f57607f821691505b602082108114156200014657620001456200014c565b5b50919050565b7f4e487b7100000000000000000000000000000000000000000000000000000000600052602260045260246000fd5b61299c806200018b6000396000f3fe608060405260043610620000d45760003560e01c80635a156287116200008b578063c4fecdb61162000061578063c4fecdb614620002bd578063e16b4a9b14620002ed578063e42429ae146200031d578063f0a3cb14146200034d57620000d4565b80635a15628714620002135780637a1de44e146200025757806385373dd5146200029b57620000d4565b80630464013214620000d9578063141b33bc14620001095780632aa86a3c14620001395780633b987977146200016f578063477f968c146200019f578063579655d814620001e3575b600080fd5b348015620000e657600080fd5b50620000f16200037d565b604051620001009190620012c6565b60405180910390f35b3480156200011657600080fd5b50620001216200040d565b60405162000130919062001324565b60405180910390f35b62000157600480360381019062000151919062000df3565b62000501565b60405162000166919062001324565b60405180910390f35b3480156200017c57600080fd5b5062000187620006be565b604051620001969190620013c5565b60405180910390f35b348015620001ac57600080fd5b50620001cb6004803603810190620001c5919062000e7b565b620006c4565b604051620001da919062001307565b60405180910390f35b348015620001f057600080fd5b50620001fb62000704565b6040516200020a919062001324565b60405180910390f35b3480156200022057600080fd5b506200023f600480360381019062000239919062000e7b565b620007f8565b6040516200024e919062001324565b60405180910390f35b3480156200026457600080fd5b506200028360048036038101906200027d919062000e7b565b620008ed565b604051620002929190620012ea565b60405180910390f35b620002a56200092d565b604051620002b4919062001324565b60405180910390f35b348015620002ca57600080fd5b50620002d562000a4b565b604051620002e49190620013c5565b60405180910390f35b348015620002fa57600080fd5b506200030562000a51565b60405162000314919062001324565b60405180910390f35b3480156200032a57600080fd5b506200033562000aeb565b60405162000344919062001324565b60405180910390f35b3480156200035a57600080fd5b506200036562000b81565b604051620003749190620012a2565b60405180910390f35b606060028054806020026020016040519081016040528092919081815260200182805480156200040357602002820191906000526020600020905b8160009054906101000a900473ffffffffffffffffffffffffffffffffffffffff1673ffffffffffffffffffffffffffffffffffffffff1681526020019060010190808311620003b8575b5050505050905090565b606060026000815481106200044b577f4e487b7100000000000000000000000000000000000000000000000000000000600052603260045260246000fd5b9060005260206000200160009054906101000a900473ffffffffffffffffffffffffffffffffffffffff1673ffffffffffffffffffffffffffffffffffffffff1663e16b4a9b6040518163ffffffff1660e01b815260040160006040518083038186803b158015620004bc57600080fd5b505afa158015620004d1573d6000803e3d6000fd5b505050506040513d6000823e3d601f19601f82011682018060405250810190620004fc919062000dae565b905090565b6060670de0b6b3a7640000341462000550576040517f08c379a00000000000000000000000000000000000000000000000000000000081526004016200054790620013a3565b60405180910390fd5b600084308585604051620005649062000c11565b62000573949392919062001348565b604051809103906000f08015801562000590573d6000803e3d6000fd5b5090506000819080600181540180825580915050600190039060005260206000200160009091909190916101000a81548173ffffffffffffffffffffffffffffffffffffffff021916908373ffffffffffffffffffffffffffffffffffffffff160217905550600160008154809291906200060b9062001641565b919050555084846000600281106200064c577f4e487b7100000000000000000000000000000000000000000000000000000000600052603260045260246000fd5b6020020151856001600281106200068c577f4e487b7100000000000000000000000000000000000000000000000000000000600052603260045260246000fd5b6020020151604051602001620006a59392919062001251565b6040516020818303038152906040529150509392505050565b60035481565b60028181548110620006d557600080fd5b906000526020600020016000915054906101000a900473ffffffffffffffffffffffffffffffffffffffff1681565b6060600260008154811062000742577f4e487b7100000000000000000000000000000000000000000000000000000000600052603260045260246000fd5b9060005260206000200160009054906101000a900473ffffffffffffffffffffffffffffffffffffffff1673ffffffffffffffffffffffffffffffffffffffff1663e16b4a9b6040518163ffffffff1660e01b815260040160006040518083038186803b158015620007b357600080fd5b505afa158015620007c8573d6000803e3d6000fd5b505050506040513d6000823e3d601f19601f82011682018060405250810190620007f3919062000dae565b905090565b60606000828154811062000835577f4e487b7100000000000000000000000000000000000000000000000000000000600052603260045260246000fd5b9060005260206000200160009054906101000a900473ffffffffffffffffffffffffffffffffffffffff1673ffffffffffffffffffffffffffffffffffffffff1663c291c58d6040518163ffffffff1660e01b815260040160006040518083038186803b158015620008a657600080fd5b505afa158015620008bb573d6000803e3d6000fd5b505050506040513d6000823e3d601f19601f82011682018060405250810190620008e6919062000dae565b9050919050565b60008181548110620008fe57600080fd5b906000526020600020016000915054906101000a900473ffffffffffffffffffffffffffffffffffffffff1681565b6060670de0b6b3a764000034146200097c576040517f08c379a00000000000000000000000000000000000000000000000000000000081526004016200097390620013a3565b60405180910390fd5b60006040516200098c9062000c1f565b604051809103906000f080158015620009a9573d6000803e3d6000fd5b5090506002819080600181540180825580915050600190039060005260206000200160009091909190916101000a81548173ffffffffffffffffffffffffffffffffffffffff021916908373ffffffffffffffffffffffffffffffffffffffff1602179055506040518060400160405280601581526020017f5465737420636f6e74726163742063726561746564000000000000000000000081525091505090565b60015481565b60606004805462000a62906200160b565b80601f016020809104026020016040519081016040528092919081815260200182805462000a90906200160b565b801562000ae15780601f1062000ab55761010080835404028352916020019162000ae1565b820191906000526020600020905b81548152906001019060200180831162000ac357829003601f168201915b5050505050905090565b6004805462000afa906200160b565b80601f016020809104026020016040519081016040528092919081815260200182805462000b28906200160b565b801562000b795780601f1062000b4d5761010080835404028352916020019162000b79565b820191906000526020600020905b81548152906001019060200180831162000b5b57829003601f168201915b505050505081565b6060600080548060200260200160405190810160405280929190818152602001828054801562000c0757602002820191906000526020600020905b8160009054906101000a900473ffffffffffffffffffffffffffffffffffffffff1673ffffffffffffffffffffffffffffffffffffffff168152602001906001019080831162000bbc575b5050505050905090565b610dc1806200174883390190565b61045e806200250983390190565b600062000c4462000c3e8462001416565b620013e2565b9050808260005b8581101562000c7f578135850162000c64888262000d3d565b84526020840193506020830192505060018101905062000c4b565b5050509392505050565b600062000ca062000c9a846200143f565b620013e2565b90508281526020810184848401111562000cb957600080fd5b62000cc6848285620015c6565b509392505050565b600062000ce562000cdf846200143f565b620013e2565b90508281526020810184848401111562000cfe57600080fd5b62000d0b848285620015d5565b509392505050565b600082601f83011262000d2557600080fd5b600262000d3484828562000c2d565b91505092915050565b600082601f83011262000d4f57600080fd5b813562000d6184826020860162000c89565b91505092915050565b600082601f83011262000d7c57600080fd5b815162000d8e84826020860162000cce565b91505092915050565b60008135905062000da8816200172d565b92915050565b60006020828403121562000dc157600080fd5b600082015167ffffffffffffffff81111562000ddc57600080fd5b62000dea8482850162000d6a565b91505092915050565b60008060006060848603121562000e0957600080fd5b600084013567ffffffffffffffff81111562000e2457600080fd5b62000e328682870162000d3d565b935050602084013567ffffffffffffffff81111562000e5057600080fd5b62000e5e8682870162000d13565b925050604062000e718682870162000d97565b9150509250925092565b60006020828403121562000e8e57600080fd5b600062000e9e8482850162000d97565b91505092915050565b600062000eb5838362001057565b60208301905092915050565b600062000ecf838362001079565b60208301905092915050565b600062000ee983836200109b565b905092915050565b62000efc8162001538565b82525050565b600062000f0f826200149c565b62000f1b8185620014ef565b935062000f288362001472565b8060005b8381101562000f5f57815162000f43888262000ea7565b975062000f5083620014c8565b92505060018101905062000f2c565b5085935050505092915050565b600062000f7982620014a7565b62000f858185620014ef565b935062000f928362001482565b8060005b8381101562000fc957815162000fad888262000ec1565b975062000fba83620014d5565b92505060018101905062000f96565b5085935050505092915050565b600062000fe382620014b2565b62000fef818562001500565b935083602082028501620010038562001492565b8060005b8581101562001045578484038952815162001023858262000edb565b94506200103083620014e2565b925060208a0199505060018101905062001007565b50829750879550505050505092915050565b620010628162001576565b82525050565b620010738162001576565b82525050565b62001084816200159e565b82525050565b62001095816200159e565b82525050565b6000620010a882620014bd565b620010b481856200150b565b9350620010c6818560208601620015d5565b620010d1816200171c565b840191505092915050565b6000620010e982620014bd565b620010f581856200151c565b935062001107818560208601620015d5565b62001112816200171c565b840191505092915050565b60006200112a82620014bd565b6200113681856200152d565b935062001148818560208601620015d5565b80840191505092915050565b6000620011636023836200151c565b91507f596f75206e65656420746f207061737320696e2065786163746c79203120657460008301527f68657200000000000000000000000000000000000000000000000000000000006020830152604082019050919050565b6000620011cb6010836200152d565b91507f4d61726b657420437265617465643a20000000000000000000000000000000006000830152601082019050919050565b60006200120d6008836200152d565b91507f7c2053696465733a0000000000000000000000000000000000000000000000006000830152600882019050919050565b6200124b816200156c565b82525050565b60006200125e82620011bc565b91506200126c82866200111d565b91506200127982620011fe565b91506200128782856200111d565b91506200129582846200111d565b9150819050949350505050565b60006020820190508181036000830152620012be818462000f02565b905092915050565b60006020820190508181036000830152620012e2818462000f6c565b905092915050565b600060208201905062001301600083018462001068565b92915050565b60006020820190506200131e60008301846200108a565b92915050565b60006020820190508181036000830152620013408184620010dc565b905092915050565b60006080820190508181036000830152620013648187620010dc565b905062001375602083018662000ef1565b818103604083015262001389818562000fd6565b90506200139a606083018462001240565b95945050505050565b60006020820190508181036000830152620013be8162001154565b9050919050565b6000602082019050620013dc600083018462001240565b92915050565b6000604051905081810181811067ffffffffffffffff821117156200140c576200140b620016ed565b5b8060405250919050565b600067ffffffffffffffff821115620014345762001433620016ed565b5b602082029050919050565b600067ffffffffffffffff8211156200145d576200145c620016ed565b5b601f19601f8301169050602081019050919050565b6000819050602082019050919050565b6000819050602082019050919050565b6000819050919050565b600081519050919050565b600081519050919050565b600060029050919050565b600081519050919050565b6000602082019050919050565b6000602082019050919050565b6000602082019050919050565b600082825260208201905092915050565b600081905092915050565b600082825260208201905092915050565b600082825260208201905092915050565b600081905092915050565b600062001545826200154c565b9050919050565b600073ffffffffffffffffffffffffffffffffffffffff82169050919050565b6000819050919050565b600062001583826200158a565b9050919050565b600062001597826200154c565b9050919050565b6000620015ab82620015b2565b9050919050565b6000620015bf826200154c565b9050919050565b82818337600083830152505050565b60005b83811015620015f5578082015181840152602081019050620015d8565b8381111562001605576000848401525b50505050565b600060028204905060018216806200162457607f821691505b602082108114156200163b576200163a620016be565b5b50919050565b60006200164e826200156c565b91507fffffffffffffffffffffffffffffffffffffffffffffffffffffffffffffffff8214156200168457620016836200168f565b5b600182019050919050565b7f4e487b7100000000000000000000000000000000000000000000000000000000600052601160045260246000fd5b7f4e487b7100000000000000000000000000000000000000000000000000000000600052602260045260246000fd5b7f4e487b7100000000000000000000000000000000000000000000000000000000600052604160045260246000fd5b6000601f19601f8301169050919050565b62001738816200156c565b81146200174457600080fd5b5056fe60806040523480156200001157600080fd5b5060405162000dc138038062000dc1833981810160405281019062000037919062000364565b83600090805190602001906200004f929190620000c6565b508160019060026200006392919062000157565b5082600360006101000a81548173ffffffffffffffffffffffffffffffffffffffff021916908373ffffffffffffffffffffffffffffffffffffffff160217905550600060048190555060006005819055508060068190555050505050620005ce565b828054620000d49062000506565b90600052602060002090601f016020900481019282620000f8576000855562000144565b82601f106200011357805160ff191683800117855562000144565b8280016001018555821562000144579182015b828111156200014357825182559160200191906001019062000126565b5b509050620001539190620001b1565b5090565b82600281019282156200019e579160200282015b828111156200019d5782518290805190602001906200018c929190620000c6565b50916020019190600101906200016b565b5b509050620001ad9190620001d0565b5090565b5b80821115620001cc576000816000905550600101620001b2565b5090565b5b80821115620001f45760008181620001ea9190620001f8565b50600101620001d1565b5090565b508054620002069062000506565b6000825580601f106200021a57506200023b565b601f0160209004906000526020600020908101906200023a9190620001b1565b5b50565b6000620002556200024f8462000436565b62000402565b9050808260005b8581101562000290578151850162000275888262000320565b8452602084019350602083019250506001810190506200025c565b5050509392505050565b6000620002b1620002ab846200045f565b62000402565b905082815260208101848484011115620002ca57600080fd5b620002d7848285620004d0565b509392505050565b600081519050620002f0816200059a565b92915050565b600082601f8301126200030857600080fd5b6002620003178482856200023e565b91505092915050565b600082601f8301126200033257600080fd5b8151620003448482602086016200029a565b91505092915050565b6000815190506200035e81620005b4565b92915050565b600080600080608085870312156200037b57600080fd5b600085015167ffffffffffffffff8111156200039657600080fd5b620003a48782880162000320565b9450506020620003b787828801620002df565b935050604085015167ffffffffffffffff811115620003d557600080fd5b620003e387828801620002f6565b9250506060620003f6878288016200034d565b91505092959194509250565b6000604051905081810181811067ffffffffffffffff821117156200042c576200042b6200056b565b5b8060405250919050565b600067ffffffffffffffff8211156200045457620004536200056b565b5b602082029050919050565b600067ffffffffffffffff8211156200047d576200047c6200056b565b5b601f19601f8301169050602081019050919050565b60006200049f82620004a6565b9050919050565b600073ffffffffffffffffffffffffffffffffffffffff82169050919050565b6000819050919050565b60005b83811015620004f0578082015181840152602081019050620004d3565b8381111562000500576000848401525b50505050565b600060028204905060018216806200051f57607f821691505b602082108114156200053657620005356200053c565b5b50919050565b7f4e487b7100000000000000000000000000000000000000000000000000000000600052602260045260246000fd5b7f4e487b7100000000000000000000000000000000000000000000000000000000600052604160045260246000fd5b620005a58162000492565b8114620005b157600080fd5b50565b620005bf81620004c6565b8114620005cb57600080fd5b50565b6107e380620005de6000396000f3fe608060405234801561001057600080fd5b50600436106100885760003560e01c8063b4a99a4e1161005b578063b4a99a4e14610117578063bbafcff014610135578063bd0198f014610153578063c291c58d1461017157610088565b80631f67c80b1461008d5780632055c668146100bd578063603d55d7146100db5780639040a949146100f9575b600080fd5b6100a760048036038101906100a2919061049f565b61018f565b6040516100b4919061061e565b60405180910390f35b6100c5610232565b6040516100d2919061061e565b60405180910390f35b6100e36102c0565b6040516100f09190610640565b60405180910390f35b6101016102ca565b60405161010e9190610640565b60405180910390f35b61011f6102d4565b60405161012c91906105e1565b60405180910390f35b61013d6102fa565b60405161014a9190610640565b60405180910390f35b61015b610304565b60405161016891906105fc565b60405180910390f35b6101796103d1565b604051610186919061061e565b60405180910390f35b6001816002811061019f57600080fd5b0160009150905080546101b190610724565b80601f01602080910402602001604051908101604052809291908181526020018280546101dd90610724565b801561022a5780601f106101ff5761010080835404028352916020019161022a565b820191906000526020600020905b81548152906001019060200180831161020d57829003601f168201915b505050505081565b6000805461023f90610724565b80601f016020809104026020016040519081016040528092919081815260200182805461026b90610724565b80156102b85780601f1061028d576101008083540402835291602001916102b8565b820191906000526020600020905b81548152906001019060200180831161029b57829003601f168201915b505050505081565b6000600654905090565b6000600554905090565b600360009054906101000a900473ffffffffffffffffffffffffffffffffffffffff1681565b6000600454905090565b61030c610463565b6001600280602002604051908101604052809291906000905b828210156103c857838201805461033b90610724565b80601f016020809104026020016040519081016040528092919081815260200182805461036790610724565b80156103b45780601f10610389576101008083540402835291602001916103b4565b820191906000526020600020905b81548152906001019060200180831161039757829003601f168201915b505050505081526020019060010190610325565b50505050905090565b6060600080546103e090610724565b80601f016020809104026020016040519081016040528092919081815260200182805461040c90610724565b80156104595780601f1061042e57610100808354040283529160200191610459565b820191906000526020600020905b81548152906001019060200180831161043c57829003601f168201915b5050505050905090565b60405180604001604052806002905b60608152602001906001900390816104725790505090565b60008135905061049981610796565b92915050565b6000602082840312156104b157600080fd5b60006104bf8482850161048a565b91505092915050565b60006104d48383610560565b905092915050565b6104e5816106b5565b82525050565b60006104f682610665565b6105008185610688565b9350836020820285016105128561065b565b8060005b8581101561054e578484038952815161052f85826104c8565b945061053a8361067b565b925060208a01995050600181019050610516565b50829750879550505050505092915050565b600061056b82610670565b6105758185610693565b93506105858185602086016106f1565b61058e81610785565b840191505092915050565b60006105a482610670565b6105ae81856106a4565b93506105be8185602086016106f1565b6105c781610785565b840191505092915050565b6105db816106e7565b82525050565b60006020820190506105f660008301846104dc565b92915050565b6000602082019050818103600083015261061681846104eb565b905092915050565b600060208201905081810360008301526106388184610599565b905092915050565b600060208201905061065560008301846105d2565b92915050565b6000819050919050565b600060029050919050565b600081519050919050565b6000602082019050919050565b600081905092915050565b600082825260208201905092915050565b600082825260208201905092915050565b60006106c0826106c7565b9050919050565b600073ffffffffffffffffffffffffffffffffffffffff82169050919050565b6000819050919050565b60005b8381101561070f5780820151818401526020810190506106f4565b8381111561071e576000848401525b50505050565b6000600282049050600182168061073c57607f821691505b602082108114156107505761074f610756565b5b50919050565b7f4e487b7100000000000000000000000000000000000000000000000000000000600052602260045260246000fd5b6000601f19601f8301169050919050565b61079f816106e7565b81146107aa57600080fd5b5056fea26469706673582212203f4a5838e63131d589f0f821e8d3dfacff901d59be66d1fe3df22f6ea9876a9264736f6c6343000800003360806040526040518060400160405280601a81526020017f48656c6c6f2066726f6d20746865206f746865722073696465210000000000008152506000908051906020019061004f929190610062565b5034801561005c57600080fd5b50610166565b82805461006e90610105565b90600052602060002090601f01602090048101928261009057600085556100d7565b82601f106100a957805160ff19168380011785556100d7565b828001600101855582156100d7579182015b828111156100d65782518255916020019190600101906100bb565b5b5090506100e491906100e8565b5090565b5b808211156101015760008160009055506001016100e9565b5090565b6000600282049050600182168061011d57607f821691505b6020821081141561013157610130610137565b5b50919050565b7f4e487b7100000000000000000000000000000000000000000000000000000000600052602260045260246000fd5b6102e9806101756000396000f3fe608060405234801561001057600080fd5b50600436106100365760003560e01c8063e16b4a9b1461003b578063e42429ae14610059575b600080fd5b610043610077565b60405161005091906101d0565b60405180910390f35b610061610109565b60405161006e91906101d0565b60405180910390f35b60606000805461008690610241565b80601f01602080910402602001604051908101604052809291908181526020018280546100b290610241565b80156100ff5780601f106100d4576101008083540402835291602001916100ff565b820191906000526020600020905b8154815290600101906020018083116100e257829003601f168201915b5050505050905090565b6000805461011690610241565b80601f016020809104026020016040519081016040528092919081815260200182805461014290610241565b801561018f5780601f106101645761010080835404028352916020019161018f565b820191906000526020600020905b81548152906001019060200180831161017257829003601f168201915b505050505081565b60006101a2826101f2565b6101ac81856101fd565b93506101bc81856020860161020e565b6101c5816102a2565b840191505092915050565b600060208201905081810360008301526101ea8184610197565b905092915050565b600081519050919050565b600082825260208201905092915050565b60005b8381101561022c578082015181840152602081019050610211565b8381111561023b576000848401525b50505050565b6000600282049050600182168061025957607f821691505b6020821081141561026d5761026c610273565b5b50919050565b7f4e487b7100000000000000000000000000000000000000000000000000000000600052602260045260246000fd5b6000601f19601f830116905091905056fea264697066735822122095918cf61cbf5ad6dd748729c8f6c9286e10bf4e2b26690ce81a349e9d268f0564736f6c63430008000033a2646970667358221220c509498c619a1f558c09566e653340b3dbce24fe139679614c9394d68fa13f8464736f6c63430008000033",
  "linkReferences": {},
  "deployedLinkReferences": {}
}