{
  "_format": "hh-sol-artifact-1",
  "contractName": "MarketTracker",
  "sourceName": "contracts/MarketTracker.sol",
  "abi": [
    {
      "inputs": [
        {
          "internalType": "string",
          "name": "_marketName",
          "type": "string"
        },
        {
          "internalType": "string[2]",
          "name": "_side",
          "type": "string[2]"
        }
      ],
      "name": "addNewMarket",
      "outputs": [
        {
          "internalType": "string",
          "name": "",
          "type": "string"
        }
      ],
      "stateMutability": "payable",
      "type": "function"
    },
    {
      "inputs": [],
      "name": "contractsCount",
      "outputs": [
        {
          "internalType": "uint256",
          "name": "",
          "type": "uint256"
        }
      ],
      "stateMutability": "view",
      "type": "function"
    },
    {
      "inputs": [
        {
          "internalType": "uint256",
          "name": "marketIndex",
          "type": "uint256"
        }
      ],
      "name": "getNameBasedOffIndex",
      "outputs": [
        {
          "internalType": "string",
          "name": "",
          "type": "string"
        }
      ],
      "stateMutability": "view",
      "type": "function"
    },
    {
      "inputs": [
        {
          "internalType": "uint256",
          "name": "",
          "type": "uint256"
        }
      ],
      "name": "marketContracts",
      "outputs": [
        {
          "internalType": "contract Market",
          "name": "",
          "type": "address"
        }
      ],
      "stateMutability": "view",
      "type": "function"
    }
  ],
  "bytecode": "0x608060405234801561001057600080fd5b50611afe806100206000396000f3fe608060405260043610620000445760003560e01c80635a15628714620000495780637a1de44e146200008d578063a1af635b14620000d1578063c4fecdb61462000107575b600080fd5b3480156200005657600080fd5b506200007560048036038101906200006f919062000626565b62000137565b604051620000849190620008c7565b60405180910390f35b3480156200009a57600080fd5b50620000b96004803603810190620000b3919062000626565b6200022c565b604051620000c89190620008aa565b60405180910390f35b620000ef6004803603810190620000e99190620005b3565b6200026c565b604051620000fe9190620008c7565b60405180910390f35b3480156200011457600080fd5b506200011f620003d9565b6040516200012e919062000936565b60405180910390f35b60606000828154811062000174577f4e487b7100000000000000000000000000000000000000000000000000000000600052603260045260246000fd5b9060005260206000200160009054906101000a900473ffffffffffffffffffffffffffffffffffffffff1673ffffffffffffffffffffffffffffffffffffffff1663c291c58d6040518163ffffffff1660e01b815260040160006040518083038186803b158015620001e557600080fd5b505afa158015620001fa573d6000803e3d6000fd5b505050506040513d6000823e3d601f19601f820116820180604052508101906200022591906200056e565b9050919050565b600081815481106200023d57600080fd5b906000526020600020016000915054906101000a900473ffffffffffffffffffffffffffffffffffffffff1681565b606060008330846040516200028190620003df565b6200028f93929190620008eb565b604051809103906000f080158015620002ac573d6000803e3d6000fd5b5090506000819080600181540180825580915050600190039060005260206000200160009091909190916101000a81548173ffffffffffffffffffffffffffffffffffffffff021916908373ffffffffffffffffffffffffffffffffffffffff16021790555060016000815480929190620003279062000af3565b9190505550838360006002811062000368577f4e487b7100000000000000000000000000000000000000000000000000000000600052603260045260246000fd5b602002015184600160028110620003a8577f4e487b7100000000000000000000000000000000000000000000000000000000600052603260045260246000fd5b6020020151604051602001620003c19392919062000859565b60405160208183030381529060405291505092915050565b60015481565b610efe8062000bcb83390190565b600062000404620003fe8462000987565b62000953565b9050808260005b858110156200043f5781358501620004248882620004fd565b8452602084019350602083019250506001810190506200040b565b5050509392505050565b6000620004606200045a84620009b0565b62000953565b9050828152602081018484840111156200047957600080fd5b6200048684828562000aae565b509392505050565b6000620004a56200049f84620009b0565b62000953565b905082815260208101848484011115620004be57600080fd5b620004cb84828562000abd565b509392505050565b600082601f830112620004e557600080fd5b6002620004f4848285620003ed565b91505092915050565b600082601f8301126200050f57600080fd5b81356200052184826020860162000449565b91505092915050565b600082601f8301126200053c57600080fd5b81516200054e8482602086016200048e565b91505092915050565b600081359050620005688162000bb0565b92915050565b6000602082840312156200058157600080fd5b600082015167ffffffffffffffff8111156200059c57600080fd5b620005aa848285016200052a565b91505092915050565b60008060408385031215620005c757600080fd5b600083013567ffffffffffffffff811115620005e257600080fd5b620005f085828601620004fd565b925050602083013567ffffffffffffffff8111156200060e57600080fd5b6200061c85828601620004d3565b9150509250929050565b6000602082840312156200063957600080fd5b6000620006498482850162000557565b91505092915050565b60006200066083836200070b565b905092915050565b620006738162000a48565b82525050565b60006200068682620009ed565b62000692818562000a10565b935083602082028501620006a685620009e3565b8060005b85811015620006e85784840389528151620006c6858262000652565b9450620006d38362000a03565b925060208a01995050600181019050620006aa565b50829750879550505050505092915050565b620007058162000a86565b82525050565b60006200071882620009f8565b62000724818562000a1b565b93506200073681856020860162000abd565b620007418162000b9f565b840191505092915050565b60006200075982620009f8565b62000765818562000a2c565b93506200077781856020860162000abd565b620007828162000b9f565b840191505092915050565b60006200079a82620009f8565b620007a6818562000a3d565b9350620007b881856020860162000abd565b80840191505092915050565b6000620007d360108362000a3d565b91507f4d61726b657420437265617465643a20000000000000000000000000000000006000830152601082019050919050565b60006200081560088362000a3d565b91507f7c2053696465733a0000000000000000000000000000000000000000000000006000830152600882019050919050565b620008538162000a7c565b82525050565b60006200086682620007c4565b91506200087482866200078d565b9150620008818262000806565b91506200088f82856200078d565b91506200089d82846200078d565b9150819050949350505050565b6000602082019050620008c16000830184620006fa565b92915050565b60006020820190508181036000830152620008e381846200074c565b905092915050565b600060608201905081810360008301526200090781866200074c565b905062000918602083018562000668565b81810360408301526200092c818462000679565b9050949350505050565b60006020820190506200094d600083018462000848565b92915050565b6000604051905081810181811067ffffffffffffffff821117156200097d576200097c62000b70565b5b8060405250919050565b600067ffffffffffffffff821115620009a557620009a462000b70565b5b602082029050919050565b600067ffffffffffffffff821115620009ce57620009cd62000b70565b5b601f19601f8301169050602081019050919050565b6000819050919050565b600060029050919050565b600081519050919050565b6000602082019050919050565b600081905092915050565b600082825260208201905092915050565b600082825260208201905092915050565b600081905092915050565b600062000a558262000a5c565b9050919050565b600073ffffffffffffffffffffffffffffffffffffffff82169050919050565b6000819050919050565b600062000a938262000a9a565b9050919050565b600062000aa78262000a5c565b9050919050565b82818337600083830152505050565b60005b8381101562000add57808201518184015260208101905062000ac0565b8381111562000aed576000848401525b50505050565b600062000b008262000a7c565b91507fffffffffffffffffffffffffffffffffffffffffffffffffffffffffffffffff82141562000b365762000b3562000b41565b5b600182019050919050565b7f4e487b7100000000000000000000000000000000000000000000000000000000600052601160045260246000fd5b7f4e487b7100000000000000000000000000000000000000000000000000000000600052604160045260246000fd5b6000601f19601f8301169050919050565b62000bbb8162000a7c565b811462000bc757600080fd5b5056fe60806040523480156200001157600080fd5b5060405162000efe38038062000efe833981810160405281019062000037919062000368565b82600090805190602001906200004f929190620000e1565b508060019060026200006392919062000172565b5081600560006101000a81548173ffffffffffffffffffffffffffffffffffffffff021916908373ffffffffffffffffffffffffffffffffffffffff16021790555060006003600080815260200190815260200160002081905550600060036000600181526020019081526020016000208190555050505062000598565b828054620000ef90620004ea565b90600052602060002090601f0160209004810192826200011357600085556200015f565b82601f106200012e57805160ff19168380011785556200015f565b828001600101855582156200015f579182015b828111156200015e57825182559160200191906001019062000141565b5b5090506200016e9190620001cc565b5090565b8260028101928215620001b9579160200282015b82811115620001b8578251829080519060200190620001a7929190620000e1565b509160200191906001019062000186565b5b509050620001c89190620001eb565b5090565b5b80821115620001e7576000816000905550600101620001cd565b5090565b5b808211156200020f576000818162000205919062000213565b50600101620001ec565b5090565b5080546200022190620004ea565b6000825580601f1062000235575062000256565b601f016020900490600052602060002090810190620002559190620001cc565b5b50565b6000620002706200026a8462000424565b620003f0565b9050808260005b85811015620002ab57815185016200029088826200033b565b84526020840193506020830192505060018101905062000277565b5050509392505050565b6000620002cc620002c6846200044d565b620003f0565b905082815260208101848484011115620002e557600080fd5b620002f2848285620004b4565b509392505050565b6000815190506200030b816200057e565b92915050565b600082601f8301126200032357600080fd5b60026200033284828562000259565b91505092915050565b600082601f8301126200034d57600080fd5b81516200035f848260208601620002b5565b91505092915050565b6000806000606084860312156200037e57600080fd5b600084015167ffffffffffffffff8111156200039957600080fd5b620003a7868287016200033b565b9350506020620003ba86828701620002fa565b925050604084015167ffffffffffffffff811115620003d857600080fd5b620003e68682870162000311565b9150509250925092565b6000604051905081810181811067ffffffffffffffff821117156200041a57620004196200054f565b5b8060405250919050565b600067ffffffffffffffff8211156200044257620004416200054f565b5b602082029050919050565b600067ffffffffffffffff8211156200046b576200046a6200054f565b5b601f19601f8301169050602081019050919050565b60006200048d8262000494565b9050919050565b600073ffffffffffffffffffffffffffffffffffffffff82169050919050565b60005b83811015620004d4578082015181840152602081019050620004b7565b83811115620004e4576000848401525b50505050565b600060028204905060018216806200050357607f821691505b602082108114156200051a576200051962000520565b5b50919050565b7f4e487b7100000000000000000000000000000000000000000000000000000000600052602260045260246000fd5b7f4e487b7100000000000000000000000000000000000000000000000000000000600052604160045260246000fd5b620005898162000480565b81146200059557600080fd5b50565b61095680620005a86000396000f3fe60806040526004361061009c5760003560e01c806322af00fa1161006457806322af00fa1461018d578063b2cf2c06146101ca578063b4a99a4e146101f5578063c291c58d14610220578063ed032bc41461024b578063f99ab61d146102765761009c565b806305f7fedf146100a1578063073ed873146100de57806310fe7c48146101095780631f67c80b146101255780632055c66814610162575b600080fd5b3480156100ad57600080fd5b506100c860048036038101906100c3919061065c565b6102a1565b6040516100d59190610755565b60405180910390f35b3480156100ea57600080fd5b506100f36102c6565b6040516101009190610755565b60405180910390f35b610123600480360381019061011e9190610698565b61031f565b005b34801561013157600080fd5b5061014c60048036038101906101479190610698565b6103a2565b6040516101599190610733565b60405180910390f35b34801561016e57600080fd5b50610177610445565b6040516101849190610733565b60405180910390f35b34801561019957600080fd5b506101b460048036038101906101af9190610698565b6104d3565b6040516101c19190610755565b60405180910390f35b3480156101d657600080fd5b506101df6104eb565b6040516101ec9190610755565b60405180910390f35b34801561020157600080fd5b5061020a610543565b6040516102179190610718565b60405180910390f35b34801561022c57600080fd5b50610235610569565b6040516102429190610733565b60405180910390f35b34801561025757600080fd5b506102606105fb565b60405161026d9190610755565b60405180910390f35b34801561028257600080fd5b5061028b610617565b6040516102989190610755565b60405180910390f35b6004602052816000526040600020602052806000526040600020600091509150505481565b6000600460003373ffffffffffffffffffffffffffffffffffffffff1673ffffffffffffffffffffffffffffffffffffffff16815260200190815260200160002060006001815260200190815260200160002054905090565b6001600360008381526020019081526020016000206000828254610343919061078c565b9250508190555034600460003373ffffffffffffffffffffffffffffffffffffffff1673ffffffffffffffffffffffffffffffffffffffff16815260200190815260200160002060008381526020019081526020016000208190555050565b600181600281106103b257600080fd5b0160009150905080546103c490610851565b80601f01602080910402602001604051908101604052809291908181526020018280546103f090610851565b801561043d5780601f106104125761010080835404028352916020019161043d565b820191906000526020600020905b81548152906001019060200180831161042057829003601f168201915b505050505081565b6000805461045290610851565b80601f016020809104026020016040519081016040528092919081815260200182805461047e90610851565b80156104cb5780601f106104a0576101008083540402835291602001916104cb565b820191906000526020600020905b8154815290600101906020018083116104ae57829003601f168201915b505050505081565b60036020528060005260406000206000915090505481565b6000600460003373ffffffffffffffffffffffffffffffffffffffff1673ffffffffffffffffffffffffffffffffffffffff168152602001908152602001600020600080815260200190815260200160002054905090565b600560009054906101000a900473ffffffffffffffffffffffffffffffffffffffff1681565b60606000805461057890610851565b80601f01602080910402602001604051908101604052809291908181526020018280546105a490610851565b80156105f15780601f106105c6576101008083540402835291602001916105f1565b820191906000526020600020905b8154815290600101906020018083116105d457829003601f168201915b5050505050905090565b6000600360006001815260200190815260200160002054905090565b60006003600080815260200190815260200160002054905090565b600081359050610641816108f2565b92915050565b60008135905061065681610909565b92915050565b6000806040838503121561066f57600080fd5b600061067d85828601610632565b925050602061068e85828601610647565b9150509250929050565b6000602082840312156106aa57600080fd5b60006106b884828501610647565b91505092915050565b6106ca816107e2565b82525050565b60006106db82610770565b6106e5818561077b565b93506106f581856020860161081e565b6106fe816108e1565b840191505092915050565b61071281610814565b82525050565b600060208201905061072d60008301846106c1565b92915050565b6000602082019050818103600083015261074d81846106d0565b905092915050565b600060208201905061076a6000830184610709565b92915050565b600081519050919050565b600082825260208201905092915050565b600061079782610814565b91506107a283610814565b9250827fffffffffffffffffffffffffffffffffffffffffffffffffffffffffffffffff038211156107d7576107d6610883565b5b828201905092915050565b60006107ed826107f4565b9050919050565b600073ffffffffffffffffffffffffffffffffffffffff82169050919050565b6000819050919050565b60005b8381101561083c578082015181840152602081019050610821565b8381111561084b576000848401525b50505050565b6000600282049050600182168061086957607f821691505b6020821081141561087d5761087c6108b2565b5b50919050565b7f4e487b7100000000000000000000000000000000000000000000000000000000600052601160045260246000fd5b7f4e487b7100000000000000000000000000000000000000000000000000000000600052602260045260246000fd5b6000601f19601f8301169050919050565b6108fb816107e2565b811461090657600080fd5b50565b61091281610814565b811461091d57600080fd5b5056fea264697066735822122052652b166ef99be5339e236c863b38eb5d7f5a822ce83755a8db9ebf73e5243364736f6c63430008000033a264697066735822122060c409af5a8088cd9a630f497a2b81c88ff8edd7d5acaf88cf0826079b6591ab64736f6c63430008000033",
  "linkReferences": {},
  "deployedLinkReferences": {}
}