{
  "_format": "hh-sol-artifact-1",
  "contractName": "Market",
  "sourceName": "contracts/MarketTracker.sol",
  "abi": [
    {
      "inputs": [
        {
          "internalType": "string",
          "name": "_marketName",
          "type": "string"
        },
        {
          "internalType": "address",
          "name": "_factoryAddress",
          "type": "address"
        },
        {
          "internalType": "address",
          "name": "_owner",
          "type": "address"
        },
        {
          "internalType": "string[2]",
          "name": "_side",
          "type": "string[2]"
        },
        {
          "internalType": "uint256",
          "name": "_resultDate",
          "type": "uint256"
        }
      ],
      "stateMutability": "nonpayable",
      "type": "constructor"
    },
    {
      "anonymous": false,
      "inputs": [
        {
          "indexed": false,
          "internalType": "address",
          "name": "buyer",
          "type": "address"
        },
        {
          "indexed": false,
          "internalType": "address",
          "name": "seller",
          "type": "address"
        },
        {
          "indexed": false,
          "internalType": "uint256",
          "name": "amount",
          "type": "uint256"
        }
      ],
      "name": "Transaction",
      "type": "event"
    },
    {
      "inputs": [],
      "name": "N_Tokens",
      "outputs": [
        {
          "internalType": "uint256",
          "name": "",
          "type": "uint256"
        }
      ],
      "stateMutability": "view",
      "type": "function"
    },
    {
      "inputs": [
        {
          "internalType": "uint256",
          "name": "",
          "type": "uint256"
        }
      ],
      "name": "Side",
      "outputs": [
        {
          "internalType": "string",
          "name": "",
          "type": "string"
        }
      ],
      "stateMutability": "view",
      "type": "function"
    },
    {
      "inputs": [],
      "name": "Y_Tokens",
      "outputs": [
        {
          "internalType": "uint256",
          "name": "",
          "type": "uint256"
        }
      ],
      "stateMutability": "view",
      "type": "function"
    },
    {
      "inputs": [
        {
          "internalType": "address",
          "name": "buyer",
          "type": "address"
        },
        {
          "internalType": "address",
          "name": "seller",
          "type": "address"
        },
        {
          "internalType": "uint256",
          "name": "amount",
          "type": "uint256"
        },
        {
          "internalType": "contract Transactions",
          "name": "transaction",
          "type": "address"
        }
      ],
      "name": "addTransactions",
      "outputs": [],
      "stateMutability": "nonpayable",
      "type": "function"
    },
    {
      "inputs": [
        {
          "internalType": "uint256",
          "name": "amountOfCoin",
          "type": "uint256"
        }
      ],
      "name": "buyNToken",
      "outputs": [],
      "stateMutability": "payable",
      "type": "function"
    },
    {
      "inputs": [
        {
          "internalType": "uint256",
          "name": "amountOfCoin",
          "type": "uint256"
        }
      ],
      "name": "buyYToken",
      "outputs": [],
      "stateMutability": "payable",
      "type": "function"
    },
    {
      "inputs": [],
      "name": "currentNPrice",
      "outputs": [
        {
          "internalType": "uint256",
          "name": "",
          "type": "uint256"
        }
      ],
      "stateMutability": "view",
      "type": "function"
    },
    {
      "inputs": [],
      "name": "currentYPrice",
      "outputs": [
        {
          "internalType": "uint256",
          "name": "",
          "type": "uint256"
        }
      ],
      "stateMutability": "view",
      "type": "function"
    },
    {
      "inputs": [],
      "name": "factoryAddress",
      "outputs": [
        {
          "internalType": "address",
          "name": "",
          "type": "address"
        }
      ],
      "stateMutability": "view",
      "type": "function"
    },
    {
      "inputs": [],
      "name": "getContractBalance",
      "outputs": [
        {
          "internalType": "uint256",
          "name": "",
          "type": "uint256"
        }
      ],
      "stateMutability": "view",
      "type": "function"
    },
    {
      "inputs": [],
      "name": "getFactoryAddress",
      "outputs": [
        {
          "internalType": "address",
          "name": "",
          "type": "address"
        }
      ],
      "stateMutability": "view",
      "type": "function"
    },
    {
      "inputs": [],
      "name": "getMarketName",
      "outputs": [
        {
          "internalType": "string",
          "name": "",
          "type": "string"
        }
      ],
      "stateMutability": "view",
      "type": "function"
    },
    {
      "inputs": [],
      "name": "getNPrice",
      "outputs": [
        {
          "internalType": "uint256",
          "name": "",
          "type": "uint256"
        }
      ],
      "stateMutability": "view",
      "type": "function"
    },
    {
      "inputs": [],
      "name": "getNTokens",
      "outputs": [
        {
          "internalType": "uint256",
          "name": "",
          "type": "uint256"
        }
      ],
      "stateMutability": "view",
      "type": "function"
    },
    {
      "inputs": [],
      "name": "getOwnerAddress",
      "outputs": [
        {
          "internalType": "address",
          "name": "",
          "type": "address"
        }
      ],
      "stateMutability": "view",
      "type": "function"
    },
    {
      "inputs": [],
      "name": "getResultDate",
      "outputs": [
        {
          "internalType": "uint256",
          "name": "",
          "type": "uint256"
        }
      ],
      "stateMutability": "view",
      "type": "function"
    },
    {
      "inputs": [],
      "name": "getSide",
      "outputs": [
        {
          "internalType": "string[2]",
          "name": "",
          "type": "string[2]"
        }
      ],
      "stateMutability": "view",
      "type": "function"
    },
    {
      "inputs": [],
      "name": "getUserNTokens",
      "outputs": [
        {
          "internalType": "uint256",
          "name": "",
          "type": "uint256"
        }
      ],
      "stateMutability": "view",
      "type": "function"
    },
    {
      "inputs": [],
      "name": "getUserYTokens",
      "outputs": [
        {
          "internalType": "uint256",
          "name": "",
          "type": "uint256"
        }
      ],
      "stateMutability": "view",
      "type": "function"
    },
    {
      "inputs": [],
      "name": "getYPrice",
      "outputs": [
        {
          "internalType": "uint256",
          "name": "",
          "type": "uint256"
        }
      ],
      "stateMutability": "view",
      "type": "function"
    },
    {
      "inputs": [],
      "name": "getYTokens",
      "outputs": [
        {
          "internalType": "uint256",
          "name": "",
          "type": "uint256"
        }
      ],
      "stateMutability": "view",
      "type": "function"
    },
    {
      "inputs": [],
      "name": "marketName",
      "outputs": [
        {
          "internalType": "string",
          "name": "",
          "type": "string"
        }
      ],
      "stateMutability": "view",
      "type": "function"
    },
    {
      "inputs": [],
      "name": "maxPrice",
      "outputs": [
        {
          "internalType": "uint256",
          "name": "",
          "type": "uint256"
        }
      ],
      "stateMutability": "view",
      "type": "function"
    },
    {
      "inputs": [],
      "name": "owner",
      "outputs": [
        {
          "internalType": "address",
          "name": "",
          "type": "address"
        }
      ],
      "stateMutability": "view",
      "type": "function"
    },
    {
      "inputs": [],
      "name": "resultDate",
      "outputs": [
        {
          "internalType": "uint256",
          "name": "",
          "type": "uint256"
        }
      ],
      "stateMutability": "view",
      "type": "function"
    },
    {
      "inputs": [
        {
          "internalType": "uint256",
          "name": "amountOfCoin",
          "type": "uint256"
        }
      ],
      "name": "sellNToken",
      "outputs": [],
      "stateMutability": "payable",
      "type": "function"
    },
    {
      "inputs": [
        {
          "internalType": "uint256",
          "name": "amountOfCoin",
          "type": "uint256"
        }
      ],
      "name": "sellYToken",
      "outputs": [],
      "stateMutability": "payable",
      "type": "function"
    },
    {
      "inputs": [
        {
          "internalType": "address",
          "name": "",
          "type": "address"
        },
        {
          "internalType": "uint256",
          "name": "",
          "type": "uint256"
        }
      ],
      "name": "tokensPerGambler",
      "outputs": [
        {
          "internalType": "uint256",
          "name": "",
          "type": "uint256"
        }
      ],
      "stateMutability": "view",
      "type": "function"
    }
  ],
  "bytecode": "0x6080604052670de0b6b3a7640000600b553480156200001d57600080fd5b506040516200324a3803806200324a833981810160405281019062000043919062000456565b84600090805190602001906200005b929190620001b8565b508160019060026200006f92919062000249565b5083600460006101000a81548173ffffffffffffffffffffffffffffffffffffffff021916908373ffffffffffffffffffffffffffffffffffffffff16021790555082600560006101000a81548173ffffffffffffffffffffffffffffffffffffffff021916908373ffffffffffffffffffffffffffffffffffffffff160217905550600060068190555060006007819055508060088190555060016006546200011a91906200059a565b60026007546006546200012e91906200059a565b6200013a91906200059a565b600b54620001499190620005f7565b6200015591906200062f565b60098190555060016007546200016c91906200059a565b60026007546006546200018091906200059a565b6200018c91906200059a565b600b546200019b9190620005f7565b620001a791906200062f565b600a8190555050505050506200082a565b828054620001c69062000704565b90600052602060002090601f016020900481019282620001ea576000855562000236565b82601f106200020557805160ff191683800117855562000236565b8280016001018555821562000236579182015b828111156200023557825182559160200191906001019062000218565b5b509050620002459190620002a3565b5090565b826002810192821562000290579160200282015b828111156200028f5782518290805190602001906200027e929190620001b8565b50916020019190600101906200025d565b5b5090506200029f9190620002c2565b5090565b5b80821115620002be576000816000905550600101620002a4565b5090565b5b80821115620002e65760008181620002dc9190620002ea565b50600101620002c3565b5090565b508054620002f89062000704565b6000825580601f106200030c57506200032d565b601f0160209004906000526020600020908101906200032c9190620002a3565b5b50565b60006200034762000341846200053e565b6200050a565b9050808260005b8581101562000382578151850162000367888262000412565b8452602084019350602083019250506001810190506200034e565b5050509392505050565b6000620003a36200039d8462000567565b6200050a565b905082815260208101848484011115620003bc57600080fd5b620003c9848285620006ce565b509392505050565b600081519050620003e281620007f6565b92915050565b600082601f830112620003fa57600080fd5b60026200040984828562000330565b91505092915050565b600082601f8301126200042457600080fd5b8151620004368482602086016200038c565b91505092915050565b600081519050620004508162000810565b92915050565b600080600080600060a086880312156200046f57600080fd5b600086015167ffffffffffffffff8111156200048a57600080fd5b620004988882890162000412565b9550506020620004ab88828901620003d1565b9450506040620004be88828901620003d1565b935050606086015167ffffffffffffffff811115620004dc57600080fd5b620004ea88828901620003e8565b9250506080620004fd888289016200043f565b9150509295509295909350565b6000604051905081810181811067ffffffffffffffff82111715620005345762000533620007c7565b5b8060405250919050565b600067ffffffffffffffff8211156200055c576200055b620007c7565b5b602082029050919050565b600067ffffffffffffffff821115620005855762000584620007c7565b5b601f19601f8301169050602081019050919050565b6000620005a782620006c4565b9150620005b483620006c4565b9250827fffffffffffffffffffffffffffffffffffffffffffffffffffffffffffffffff03821115620005ec57620005eb6200073a565b5b828201905092915050565b60006200060482620006c4565b91506200061183620006c4565b92508262000624576200062362000769565b5b828204905092915050565b60006200063c82620006c4565b91506200064983620006c4565b9250817fffffffffffffffffffffffffffffffffffffffffffffffffffffffffffffffff04831182151516156200068557620006846200073a565b5b828202905092915050565b60006200069d82620006a4565b9050919050565b600073ffffffffffffffffffffffffffffffffffffffff82169050919050565b6000819050919050565b60005b83811015620006ee578082015181840152602081019050620006d1565b83811115620006fe576000848401525b50505050565b600060028204905060018216806200071d57607f821691505b6020821081141562000734576200073362000798565b5b50919050565b7f4e487b7100000000000000000000000000000000000000000000000000000000600052601160045260246000fd5b7f4e487b7100000000000000000000000000000000000000000000000000000000600052601260045260246000fd5b7f4e487b7100000000000000000000000000000000000000000000000000000000600052602260045260246000fd5b7f4e487b7100000000000000000000000000000000000000000000000000000000600052604160045260246000fd5b620008018162000690565b81146200080d57600080fd5b50565b6200081b81620006c4565b81146200082757600080fd5b50565b612a10806200083a6000396000f3fe608060405260043610620001e25760003560e01c806397545f291162000103578063c831c1db1162000097578063dde892ba116200006d578063dde892ba146200064d578063e38d6b5c146200067d578063e6bfd26a14620006ad578063ead5a40d14620006dd57620001e2565b8063c831c1db14620005bf578063dbd1a50e14620005ef578063dca16625146200061f57620001e2565b8063b9426a4311620000d9578063b9426a43146200050f578063bbafcff0146200052f578063bd0198f0146200055f578063c291c58d146200058f57620001e2565b806397545f29146200048f578063a6e9e71e14620004bf578063a9c2e36c14620004df57620001e2565b806350d51ebd116200017b5780637e1bced811620001515780637e1bced814620003df5780638da5cb5b14620003ff5780639040a949146200042f578063966dae0e146200045f57620001e2565b806350d51ebd146200033b578063603d55d7146200037f5780636f9fb98a14620003af57620001e2565b80632002dff911620001bd5780632002dff9146200028b57806323459dba14620002bb5780632a33030f14620002eb5780633aca0407146200031b57620001e2565b80630c4f65bd14620001e75780630d75f3b714620002175780631f67c80b1462000247575b600080fd5b348015620001f457600080fd5b50620001ff6200070d565b6040516200020e919062001c72565b60405180910390f35b3480156200022457600080fd5b506200022f62000737565b6040516200023e919062001e63565b60405180910390f35b3480156200025457600080fd5b506200027360048036038101906200026d9190620019b0565b62000741565b60405162000282919062001d0d565b60405180910390f35b3480156200029857600080fd5b50620002a3620007ed565b604051620002b2919062001e63565b60405180910390f35b348015620002c857600080fd5b50620002d3620007f7565b604051620002e2919062001e63565b60405180910390f35b348015620002f857600080fd5b5062000303620007fd565b60405162000312919062001e63565b60405180910390f35b620003396004803603810190620003339190620019b0565b62000856565b005b3480156200034857600080fd5b506200036760048036038101906200036191906200192a565b62000b71565b60405162000376919062001e63565b60405180910390f35b3480156200038c57600080fd5b506200039762000b96565b604051620003a6919062001e63565b60405180910390f35b348015620003bc57600080fd5b50620003c762000ba0565b604051620003d6919062001e63565b60405180910390f35b620003fd6004803603810190620003f79190620019b0565b62000ba8565b005b3480156200040c57600080fd5b506200041762000e2b565b60405162000426919062001c72565b60405180910390f35b3480156200043c57600080fd5b506200044762000e51565b60405162000456919062001e63565b60405180910390f35b3480156200046c57600080fd5b506200047762000e5b565b60405162000486919062001c72565b60405180910390f35b3480156200049c57600080fd5b50620004a762000e81565b604051620004b6919062001e63565b60405180910390f35b620004dd6004803603810190620004d79190620019b0565b62000e87565b005b348015620004ec57600080fd5b50620004f7620010c4565b60405162000506919062001c72565b60405180910390f35b6200052d6004803603810190620005279190620019b0565b620010ee565b005b3480156200053c57600080fd5b50620005476200140b565b60405162000556919062001e63565b60405180910390f35b3480156200056c57600080fd5b506200057762001415565b60405162000586919062001ccc565b60405180910390f35b3480156200059c57600080fd5b50620005a7620014ee565b604051620005b6919062001d0d565b60405180910390f35b348015620005cc57600080fd5b50620005d762001588565b604051620005e6919062001e63565b60405180910390f35b348015620005fc57600080fd5b50620006076200158e565b60405162000616919062001e63565b60405180910390f35b3480156200062c57600080fd5b506200064b6004803603810190620006459190620018be565b62001594565b005b3480156200065a57600080fd5b506200066562001690565b60405162000674919062001e63565b60405180910390f35b3480156200068a57600080fd5b5062000695620016e8565b604051620006a4919062001e63565b60405180910390f35b348015620006ba57600080fd5b50620006c5620016ee565b604051620006d4919062001d0d565b60405180910390f35b348015620006ea57600080fd5b50620006f562001784565b60405162000704919062001e63565b60405180910390f35b6000600560009054906101000a900473ffffffffffffffffffffffffffffffffffffffff16905090565b6000600a54905090565b600181600281106200075257600080fd5b01600091509050805462000766906200211e565b80601f016020809104026020016040519081016040528092919081815260200182805462000794906200211e565b8015620007e55780601f10620007b957610100808354040283529160200191620007e5565b820191906000526020600020905b815481529060010190602001808311620007c757829003601f168201915b505050505081565b6000600954905090565b60065481565b6000600360003373ffffffffffffffffffffffffffffffffffffffff1673ffffffffffffffffffffffffffffffffffffffff16815260200190815260200160002060006001815260200190815260200160002054905090565b80600360003373ffffffffffffffffffffffffffffffffffffffff1673ffffffffffffffffffffffffffffffffffffffff1681526020019081526020016000206000808152602001908152602001600020541015620008ec576040517f08c379a0000000000000000000000000000000000000000000000000000000008152600401620008e39062001e41565b60405180910390fd5b6000600a5482620008fe919062001fd2565b905060008130338560405162000914906200178a565b62000923949392919062001d31565b604051809103906000f08015801562000940573d6000803e3d6000fd5b5090503373ffffffffffffffffffffffffffffffffffffffff166108fc839081150290604051600060405180830381858888f193505050501580156200098a573d6000803e3d6000fd5b5082600760008282546200099f919062002033565b9250508190555082600360003373ffffffffffffffffffffffffffffffffffffffff1673ffffffffffffffffffffffffffffffffffffffff1681526020019081526020016000206000808152602001908152602001600020600082825462000a08919062002033565b92505081905550600460009054906101000a900473ffffffffffffffffffffffffffffffffffffffff1673ffffffffffffffffffffffffffffffffffffffff1663c155e4ed826040518263ffffffff1660e01b815260040162000a6c919062001cf0565b600060405180830381600087803b15801562000a8757600080fd5b505af115801562000a9c573d6000803e3d6000fd5b505050506040513d6000823e3d601f19601f8201168201806040525081019062000ac791906200196b565b50600160065462000ad9919062001f3d565b600260075460065462000aed919062001f3d565b62000af9919062001f3d565b600b5462000b08919062001f9a565b62000b14919062001fd2565b600981905550600160075462000b2b919062001f3d565b600260075460065462000b3f919062001f3d565b62000b4b919062001f3d565b600b5462000b5a919062001f9a565b62000b66919062001fd2565b600a81905550505050565b6003602052816000526040600020602052806000526040600020600091509150505481565b6000600854905090565b600047905090565b60006009548262000bba919062001fd2565b905080341462000c01576040517f08c379a000000000000000000000000000000000000000000000000000000000815260040162000bf89062001da8565b60405180910390fd5b60008133308560405162000c15906200178a565b62000c24949392919062001dca565b604051809103906000f08015801562000c41573d6000803e3d6000fd5b509050826006600082825462000c58919062001f3d565b9250508190555082600360003373ffffffffffffffffffffffffffffffffffffffff1673ffffffffffffffffffffffffffffffffffffffff168152602001908152602001600020600060018152602001908152602001600020600082825462000cc2919062001f3d565b92505081905550600460009054906101000a900473ffffffffffffffffffffffffffffffffffffffff1673ffffffffffffffffffffffffffffffffffffffff1663c155e4ed826040518263ffffffff1660e01b815260040162000d26919062001cf0565b600060405180830381600087803b15801562000d4157600080fd5b505af115801562000d56573d6000803e3d6000fd5b505050506040513d6000823e3d601f19601f8201168201806040525081019062000d8191906200196b565b50600160065462000d93919062001f3d565b600260075460065462000da7919062001f3d565b62000db3919062001f3d565b600b5462000dc2919062001f9a565b62000dce919062001fd2565b600981905550600160075462000de5919062001f3d565b600260075460065462000df9919062001f3d565b62000e05919062001f3d565b600b5462000e14919062001f9a565b62000e20919062001fd2565b600a81905550505050565b600560009054906101000a900473ffffffffffffffffffffffffffffffffffffffff1681565b6000600754905090565b600460009054906101000a900473ffffffffffffffffffffffffffffffffffffffff1681565b60085481565b6000600a548262000e99919062001fd2565b905060008133308560405162000eaf906200178a565b62000ebe949392919062001dca565b604051809103906000f08015801562000edb573d6000803e3d6000fd5b509050826007600082825462000ef2919062001f3d565b9250508190555082600360003373ffffffffffffffffffffffffffffffffffffffff1673ffffffffffffffffffffffffffffffffffffffff1681526020019081526020016000206000808152602001908152602001600020600082825462000f5b919062001f3d565b92505081905550600460009054906101000a900473ffffffffffffffffffffffffffffffffffffffff1673ffffffffffffffffffffffffffffffffffffffff1663c155e4ed826040518263ffffffff1660e01b815260040162000fbf919062001cf0565b600060405180830381600087803b15801562000fda57600080fd5b505af115801562000fef573d6000803e3d6000fd5b505050506040513d6000823e3d601f19601f820116820180604052508101906200101a91906200196b565b5060016006546200102c919062001f3d565b600260075460065462001040919062001f3d565b6200104c919062001f3d565b600b546200105b919062001f9a565b62001067919062001fd2565b60098190555060016007546200107e919062001f3d565b600260075460065462001092919062001f3d565b6200109e919062001f3d565b600b54620010ad919062001f9a565b620010b9919062001fd2565b600a81905550505050565b6000600460009054906101000a900473ffffffffffffffffffffffffffffffffffffffff16905090565b80600360003373ffffffffffffffffffffffffffffffffffffffff1673ffffffffffffffffffffffffffffffffffffffff16815260200190815260200160002060006001815260200190815260200160002054101562001185576040517f08c379a00000000000000000000000000000000000000000000000000000000081526004016200117c9062001e41565b60405180910390fd5b60006009548262001197919062001fd2565b9050600081303385604051620011ad906200178a565b620011bc949392919062001d31565b604051809103906000f080158015620011d9573d6000803e3d6000fd5b5090503373ffffffffffffffffffffffffffffffffffffffff166108fc839081150290604051600060405180830381858888f1935050505015801562001223573d6000803e3d6000fd5b50826006600082825462001238919062002033565b9250508190555082600360003373ffffffffffffffffffffffffffffffffffffffff1673ffffffffffffffffffffffffffffffffffffffff1681526020019081526020016000206000600181526020019081526020016000206000828254620012a2919062002033565b92505081905550600460009054906101000a900473ffffffffffffffffffffffffffffffffffffffff1673ffffffffffffffffffffffffffffffffffffffff1663c155e4ed826040518263ffffffff1660e01b815260040162001306919062001cf0565b600060405180830381600087803b1580156200132157600080fd5b505af115801562001336573d6000803e3d6000fd5b505050506040513d6000823e3d601f19601f820116820180604052508101906200136191906200196b565b50600160065462001373919062001f3d565b600260075460065462001387919062001f3d565b62001393919062001f3d565b600b54620013a2919062001f9a565b620013ae919062001fd2565b6009819055506001600754620013c5919062001f3d565b6002600754600654620013d9919062001f3d565b620013e5919062001f3d565b600b54620013f4919062001f9a565b62001400919062001fd2565b600a81905550505050565b6000600654905090565b6200141f62001798565b6001600280602002604051908101604052809291906000905b82821015620014e557838201805462001451906200211e565b80601f01602080910402602001604051908101604052809291908181526020018280546200147f906200211e565b8015620014d05780601f10620014a457610100808354040283529160200191620014d0565b820191906000526020600020905b815481529060010190602001808311620014b257829003601f168201915b50505050508152602001906001019062001438565b50505050905090565b606060008054620014ff906200211e565b80601f01602080910402602001604051908101604052809291908181526020018280546200152d906200211e565b80156200157e5780601f1062001552576101008083540402835291602001916200157e565b820191906000526020600020905b8154815290600101906020018083116200156057829003601f168201915b5050505050905090565b600a5481565b60095481565b600c60009054906101000a900473ffffffffffffffffffffffffffffffffffffffff1673ffffffffffffffffffffffffffffffffffffffff1663c155e4ed826040518263ffffffff1660e01b8152600401620015f1919062001cf0565b600060405180830381600087803b1580156200160c57600080fd5b505af115801562001621573d6000803e3d6000fd5b505050506040513d6000823e3d601f19601f820116820180604052508101906200164c91906200196b565b507f7db7852b30fc413c4a90995f03d9f21e64c45d0ddc8324a8ce4c730a051cbf82848484604051620016829392919062001c8f565b60405180910390a150505050565b6000600360003373ffffffffffffffffffffffffffffffffffffffff1673ffffffffffffffffffffffffffffffffffffffff168152602001908152602001600020600080815260200190815260200160002054905090565b600b5481565b60008054620016fd906200211e565b80601f01602080910402602001604051908101604052809291908181526020018280546200172b906200211e565b80156200177c5780601f1062001750576101008083540402835291602001916200177c565b820191906000526020600020905b8154815290600101906020018083116200175e57829003601f168201915b505050505081565b60075481565b61076b806200227083390190565b60405180604001604052806002905b6060815260200190600190039081620017a75790505090565b6000620017d7620017d18462001eb4565b62001e80565b90508083825260208201905082856020860282011115620017f757600080fd5b60005b858110156200182b578162001810888262001890565b845260208401935060208301925050600181019050620017fa565b5050509392505050565b600081359050620018468162002221565b92915050565b600082601f8301126200185e57600080fd5b815162001870848260208601620017c0565b91505092915050565b6000813590506200188a816200223b565b92915050565b600081519050620018a1816200223b565b92915050565b600081359050620018b88162002255565b92915050565b60008060008060808587031215620018d557600080fd5b6000620018e58782880162001835565b9450506020620018f88782880162001835565b93505060406200190b87828801620018a7565b92505060606200191e8782880162001879565b91505092959194509250565b600080604083850312156200193e57600080fd5b60006200194e8582860162001835565b92505060206200196185828601620018a7565b9150509250929050565b6000602082840312156200197e57600080fd5b600082015167ffffffffffffffff8111156200199957600080fd5b620019a7848285016200184c565b91505092915050565b600060208284031215620019c357600080fd5b6000620019d384828501620018a7565b91505092915050565b6000620019ea838362001a95565b905092915050565b620019fd816200206e565b82525050565b600062001a108262001eed565b62001a1c818562001f10565b93508360208202850162001a308562001ee3565b8060005b8581101562001a72578484038952815162001a508582620019dc565b945062001a5d8362001f03565b925060208a0199505060018101905062001a34565b50829750879550505050505092915050565b62001a8f81620020c0565b82525050565b600062001aa28262001ef8565b62001aae818562001f1b565b935062001ac0818560208601620020e8565b62001acb8162002210565b840191505092915050565b600062001ae38262001ef8565b62001aef818562001f2c565b935062001b01818560208601620020e8565b62001b0c8162002210565b840191505092915050565b600062001b2660048362001f2c565b91507f53656c6c000000000000000000000000000000000000000000000000000000006000830152602082019050919050565b600062001b68602f8362001f2c565b91507f596f75206e65656420746f207061737320696e2074686520636f72726563742060008301527f616d6f756e74206f6620657468657200000000000000000000000000000000006020830152604082019050919050565b600062001bd060038362001f2c565b91507f42757900000000000000000000000000000000000000000000000000000000006000830152602082019050919050565b600062001c1260008362001f2c565b9150600082019050919050565b600062001c2e60128362001f2c565b91507f4e6f7420456e6f75676820546f6b656e732100000000000000000000000000006000830152602082019050919050565b62001c6c81620020b6565b82525050565b600060208201905062001c896000830184620019f2565b92915050565b600060608201905062001ca66000830186620019f2565b62001cb56020830185620019f2565b62001cc4604083018462001c61565b949350505050565b6000602082019050818103600083015262001ce8818462001a03565b905092915050565b600060208201905062001d07600083018462001a84565b92915050565b6000602082019050818103600083015262001d29818462001ad6565b905092915050565b600060c082019050818103600083015262001d4c8162001b17565b905062001d5d602083018762001c61565b62001d6c6040830186620019f2565b62001d7b6060830185620019f2565b818103608083015262001d8e8162001c03565b905062001d9f60a083018462001c61565b95945050505050565b6000602082019050818103600083015262001dc38162001b59565b9050919050565b600060c082019050818103600083015262001de58162001bc1565b905062001df6602083018762001c61565b62001e056040830186620019f2565b62001e146060830185620019f2565b818103608083015262001e278162001c03565b905062001e3860a083018462001c61565b95945050505050565b6000602082019050818103600083015262001e5c8162001c1f565b9050919050565b600060208201905062001e7a600083018462001c61565b92915050565b6000604051905081810181811067ffffffffffffffff8211171562001eaa5762001ea9620021e1565b5b8060405250919050565b600067ffffffffffffffff82111562001ed25762001ed1620021e1565b5b602082029050602081019050919050565b6000819050919050565b600060029050919050565b600081519050919050565b6000602082019050919050565b600081905092915050565b600082825260208201905092915050565b600082825260208201905092915050565b600062001f4a82620020b6565b915062001f5783620020b6565b9250827fffffffffffffffffffffffffffffffffffffffffffffffffffffffffffffffff0382111562001f8f5762001f8e62002154565b5b828201905092915050565b600062001fa782620020b6565b915062001fb483620020b6565b92508262001fc75762001fc662002183565b5b828204905092915050565b600062001fdf82620020b6565b915062001fec83620020b6565b9250817fffffffffffffffffffffffffffffffffffffffffffffffffffffffffffffffff048311821515161562002028576200202762002154565b5b828202905092915050565b60006200204082620020b6565b91506200204d83620020b6565b92508282101562002063576200206262002154565b5b828203905092915050565b60006200207b8262002096565b9050919050565b60006200208f826200206e565b9050919050565b600073ffffffffffffffffffffffffffffffffffffffff82169050919050565b6000819050919050565b6000620020cd82620020d4565b9050919050565b6000620020e18262002096565b9050919050565b60005b8381101562002108578082015181840152602081019050620020eb565b8381111562002118576000848401525b50505050565b600060028204905060018216806200213757607f821691505b602082108114156200214e576200214d620021b2565b5b50919050565b7f4e487b7100000000000000000000000000000000000000000000000000000000600052601160045260246000fd5b7f4e487b7100000000000000000000000000000000000000000000000000000000600052601260045260246000fd5b7f4e487b7100000000000000000000000000000000000000000000000000000000600052602260045260246000fd5b7f4e487b7100000000000000000000000000000000000000000000000000000000600052604160045260246000fd5b6000601f19601f8301169050919050565b6200222c816200206e565b81146200223857600080fd5b50565b620022468162002082565b81146200225257600080fd5b50565b6200226081620020b6565b81146200226c57600080fd5b5056fe608060405234801561001057600080fd5b5060405161076b38038061076b83398181016040528101906100329190610230565b85600090805190602001906100489291906100fb565b508460018190555083600260006101000a81548173ffffffffffffffffffffffffffffffffffffffff021916908373ffffffffffffffffffffffffffffffffffffffff16021790555082600360006101000a81548173ffffffffffffffffffffffffffffffffffffffff021916908373ffffffffffffffffffffffffffffffffffffffff16021790555081600490805190602001906100e89291906100fb565b5080600581905550505050505050610477565b828054610107906103b9565b90600052602060002090601f0160209004810192826101295760008555610170565b82601f1061014257805160ff1916838001178555610170565b82800160010185558215610170579182015b8281111561016f578251825591602001919060010190610154565b5b50905061017d9190610181565b5090565b5b8082111561019a576000816000905550600101610182565b5090565b60006101b16101ac8461031a565b6102e9565b9050828152602081018484840111156101c957600080fd5b6101d4848285610386565b509392505050565b6000815190506101eb81610449565b92915050565b600082601f83011261020257600080fd5b815161021284826020860161019e565b91505092915050565b60008151905061022a81610460565b92915050565b60008060008060008060c0878903121561024957600080fd5b600087015167ffffffffffffffff81111561026357600080fd5b61026f89828a016101f1565b965050602061028089828a0161021b565b955050604061029189828a016101dc565b94505060606102a289828a016101dc565b935050608087015167ffffffffffffffff8111156102bf57600080fd5b6102cb89828a016101f1565b92505060a06102dc89828a0161021b565b9150509295509295509295565b6000604051905081810181811067ffffffffffffffff821117156103105761030f61041a565b5b8060405250919050565b600067ffffffffffffffff8211156103355761033461041a565b5b601f19601f8301169050602081019050919050565b60006103558261035c565b9050919050565b600073ffffffffffffffffffffffffffffffffffffffff82169050919050565b6000819050919050565b60005b838110156103a4578082015181840152602081019050610389565b838111156103b3576000848401525b50505050565b600060028204905060018216806103d157607f821691505b602082108114156103e5576103e46103eb565b5b50919050565b7f4e487b7100000000000000000000000000000000000000000000000000000000600052602260045260246000fd5b7f4e487b7100000000000000000000000000000000000000000000000000000000600052604160045260246000fd5b6104528161034a565b811461045d57600080fd5b50565b6104698161037c565b811461047457600080fd5b50565b6102e5806104866000396000f3fe608060405234801561001057600080fd5b50600436106100365760003560e01c8063524ecd141461003b578063861a844d14610059575b600080fd5b610043610077565b60405161005091906101cc565b60405180910390f35b610061610105565b60405161006e91906101cc565b60405180910390f35b600480546100849061023d565b80601f01602080910402602001604051908101604052809291908181526020018280546100b09061023d565b80156100fd5780601f106100d2576101008083540402835291602001916100fd565b820191906000526020600020905b8154815290600101906020018083116100e057829003601f168201915b505050505081565b600080546101129061023d565b80601f016020809104026020016040519081016040528092919081815260200182805461013e9061023d565b801561018b5780601f106101605761010080835404028352916020019161018b565b820191906000526020600020905b81548152906001019060200180831161016e57829003601f168201915b505050505081565b600061019e826101ee565b6101a881856101f9565b93506101b881856020860161020a565b6101c18161029e565b840191505092915050565b600060208201905081810360008301526101e68184610193565b905092915050565b600081519050919050565b600082825260208201905092915050565b60005b8381101561022857808201518184015260208101905061020d565b83811115610237576000848401525b50505050565b6000600282049050600182168061025557607f821691505b602082108114156102695761026861026f565b5b50919050565b7f4e487b7100000000000000000000000000000000000000000000000000000000600052602260045260246000fd5b6000601f19601f830116905091905056fea264697066735822122099d75940f16247a528464ade41efc94f1ed524893added234070c56c62be7ef564736f6c63430008000033a2646970667358221220ac8b05b329b844e54ce8d3c14e2531017444649915996ba88f4779e188c3c47764736f6c63430008000033",
  "linkReferences": {},
  "deployedLinkReferences": {}
}