{
  "_format": "hh-sol-artifact-1",
  "contractName": "Transactions",
  "sourceName": "contracts/MarketTracker.sol",
  "abi": [
    {
      "inputs": [
        {
          "internalType": "string",
          "name": "_transaction_type",
          "type": "string"
        },
        {
          "internalType": "uint256",
          "name": "_ethereum_value",
          "type": "uint256"
        },
        {
          "internalType": "address",
          "name": "_owner_hash",
          "type": "address"
        },
        {
          "internalType": "address",
          "name": "_recipient_hash",
          "type": "address"
        },
        {
          "internalType": "string",
          "name": "_token_type",
          "type": "string"
        },
        {
          "internalType": "uint256",
          "name": "_token_count",
          "type": "uint256"
        }
      ],
      "stateMutability": "nonpayable",
      "type": "constructor"
    },
    {
      "inputs": [],
      "name": "getEthereumValue",
      "outputs": [
        {
          "internalType": "uint256",
          "name": "",
          "type": "uint256"
        }
      ],
      "stateMutability": "view",
      "type": "function"
    },
    {
      "inputs": [],
      "name": "getOwnerHash",
      "outputs": [
        {
          "internalType": "address",
          "name": "",
          "type": "address"
        }
      ],
      "stateMutability": "view",
      "type": "function"
    },
    {
      "inputs": [],
      "name": "getRecipientHash",
      "outputs": [
        {
          "internalType": "address",
          "name": "",
          "type": "address"
        }
      ],
      "stateMutability": "view",
      "type": "function"
    },
    {
      "inputs": [],
      "name": "getTokenCount",
      "outputs": [
        {
          "internalType": "uint256",
          "name": "",
          "type": "uint256"
        }
      ],
      "stateMutability": "view",
      "type": "function"
    },
    {
      "inputs": [],
      "name": "getTokenType",
      "outputs": [
        {
          "internalType": "string",
          "name": "",
          "type": "string"
        }
      ],
      "stateMutability": "view",
      "type": "function"
    },
    {
      "inputs": [],
      "name": "getTransactionType",
      "outputs": [
        {
          "internalType": "string",
          "name": "",
          "type": "string"
        }
      ],
      "stateMutability": "view",
      "type": "function"
    },
    {
      "inputs": [],
      "name": "token_type",
      "outputs": [
        {
          "internalType": "string",
          "name": "",
          "type": "string"
        }
      ],
      "stateMutability": "view",
      "type": "function"
    },
    {
      "inputs": [],
      "name": "transaction_type",
      "outputs": [
        {
          "internalType": "string",
          "name": "",
          "type": "string"
        }
      ],
      "stateMutability": "view",
      "type": "function"
    }
  ],
  "bytecode": "0x608060405234801561001057600080fd5b5060405161061638038061061683398101604081905261002f916101ef565b855161004290600090602089019061009a565b506001859055600280546001600160a01b038087166001600160a01b0319928316179092556003805492861692909116919091179055815161008b90600490602085019061009a565b50600555506102d39350505050565b8280546100a690610282565b90600052602060002090601f0160209004810192826100c8576000855561010e565b82601f106100e157805160ff191683800117855561010e565b8280016001018555821561010e579182015b8281111561010e5782518255916020019190600101906100f3565b5061011a92915061011e565b5090565b5b8082111561011a576000815560010161011f565b80516001600160a01b038116811461014a57600080fd5b919050565b600082601f83011261015f578081fd5b81516001600160401b0380821115610179576101796102bd565b6040516020601f8401601f191682018101838111838210171561019e5761019e6102bd565b60405283825285840181018710156101b4578485fd5b8492505b838310156101d557858301810151828401820152918201916101b8565b838311156101e557848185840101525b5095945050505050565b60008060008060008060c08789031215610207578182fd5b86516001600160401b038082111561021d578384fd5b6102298a838b0161014f565b97506020890151965061023e60408a01610133565b955061024c60608a01610133565b94506080890151915080821115610261578384fd5b5061026e89828a0161014f565b92505060a087015190509295509295509295565b60028104600182168061029657607f821691505b602082108114156102b757634e487b7160e01b600052602260045260246000fd5b50919050565b634e487b7160e01b600052604160045260246000fd5b610334806102e26000396000f3fe608060405234801561001057600080fd5b50600436106100785760003560e01c80630b96184b1461007d578063524ecd141461009b57806378a89567146100a3578063861a844d146100b8578063a772e622146100c0578063b1aeae31146100d5578063f02da255146100dd578063fcab1819146100e5575b600080fd5b6100856100ed565b6040516100929190610267565b60405180910390f35b61008561017f565b6100ab61020d565b60405161009291906102ba565b610085610213565b6100c8610220565b6040516100929190610253565b6100c861022f565b6100ab61023e565b610085610244565b6060600080546100fc906102c3565b80601f0160208091040260200160405190810160405280929190818152602001828054610128906102c3565b80156101755780601f1061014a57610100808354040283529160200191610175565b820191906000526020600020905b81548152906001019060200180831161015857829003601f168201915b5050505050905090565b6004805461018c906102c3565b80601f01602080910402602001604051908101604052809291908181526020018280546101b8906102c3565b80156102055780601f106101da57610100808354040283529160200191610205565b820191906000526020600020905b8154815290600101906020018083116101e857829003601f168201915b505050505081565b60055490565b6000805461018c906102c3565b6003546001600160a01b031690565b6002546001600160a01b031690565b60015490565b6060600480546100fc906102c3565b6001600160a01b0391909116815260200190565b6000602080835283518082850152825b8181101561029357858101830151858201604001528201610277565b818111156102a45783604083870101525b50601f01601f1916929092016040019392505050565b90815260200190565b6002810460018216806102d757607f821691505b602082108114156102f857634e487b7160e01b600052602260045260246000fd5b5091905056fea2646970667358221220f9b8a2570e1a046d63f794597dfd336e06b4bdd763ef9d2340ab01cddd09dd8064736f6c63430008000033",
  "linkReferences": {},
  "deployedLinkReferences": {}
}