{
  "_format": "hh-sol-artifact-1",
  "contractName": "Transactions",
  "sourceName": "contracts/MarketTracker.sol",
  "abi": [
    {
      "inputs": [
        {
          "internalType": "string",
          "name": "_transaction_type",
          "type": "string"
        },
        {
          "internalType": "uint256",
          "name": "_ethereum_value",
          "type": "uint256"
        },
        {
          "internalType": "address",
          "name": "_owner_hash",
          "type": "address"
        },
        {
          "internalType": "address",
          "name": "_recipient_hash",
          "type": "address"
        },
        {
          "internalType": "string",
          "name": "_token_type",
          "type": "string"
        },
        {
          "internalType": "uint256",
          "name": "_token_count",
          "type": "uint256"
        }
      ],
      "stateMutability": "nonpayable",
      "type": "constructor"
    },
    {
      "inputs": [],
      "name": "token_type",
      "outputs": [
        {
          "internalType": "string",
          "name": "",
          "type": "string"
        }
      ],
      "stateMutability": "view",
      "type": "function"
    },
    {
      "inputs": [],
      "name": "transaction_type",
      "outputs": [
        {
          "internalType": "string",
          "name": "",
          "type": "string"
        }
      ],
      "stateMutability": "view",
      "type": "function"
    }
  ],
  "bytecode": "0x608060405234801561001057600080fd5b506040516104a23803806104a283398101604081905261002f916101ef565b855161004290600090602089019061009a565b506001859055600280546001600160a01b038087166001600160a01b0319928316179092556003805492861692909116919091179055815161008b90600490602085019061009a565b50600555506102d39350505050565b8280546100a690610282565b90600052602060002090601f0160209004810192826100c8576000855561010e565b82601f106100e157805160ff191683800117855561010e565b8280016001018555821561010e579182015b8281111561010e5782518255916020019190600101906100f3565b5061011a92915061011e565b5090565b5b8082111561011a576000815560010161011f565b80516001600160a01b038116811461014a57600080fd5b919050565b600082601f83011261015f578081fd5b81516001600160401b0380821115610179576101796102bd565b6040516020601f8401601f191682018101838111838210171561019e5761019e6102bd565b60405283825285840181018710156101b4578485fd5b8492505b838310156101d557858301810151828401820152918201916101b8565b838311156101e557848185840101525b5095945050505050565b60008060008060008060c08789031215610207578182fd5b86516001600160401b038082111561021d578384fd5b6102298a838b0161014f565b97506020890151965061023e60408a01610133565b955061024c60608a01610133565b94506080890151915080821115610261578384fd5b5061026e89828a0161014f565b92505060a087015190509295509295509295565b60028104600182168061029657607f821691505b602082108114156102b757634e487b7160e01b600052602260045260246000fd5b50919050565b634e487b7160e01b600052604160045260246000fd5b6101c0806102e26000396000f3fe608060405234801561001057600080fd5b50600436106100365760003560e01c8063524ecd141461003b578063861a844d14610059575b600080fd5b610043610061565b60405161005091906100fc565b60405180910390f35b6100436100ef565b6004805461006e9061014f565b80601f016020809104026020016040519081016040528092919081815260200182805461009a9061014f565b80156100e75780601f106100bc576101008083540402835291602001916100e7565b820191906000526020600020905b8154815290600101906020018083116100ca57829003601f168201915b505050505081565b6000805461006e9061014f565b6000602080835283518082850152825b818110156101285785810183015185820160400152820161010c565b818111156101395783604083870101525b50601f01601f1916929092016040019392505050565b60028104600182168061016357607f821691505b6020821081141561018457634e487b7160e01b600052602260045260246000fd5b5091905056fea264697066735822122004c6fc89a2e53e68379588297c5b4f25a6cc8223783428e1e90a2cb48a72f17364736f6c63430008000033",
  "linkReferences": {},
  "deployedLinkReferences": {}
}