{
  "_format": "hh-sol-artifact-1",
  "contractName": "Transactions",
  "sourceName": "contracts/MarketTracker.sol",
  "abi": [
    {
      "inputs": [
        {
          "internalType": "string",
          "name": "_tx_hash",
          "type": "string"
        },
        {
          "internalType": "string",
          "name": "_transaction_type",
          "type": "string"
        },
        {
          "internalType": "uint256",
          "name": "_ethereum_value",
          "type": "uint256"
        },
        {
          "internalType": "address",
          "name": "_owner_hash",
          "type": "address"
        }
      ],
      "stateMutability": "nonpayable",
      "type": "constructor"
    },
    {
      "inputs": [],
      "name": "transaction_type",
      "outputs": [
        {
          "internalType": "string",
          "name": "",
          "type": "string"
        }
      ],
      "stateMutability": "view",
      "type": "function"
    },
    {
      "inputs": [],
      "name": "tx_hash",
      "outputs": [
        {
          "internalType": "string",
          "name": "",
          "type": "string"
        }
      ],
      "stateMutability": "view",
      "type": "function"
    }
  ],
  "bytecode": "0x608060405234801561001057600080fd5b50604051610581380380610581833981810160405281019061003291906100cd565b5050505061028d565b600061004e61004984610191565b610160565b90508281526020810184848401111561006657600080fd5b6100718482856101fd565b509392505050565b6000815190506100888161025f565b92915050565b600082601f83011261009f57600080fd5b81516100af84826020860161003b565b91505092915050565b6000815190506100c781610276565b92915050565b600080600080608085870312156100e357600080fd5b600085015167ffffffffffffffff8111156100fd57600080fd5b6101098782880161008e565b945050602085015167ffffffffffffffff81111561012657600080fd5b6101328782880161008e565b9350506040610143878288016100b8565b925050606061015487828801610079565b91505092959194509250565b6000604051905081810181811067ffffffffffffffff8211171561018757610186610230565b5b8060405250919050565b600067ffffffffffffffff8211156101ac576101ab610230565b5b601f19601f8301169050602081019050919050565b60006101cc826101d3565b9050919050565b600073ffffffffffffffffffffffffffffffffffffffff82169050919050565b6000819050919050565b60005b8381101561021b578082015181840152602081019050610200565b8381111561022a576000848401525b50505050565b7f4e487b7100000000000000000000000000000000000000000000000000000000600052604160045260246000fd5b610268816101c1565b811461027357600080fd5b50565b61027f816101f3565b811461028a57600080fd5b50565b6102e58061029c6000396000f3fe608060405234801561001057600080fd5b50600436106100365760003560e01c8063861a844d1461003b578063a6cb2bbe14610059575b600080fd5b610043610077565b60405161005091906101cc565b60405180910390f35b610061610105565b60405161006e91906101cc565b60405180910390f35b600180546100849061023d565b80601f01602080910402602001604051908101604052809291908181526020018280546100b09061023d565b80156100fd5780601f106100d2576101008083540402835291602001916100fd565b820191906000526020600020905b8154815290600101906020018083116100e057829003601f168201915b505050505081565b600080546101129061023d565b80601f016020809104026020016040519081016040528092919081815260200182805461013e9061023d565b801561018b5780601f106101605761010080835404028352916020019161018b565b820191906000526020600020905b81548152906001019060200180831161016e57829003601f168201915b505050505081565b600061019e826101ee565b6101a881856101f9565b93506101b881856020860161020a565b6101c18161029e565b840191505092915050565b600060208201905081810360008301526101e68184610193565b905092915050565b600081519050919050565b600082825260208201905092915050565b60005b8381101561022857808201518184015260208101905061020d565b83811115610237576000848401525b50505050565b6000600282049050600182168061025557607f821691505b602082108114156102695761026861026f565b5b50919050565b7f4e487b7100000000000000000000000000000000000000000000000000000000600052602260045260246000fd5b6000601f19601f830116905091905056fea2646970667358221220a8b0ee31de430f219a8035035e88b0fae7d9b922503042354b52824d09f66b6464736f6c63430008000033",
  "linkReferences": {},
  "deployedLinkReferences": {}
}